0115725624999992000020800504+99999+999999FM-15+9999KLXN V0201601N001512200019N0160931N1+00301-00601999999ADDGF100991999999999999999999MA1102841999999MW1001REMMET056KLXN 080050Z AUTO 16003KT 10SM CLR 03/M06 A3037 RMK AO1;
0115725624999992000020901504+99999+999999FM-15+9999KLXN V0202901N003612200019N0160931N1+00701-00601999999ADDGF100991999999999999999999MA1101561999999MW1001REMMET056KLXN 090150Z AUTO 29007KT 10SM CLR 07/M06 A2999 RMK AO1;
0114725624999992000021002104+99999+999999FM-15+9999KLXN V0209999C000012200019N0160931N1+00501+00101999999ADDGF100991999999999999999999MA1100641999999MW1001REMMET055KLXN 100210Z AUTO 00000KT 10SM CLR 05/01 A2972 RMK AO1;
0133725624999992000021013504+99999+999999FM-15+9999KLXN V0200101N008210012019N0080461N1-00101-00201999999ADDGD14991+0012099GF108991999999999999999999MA1101151999999MW1001REMMET059KLXN 101350Z AUTO 01016KT 5SM OVC004 M01/M02 A2987 RMK AO1;
0133725624999992000021016504+99999+999999FM-15+9999KLXN V0200201N006210030019N0160931N1+00001-00201999999ADDGD14991+0030099GF108991999999999999999999MA1101391999999MW1001REMMET059KLXN 101650Z AUTO 02012KT 10SM OVC010 00/M02 A2994 RMK AO1;
0133725624999992000021304304+99999+999999FM-15+9999KLXN V0200301N003610063019N0048281N1-00401-00701999999ADDGD14991+0063099GF108991999999999999999999MA1100751999999MW1001REMMET059KLXN 130530Z AUTO 03007KT 3SM OVC021 M04/M07 A2975 RMK AO1;
0156725624999992000021311304+99999+999999FM-15+9999KLXN V0200301N006210123019N0160931N1-00701-00901999999ADDGD13991+0123099GD24991+0150099GF108991999999999999999999MA1101021999999MW1001REMMET067KLXN 131230Z AUTO 03012KT 10SM BKN041 OVC050 M07/M09 A2983 RMK AO1;
0116725624999992000021405114+99999+999999FM-15+9999KLXN V0200701N002112200019N0160931N1-00801-01001999999ADDGF100991999999999999999999MA1101221999999MW1001REMMET057KLXN 140511Z AUTO 07004KT 10SM CLR M08/M10 A2989 RMK AO1;
0115725624999992000021506504+99999+999999FM-15+9999KLXN V0201701N005712200019N0160931N1+00401-00101999999ADDGF100991999999999999999999MA1100471999999MW1001REMMET056KLXN 150650Z AUTO 17011KT 10SM CLR 04/M01 A2967 RMK AO1;
0087725624999992000021903104+99999+999999FM-16+9999KLXN V0209999C000012200019N0008051N1+99999+99999999999ADDMA1102401999999MW1001REMMET054KLXN 190310Z AUTO 00000KT 1/2SM M12/M13 A3024 RMK AO1;
0087725624999992000021905104+99999+999999FM-16+9999KLXN V0201501N002612200019N0008051N1+99999+99999999999ADDMA1102401999999MW1001REMMET054KLXN 190510Z AUTO 15005KT 1/2SM M16/M18 A3024 RMK AO1;
0116725624999992000022009304+99999+999999FM-15+9999KLXN V0202201N002612200019N0160931N1-00701-00901999999ADDGF100991999999999999999999MA1102571999999MW1001REMMET057KLXN 201030Z AUTO 22005KT 10SM CLR M07/M09 A3029 RMK AO1;
0114725624999992000022107104+99999+999999FM-15+9999KLXN V0201101N001512200019N0112651N1+00001-00101999999ADDGF100991999999999999999999MA1101691999999MW1001REMMET055KLXN 210710Z AUTO 11003KT 7SM CLR 00/M01 A3003 RMK AO1;
0113725624999992000022206504+99999+999999FM-15+9999KLXN V0209999C000012200019N0128741N1+00201+00001999999ADDGF100991999999999999999999MA1101191999999MW1001REMMET054KLXN 220650Z AUTO 00000KT 8SM CLR 02/00 A2988 RMK AO1;
0135725624999992000022218504+99999+999999FM-15+9999KLXN V0209999C000010006019N0020111N1+00801+00701999999ADDGD14991+0006099GF108991999999999999999999MA1100881999999MW1001REMMET061KLXN 221850Z AUTO 00000KT 1 1/4SM OVC002 08/07 A2979 RMK AO1;
0142725624999992000022320504+99999+999999FM-15+9999KLXN V0203401N009310030019N0064371N1+00901+00801999999ADDGD14991+0030099GF108991999999999999999999MA1100471999999MW1001OC101341REMMET060KLXN 232050Z AUTO 34018G26KT 4SM OVC010 09/08 A2967 RMK AO1;
0135725624999992000022413504+99999+999999FM-15+9999KLXN V0202501N001510003019N0004021N1+00001-00101999999ADDGD14991+0003099GF108991999999999999999999MA1100911999999MW1001REMMET061KLXN 241350Z AUTO 25003KT M1/4SM OVC001 00/M01 A2980 RMK AO1;
0116725624999992000022707104+99999+999999FM-15+9999KLXN V0203401N001512200019N0160931N1-00401-00701999999ADDGF100991999999999999999999MA1101961999999MW1001REMMET057KLXN 270710Z AUTO 34003KT 10SM CLR M04/M07 A3011 RMK AO1;
0115725624999992000022715304+99999+999999FM-15+9999KLXN V0202901N002112200019N0160931N1+00501-00301999999ADDGF100991999999999999999999MA1102271999999MW1001REMMET056KLXN 271630Z AUTO 29004KT 10SM CLR 05/M03 A3020 RMK AO1;
0115725624999992000022810504+99999+999999FM-15+9999KLXN V0201401N004612200019N0160931N1+00301-00201999999ADDGF100991999999999999999999MA1101151999999MW1001REMMET056KLXN 281050Z AUTO 14009KT 10SM CLR 03/M02 A2987 RMK AO1;
0114725624999992000030315304+99999+999999FM-15+9999KLXN V0202901N004112200019N0160931N1+00701+00301999999ADDGF100991999999999999999999MA1102071999999MW1001REMMET055KLXN 031630Z AUTO 29008KT 10SM CLR 07/03 A3014 RMK AO1;
0114725624999992000030511104+99999+999999FM-15+9999KLXN V0201601N003112200019N0160931N1+00301+00201999999ADDGF100991999999999999999999MA1100851999999MW1001REMMET055KLXN 051110Z AUTO 16006KT 10SM CLR 03/02 A2978 RMK AO1;
0113725624999992000030514104+99999+999999FM-15+9999KLXN V0201401N002612200019N0144841N1+00301+00201999999ADDGF100991999999999999999999MA1100811999999MW1001REMMET054KLXN 051410Z AUTO 14005KT 9SM CLR 03/02 A2977 RMK AO1;
0114725624999992000030613304+99999+999999FM-15+9999KLXN V0202101N005712200019N0160931N1+00901+00101999999ADDGF100991999999999999999999MA1100751999999MW1001REMMET055KLXN 061430Z AUTO 21011KT 10SM CLR 09/01 A2975 RMK AO1;
0149725624999992000030805504+99999+999999FM-15+9999KLXN V0200601N005712200019N0160931N1+01001+00801999999ADDAA101000391GD12991+0114099GF102991999999999999999999MA1099701999999MW1001REMMET064KLXN 080550Z AUTO 06011KT 10SM FEW038 10/08 A2944 RMK AO1 P0001;
0132725624999992000030809304+99999+999999FM-15+9999KLXN V0201401N005710180019N0160931N1+00801+00601999999ADDGD13991+0180099GF107991999999999999999999MA1099421999999MW1001REMMET058KLXN 081030Z AUTO 14011KT 10SM BKN065 08/06 A2936 RMK AO1;
0134725624999992000031019104+99999+999999FM-15+9999KLXN V0200201N001510114019N0160931N1-00101-00501999999ADDGD14991+0114099GF108991999999999999999999MA1102201999999MW1001REMMET060KLXN 101910Z AUTO 02003KT 10SM OVC038 M01/M05 A3018 RMK AO1;
0126725624999992000031219304+99999+999999FM-15+9999KLXN V0203601N007212200019N0160931N1+00801-00101999999ADDGF100991999999999999999999MA1101901999999MW1001OC101181REMMET059KLXN 122030Z AUTO 36014G23KT 10SM CLR 08/M01 A3009 RMK AO1;
0143725624999992000031318104+99999+999999FM-15+9999KLXN V0201801N006712200019N0160931N1+00901+00101999999ADDGD12991+0150099GF102991999999999999999999MA1101961999999MW1001OC100931REMMET061KLXN 131810Z AUTO 18013G18KT 10SM FEW055 09/01 A3011 RMK AO1;
0148725624999992000031409504+99999+999999FM-15+9999KLXN V0203301N004610081019N0112651N1+00501+00201999999ADDAA101000891GD14991+0081099GF108991999999999999999999MA1101831999999MW1001REMMET063KLXN 140950Z AUTO 33009KT 7SM OVC027 05/02 A3007 RMK AO1 P0003;
0132725624999992000031411304+99999+999999FM-15+9999KLXN V0209999C000012200019N0160931N1+00301+00201999999ADDGD12991+0330099GF102991999999999999999999MA1101831999999MW1001REMMET058KLXN 141230Z AUTO 00000KT 10SM FEW110 03/02 A3007 RMK AO1;
0114725624999992000031621504+99999+999999FM-15+9999KLXN V0209999C000012200019N0144841N1+00501-00801999999ADDGF100991999999999999999999MA1102241999999MW1001REMMET055KLXN 162150Z AUTO 00000KT 9SM CLR 05/M08 A3019 RMK AO1;
0153725624999992000031817104+99999+999999FM-15+9999KLXN V0200201N002610018019N0024141N1+00001-00101999999ADDAA101000391GD14991+0018099GF108991999999999999999999MA1101731999999MW1001REMMET068KLXN 181710Z AUTO 02005KT 1 1/2SM OVC006 00/M01 A3004 RMK AO1 P0001;
0116725624999992000031906104+99999+999999FM-15+9999KLXN V0203001N003612200019N0160931N1-00101-00301999999ADDGF100991999999999999999999MA1101831999999MW1001REMMET057KLXN 190610Z AUTO 30007KT 10SM CLR M01/M03 A3007 RMK AO1;
0115725624999992000031915104+99999+999999FM-15+9999KLXN V0202901N003112200019N0160931N1+00101-00301999999ADDGF100991999999999999999999MA1101561999999MW1001REMMET056KLXN 191510Z AUTO 29006KT 10SM CLR 01/M03 A2999 RMK AO1;
0113725624999992000031915304+99999+999999FM-15+9999KLXN V0209999C000012200019N0144841N1+00601+00101999999ADDGF100991999999999999999999MA1101461999999MW1001REMMET054KLXN 191630Z AUTO 00000KT 9SM CLR 06/01 A2996 RMK AO1;
0114725624999992000031920304+99999+999999FM-15+9999KLXN V0201501N007712200019N0144841N1+01201-00101999999ADDGF100991999999999999999999MA1100911999999MW1001REMMET055KLXN 192130Z AUTO 15015KT 9SM CLR 12/M01 A2980 RMK AO1;
0131725624999992000032103504+99999+999999FM-15+9999KLXN V0200801N003610147019N0112651N1+00401+00101999999ADDGD14991+0147099GF108991999999999999999999MA1101801999999MW1001REMMET057KLXN 210350Z AUTO 08007KT 7SM OVC049 04/01 A3006 RMK AO1;
0132725624999992000032110304+99999+999999FM-15+9999KLXN V0200201N004110138019N0064371N1+00201-00101999999ADDGD14991+0138099GF108991999999999999999999MA1102171999999MW1001REMMET058KLXN 211130Z AUTO 02008KT 4SM OVC046 02/M01 A3017 RMK AO1;
0131725624999992000032203104+99999+999999FM-15+9999KLXN V0201201N003610045019N0080461N1+00401+00201999999ADDGD14991+0045099GF108991999999999999999999MA1102511999999MW1001REMMET057KLXN 220310Z AUTO 12007KT 5SM OVC015 04/02 A3027 RMK AO1;
0131725624999992000032217304+99999+999999FM-15+9999KLXN V0202401N003612200019N0128741N1+01001+00601999999ADDGD12991+0045099GF102991999999999999999999MA1102571999999MW1001REMMET057KLXN 221830Z AUTO 24007KT 8SM FEW015 10/06 A3029 RMK AO1;
0170725624999992000032320504+99999+999999FM-15+9999KLXN V0201501N004110024019N0080461N1+01101+00901999999ADDAA101000591GD13991+0024099GD24991+0048099GF108991999999999999999999MA1101021999999MW1001REMMET070KLXN 232050Z AUTO 15008KT 5SM BKN008 OVC016 11/09 A2983 RMK AO1 P0002;
0114725624999992000032412304+99999+999999FM-15+9999KLXN V0203101N008712200019N0160931N1+00701+00301999999ADDGF100991999999999999999999MA1101021999999MW1001REMMET055KLXN 241330Z AUTO 31017KT 10SM CLR 07/03 A2983 RMK AO1;
0115725624999992000032501504+99999+999999FM-15+9999KLXN V0203201N004112200019N0160931N1+00701-00101999999ADDGF100991999999999999999999MA1101761999999MW1001REMMET056KLXN 250150Z AUTO 32008KT 10SM CLR 07/M01 A3005 RMK AO1;
0114725624999992000032604304+99999+999999FM-15+9999KLXN V0201901N005712200019N0160931N1+01101+00501999999ADDGF100991999999999999999999MA1101561999999MW1001REMMET055KLXN 260530Z AUTO 19011KT 10SM CLR 11/05 A2999 RMK AO1;
0116725624999992000032809104+99999+999999FM-15+9999KLXN V0200501N004612200019N0160931N1-00201-00701999999ADDGF100991999999999999999999MA1100881999999MW1001REMMET057KLXN 280910Z AUTO 05009KT 10SM CLR M02/M07 A2979 RMK AO1;
0113725624999992000033006104+99999+999999FM-15+9999KLXN V0203101N002112200019N0128741N1+00301+00101999999ADDGF100991999999999999999999MA1101591999999MW1001REMMET054KLXN 300610Z AUTO 31004KT 8SM CLR 03/01 A3000 RMK AO1;
0132725624999992000033120504+99999+999999FM-15+9999KLXN V0200101N003612200019N0144841N1+00901-00301999999ADDGD12991+0150099GF104991999999999999999999MA1102441999999MW1001REMMET058KLXN 312050Z AUTO 01007KT 9SM SCT050 09/M03 A3025 RMK AO1;
0166725624999992000040121504+99999+999999FM-15+9999KLXN V0202101N005112200019N0160931N1+01301-00301999999ADDGD12991+0210099GD22991+0240099GF102991999999999999999999MA1101521999999MW1001OC100871REMMET069KLXN 012150Z AUTO 21010G17KT 10SM FEW070 FEW085 13/M03 A2998 RMK AO1;
0165725624999992000040316104+99999+999999FM-15+9999KLXN V0203501N011812200019N0144841N1+00601-00601999999ADDGD12991+0114099GD22991+0138099GF104991999999999999999999MA1102441999999MW1001OC101591REMMET068KLXN 031610Z AUTO 35023G31KT 9SM FEW038 SCT046 06/M06 A3025 RMK AO1;
0058725624999992000040619104+99999+999999FM-16+9999KLXN V0201701N007712200019N9999999N1+99999+99999999999ADDMW1001REMMET040KLXN 061910Z AUTO 17015KT A2982 RMK AO1;
0115725624999992000040912504+99999+999999FM-15+9999KLXN V0209999C000012200019N0144841N1-00201-00601999999ADDGF100991999999999999999999MA1101631999999MW1001REMMET056KLXN 091250Z AUTO 00000KT 9SM CLR M02/M06 A3001 RMK AO1;
0126725624999992000041107304+99999+999999FM-15+9999KLXN V0200101N009812200019N0160931N1+00401-00201999999ADDGF100991999999999999999999MA1102401999999MW1001OC101291REMMET059KLXN 110830Z AUTO 01019G25KT 10SM CLR 04/M02 A3024 RMK AO1;
0114725624999992000041119104+99999+999999FM-15+9999KLXN V0200901N004112200019N0144841N1+01001-00601999999ADDGF100991999999999999999999MA1102881999999MW1001REMMET055KLXN 111910Z AUTO 09008KT 9SM CLR 10/M06 A3038 RMK AO1;
0124725624999992000041719104+99999+999999FM-15+9999KLXN V0202001N006212200019N0144841N1+01601+00501999999ADDGF100991999999999999999999MA1101661999999MW1001OC100981REMMET057KLXN 171910Z AUTO 20012G19KT 9SM CLR 16/05 A3002 RMK AO1;
0143725624999992000042010304+99999+999999FM-15+9999KLXN V0203401N014910027019N0160931N1+00301+00101999999ADDGD14991+0027099GF108991999999999999999999MA1101391999999MW1001OC101901REMMET061KLXN 201130Z AUTO 34029G37KT 10SM OVC009 03/01 A2994 RMK AO1;
0142725624999992000042017104+99999+999999FM-15+9999KLXN V0203501N013410057019N0144841N1+00801+00201999999ADDGD14991+0057099GF108991999999999999999999MA1102101999999MW1001OC102011REMMET060KLXN 201710Z AUTO 35026G39KT 9SM OVC019 08/02 A3015 RMK AO1;
0113725624999992000042200504+99999+999999FM-15+9999KLXN V0201601N006212200019N0112651N1+02001+00201999999ADDGF100991999999999999999999MA1101391999999MW1001REMMET054KLXN 220050Z AUTO 16012KT 7SM CLR 20/02 A2994 RMK AO1;
0083725624999992000042322104+99999+999999FM-15+9999KLXN V0200601N005112200019N0112651N1+02201+00801999999ADDMA1100781999999MW1001REMMET050KLXN 232210Z AUTO 06010KT 7SM 22/08 A2976 RMK AO1;
0113725624999992000042505504+99999+999999FM-15+9999KLXN V0202101N002612200019N0128741N1+00901+00801999999ADDGF100991999999999999999999MA1101691999999MW1001REMMET054KLXN 250550Z AUTO 21005KT 8SM CLR 09/08 A3003 RMK AO1;
0124725624999992000042713304+99999+999999FM-15+9999KLXN V0203301N014912200019N0128741N1+01301+00001999999ADDGF100991999999999999999999MA1102031999999MW1001OC101801REMMET057KLXN 271430Z AUTO 33029G35KT 8SM CLR 13/00 A3013 RMK AO1;
0114725624999992000042807304+99999+999999FM-15+9999KLXN V0203001N004612200019N0160931N1+00301+00101999999ADDGF100991999999999999999999MA1102241999999MW1001REMMET055KLXN 280830Z AUTO 30009KT 10SM CLR 03/01 A3019 RMK AO1;
0124725624999992000043000104+99999+999999FM-15+9999KLXN V0201601N012912200019N0128741N1+02101+00901999999ADDGF100991999999999999999999MA1101321999999MW1001OC101541REMMET057KLXN 300010Z AUTO 16025G30KT 8SM CLR 21/09 A2992 RMK AO1;
0124725624999992000050116504+99999+999999FM-15+9999KLXN V0200401N005112200019N0128741N1+01401+00301999999ADDGF100991999999999999999999MA1102001999999MW1001OC101031REMMET057KLXN 011650Z AUTO 04010G20KT 8SM CLR 14/03 A3012 RMK AO1;
0113725624999992000050202104+99999+999999FM-15+9999KLXN V0201301N002612200019N0144841N1+01301+00301999999ADDGF100991999999999999999999MA1101761999999MW1001REMMET054KLXN 020210Z AUTO 13005KT 9SM CLR 13/03 A3005 RMK AO1;
0114725624999992000050406104+99999+999999FM-15+9999KLXN V0201901N006712200019N0160931N1+01501+01101999999ADDGF100991999999999999999999MA1101391999999MW1001REMMET055KLXN 040610Z AUTO 19013KT 10SM CLR 15/11 A2994 RMK AO1;
0124725624999992000050604304+99999+999999FM-15+9999KLXN V0201701N006712200019N0128741N1+01701+01301999999ADDGF100991999999999999999999MA1100911999999MW1001OC100871REMMET057KLXN 060530Z AUTO 17013G17KT 8SM CLR 17/13 A2980 RMK AO1;
0131725624999992000050618504+99999+999999FM-15+9999KLXN V0201801N002610024019N0080461N1+01901+01801999999ADDGD14991+0024099GF108991999999999999999999MA1101021999999MW1001REMMET057KLXN 061850Z AUTO 18005KT 5SM OVC008 19/18 A2983 RMK AO1;
0113725624999992000050723304+99999+999999FM-15+9999KLXN V0201701N005112200019N0080461N1+02201+01901999999ADDGF100991999999999999999999MA1100241999999MW1001REMMET054KLXN 080030Z AUTO 17010KT 5SM CLR 22/19 A2960 RMK AO1;
0114725624999992000051512304+99999+999999FM-15+9999KLXN V0201601N006212200019N0160931N1+01301+00701999999ADDGF100991999999999999999999MA1101591999999MW1001REMMET055KLXN 151330Z AUTO 16012KT 10SM CLR 13/07 A3000 RMK AO1;
0113725624999992000051523304+99999+999999FM-15+9999KLXN V0201801N005712200019N0128741N1+02201+01101999999ADDGF100991999999999999999999MA1101021999999MW1001REMMET054KLXN 160030Z AUTO 18011KT 8SM CLR 22/11 A2983 RMK AO1;
0114725624999992000051604504+99999+999999FM-15+9999KLXN V0201801N006212200019N0160931N1+01501+01101999999ADDGF100991999999999999999999MA1101051999999MW1001REMMET055KLXN 160450Z AUTO 18012KT 10SM CLR 15/11 A2984 RMK AO1;
0146725624999992000051706104+99999+999999FM-15+9999KLXN V0201001N006710009019N0040231N1+01801+01701999999ADDGD14991+0009099GF108991999999999999999999MA1100311999999MW1001OC100981REMMET064KLXN 170610Z AUTO 10013G19KT 2 1/2SM OVC003 18/17 A2962 RMK AO1;
0133725624999992000051711104+99999+999999FM-15+9999KLXN V0200901N005110003019N0008051N1+01801+01801999999ADDGD14991+0003099GF108991999999999999999999MA1100071999999MW1001REMMET059KLXN 171110Z AUTO 09010KT 1/2SM OVC001 18/18 A2955 RMK AO1;
0143725624999992000051806504+99999+999999FM-15+9999KLXN V0200101N006210300019N0160931N1+01201+00801999999ADDGD13991+0300099GF107991999999999999999999MA1099901999999MW1001OC101031REMMET061KLXN 180650Z AUTO 01012G20KT 10SM BKN100 12/08 A2950 RMK AO1;
0142725624999992000051812504+99999+999999FM-15+9999KLXN V0203401N010810027019N0032181N1+00801+00701999999ADDGD14991+0027099GF108991999999999999999999MA1101021999999MW1001OC101291REMMET060KLXN 181250Z AUTO 34021G25KT 2SM OVC009 08/07 A2983 RMK AO1;
0114725624999992000052002304+99999+999999FM-15+9999KLXN V0201701N004612200019N0160931N1+01301+00301999999ADDGF100991999999999999999999MA1101801999999MW1001REMMET055KLXN 200330Z AUTO 17009KT 10SM CLR 13/03 A3006 RMK AO1;
0113725624999992000052002504+99999+999999FM-15+9999KLXN V0201701N005712200019N0144841N1+01101+00401999999ADDGF100991999999999999999999MA1101761999999MW1001REMMET054KLXN 200250Z AUTO 17011KT 9SM CLR 11/04 A3005 RMK AO1;
0113725624999992000052010304+99999+999999FM-15+9999KLXN V0201601N002112200019N0144841N1+00801+00501999999ADDGF100991999999999999999999MA1101631999999MW1001REMMET054KLXN 201130Z AUTO 16004KT 9SM CLR 08/05 A3001 RMK AO1;
0113725624999992000052121304+99999+999999FM-15+9999KLXN V0203101N005712200019N0112651N1+02701+00701999999ADDGF100991999999999999999999MA1101221999999MW1001REMMET054KLXN 212230Z AUTO 31011KT 7SM CLR 27/07 A2989 RMK AO1;
0113725624999992000052202504+99999+999999FM-15+9999KLXN V0209999C000012200019N0128741N1+01801+00701999999ADDGF100991999999999999999999MA1101191999999MW1001REMMET054KLXN 220250Z AUTO 00000KT 8SM CLR 18/07 A2988 RMK AO1;
0124725624999992000052518104+99999+999999FM-15+9999KLXN V0201801N006712200019N0112651N1+02401+00301999999ADDGF100991999999999999999999MA1101291999999MW1001OC101291REMMET057KLXN 251810Z AUTO 18013G25KT 7SM CLR 24/03 A2991 RMK AO1;
0113725624999992000052600304+99999+999999FM-15+9999KLXN V0201501N007712200019N0112651N1+02301+00801999999ADDGF100991999999999999999999MA1100851999999MW1001REMMET054KLXN 260130Z AUTO 15015KT 7SM CLR 23/08 A2978 RMK AO1;
0131725624999992000052708504+99999+999999FM-15+9999KLXN V0203201N003610045019N0128741N1+01401+01301999999ADDGD14991+0045099GF108991999999999999999999MA1100911999999MW1001REMMET057KLXN 270850Z AUTO 32007KT 8SM OVC015 14/13 A2980 RMK AO1;
0131725624999992000053121304+99999+999999FM-15+9999KLXN V0200301N005112200019N0048281N1+02101+01801999999ADDGD12991+0042099GF102991999999999999999999MA1101121999999MW1001REMMET057KLXN 312230Z AUTO 03010KT 3SM FEW014 21/18 A2986 RMK AO1;
0113725624999992000060313504+99999+999999FM-15+9999KLXN V0201701N006212200019N0144841N1+01701+00901999999ADDGF100991999999999999999999MA1102201999999MW1001REMMET054KLXN 031350Z AUTO 17012KT 9SM CLR 17/09 A3018 RMK AO1;
0124725624999992000060320504+99999+999999FM-15+9999KLXN V0201901N008712200019N0128741N1+02801+01601999999ADDGF100991999999999999999999MA1101561999999MW1001OC101491REMMET057KLXN 032050Z AUTO 19017G29KT 8SM CLR 28/16 A2999 RMK AO1;
0124725624999992000060402104+99999+999999FM-15+9999KLXN V0201901N008712200019N0128741N1+02401+01501999999ADDGF100991999999999999999999MA1101321999999MW1001OC101131REMMET057KLXN 040210Z AUTO 19017G22KT 8SM CLR 24/15 A2992 RMK AO1;
0083725624999992000060816104+99999+999999FM-15+9999KLXN V0202001N007712200019N0112651N1+02901+01501999999ADDMA1101021999999MW1001REMMET050KLXN 081610Z AUTO 20015KT 7SM 29/15 A2983 RMK AO1;
0124725624999992000060916504+99999+999999FM-15+9999KLXN V0201801N013912200019N0112651N1+02901+01401999999ADDGF100991999999999999999999MA1100441999999MW1001OC101701REMMET057KLXN 091650Z AUTO 18027G33KT 7SM CLR 29/14 A2966 RMK AO1;
0113725624999992000061102104+99999+999999FM-15+9999KLXN V0200201N003612200019N0128741N1+02401+00701999999ADDGF100991999999999999999999MA1101251999999MW1001REMMET054KLXN 110210Z AUTO 02007KT 8SM CLR 24/07 A2990 RMK AO1;
0113725624999992000061201104+99999+999999FM-15+9999KLXN V0201401N004112200019N0112651N1+02801+01301999999ADDGF100991999999999999999999MA1101421999999MW1001REMMET054KLXN 120110Z AUTO 14008KT 7SM CLR 28/13 A2995 RMK AO1;
0192725624999992000061717504+99999+999999FM-15+9999KLXN V0202301N002112200019N0112651N1+01401+01101999999ADDAA101001091GD12991+0036099GD22991+0093099GD32991+0132099GF104991999999999999999999MA1102401999999MW1001REMMET077KLXN 171750Z AUTO 23004KT 7SM FEW012 SCT031 SCT044 14/11 A3024 RMK AO1 P0004;
0114725624999992000062115524+99999+999999FM-15+9999KLXN V0202901N005112200019N0160931N1+02201+00601999999ADDGF100991999999999999999999MA1101661999999MW1001REMMET055KLXN 211552Z AUTO 29010KT 10SM CLR 22/06 A3002 RMK AO1;
0114725624999992000062206304+99999+999999FM-15+9999KLXN V0202301N002612200019N0160931N1+01101+00901999999ADDGF100991999999999999999999MA1101421999999MW1001REMMET055KLXN 220730Z AUTO 23005KT 10SM CLR 11/09 A2995 RMK AO1;
0114725624999992000062620304+99999+999999FM-15+9999KLXN V0200401N002112200019N0160931N1+02401+00601999999ADDGF100991999999999999999999MA1102131999999MW1001REMMET055KLXN 262130Z AUTO 04004KT 10SM CLR 24/06 A3016 RMK AO1;
0132725624999992000062710504+99999+999999FM-15+9999KLXN V0203201N001510300019N0160931N1+01501+01101999999ADDGD14991+0300099GF108991999999999999999999MA1102371999999MW1001REMMET058KLXN 271050Z AUTO 32003KT 10SM OVC100 15/11 A3023 RMK AO1;
0114725624999992000063003104+99999+999999FM-15+9999KLXN V0201901N001512200019N0160931N1+01501+01101999999ADDGF100991999999999999999999MA1101491999999MW1001REMMET055KLXN 300310Z AUTO 19003KT 10SM CLR 15/11 A2997 RMK AO1;
0114725624999992000063009504+99999+999999FM-15+9999KLXN V0201701N001512200019N0160931N1+00901+00801999999ADDGF100991999999999999999999MA1101591999999MW1001REMMET055KLXN 300950Z AUTO 17003KT 10SM CLR 09/08 A3000 RMK AO1;
0113725624999992000063010304+99999+999999FM-15+9999KLXN V0209999C000012200019N0144841N1+00901+00801999999ADDGF100991999999999999999999MA1101591999999MW1001REMMET054KLXN 301130Z AUTO 00000KT 9SM CLR 09/08 A3000 RMK AO1;
0114725624999992000070211504+99999+999999FM-15+9999KLXN V0201901N003112200019N0160931N1+02001+01801999999ADDGF100991999999999999999999MA1100881999999MW1001REMMET055KLXN 021150Z AUTO 19006KT 10SM CLR 20/18 A2979 RMK AO1;
0113725624999992000070220104+99999+999999FM-15+9999KLXN V0202001N002612200019N0128741N1+03401+01901999999ADDGF100991999999999999999999MA1101021999999MW1001REMMET054KLXN 022010Z AUTO 20005KT 8SM CLR 34/19 A2983 RMK AO1;
0143725624999992000070601304+99999+999999FM-15+9999KLXN V0200901N006210042019N0160931N1+02301+02101999999ADDGD14991+0042099GF108991999999999999999999MA1101221999999MW1001OC100871REMMET061KLXN 060230Z AUTO 09012G17KT 10SM OVC014 23/21 A2989 RMK AO1;
0125725624999992000070717304+99999+999999FM-15+9999KLXN V0201701N008712200019N0160931N1+03301+01701999999ADDGF100991999999999999999999MA1101461999999MW1001OC101181REMMET058KLXN 071830Z AUTO 17017G23KT 10SM CLR 33/17 A2996 RMK AO1;
0114725624999992000070802504+99999+999999FM-15+9999KLXN V0201601N005712200019N0160931N1+02601+01701999999ADDGF100991999999999999999999MA1101351999999MW1001REMMET055KLXN 080250Z AUTO 16011KT 10SM CLR 26/17 A2993 RMK AO1;
0142725624999992000070907104+99999+999999FM-15+9999KLXN V0200701N007712200019N0160931N1+02201+01701999999ADDAA101000391GF100991999999999999999999MA1101291999999MW1001OC100981REMMET064KLXN 090710Z AUTO 07015G19KT 10SM CLR 22/17 A2991 RMK AO1 P0001;
0114725624999992000070915504+99999+999999FM-15+9999KLXN V0202101N004112200019N0160931N1+02901+01801999999ADDGF100991999999999999999999MA1100951999999MW1001REMMET055KLXN 091550Z AUTO 21008KT 10SM CLR 29/18 A2981 RMK AO1;
0113725624999992000070917104+99999+999999FM-15+9999KLXN V0201601N002112200019N0144841N1+03001+01801999999ADDGF100991999999999999999999MA1100981999999MW1001REMMET054KLXN 091710Z AUTO 16004KT 9SM CLR 30/18 A2982 RMK AO1;
0113725624999992000070923504+99999+999999FM-15+9999KLXN V0200701N004112200019N0128741N1+03301+02301999999ADDGF100991999999999999999999MA1100581999999MW1001REMMET054KLXN 092350Z AUTO 07008KT 8SM CLR 33/23 A2970 RMK AO1;
0113725624999992000071121304+99999+999999FM-15+9999KLXN V0201301N002612200019N0144841N1+03201+02201999999ADDGF100991999999999999999999MA1101351999999MW1001REMMET054KLXN 112230Z AUTO 13005KT 9SM CLR 32/22 A2993 RMK AO1;
0114725624999992000071210504+99999+999999FM-15+9999KLXN V0209999C000012200019N0160931N1+01701+01601999999ADDGF100991999999999999999999MA1101861999999MW1001REMMET055KLXN 121050Z AUTO 00000KT 10SM CLR 17/16 A3008 RMK AO1;
0114725624999992000071318104+99999+999999FM-15+9999KLXN V0201801N003612200019N0160931N1+03101+01601999999ADDGF100991999999999999999999MA1102131999999MW1001REMMET055KLXN 131810Z AUTO 18007KT 10SM CLR 31/16 A3016 RMK AO1;
0114725624999992000071411504+99999+999999FM-15+9999KLXN V0201901N002112200019N0160931N1+02101+01401999999ADDGF100991999999999999999999MA1101861999999MW1001REMMET055KLXN 141150Z AUTO 19004KT 10SM CLR 21/14 A3008 RMK AO1;
0114725624999992000071514504+99999+999999FM-15+9999KLXN V0202501N001512200019N0160931N1+02801+01701999999ADDGF100991999999999999999999MA1101391999999MW1001REMMET055KLXN 151450Z AUTO 25003KT 10SM CLR 28/17 A2994 RMK AO1;
0143725624999992000071606104+99999+999999FM-15+9999KLXN V0200201N005712200019N0160931N1+02601+01801999999ADDGD12991+0300099GF102991999999999999999999MA1101391999999MW1001OC100821REMMET061KLXN 160610Z AUTO 02011G16KT 10SM FEW100 26/18 A2994 RMK AO1;
0114725624999992000071607504+99999+999999FM-15+9999KLXN V0202201N003112200019N0160931N1+02301+01901999999ADDGF100991999999999999999999MA1101191999999MW1001REMMET055KLXN 160750Z AUTO 22006KT 10SM CLR 23/19 A2988 RMK AO1;
0143725624999992000071616104+99999+999999FM-15+9999KLXN V0202501N004610300019N0160931N1+02401+02001999999ADDGD13991+0300099GF107991999999999999999999MA1101561999999MW1001OC100721REMMET061KLXN 161610Z AUTO 25009G14KT 10SM BKN100 24/20 A2999 RMK AO1;
0114725624999992000071703504+99999+999999FM-15+9999KLXN V0200301N002612200019N0160931N1+01801+01501999999ADDGF100991999999999999999999MA1101861999999MW1001REMMET055KLXN 170350Z AUTO 03005KT 10SM CLR 18/15 A3008 RMK AO1;
0114725624999992000071823504+99999+999999FM-15+9999KLXN V0202701N001512200019N0160931N1+02901+02201999999ADDGF100991999999999999999999MA1101561999999MW1001REMMET055KLXN 182350Z AUTO 27003KT 10SM CLR 29/22 A2999 RMK AO1;
0114725624999992000071921104+99999+999999FM-15+9999KLXN V0201101N004612200019N0160931N1+02601+01801999999ADDGF100991999999999999999999MA1101931999999MW1001REMMET055KLXN 192110Z AUTO 11009KT 10SM CLR 26/18 A3010 RMK AO1;
0114725624999992000072305104+99999+999999FM-15+9999KLXN V0200901N004612200019N0160931N1+01801+01601999999ADDGF100991999999999999999999MA1102201999999MW1001REMMET055KLXN 230510Z AUTO 09009KT 10SM CLR 18/16 A3018 RMK AO1;
0114725624999992000072309504+99999+999999FM-15+9999KLXN V0201201N003612200019N0160931N1+01701+01601999999ADDGF100991999999999999999999MA1102171999999MW1001REMMET055KLXN 230950Z AUTO 12007KT 10SM CLR 17/16 A3017 RMK AO1;
0125725624999992000072404504+99999+999999FM-15+9999KLXN V0201601N005712200019N0160931N1+02201+01801999999ADDGF100991999999999999999999MA1101801999999MW1001OC100931REMMET058KLXN 240450Z AUTO 16011G18KT 10SM CLR 22/18 A3006 RMK AO1;
0125725624999992000072410304+99999+999999FM-15+9999KLXN V0201701N006212200019N0160931N1+01901+01701999999ADDGF100991999999999999999999MA1101561999999MW1001OC101031REMMET058KLXN 241130Z AUTO 17012G20KT 10SM CLR 19/17 A2999 RMK AO1;
0114725624999992000072520504+99999+999999FM-15+9999KLXN V0201701N003112200019N0160931N1+02901+02101999999ADDGF100991999999999999999999MA1101461999999MW1001REMMET055KLXN 252050Z AUTO 17006KT 10SM CLR 29/21 A2996 RMK AO1;
0125725624999992000072702504+99999+999999FM-15+9999KLXN V0202401N006212200019N0160931N1+02701+01801999999ADDGF100991999999999999999999MA1101391999999MW1001OC101081REMMET058KLXN 270250Z AUTO 24012G21KT 10SM CLR 27/18 A2994 RMK AO1;
0153725624999992000072715504+99999+999999FM-15+9999KLXN V0201101N005112200019N0080461N1+02401+02101999999ADDGD12991+0024099GD22991+0042099GF104991999999999999999999MA1101591999999MW1001REMMET064KLXN 271550Z AUTO 11010KT 5SM SCT008 SCT014 24/21 A3000 RMK AO1;
0114725624999992000072717304+99999+999999FM-15+9999KLXN V0201501N003112200019N0160931N1+02801+02301999999ADDGF100991999999999999999999MA1101591999999MW1001REMMET055KLXN 271830Z AUTO 15006KT 10SM CLR 28/23 A3000 RMK AO1;
0114725624999992000072800104+99999+999999FM-15+9999KLXN V0201001N005112200019N0160931N1+02901+02301999999ADDGF100991999999999999999999MA1101461999999MW1001REMMET055KLXN 280010Z AUTO 10010KT 10SM CLR 29/23 A2996 RMK AO1;
0114725624999992000072812104+99999+999999FM-15+9999KLXN V0203001N002612200019N0160931N1+01901+01701999999ADDGF100991999999999999999999MA1101691999999MW1001REMMET055KLXN 281210Z AUTO 30005KT 10SM CLR 19/17 A3003 RMK AO1;
0114725624999992000072819504+99999+999999FM-15+9999KLXN V0200301N002112200019N0160931N1+02301+01901999999ADDGF100991999999999999999999MA1101801999999MW1001REMMET055KLXN 281950Z AUTO 03004KT 10SM CLR 23/19 A3006 RMK AO1;
0113725624999992000080307104+99999+999999FM-15+9999KLXN V0202401N002112200019N0128741N1+02101+01901999999ADDGF100991999999999999999999MA1101661999999MW1001REMMET054KLXN 030710Z AUTO 24004KT 8SM CLR 21/19 A3002 RMK AO1;
0114725624999992000080706304+99999+999999FM-15+9999KLXN V0201601N002612200019N0160931N1+02001+01701999999ADDGF100991999999999999999999MA1101351999999MW1001REMMET055KLXN 070730Z AUTO 16005KT 10SM CLR 20/17 A2993 RMK AO1;
0113725624999992000080722304+99999+999999FM-15+9999KLXN V0201901N006212200019N0128741N1+03601+01401999999ADDGF100991999999999999999999MA1100811999999MW1001REMMET054KLXN 072330Z AUTO 19012KT 8SM CLR 36/14 A2977 RMK AO1;
0113725624999992000080723304+99999+999999FM-15+9999KLXN V0201701N004112200019N0144841N1+03401+01501999999ADDGF100991999999999999999999MA1100711999999MW1001REMMET054KLXN 080030Z AUTO 17008KT 9SM CLR 34/15 A2974 RMK AO1;
0114725624999992000081109304+99999+999999FM-15+9999KLXN V0201301N003112200019N0160931N1+02001+01701999999ADDGF100991999999999999999999MA1101801999999MW1001REMMET055KLXN 111030Z AUTO 13006KT 10SM CLR 20/17 A3006 RMK AO1;
0113725624999992000081300504+99999+999999FM-15+9999KLXN V0200801N004112200019N0144841N1+03301+02101999999ADDGF100991999999999999999999MA1101221999999MW1001REMMET054KLXN 130050Z AUTO 08008KT 9SM CLR 33/21 A2989 RMK AO1;
0113725624999992000081608304+99999+999999FM-15+9999KLXN V0201301N007212200019N0144841N1+02301+02101999999ADDGF100991999999999999999999MA1101931999999MW1001REMMET054KLXN 160930Z AUTO 13014KT 9SM CLR 23/21 A3010 RMK AO1;
0114725624999992000081715104+99999+999999FM-15+9999KLXN V0200101N007712200019N0160931N1+02101+01401999999ADDGF100991999999999999999999MA1102171999999MW1001REMMET055KLXN 171510Z AUTO 01015KT 10SM CLR 21/14 A3017 RMK AO1;
0131725624999992000082007304+99999+999999FM-15+9999KLXN V0201201N002610003019N0016091N1+01701+01601999999ADDGD14991+0003099GF108991999999999999999999MA1101631999999MW1001REMMET057KLXN 200830Z AUTO 12005KT 1SM OVC001 17/16 A3001 RMK AO1;
0133725624999992000082009104+99999+999999FM-15+9999KLXN V0201101N003610003019N0004021N1+01701+01601999999ADDGD14991+0003099GF108991999999999999999999MA1101631999999MW1001REMMET059KLXN 200910Z AUTO 11007KT 1/4SM OVC001 17/16 A3001 RMK AO1;
0114725624999992000082215304+99999+999999FM-15+9999KLXN V0202001N005712200019N0160931N1+02401+01901999999ADDGF100991999999999999999999MA1101861999999MW1001REMMET055KLXN 221530Z AUTO 20011KT 10SM CLR 24/19 A3008 RMK AO1;
0175725624999992000082711104+99999+999999FM-15+9999KLXN V0201401N006212200019N0080461N1+02101+01901999999ADDGD12991+0108099GD22991+0129099GD32991+0147099GF104991999999999999999999MA1101151999999MW1001REMMET071KLXN 271110Z AUTO 14012KT 5SM FEW036 FEW043 SCT049 21/19 A2987 RMK AO1;
0114725624999992000083002504+99999+999999FM-15+9999KLXN V0200801N004112200019N0160931N1+01901+01601999999ADDGF100991999999999999999999MA1101391999999MW1001REMMET055KLXN 300250Z AUTO 08008KT 10SM CLR 19/16 A2994 RMK AO1;
0114725624999992000083106104+99999+999999FM-15+9999KLXN V0201801N006712200019N0160931N1+02501+01201999999ADDGF100991999999999999999999MA1100781999999MW1001REMMET055KLXN 310610Z AUTO 18013KT 10SM CLR 25/12 A2976 RMK AO1;
0125725624999992000083111504+99999+999999FM-15+9999KLXN V0200201N005712200019N0160931N1+01801+01501999999ADDGF100991999999999999999999MA1101081999999MW1001OC100771REMMET058KLXN 311150Z AUTO 02011G15KT 10SM CLR 18/15 A2985 RMK AO1;
0132725624999992000090114104+99999+999999FM-15+9999KLXN V0200601N002110015019N0160931N1+01601+01401999999ADDGD14991+0015099GF108991999999999999999999MA1101731999999MW1001REMMET058KLXN 011410Z AUTO 06004KT 10SM OVC005 16/14 A3004 RMK AO1;
0114725624999992000090121104+99999+999999FM-15+9999KLXN V0201501N003612200019N0160931N1+02601+01901999999ADDGF100991999999999999999999MA1101491999999MW1001REMMET055KLXN 012110Z AUTO 15007KT 10SM CLR 26/19 A2997 RMK AO1;
0114725624999992000090319504+99999+999999FM-15+9999KLXN V0201201N007712200019N0160931N1+03301+01701999999ADDGF100991999999999999999999MA1101321999999MW1001REMMET055KLXN 031950Z AUTO 12015KT 10SM CLR 33/17 A2992 RMK AO1;
0125725624999992000090613104+99999+999999FM-15+9999KLXN V0201701N009312200019N0160931N1+01801+01101999999ADDGF100991999999999999999999MA1101591999999MW1001OC101181REMMET058KLXN 061310Z AUTO 17018G23KT 10SM CLR 18/11 A3000 RMK AO1;
0124725624999992000090622504+99999+999999FM-15+9999KLXN V0201401N009312200019N0112651N1+03401+01601999999ADDGF100991999999999999999999MA1101021999999MW1001OC101131REMMET057KLXN 062250Z AUTO 14018G22KT 7SM CLR 34/16 A2983 RMK AO1;
0114725624999992000090812534+99999+999999FM-15+9999KLXN V0209999C000012200019N0160931N1+01101+00901999999ADDGF100991999999999999999999MA1101521999999MW1001REMMET055KLXN 081253Z AUTO 00000KT 10SM CLR 11/09 A2998 RMK AO1;
0114725624999992000090907504+99999+999999FM-15+9999KLXN V0201801N005712200019N0160931N1+02401+01301999999ADDGF100991999999999999999999MA1100541999999MW1001REMMET055KLXN 090750Z AUTO 18011KT 10SM CLR 24/13 A2969 RMK AO1;
0114725624999992000091016504+99999+999999FM-15+9999KLXN V0202701N002612200019N0160931N1+02401+00901999999ADDGF100991999999999999999999MA1101121999999MW1001REMMET055KLXN 101650Z AUTO 27005KT 10SM CLR 24/09 A2986 RMK AO1;
0114725624999992000091106104+99999+999999FM-15+9999KLXN V0201301N001512200019N0160931N1+01801+00801999999ADDGF100991999999999999999999MA1100711999999MW1001REMMET055KLXN 110610Z AUTO 13003KT 10SM CLR 18/08 A2974 RMK AO1;
0114725624999992000091210104+99999+999999FM-15+9999KLXN V0203601N003612200019N0160931N1+00701+00601999999ADDGF100991999999999999999999MA1101801999999MW1001REMMET055KLXN 121010Z AUTO 36007KT 10SM CLR 07/06 A3006 RMK AO1;
0114725624999992000091312304+99999+999999FM-15+9999KLXN V0201601N003612200019N0160931N1+01601+00601999999ADDGF100991999999999999999999MA1101661999999MW1001REMMET055KLXN 131230Z AUTO 16007KT 10SM CLR 16/06 A3002 RMK AO1;
0114725624999992000091511504+99999+999999FM-15+9999KLXN V0200601N002612200019N0160931N1+00701+00401999999ADDGF100991999999999999999999MA1102541999999MW1001REMMET055KLXN 151150Z AUTO 06005KT 10SM CLR 07/04 A3028 RMK AO1;
0125725624999992000091523504+99999+999999FM-15+9999KLXN V0201601N006212200019N0160931N1+02601+00501999999ADDGF100991999999999999999999MA1101861999999MW1001OC100871REMMET058KLXN 152350Z AUTO 16012G17KT 10SM CLR 26/05 A3008 RMK AO1;
0114725624999992000091815104+99999+999999FM-15+9999KLXN V0202001N005112200019N0160931N1+02301+00501999999ADDGF100991999999999999999999MA1100951999999MW1001REMMET055KLXN 181510Z AUTO 20010KT 10SM CLR 23/05 A2981 RMK AO1;
0113725624999992000091822504+99999+999999FM-15+9999KLXN V0202001N002612200019N0128741N1+03201+00801999999ADDGF100991999999999999999999MA1100471999999MW1001REMMET054KLXN 182250Z AUTO 20005KT 8SM CLR 32/08 A2967 RMK AO1;
0131725624999992000091921104+99999+999999FM-15+9999KLXN V0200301N004112200019N0144841N1+01401+01001999999ADDGD12991+0105099GF102991999999999999999999MA1100951999999MW1001REMMET057KLXN 192110Z AUTO 03008KT 9SM FEW035 14/10 A2981 RMK AO1;
0114725624999992000092102504+99999+999999FM-15+9999KLXN V0209999C000012200019N0160931N1+00801+00301999999ADDGF100991999999999999999999MA1101691999999MW1001REMMET055KLXN 210250Z AUTO 00000KT 10SM CLR 08/03 A3003 RMK AO1;
0114725624999992000092210504+99999+999999FM-15+9999KLXN V0203601N003612200019N0160931N1+01101+00901999999ADDGF100991999999999999999999MA1100271999999MW1001REMMET055KLXN 221050Z AUTO 36007KT 10SM CLR 11/09 A2961 RMK AO1;
0143725624999992000092313104+99999+999999FM-15+9999KLXN V0200201N008710033019N0160931N1+00401+00101999999ADDGD14991+0033099GF108991999999999999999999MA1101861999999MW1001OC101081REMMET061KLXN 231310Z AUTO 02017G21KT 10SM OVC011 04/01 A3008 RMK AO1;
0153725624999992000092416504+99999+999999FM-15+9999KLXN V0200101N006210027019N0080461N1+00301+00101999999ADDGD13991+0027099GD24991+0042099GF108991999999999999999999MA1102541999999MW1001REMMET064KLXN 241650Z AUTO 01012KT 5SM BKN009 OVC014 03/01 A3028 RMK AO1;
0114725624999992000092607504+99999+999999FM-15+9999KLXN V0202001N001512200019N0160931N1+00601+00101999999ADDGF100991999999999999999999MA1102001999999MW1001REMMET055KLXN 260750Z AUTO 20003KT 10SM CLR 06/01 A3012 RMK AO1;
0114725624999992000092618304+99999+999999FM-15+9999KLXN V0203101N003112200019N0160931N1+02201+00401999999ADDGF100991999999999999999999MA1101931999999MW1001REMMET055KLXN 261830Z AUTO 31006KT 10SM CLR 22/04 A3010 RMK AO1;
0114725624999992000100111304+99999+999999FM-15+9999KLXN V0209999C000012200019N0160931N1+00901+00701999999ADDGF100991999999999999999999MA1100511999999MW1001REMMET055KLXN 011130Z AUTO 00000KT 10SM CLR 09/07 A2968 RMK AO1;
0113725624999992000100301504+99999+999999FM-15+9999KLXN V0201301N002612200019N9999999N1+01701+00801999999ADDGF100991999999999999999999MA1101081999999MW1001REMMET054KLXN 030150Z AUTO 13005KT 3SM CLR 17/08 A2985 RMK AO1;
0114725624999992000100322304+99999+999999FM-15+9999KLXN V0200501N006712200019N0160931N1+02201+00901999999ADDGF100991999999999999999999MA1101291999999MW1001REMMET055KLXN 032230Z AUTO 05013KT 10SM CLR 22/09 A2991 RMK AO1;
0132725624999992000100503304+99999+999999FM-15+9999KLXN V0200901N005110084019N0160931N1+00901+00601999999ADDGD14991+0084099GF108991999999999999999999MA1101421999999MW1001REMMET058KLXN 050330Z AUTO 09010KT 10SM OVC028 09/06 A2995 RMK AO1;
0116725624999992000100705304+99999+999999FM-15+9999KLXN V0200501N002112200019N0160931N1-00401-00801999999ADDGF100991999999999999999999MA1103451999999MW1001REMMET057KLXN 070530Z AUTO 05004KT 10SM CLR M04/M08 A3055 RMK AO1;
0115725624999992000100818304+99999+999999FM-15+9999KLXN V0202101N004612200019N0160931N1+00701-00701999999ADDGF100991999999999999999999MA1103731999999MW1001REMMET056KLXN 081830Z AUTO 21009KT 10SM CLR 07/M07 A3063 RMK AO1;
0115725624999992000100818504+99999+999999FM-15+9999KLXN V0201901N004112200019N0160931N1+00801-00701999999ADDGF100991999999999999999999MA1103661999999MW1001REMMET056KLXN 081850Z AUTO 19008KT 10SM CLR 08/M07 A3061 RMK AO1;
0115725624999992000100914104+99999+999999FM-15+9999KLXN V0201901N005112200019N0160931N1+00101-00701999999ADDGF100991999999999999999999MA1103051999999MW1001REMMET056KLXN 091410Z AUTO 19010KT 10SM CLR 01/M07 A3043 RMK AO1;
0115725624999992000101100304+99999+999999FM-15+9999KLXN V0201601N007712200019N0160931N1+01301-00201999999ADDGF100991999999999999999999MA1101591999999MW1001REMMET056KLXN 110030Z AUTO 16015KT 10SM CLR 13/M02 A3000 RMK AO1;
0114725624999992000101201104+99999+999999FM-15+9999KLXN V0201501N007712200019N0160931N1+01701+00601999999ADDGF100991999999999999999999MA1101351999999MW1001REMMET055KLXN 120110Z AUTO 15015KT 10SM CLR 17/06 A2993 RMK AO1;
0114725624999992000101306504+99999+999999FM-15+9999KLXN V0201701N006712200019N0160931N1+01601+01201999999ADDGF100991999999999999999999MA1101081999999MW1001REMMET055KLXN 130650Z AUTO 17013KT 10SM CLR 16/12 A2985 RMK AO1;
0114725624999992000101605504+99999+999999FM-15+9999KLXN V0201501N003112200019N0160931N1+01001+00301999999ADDGF100991999999999999999999MA1101961999999MW1001REMMET055KLXN 160550Z AUTO 15006KT 10SM CLR 10/03 A3011 RMK AO1;
0114725624999992000101704504+99999+999999FM-15+9999KLXN V0202901N004112200019N0160931N1+00501+00101999999ADDGF100991999999999999999999MA1102001999999MW1001REMMET055KLXN 170450Z AUTO 29008KT 10SM CLR 05/01 A3012 RMK AO1;
0114725624999992000102003504+99999+999999FM-15+9999KLXN V0201801N005712200019N0160931N1+01601+00501999999ADDGF100991999999999999999999MA1101391999999MW1001REMMET055KLXN 200350Z AUTO 18011KT 10SM CLR 16/05 A2994 RMK AO1;
0114725624999992000102006104+99999+999999FM-15+9999KLXN V0201701N003112200019N0160931N1+01401+00501999999ADDGF100991999999999999999999MA1101351999999MW1001REMMET055KLXN 200610Z AUTO 17006KT 10SM CLR 14/05 A2993 RMK AO1;
0114725624999992000102022504+99999+999999FM-15+9999KLXN V0200801N005112200019N0160931N1+02001+00101999999ADDGF100991999999999999999999MA1101731999999MW1001REMMET055KLXN 202250Z AUTO 08010KT 10SM CLR 20/01 A3004 RMK AO1;
0143725624999992000102512304+99999+999999FM-15+9999KLXN V0201701N006712200019N0160931N1+01501+01301999999ADDGD12991+0093099GF104991999999999999999999MA1101421999999MW1001OC100981REMMET061KLXN 251230Z AUTO 17013G19KT 10SM SCT031 15/13 A2995 RMK AO1;
0114725624999992000102607504+99999+999999FM-15+9999KLXN V0202601N002612200019N0160931N1+00701+00401999999ADDGF100991999999999999999999MA1101221999999MW1001REMMET055KLXN 260750Z AUTO 26005KT 10SM CLR 07/04 A2989 RMK AO1;
0131725624999992000102709304+99999+999999FM-15+9999KLXN V0200501N004112200019N0144841N1+00801+00501999999ADDGD12991+0039099GF102991999999999999999999MA1101831999999MW1001REMMET057KLXN 270930Z AUTO 05008KT 9SM FEW013 08/05 A3007 RMK AO1;
0159725624999992000102905104+99999+999999FM-15+9999KLXN V0201301N012310024019N0064371N1+01701+01501999999ADDAA101000391GD14991+0024099GF108991999999999999999999MA1101081999999MW1001OC101651REMMET066KLXN 290510Z AUTO 13024G32KT 4SM OVC008 17/15 A2985 RMK AO1 P0001;
0114725624999992000103102504+99999+999999FM-15+9999KLXN V0201201N005712200019N0160931N1+01301+00901999999ADDGF100991999999999999999999MA1101351999999MW1001REMMET055KLXN 310250Z AUTO 12011KT 10SM CLR 13/09 A2993 RMK AO1;
0126725624999992000110201504+99999+999999FM-15+9999KLXN V0203001N007712200019N0160931N1+00801-00101999999ADDGF100991999999999999999999MA1100781999999MW1001OC101031REMMET059KLXN 020150Z AUTO 30015G20KT 10SM CLR 08/M01 A2976 RMK AO1;
0115725624999992000110410504+99999+999999FM-15+9999KLXN V0203201N002112200019N0160931N1+00001-00201999999ADDGF100991999999999999999999MA1102001999999MW1001REMMET056KLXN 041050Z AUTO 32004KT 10SM CLR 00/M02 A3012 RMK AO1;
0125725624999992000110422104+99999+999999FM-15+9999KLXN V0202001N007212200019N0160931N1+01501+00701999999ADDGF100991999999999999999999MA1101291999999MW1001OC100871REMMET058KLXN 042210Z AUTO 20014G17KT 10SM CLR 15/07 A2991 RMK AO1;
0132725624999992000110500504+99999+999999FM-15+9999KLXN V0201801N005712200019N0160931N1+01101+00701999999ADDGD12991+0096099GF102991999999999999999999MA1101081999999MW1001REMMET058KLXN 050050Z AUTO 18011KT 10SM FEW032 11/07 A2985 RMK AO1;
0143725624999992000110508304+99999+999999FM-15+9999KLXN V0201701N006210024019N0160931N1+01101+00801999999ADDGD14991+0024099GF108991999999999999999999MA1100371999999MW1001OC100981REMMET061KLXN 050830Z AUTO 17012G19KT 10SM OVC008 11/08 A2964 RMK AO1;
0144725624999992000110623104+99999+999999FM-15+9999KLXN V0203201N009810042019N0080461N1-00201-00501999999ADDGD13991+0042099GF107991999999999999999999MA1100271999999MW1001OC101181REMMET062KLXN 062310Z AUTO 32019G23KT 5SM BKN014 M02/M05 A2961 RMK AO1;
0144725624999992000110706304+99999+999999FM-15+9999KLXN V0203101N009810036019N0080461N1-00501-00801999999ADDGD13991+0036099GF107991999999999999999999MA1100641999999MW1001OC101391REMMET062KLXN 070630Z AUTO 31019G27KT 5SM BKN012 M05/M08 A2972 RMK AO1;
0116725624999992000111008104+99999+999999FM-15+9999KLXN V0200501N001512200019N0160931N1-00801-01101999999ADDGF100991999999999999999999MA1101831999999MW1001REMMET057KLXN 100810Z AUTO 05003KT 10SM CLR M08/M11 A3007 RMK AO1;
0134725624999992000111018104+99999+999999FM-15+9999KLXN V0200701N002610150019N0160931N1-00501-00801999999ADDGD14991+0150099GF108991999999999999999999MA1102071999999MW1001REMMET060KLXN 101810Z AUTO 07005KT 10SM OVC050 M05/M08 A3014 RMK AO1;
0086725624999992000111508504+99999+999999FM-15+9999KLXN V0209999C000012200019N0160931N1+99999+99999999999ADDMA1101151999999MW1001REMMET053KLXN 150850Z AUTO 00000KT 10SM M16/M18 A2987 RMK AO1;
0086725624999992000111801504+99999+999999FM-15+9999KLXN V0202801N003112200019N0160931N1+99999+99999999999ADDMA1102201999999MW1001REMMET053KLXN 180150Z AUTO 28006KT 10SM M10/M12 A3018 RMK AO1;
0086725624999992000111816304+99999+999999FM-15+9999KLXN V0202701N006212200019N0160931N1+99999+99999999999ADDMA1102031999999MW1001REMMET053KLXN 181630Z AUTO 27012KT 10SM M06/M11 A3013 RMK AO1;
0086725624999992000112214304+99999+999999FM-15+9999KLXN V0209999C000012200019N0160931N1+99999+99999999999ADDMA1102271999999MW1001REMMET053KLXN 221430Z AUTO 00000KT 10SM M10/M11 A3020 RMK AO1;
0085725624999992000112222504+99999+999999FM-15+9999KLXN V0201301N003112200019N0160931N1+00101-00301999999ADDMA1101801999999MW1001REMMET052KLXN 222250Z AUTO 13006KT 10SM 01/M03 A3006 RMK AO1;
0086725624999992000112406104+99999+999999FM-16+9999KLXN V0203101N003112200019N0160931N1+99999+99999999999ADDMA1102001999999MW1001REMMET053KLXN 240610Z AUTO 31006KT 10SM M10/M12 A3012 RMK AO1;
0086725624999992000112408104+99999+999999FM-16+9999KLXN V0202701N002612200019N0160931N1+99999+99999999999ADDMA1101961999999MW1001REMMET053KLXN 240810Z AUTO 27005KT 10SM M11/M12 A3011 RMK AO1;
0085725624999992000112418304+99999+999999FM-15+9999KLXN V0202801N002612200019N0160931N1+00101-00301999999ADDMA1101731999999MW1001REMMET052KLXN 241830Z AUTO 28005KT 10SM 01/M03 A3004 RMK AO1;
0086725624999992000112604104+99999+999999FM-16+9999KLXN V0203001N004112200019N0160931N1+99999+99999999999ADDMA1101561999999MW1001REMMET053KLXN 260410Z AUTO 30008KT 10SM M04/M06 A2999 RMK AO1;
0086725624999992000112708504+99999+999999FM-15+9999KLXN V0203001N005112200019N0160931N1+99999+99999999999ADDMA1101691999999MW1001REMMET053KLXN 270850Z AUTO 30010KT 10SM M03/M06 A3003 RMK AO1;
0086725624999992000112710104+99999+999999FM-16+9999KLXN V0202901N004112200019N0160931N1+99999+99999999999ADDMA1101691999999MW1001REMMET053KLXN 271010Z AUTO 29008KT 10SM M04/M06 A3003 RMK AO1;
0086725624999992000112811304+99999+999999FM-15+9999KLXN V0202801N001512200019N0160931N1+99999+99999999999ADDMA1101121999999MW1001REMMET053KLXN 281130Z AUTO 28003KT 10SM M01/M03 A2986 RMK AO1;
0127725624999992000120105504+99999+999999FM-15+9999KLXN V0203301N011812200019N0160931N1-00401-00801999999ADDGF100991999999999999999999MA1102001999999MW1001OC101651REMMET060KLXN 010550Z AUTO 33023G32KT 10SM CLR M04/M08 A3012 RMK AO1;
0133725624999992000120215504+99999+999999FM-15+9999KLXN V0201401N005110018019N0080461N1-00301-00501999999ADDGD14991+0018099GF108991999999999999999999MA1103521999999MW1001REMMET059KLXN 021550Z AUTO 14010KT 5SM OVC006 M03/M05 A3057 RMK AO1;
0134725624999992000120219104+99999+999999FM-15+9999KLXN V0201601N005710030019N0160931N1-00301-00501999999ADDGD14991+0030099GF108991999999999999999999MA1103351999999MW1001REMMET060KLXN 021910Z AUTO 16011KT 10SM OVC010 M03/M05 A3052 RMK AO1;
0134725624999992000120522104+99999+999999FM-15+9999KLXN V0201101N004110024019N0160931N1-00201-00401999999ADDGD14991+0024099GF108991999999999999999999MA1101961999999MW1001REMMET060KLXN 052210Z AUTO 11008KT 10SM OVC008 M02/M04 A3011 RMK AO1;
0132725624999992000120718504+99999+999999FM-15+9999KLXN V0203001N006212200019N0160931N1+00801+00001999999ADDGD12991+0300099GF102991999999999999999999MA1100911999999MW1001REMMET058KLXN 071850Z AUTO 30012KT 10SM FEW100 08/00 A2980 RMK AO1;
0116725624999992000120808304+99999+999999FM-15+9999KLXN V0202701N003612200019N0160931N1-00301-00401999999ADDGF100991999999999999999999MA1102271999999MW1001REMMET057KLXN 080830Z AUTO 27007KT 10SM CLR M03/M04 A3020 RMK AO1;
0134725624999992000121022104+99999+999999FM-15+9999KLXN V0200401N007210087019N0160931N1-01401-01801999999ADDGD14991+0087099GF108991999999999999999999MA1102131999999MW1001REMMET060KLXN 102210Z AUTO 04014KT 10SM OVC029 M14/M18 A3016 RMK AO1;
0116725624999992000121914104+99999+999999FM-15+9999KLXN V0209999C000012200019N0160931N1-01601-01801999999ADDGF100991999999999999999999MA1102201999999MW1001REMMET057KLXN 191410Z AUTO 00000KT 10SM CLR M16/M18 A3018 RMK AO1;
0115725624999992000121923104+99999+999999FM-15+9999KLXN V0201501N004112200019N0160931N1+00101-00501999999ADDGF100991999999999999999999MA1101121999999MW1001REMMET056KLXN 192310Z AUTO 15008KT 10SM CLR 01/M05 A2986 RMK AO1;
0116725624999992000122123104+99999+999999FM-15+9999KLXN V0209999C000012200019N0160931N1-01001-01701999999ADDGF100991999999999999999999MA1102511999999MW1001REMMET057KLXN 212310Z AUTO 00000KT 10SM CLR M10/M17 A3027 RMK AO1;
0116725624999992000122205504+99999+999999FM-15+9999KLXN V0201301N002112200019N0160931N1-01501-01901999999ADDGF100991999999999999999999MA1102441999999MW1001REMMET057KLXN 220550Z AUTO 13004KT 10SM CLR M15/M19 A3025 RMK AO1;
0116725624999992000122206504+99999+999999FM-15+9999KLXN V0201101N002112200019N0160931N1-01701-02001999999ADDGF100991999999999999999999MA1102371999999MW1001REMMET057KLXN 220650Z AUTO 11004KT 10SM CLR M17/M20 A3023 RMK AO1;
0116725624999992000122222504+99999+999999FM-15+9999KLXN V0201301N004612200019N0160931N1-00501-01001999999ADDGF100991999999999999999999MA1101291999999MW1001REMMET057KLXN 222250Z AUTO 13009KT 10SM CLR M05/M10 A2991 RMK AO1;
0178725624999992000122515104+99999+999999FM-15+9999KLXN V0200801N004110084019N0160931N1-01201-01501999999ADDGD12991+0003099GD23991+0084099GD34991+0126099GF108991999999999999999999MA1103151999999MW1001REMMET074KLXN 251510Z AUTO 08008KT 10SM FEW001 BKN028 OVC042 M12/M15 A3046 RMK AO1;
0115725624999992000122816104+99999+999999FM-15+9999KLXN V0203101N007712200019N0160931N1+00401-00301999999ADDGF100991999999999999999999MA1101901999999MW1001REMMET056KLXN 281610Z AUTO 31015KT 10SM CLR 04/M03 A3009 RMK AO1;
0145725624999992000122914504+99999+999999FM-15+9999KLXN V0203401N009810096019N0160931N1-00201-00901999999ADDGD13991+0096099GF107991999999999999999999MA1102541999999MW1001OC101291REMMET063KLXN 291450Z AUTO 34019G25KT 10SM BKN032 M02/M09 A3028 RMK AO1;
0156725624999992000122919304+99999+999999FM-15+9999KLXN V0203501N007210108019N0160931N1-00101-00801999999ADDGD13991+0108099GD23991+0129099GF107991999999999999999999MA1102511999999MW1001REMMET067KLXN 291930Z AUTO 35014KT 10SM BKN036 BKN043 M01/M08 A3027 RMK AO1;
0054725625999992000010113009+40200-100583NSRDB+078699999V020999999999999999999999999999+99999+99999999999ADDGP10060000002000000002000000002000GR100600000900009
0226725625999992000010322534+40200-100580FM-15+0786KMCK V0203301N009310210019N0160931N1-00601-01201102481ADDGD13991+0210019GD24991+0300019GF108991999999999999999999MA1102131999999MW1001OC101231REMMET110KMCK 032253Z AUTO 33018G24KT 10SM BKN075 OVC100 M06/M12 A3016 RMK AO2 PK WND 34031/2155 SLP248 T10611117 TSNO;EQDQ01+000000PRSWM2
0054725625999992000010703009+40200-100583NSRDB+078699999V020999999999999999999999999999+99999+99999999999ADDGP10060000002000000002000000002000GR100600000900009
0225725625999992000010705534+40200-100580FM-15+0786KMCK V0202601N003612200019N0160931N1-00601-01101103041ADDGF100991999999999999999999KA1999M+00171KA2999N-00781MA1102781999999MD1510011+9999MW1001REMMET107KMCK 070553Z AUTO 26007KT 10SM CLR M06/M11 A3035 RMK AO2 SLP304 T10561111 10017 21078 400721083 55001 TSNO;EQDQ01+000000PRSWM2
0157725625999992000010813534+40200-100580FM-15+0786KMCK V0202801N003112200019N0160931N1-00601-00801101641ADDGF100991999999999999999999MA1101391999999MW1001REMMET079KMCK 081353Z AUTO 28006KT 10SM CLR M06/M08 A2994 RMK AO2 SLP164 T10561083 TSNO;EQDQ01+000000PRSWM2
0071725625999992000011019009+40200-100583NSRDB+078699999V020999999999999999999999999999+99999+99999999999ADDGP10060042102009051802021018002009GQ100600624917489GR100600654914159
0185725625999992000011221534+40200-100580FM-15+0786KMCK V0203101N008712200019N0160931N1+01401-01201101541ADDGF100991999999999999999999MA1101421999999MW1001OC101181REMMET099KMCK 122153Z AUTO 31017G23KT 10SM CLR 14/M12 A2995 RMK AO2 PK WND 32035/2055 SLP154 T01441117 TSNO;EQDQ01+000000PRSWM2
0215725625999992000011411534+40200-100580FM-15+0786KMCK V0201801N004112200019N0160931N1-00301-00901102921ADDGF100991999999999999999999KA1999M+00171KA2999N-00281MA1102741999999MD1610221+9999MW1001REMMET097KMCK 141153Z AUTO 18008KT 10SM CLR M03/M09 A3034 RMK AO2 SLP292 T10281094 10017 21028 56022 TSNO;EQDQ01+000000PRSWM2
0071725625999992000011423009+40200-100583NSRDB+078699999V020999999999999999999999999999+99999+99999999999ADDGP10060005402009000002021005402009GQ100600798923059GR100600251914149
0176725625999992000011602534+40200-100580FM-15+0786KMCK V0202901N003112200019N0160931N1+00401-00501102181ADDGF100991999999999999999999MA1102001999999MD1110131+9999MW1001REMMET084KMCK 160253Z AUTO 29006KT 10SM CLR 04/M05 A3012 RMK AO2 SLP218 T00391050 51013 TSNO;EQDQ01+000000PRSWM2
0071725625999992000011700009+40200-100583NSRDB+078699999V020999999999999999999999999999+99999+99999999999ADDGP10060000902009020602021000402009GQ100600870923949GR100600050909549
0175725625999992000011701534+40200-100580FM-15+0786KMCK V0201201N004110060019N0160931N1-00201-01101102711ADDGD14991+0060019GF108991999999999999999999MA1102401999999MW1001REMMET082KMCK 170153Z AUTO 12008KT 10SM OVC020 M02/M11 A3024 RMK AO2 SLP271 T10171106 TSNO;EQDQ01+000000PRSWM2
0232725625999992000011711534+40200-100580FM-15+0786KMCK V0202101N003110030019N0144841N1-00201-00301102321ADDGD14991+0030019GF108991999999999999999999KA1999M-00111KA2999N-00221MA1102071999999MD1810121+9999MW1001REMMET099KMCK 171153Z AUTO 21006KT 9SM OVC010 M02/M03 A3014 RMK AO2 SLP232 T10221028 11011 21022 58012 TSNO;EQDQ01+000000PRSWM2
0156725625999992000011715534+40200-100580FM-15+0786KMCK V0202401N004112200019N0112651N1-00101-00301102371ADDGF100991999999999999999999MA1102131999999MW1001REMMET078KMCK 171553Z AUTO 24008KT 7SM CLR M01/M03 A3016 RMK AO2 SLP237 T10111028 TSNO;EQDQ01+000000PRSWM2
0054725625999992000012012009+40200-100583NSRDB+078699999V020999999999999999999999999999+99999+99999999999ADDGP10060000002000000002000000002000GR100600000900009
0220725625999992000012316534+40200-100580FM-15+0786KMCK V0201001N002610114019N0160931N1-00401-00601102591ADDAA101000021GD13991+0114019GD24991+0135019GF108991999999999999999999MA1102301999999MW1001REMMET101KMCK 231653Z AUTO 10005KT 10SM BKN038 OVC045 M04/M06 A3021 RMK AO2 SNE18 SLP259 P0000 T10441056 TSNO;EQDQ01+000000PRSWM2
0071725625999992000012322009+40200-100583NSRDB+078699999V020999999999999999999999999999+99999+99999999999ADDGP10060030702009046002021014802009GQ100600698921919GR100600486914129
0071725625999992000012421009+40200-100583NSRDB+078699999V020999999999999999999999999999+99999+99999999999ADDGP10060046202009074702021012802009GQ100600635920539GR100600629914129
0054725625999992000012612009+40200-100583NSRDB+078699999V020999999999999999999999999999+99999+99999999999ADDGP10060000002000000002000000002000GR100600000900009
0071725625999992000012722009+40200-100583NSRDB+078699999V020999999999999999999999999999+99999+99999999999ADDGP10060011902009000002021011902009GQ100600689921949GR100600508914119
0071725625999992000012815009+40200-100583NSRDB+078699999V020999999999999999999999999999+99999+99999999999ADDGP10060000002009000002021000002009GQ100600847911929GR100600129914109
0194725625999992000013114534+40200-100580FM-15+0786KMCK V0202701N002112200019N0112651N1-00901-01001102321ADDGD12991+0003019GF104991999999999999999999MA1101931999999MD1510001+9999MW1001REMMET087KMCK 311453Z AUTO 27004KT 7SM SCT001 M09/M10 A3010 RMK AO2 SLP232 T10891100 55000 TSNO;EQDQ01+000000PRSWM2
0214725625999992000013123534+40200-100580FM-15+0786KMCK V0200801N002612200019N0160931N1+00101-00301102031ADDGF100991999999999999999999KA1999M+00721KA2999N-00221MA1101761999999MD1310091+9999MW1001REMMET096KMCK 312353Z AUTO 08005KT 10SM CLR 01/M03 A3005 RMK AO2 SLP203 T00111028 10072 21022 53009 TSNO;EQDQ01+000000PRSWM2
0176725625999992000020120534+40200-100580FM-15+0786KMCK V0209999V003112200019N0160931N1+00001-00401103021ADDGF100991999999999999999999MA1102681999999MD1810241+9999MW1001REMMET084KMCK 012053Z AUTO VRB06KT 10SM CLR 00/M04 A3032 RMK AO2 SLP302 T00001039 58024 TSNO;EQDQ01+000000PRSWM2
0156725625999992000020203534+40200-100580FM-15+0786KMCK V0202101N003112200019N0128741N1-00401-00601102761ADDGF100991999999999999999999MA1102401999999MW1001REMMET078KMCK 020353Z AUTO 21006KT 8SM CLR M04/M06 A3024 RMK AO2 SLP276 T10441056 TSNO;EQDQ01+000000PRSWM2
0220725625999992000021107534+40200-100580FM-15+0786KMCK V0200401N005110150019N0032181N1-00701-00701102331ADDAA101000021GD14991+0150019GF108991999999999999999999MA1102031999999MW1101MW2711REMMET094KMCK 110753Z AUTO 04010KT 2SM -SN BR OVC055 M07/M07 A3013 RMK AO2 SLP233 P0000 T10671072 TSNO;EQDQ01+000003PRSWM1Q02    003PRSWM1
0214725625999992000021517534+40200-100580FM-15+0786KMCK V0202701N006712200019N0160931N1+01201-00101101171ADDGF100991999999999999999999KA1999M+01171KA2999N+00111MA1101121999999MD1110181+9999MW1001REMMET096KMCK 151753Z AUTO 27013KT 10SM CLR 12/M01 A2986 RMK AO2 SLP117 T01171006 10117 20011 51018 TSNO;EQDQ01+000000PRSWM2
0071725625999992000021721009+40200-100583NSRDB+078699999V020999999999999999999999999999+99999+99999999999ADDGP10060027102009014302021019202009GQ100600566920779GR100600770914019
0206725625999992000021815534+40200-100580FM-15+0786KMCK V0200101N005110039019N0160931N1-00301-00601102631ADDAA101000021GD14991+0039019GF108991999999999999999999MA1102341999999MW1001REMMET102KMCK 181553Z AUTO 01010KT 10SM UP OVC013 M03/M06 A3022 RMK AO2 UPB37SNE37 SLP263 P0000 T10331056 TSNO;EQDQ01+000000PRSWM2
0054725625999992000022303009+40200-100583NSRDB+078699999V020999999999999999999999999999+99999+99999999999ADDGP10060000002000000002000000002000GR100600000900009
0071725625999992000022400009+40200-100583NSRDB+078699999V020999999999999999999999999999+99999+99999999999ADDGP10060012902009057402021003302009GQ100600804924849GR100600232913979
0071725625999992000022501009+40200-100583NSRDB+078699999V020999999999999999999999999999+99999+99999999999ADDGP10060000002009000002021000002009GQ100600878925609GR100600024906179
0262725625999992000022520534+40200-100580FM-15+0786KMCK V0202901N011812200019N0160931N1+00801-00201099411ADDAA103000021GD12991+0144019GD22991+0210019GF104991999999999999999999MA1099421999999MD1110191+9999MW1001OC101751REMMET121KMCK 252053Z AUTO 29023G34KT 10SM FEW048 SCT070 08/M02 A2936 RMK AO2 PK WND 29035/2042 SLP941 60000 T00781022 51019 TSNO;EQDQ01+000000PRSWM2
0225725625999992000022600534+40200-100580FM-15+0786KMCK V0202701N012910210019N0160931N1+00601-00101099911ADDGD13991+0210019GD24991+0300019GF108991999999999999999999MA1099901999999MW1001OC101751REMMET109KMCK 260053Z AUTO 27025G34KT 10SM BKN070 OVC100 06/M01 A2950 RMK AO2 PK WND 28039/0034 SLP991 T00561011 TSNO;EQDQ01+000000PRSWM2
0054725625999992000022612009+40200-100583NSRDB+078699999V020999999999999999999999999999+99999+99999999999ADDGP10060000002000000002000000002000GR100600000900009
0157725625999992000022704534+40200-100580FM-15+0786KMCK V0202301N004612200019N0160931N1-00301-00701102191ADDGF100991999999999999999999MA1102001999999MW1001REMMET079KMCK 270453Z AUTO 23009KT 10SM CLR M03/M07 A3012 RMK AO2 SLP219 T10281067 TSNO;EQDQ01+000000PRSWM2
0054725625999992000022707009+40200-100583NSRDB+078699999V020999999999999999999999999999+99999+99999999999ADDGP10060000002000000002000000002000GR100600000900009
0181725625999992000030319534+40200-100580FM-15+0786KMCK V0202601N003612200019N0160931N1+01201+00501101931ADDGD12991+0081019GF102991999999999999999999MA1101861999999MW1001REMMET088KMCK 031953Z AUTO 26007KT 230V300 10SM FEW027 12/05 A3008 RMK AO2 SLP193 T01170050 TSNO;EQDQ01+000000PRSWM2
0213725625999992000032209534+40200-100580FM-15+0786KMCK V0209999C000010045019N0080461N1+00301+00301102591ADDGD13991+0045019GD24991+0069019GF108991999999999999999999MA1102441999999MW1101REMMET089KMCK 220953Z AUTO 00000KT 5SM BR BKN015 OVC023 03/03 A3025 RMK AO2 SLP259 T00330028 TSNO;EQDQ01+000003PRSWM1Q02    003PRSWM1
0054725625999992000032408009+40200-100583NSRDB+078699999V020999999999999999999999999999+99999+99999999999ADDGP10060000002000000002000000002000GR100600000900009
0071725625999992000032521009+40200-100583NSRDB+078699999V020999999999999999999999999999+99999+99999999999ADDGP10060076002008079302015019402008GQ100600446921779GR100600978913749
0071725625999992000032721009+40200-100583NSRDB+078699999V020999999999999999999999999999+99999+99999999999ADDGP10060077202008093602015009602008GQ100600440921849GR100600987913729
0254725625999992000033114534+40200-100580FM-15+0786KMCK V0200301N006710066019N0160931N1+00501+00201102731ADDAA103000021GD12991+0048019GD23991+0066019GD33991+0330019GF107991999999999999999999MA1102641999999MD1110161+9999MW1001REMMET106KMCK 311453Z AUTO 03013KT 10SM SCT016 BKN022 BKN110 05/02 A3031 RMK AO2 SLP273 60000 T00500017 51016 TSNO;EQDQ01+000000PRSWM2
0071725625999992000033117009+40200-100583NSRDB+078699999V020999999999999999999999999999+99999+99999999999ADDGP10060031702008003602015029202008GQ100600472913059GR100600930913699
0071725625999992000033120009+40200-100583NSRDB+078699999V020999999999999999999999999999+99999+99999999999ADDGP10060023102008000602015022602008GQ100600372919819GR100601090913699
0156725625999992000040203534+40200-100580FM-15+0786KMCK V0201801N004112200019N0160931N1+00201-00101101531ADDGF100991999999999999999999MA1101421999999MW1001REMMET078KMCK 020353Z AUTO 18008KT 10SM CLR 02/M01 A2995 RMK AO2 SLP153 T00221011 TSNO;EQDQ01+000000PRSWM2
0054725625999992000040306009+40200-100583NSRDB+078699999V020999999999999999999999999999+99999+99999999999ADDGP10060000002000000002000000002000GR100600000900009
0273725625999992000040311534+40200-100580FM-15+0786KMCK V0203301N009810099019N0160931N1+00101-00301102421ADDAA124000591GD13991+0099019GD24991+0135019GF108991999999999999999999KA1999M+00281KA2999N+00001MA1102271999999MD1310131+9999MW1001REMMET114KMCK 031153Z AUTO 33019KT 10SM BKN033 OVC045 01/M03 A3020 RMK AO2 SLP242 70002 T00111028 10028 20000 53013 TSNO $;EQDQ01+000000PRSWM2
0157725625999992000040509534+40200-100580FM-15+0786KMCK V0202601N005112200019N0160931N1+00901+00101100321ADDGF100991999999999999999999MA1100471999999MW1001REMMET079KMCK 050953Z AUTO 26010KT 10SM CLR 09/01 A2967 RMK AO2 SLP032 T00940006 TSNO $;EQDQ01+000000PRSWM2
0071725625999992000040814009+40200-100583NSRDB+078699999V020999999999999999999999999999+99999+99999999999ADDGP10060021302008053502015008702008GQ100600764909179GR100600320913629
0054725625999992000041111009+40200-100583NSRDB+078699999V020999999999999999999999999999+99999+99999999999ADDGP10060000002000000002000000002000GR100600000900009
0054725625999992000041305009+40200-100583NSRDB+078699999V020999999999999999999999999999+99999+99999999999ADDGP10060000002000000002000000002000GR100600000900009
0184725625999992000041421534+40200-100580FM-15+0786KMCK V0200201N012312200019N0160931N1+01801+00401100271ADDGF100991999999999999999999MA1100371999999MW1001OC101591REMMET098KMCK 142153Z AUTO 02024G31KT 10SM CLR 18/04 A2964 RMK AO2 PK WND 02033/2130 SLP027 T01780044 TSNO;EQDQ01+000000PRSWM2
0156725625999992000041622534+40200-100580FM-15+0786KMCK V0203601N006712200019N0160931N1+01101-00201102021ADDGF100991999999999999999999MA1101901999999MW1001REMMET078KMCK 162253Z AUTO 36013KT 10SM CLR 11/M02 A3009 RMK AO2 SLP202 T01061017 TSNO;EQDQ01+000000PRSWM2
0155725625999992000041807534+40200-100580FM-15+0786KMCK V0201901N005712200019N0160931N1+01101+00801100971ADDGF100991999999999999999999MA1101121999999MW1001REMMET077KMCK 180753Z AUTO 19011KT 10SM CLR 11/08 A2986 RMK AO2 SLP097 T01060078 TSNO;EQDQ01+000000PRSWM2
0247725625999992000042004534+40200-100580FM-15+0786KMCK V0203101N013410096019N0160931N1+00401-00201100861ADDGD13991+0096019GD23991+0150019GD34991+0240019GF108991999999999999999999MA1100911999999MW1001OC101801REMMET116KMCK 200453Z AUTO 31026G35KT 10SM BKN032 BKN055 OVC080 04/M02 A2980 RMK AO2 PK WND 32038/0403 SLP086 T00441022 TSNO;EQDQ01+000000PRSWM2
0193725625999992000042414534+40200-100580FM-15+0786KMCK V0209999V003112200019N0160931N1+01801+01001101281ADDGD12991+0330019GF102991999999999999999999MA1101391999999MD1110091+9999MW1001REMMET086KMCK 241453Z AUTO VRB06KT 10SM FEW110 18/10 A2994 RMK AO2 SLP128 T01830100 51009 TSNO;EQDQ01+000000PRSWM2
0071725625999992000042612009+40200-100583NSRDB+078699999V020999999999999999999999999999+99999+99999999999ADDGP10060000002008000002015000002008GQ100600892907239GR100600003902369
0071725625999992000042613009+40200-100583NSRDB+078699999V020999999999999999999999999999+99999+99999999999ADDGP10060008102008013302015006502008GQ100600829907799GR100600166913499
0282725625999992000050805534+40200-100580FM-15+0786KMCK V0203601N007710180019N0160931N1+01601+01301100431ADDAA106000391GD14991+0180019GF108991999999999999999999KA1999M+02611KA2999N+01611MA1100611999999MD1110451+9999MW1001OC101131REMMET130KMCK 080553Z AUTO 36015G22KT 10SM OVC065 16/13 A2971 RMK AO2 PK WND 01027/0540 SLP043 60001 T01610128 10261 20161 402720161 51045;EQDQ01+000000PRSWM2
0054725625999992000050903009+40200-100583NSRDB+078699999V020999999999999999999999999999+99999+99999999999ADDGP10060000002000000002000000002000GR100600000900009
0219725625999992000051305534+40200-100580FM-15+0786KMCK V0203201N007212200019N0160931N1+00701-00501102171ADDGF100991999999999999999999KA1999M+01721KA2999N+00721MA1102201999999MD1110191+9999MW1001REMMET101KMCK 130553Z AUTO 32014KT 10SM CLR 07/M05 A3018 RMK AO2 SLP217 T00721050 10172 20072 402000072 51019;EQDQ01+000000PRSWM2
0151725625999992000051316534+40200-100580FM-15+0786KMCK V0203301N006212200019N0160931N1+01601-00201102531ADDGF100991999999999999999999MA1102541999999MW1001REMMET073KMCK 131653Z AUTO 33012KT 10SM CLR 16/M02 A3028 RMK AO2 SLP253 T01561022;EQDQ01+000000PRSWM2
0071725625999992000051320009+40200-100583NSRDB+078699999V020999999999999999999999999999+99999+99999999999ADDGP10060096102008087402015016402008GQ100600245921039GR100601217913379
0071725625999992000051722009+40200-100583NSRDB+078699999V020999999999999999999999999999+99999+99999999999ADDGP10060070202008070802015017602008GQ100600420925339GR100600991913359
0173725625999992000052207534+40200-100580FM-15+0786KMCK V0202601N002612200019N0160931N1+01201+00601100951ADDGD12991+0360019GF102991999999999999999999MA1101151999999MW1001REMMET080KMCK 220753Z AUTO 26005KT 10SM FEW120 12/06 A2987 RMK AO2 SLP095 T01170061 TSNO;EQDQ01+000000PRSWM2
0150725625999992000052707534+40200-100580FM-15+0786KMCK V0203001N004112200019N0160931N1+01501+01401100741ADDGF100991999999999999999999MA1100911999999MW1001REMMET072KMCK 270753Z AUTO 30008KT 10SM CLR 15/14 A2980 RMK AO2 SLP074 T01500139;EQDQ01+000000PRSWM2
0152725625999992000052909534+40200-100580FM-15+0786KMCK V0202301N006212200019N0160931N1+02701+00901100571ADDGF100991999999999999999999MA1100951999999MW1001REMMET074KMCK 290953Z AUTO 23012KT 10SM CLR 27/09 A2981 RMK AO2 SLP057 T02720089 $;EQDQ01+000000PRSWM2
0071725625999992000060118009+40200-100583NSRDB+078699999V020999999999999999999999999999+99999+99999999999ADDGP10060082602008055402015031802008GQ100600235913599GR100601216913289
0054725625999992000060605009+40200-100583NSRDB+078699999V020999999999999999999999999999+99999+99999999999ADDGP10060000002000000002000000002000GR100600000900009
0071725625999992000060718009+40200-100583NSRDB+078699999V020999999999999999999999999999+99999+99999999999ADDGP10060094302008086702015014502008GQ100600231913459GR100601218913269
0071725625999992000060719009+40200-100583NSRDB+078699999V020999999999999999999999999999+99999+99999999999ADDGP10060096402008085302015015102008GQ100600179917179GR100601262913269
0179725625999992000060822534+40200-100580FM-15+0786KMCK V0201601N009812200019N0160931N1+03501+00801100311ADDGF100991999999999999999999MA1100611999999MW1001OC101491REMMET093KMCK 082253Z AUTO 16019G29KT 10SM CLR 35/08 A2971 RMK AO2 PK WND 16035/2209 SLP031 T03500078;EQDQ01+000000PRSWM2
0054725625999992000061105009+40200-100583NSRDB+078699999V020999999999999999999999999999+99999+99999999999ADDGP10060000002000000002000000002000GR100600000900009
0218725625999992000061105534+40200-100580FM-15+0786KMCK V0200701N004112200019N0160931N1+01801+00701101131ADDGF100991999999999999999999KA1999M+03221KA2999N+01781MA1101391999999MD1110131+9999MW1001REMMET100KMCK 110553Z AUTO 07008KT 10SM CLR 18/07 A2994 RMK AO2 SLP113 T01830067 10322 20178 403330167 51013;EQDQ01+000000PRSWM2
0071725625999992000061202009+40200-100583NSRDB+078699999V020999999999999999999999999999+99999+99999999999ADDGP10060005902008018002015003902008GQ100600836929529GR100600148913259
0179725625999992000061318534+40190-100570FM-15+0786KMCK V0203301N011812200019N0160931N1+02701+00901100561ADDGF100991999999999999999999MA1100851999999MW1001OC101541REMMET093KMCK 131853Z AUTO 33023G30KT 10SM CLR 27/09 A2978 RMK AO2 PK WND 31031/1840 SLP056 T02720089;EQDQ01+000000PRSWM2
0150725625999992000061503534+40190-100570FM-15+0786KMCK V0201001N002612200019N0160931N1+01701+00701101101ADDGF100991999999999999999999MA1101291999999MW1001REMMET072KMCK 150353Z AUTO 10005KT 10SM CLR 17/07 A2991 RMK AO2 SLP110 T01720067;EQDQ01+000000PRSWM2
0142725625999992000061514534+40190-100570FM-15+0786KMCK V0202201N005112200019N0160931N1+02501+00701099981ADDMA1100241999999MD1610351+9999MW1001REMMET076KMCK 151453Z AUTO 22010KT 10SM 25/07 A2960 RMK AO2 SLP998 T02500072 56035 $;EQDQ01+000000PRSWM2
0166725625999992000061809534+40190-100570FM-15+0786KMCK V0202301N002612200019N0112651N1+00801+00801102111ADDAA101000391GF100991999999999999999999MA1102101999999MW1001REMMET077KMCK 180953Z AUTO 23005KT 7SM CLR 08/08 A3015 RMK AO2 SLP211 P0001 T00830083;EQDQ01+000000PRSWM2
0150725625999992000061910534+40190-100570FM-15+0786KMCK V0201501N002612200019N0160931N1+01601+01501100841ADDGF100991999999999999999999MA1101081999999MW1001REMMET072KMCK 191053Z AUTO 15005KT 10SM CLR 16/15 A2985 RMK AO2 SLP084 T01610150;EQDQ01+000000PRSWM2
0186725625999992000061922534+40190-100570FM-15+0786KMCK V0203001N005112200019N0160931N1+03401+01401099991ADDGD12991+0300019GF102991999999999999999999MA1100271999999MW1001REMMET093KMCK 192253Z AUTO 30010KT 10SM FEW100 34/14 A2961 RMK AO2 PK WND 22026/2233 SLP999 T03440139;EQDQ01+000000PRSWM2
0188725625999992000062014534+40190-100570FM-15+0786KMCK V0203101N005112200019N0160931N1+02001+01201101061ADDGD12991+0330019GF102991999999999999999999MA1101291999999MD1310271+9999MW1001REMMET081KMCK 201453Z AUTO 31010KT 10SM FEW110 20/12 A2991 RMK AO2 SLP106 T02000122 53027;EQDQ01+000000PRSWM2
0071725625999992000062116009+40200-100583NSRDB+078699999V020999999999999999999999999999+99999+99999999999ADDGP10060070202008078902015013302008GQ100600439909749GR100600951913229
0071725625999992000062119009+40200-100583NSRDB+078699999V020999999999999999999999999999+99999+99999999999ADDGP10060099502008089502015014002008GQ100600174916929GR100601262913229
0054725625999992000062204009+40200-100583NSRDB+078699999V020999999999999999999999999999+99999+99999999999ADDGP10060000002000000002000000002000GR100600000900009
0054725625999992000062206009+40200-100583NSRDB+078699999V020999999999999999999999999999+99999+99999999999ADDGP10060000002000000002000000002000GR100600000900009
0168725625999992000062621534+40190-100570FM-15+0786KMCK V0201001N004112200019N0160931N1+02601+00401101981ADDGD12991+0300019GF102991999999999999999999MA1102131999999MW1001REMMET075KMCK 262153Z AUTO 10008KT 10SM FEW100 26/04 A3016 RMK AO2 SLP198 T02610044;EQDQ01+000000PRSWM2
0071725625999992000062716009+40200-100583NSRDB+078699999V020999999999999999999999999999+99999+99999999999ADDGP10060029402008003602015026802008GQ100600442909749GR100600946913229
0054725625999992000070108009+40200-100583NSRDB+078699999V020999999999999999999999999999+99999+99999999999ADDGP10060000002000000002000000002000GR100600000900009
0054725625999992000070410009+40200-100583NSRDB+078699999V020999999999999999999999999999+99999+99999999999ADDGP10060000002000000002000000002000GR100600000900009
0071725625999992000070412009+40200-100583NSRDB+078699999V020999999999999999999999999999+99999+99999999999ADDGP10060000402008008002015000202008GQ100600869906219GR100600047908709
0071725625999992000070620009+40200-100583NSRDB+078699999V020999999999999999999999999999+99999+99999999999ADDGP10060095202008088702015011702008GQ100600201920979GR100601241913219
0071725625999992000070919009+40200-100583NSRDB+078699999V020999999999999999999999999999+99999+99999999999ADDGP10060094202008082302015016102008GQ100600187916749GR100601252913229
0071725625999992000071020009+40200-100583NSRDB+078699999V020999999999999999999999999999+99999+99999999999ADDGP10060023802008001202015022702008GQ100600204920879GR100601238913229
0071725625999992000071121009+40200-100583NSRDB+078699999V020999999999999999999999999999+99999+99999999999ADDGP10060087202008084302015013002008GQ100600284923719GR100601162913229
0150725625999992000071906534+40190-100570FM-15+0786KMCK V0200501N007712200019N0160931N1+02201+01701101571ADDGF100991999999999999999999MA1101861999999MW1001REMMET072KMCK 190653Z AUTO 05015KT 10SM CLR 22/17 A3008 RMK AO2 SLP157 T02220172;EQDQ01+000000PRSWM2
0150725625999992000072415534+40190-100570FM-15+0786KMCK V0201901N008212200019N0160931N1+02601+01801101091ADDGF100991999999999999999999MA1101351999999MW1001REMMET072KMCK 241553Z AUTO 19016KT 10SM CLR 26/18 A2993 RMK AO2 SLP109 T02610183;EQDQ01+000000PRSWM2
0054725625999992000073005009+40200-100583NSRDB+078699999V020999999999999999999999999999+99999+99999999999ADDGP10060000002000000002000000002000GR100600000900009
0071725625999992000073018009+40200-100583NSRDB+078699999V020999999999999999999999999999+99999+99999999999ADDGP10060087202008081302015015202008GQ100600278913709GR100601171913269
0150725625999992000073122534+40190-100570FM-15+0786KMCK V0200701N004112200019N0160931N1+03101+01201101691ADDGF100991999999999999999999MA1101901999999MW1001REMMET072KMCK 312253Z AUTO 07008KT 10SM CLR 31/12 A3009 RMK AO2 SLP169 T03060122;EQDQ01+000000PRSWM2
0208725625999992000080123534+40190-100570FM-15+0786KMCK V0201601N003612200019N0160931N1+03401+01301101221ADDGF100991999999999999999999KA1999M+03611KA2999N+03171MA1101491999999MD1610111+9999MW1001REMMET090KMCK 012353Z AUTO 16007KT 10SM CLR 34/13 A2997 RMK AO2 SLP122 T03440128 10361 20317 56011;EQDQ01+000000PRSWM2
0150725625999992000080500534+40190-100570FM-15+0786KMCK V0200901N003112200019N0160931N1+03201+01901101011ADDGF100991999999999999999999MA1101321999999MW1001REMMET072KMCK 050053Z AUTO 09006KT 10SM CLR 32/19 A2992 RMK AO2 SLP101 T03170194;EQDQ01+000000PRSWM2
0150725625999992000080506534+40190-100570FM-15+0786KMCK V0200901N002612200019N0160931N1+02401+02101100781ADDGF100991999999999999999999MA1101121999999MW1001REMMET072KMCK 050653Z AUTO 09005KT 10SM CLR 24/21 A2986 RMK AO2 SLP078 T02390211;EQDQ01+000000PRSWM2
0225725625999992000080610534+40190-100570FM-15+0786KMCK V0209999C000012200019N0160931N1+01901+01601100951ADDAA101000591GD12991+0360019GF102991999999999999999999MA1101251999999MW1001REMMET121KMCK 061053Z AUTO 00000KT 10SM FEW120 19/16 A2990 RMK AO2 PK WND 01028/0954 LTG DSNT E TSE44RAE19 SLP095 P0002 T01890161;EQDQ01+000000PRSWM2
0170725625999992000080702534+40190-100570FM-15+0786KMCK V0200901N003112200019N0160931N1+02601+01501101071ADDGF100991999999999999999999MA1101321999999MD1310101+9999MW1001REMMET078KMCK 070253Z AUTO 09006KT 10SM CLR 26/15 A2992 RMK AO2 SLP107 T02560150 53010;EQDQ01+000000PRSWM2
0170725625999992000080902534+40190-100570FM-15+0786KMCK V0202101N001512200019N0160931N1+03101+01301100801ADDGF100991999999999999999999MA1101121999999MD1310171+9999MW1001REMMET078KMCK 090253Z AUTO 21003KT 10SM CLR 31/13 A2986 RMK AO2 SLP080 T03110128 53017;EQDQ01+000000PRSWM2
0150725625999992000081401534+40190-100570FM-15+0786KMCK V0200601N004112200019N0160931N1+02701+02301101021ADDGF100991999999999999999999MA1101291999999MW1001REMMET072KMCK 140153Z AUTO 06008KT 10SM CLR 27/23 A2991 RMK AO2 SLP102 T02670233;EQDQ01+000000PRSWM2
0150725625999992000081804534+40190-100570FM-15+0786KMCK V0200201N001512200019N0160931N1+01901+01501102191ADDGF100991999999999999999999MA1102401999999MW1001REMMET072KMCK 180453Z AUTO 02003KT 10SM CLR 19/15 A3024 RMK AO2 SLP219 T01890150;EQDQ01+000000PRSWM2
0168725625999992000081916534+40190-100570FM-15+0786KMCK V0201301N005110048019N0160931N1+02201+01801101481ADDGD14991+0048019GF108991999999999999999999MA1101661999999MW1001REMMET075KMCK 191653Z AUTO 13010KT 10SM OVC016 22/18 A3002 RMK AO2 SLP148 T02170183;EQDQ01+000000PRSWM2
0054725625999992000082205009+40200-100583NSRDB+078699999V020999999999999999999999999999+99999+99999999999ADDGP10060000002000000002000000002000GR100600000900009
0208725625999992000082217534+40190-100570FM-15+0786KMCK V0201501N002612200019N0160931N1+02901+01901101601ADDGF100991999999999999999999KA1999M+02941KA2999N+01831MA1101831999999MD1010001+9999MW1001REMMET090KMCK 221753Z AUTO 15005KT 10SM CLR 29/19 A3007 RMK AO2 SLP160 T02940189 10294 20183 50000;EQDQ01+000000PRSWM2
0179725625999992000082603534+40190-100570FM-15+0786KMCK V0200801N005712200019N0160931N1+02601+01501101101ADDGD12991+0360019GF102991999999999999999999MA1101391999999MW1001REMMET086KMCK 260353Z AUTO 08011KT 10SM FEW120 26/15 A2994 RMK AO2 LTG DSNT S SLP110 T02610150;EQDQ01+000000PRSWM2
0150725625999992000082609534+40190-100570FM-15+0786KMCK V0203601N004612200019N0160931N1+02101+01801101031ADDGF100991999999999999999999MA1101351999999MW1001REMMET072KMCK 260953Z AUTO 36009KT 10SM CLR 21/18 A2993 RMK AO2 SLP103 T02060183;EQDQ01+000000PRSWM2
0152725625999992000082715534+40190-100570FM-15+0786KMCK V0209999V002612200019N0160931N1+02601+01801100991ADDGF100991999999999999999999MA1101221999999MW1001REMMET074KMCK 271553Z AUTO VRB05KT 10SM CLR 26/18 A2989 RMK AO2 SLP099 T02610183 $;EQDQ01+000000PRSWM2
0071725625999992000083123009+40200-100583NSRDB+078699999V020999999999999999999999999999+99999+99999999999ADDGP10060045102008056302015016602008GQ100600596925389GR100600677913429
0071725625999992000090101009+40200-100583NSRDB+078699999V020999999999999999999999999999+99999+99999999999ADDGP10060003702008000002015003702008GQ100600822927439GR100600182913429
0178725625999992000090208534+40190-100570FM-15+0786KMCK V0209999V001512200019N0160931N1+01801+01701100811ADDGF100991999999999999999999MA1101051999999MD1810151+9999MW1001REMMET086KMCK 020853Z AUTO VRB03KT 10SM CLR 18/17 A2984 RMK AO2 SLP081 6//// T01830172 58015 $;EQDQ01+000000PRSWM2
0206725625999992000090506534+40190-100570FM-15+0786KMCK V0203301N005710330019N0160931N1+02301+01601101951ADDGD12991+0270019GD23991+0330019GF107991999999999999999999MA1102241999999MW1001REMMET098KMCK 050653Z AUTO 33011KT 10SM FEW095 BKN110 23/16 A3019 RMK AO2 LTG DSNT S-NW SLP195 T02280156 $;EQDQ01+000000PRSWM2
0198725625999992000090515534+40190-100570FM-15+0786KMCK V0201101N00671002401CN0080461N1+02101+01901101791ADDGD13991+0027019GF107991999999999999999999MA1102031999999MW1101REMMET089KMCK 051553Z AUTO 11013KT 5SM BR BKN009 21/19 A3013 RMK AO2 CIG 008V014 SLP179 T02110189;EQDQ01+000003PRSWM1Q02    003PRSWM1
0181725625999992000090720534+40190-100570FM-15+0786KMCK V0200601N004612200019N0160931N1+02801+00301101721ADDGF100991999999999999999999MA1101961999999MD1610261+9999MW1001OC100771REMMET081KMCK 072053Z AUTO 06009G15KT 10SM CLR 28/03 A3011 RMK AO2 SLP172 T02780028 56026;EQDQ01+000000PRSWM2
0150725625999992000090904534+40190-100570FM-15+0786KMCK V0201701N005112200019N0160931N1+02701+01301100331ADDGF100991999999999999999999MA1100641999999MW1001REMMET072KMCK 090453Z AUTO 17010KT 10SM CLR 27/13 A2972 RMK AO2 SLP033 T02720133;EQDQ01+000000PRSWM2
0150725625999992000091315534+40190-100570FM-15+0786KMCK V0209999V001512200019N0160931N1+02601+01501101401ADDGF100991999999999999999999MA1101661999999MW1001REMMET072KMCK 131553Z AUTO VRB03KT 10SM CLR 26/15 A3002 RMK AO2 SLP140 T02610150;EQDQ01+000000PRSWM2
0150725625999992000091401534+40190-100570FM-15+0786KMCK V0202901N004112200019N0160931N1+02501+00501101151ADDGF100991999999999999999999MA1101351999999MW1001REMMET072KMCK 140153Z AUTO 29008KT 10SM CLR 25/05 A2993 RMK AO2 SLP115 T02500050;EQDQ01+000000PRSWM2
0054725625999992000091505009+40200-100583NSRDB+078699999V020999999999999999999999999999+99999+99999999999ADDGP10060000002000000002000000002000GR100600000900009
0054725625999992000091702009+40200-100583NSRDB+078699999V020999999999999999999999999999+99999+99999999999ADDGP10060000002000000002000000002000GR100600000900009
0054725625999992000092007009+40200-100583NSRDB+078699999V020999999999999999999999999999+99999+99999999999ADDGP10060000002000000002000000002000GR100600000900009
0054725625999992000092008009+40200-100583NSRDB+078699999V020999999999999999999999999999+99999+99999999999ADDGP10060000002000000002000000002000GR100600000900009
0054725625999992000092111009+40200-100583NSRDB+078699999V020999999999999999999999999999+99999+99999999999ADDGP10060000002000000002000000002000GR100600000900009
0071725625999992000092119009+40200-100583NSRDB+078699999V020999999999999999999999999999+99999+99999999999ADDGP10060074702008075702015016602008GQ100600400917809GR100601039913579
0188725625999992000092214534+40190-100570FM-15+0786KMCK V0203501N005110033019N0160931N1+01201+01001100651ADDGD14991+0033019GF108991999999999999999999MA1100751999999MD1310331+9999MW1001REMMET081KMCK 221453Z AUTO 35010KT 10SM OVC011 12/10 A2975 RMK AO2 SLP065 T01220100 53033;EQDQ01+000000PRSWM2
0190725625999992000092316534+40190-100570FM-15+0786KMCK V0200201N006710060019N0160931N1+00701+00101102101ADDGD13991+0060019GD24991+0090019GF108991999999999999999999MA1102031999999MW1001REMMET082KMCK 231653Z AUTO 02013KT 10SM BKN020 OVC030 07/01 A3013 RMK AO2 SLP210 T00670011;EQDQ01+000000PRSWM2
0227725625999992000092409534+40190-100570FM-15+0786KMCK V0200201N00461001501CN0128741N1+00201+00101102441ADDAA101000591GD14991+0021019GF108991999999999999999999MA1102341999999MW1711REMMET107KMCK 240953Z AUTO 02009KT 8SM -SN OVC007 02/01 A3022 RMK AO2 UPE36SNB36 CIG 005V010 SLP244 P0002 T00170011;EQDQ01+000003PRSWM1Q02    003PRSWM1
0054725625999992000092510009+40200-100583NSRDB+078699999V020999999999999999999999999999+99999+99999999999ADDGP10060000002000000002000000002000GR100600000900009
0071725625999992000092513009+40200-100583NSRDB+078699999V020999999999999999999999999999+99999+99999999999ADDGP10060000002008000002015000002008GQ100600878909309GR100600022905789
0071725625999992000092900009+40200-100583NSRDB+078699999V020999999999999999999999999999+99999+99999999999ADDGP10060012602008045602015004402008GQ100600796925789GR100600245913629
0054725625999992000092904009+40200-100583NSRDB+078699999V020999999999999999999999999999+99999+99999999999ADDGP10060000002000000002000000002000GR100600000900009
0150725625999992000093004534+40190-100570FM-15+0786KMCK V0201601N003612200019N0160931N1+01301+01101100921ADDGF100991999999999999999999MA1101051999999MW1001REMMET072KMCK 300453Z AUTO 16007KT 10SM CLR 13/11 A2984 RMK AO2 SLP092 T01280106;EQDQ01+000000PRSWM2
0054725625999992000100211009+40200-100583NSRDB+078699999V020999999999999999999999999999+99999+99999999999ADDGP10060000002000000002000000002000GR100600000900009
0054725625999992000100308009+40200-100583NSRDB+078699999V020999999999999999999999999999+99999+99999999999ADDGP10060000002000000002000000002000GR100600000900009
0071725625999992000100518009+40200-100583NSRDB+078699999V020999999999999999999999999999+99999+99999999999ADDGP10060017302008000002015017302008GQ100600475915949GR100600924913689
0228725625999992000100711534+40190-100570FM-15+0786KMCK V0200501N004110240019N0160931N1-00301-00601103911ADDGD14991+0240019GF108991999999999999999999KA1999M+00061KA2999N-00331MA1103691999999MD1310101+9999MW1001REMMET095KMCK 071153Z AUTO 05008KT 10SM OVC080 M03/M06 A3062 RMK AO2 SLP391 T10281056 10006 21033 53010;EQDQ01+000000PRSWM2
0171725625999992000101002534+40190-100570FM-15+0786KMCK V0201301N003612200019N0160931N1+00601-00801102371ADDGF100991999999999999999999MA1102271999999MD1810011+9999MW1001REMMET079KMCK 100253Z AUTO 13007KT 10SM CLR 06/M08 A3020 RMK AO2 SLP237 T00611083 58001;EQDQ01+000000PRSWM2
0161725625999992000101121534+40190-100570FM-15+0786KMCK V0201301N007212200019N0160931N1+02501+00601101071ADDGF100991999999999999999999MA1101191999999MW1001OC101231REMMET075KMCK 112153Z AUTO 13014G24KT 10SM CLR 25/06 A2988 RMK AO2 SLP107 T02500061;EQDQ01+000000PRSWM2
0071725625999992000101201009+40200-100583NSRDB+078699999V020999999999999999999999999999+99999+99999999999ADDGP10060000002008000002015000002008GQ100600895926029GR100600001901499
0054725625999992000101506009+40200-100583NSRDB+078699999V020999999999999999999999999999+99999+99999999999ADDGP10060000002000000002000000002000GR100600000900009
0054725625999992000101607009+40200-100583NSRDB+078699999V020999999999999999999999999999+99999+99999999999ADDGP10060000002000000002000000002000GR100600000900009
0071725625999992000101716009+40200-100583NSRDB+078699999V020999999999999999999999999999+99999+99999999999ADDGP10060039102008060002015013202008GQ100600645913029GR100600593913779
0071725625999992000102121009+40200-100583NSRDB+078699999V020999999999999999999999999999+99999+99999999999ADDGP10060048702008069902015012302008GQ100600587921599GR100600717913819
0224725625999992000102215534+40190-100570FM-15+0786KMCK V0201101N00361000901CN0048281N1+01401+01401101601ADDAA101005891GD14991+0018019GF108991999999999999999999MA1101691999999MW1101MW2631REMMET098KMCK 221553Z AUTO 11007KT 3SM RA BR OVC006 14/14 A3003 RMK AO2 CIG 003V010 SLP160 P0023 T01440139;EQDQ01+000003PRSWM1Q02    003PRSWM1
0170725625999992000102608534+40190-100570FM-15+0786KMCK V0202401N003612200019N0160931N1+00801+00601101351ADDGF100991999999999999999999MA1101421999999MD1110111+9999MW1001REMMET078KMCK 260853Z AUTO 24007KT 10SM CLR 08/06 A2995 RMK AO2 SLP135 T00780061 51011;EQDQ01+000000PRSWM2
0150725625999992000102616534+40190-100570FM-15+0786KMCK V0203101N002612200019N0160931N1+01701+00901101561ADDGF100991999999999999999999MA1101631999999MW1001REMMET072KMCK 261653Z AUTO 31005KT 10SM CLR 17/09 A3001 RMK AO2 SLP156 T01670089;EQDQ01+000000PRSWM2
0054725625999992000110101009+40200-100583NSRDB+078699999V020999999999999999999999999999+99999+99999999999ADDGP10060000002000000002000000002000GR100600000900009
0071725625999992000110118009+40200-100583NSRDB+078699999V020999999999999999999999999999+99999+99999999999ADDGP10060056302008085202015009202008GQ100600565916389GR100600766913899
0054725625999992000110209009+40200-100583NSRDB+078699999V020999999999999999999999999999+99999+99999999999ADDGP10060000002000000002000000002000GR100600000900009
0054725625999992000110409009+40200-100583NSRDB+078699999V020999999999999999999999999999+99999+99999999999ADDGP10060000002000000002000000002000GR100600000900009
0054725625999992000110413009+40200-100583NSRDB+078699999V020999999999999999999999999999+99999+99999999999ADDGP10060000002000000002000000002000GR100600000900009
0054725625999992000110501009+40200-100583NSRDB+078699999V020999999999999999999999999999+99999+99999999999ADDGP10060000002000000002000000002000GR100600000900009
0236725625999992000110505534+40190-100570FM-15+0786KMCK V0201801N007710039019N0160931N1+01101+00801100651ADDGD14991+0039019GF108991999999999999999999KA1999M+01281KA2999N+00941MA1100681999999MD1810261+9999MW1001REMMET103KMCK 050553Z AUTO 18015KT 10SM OVC013 11/08 A2973 RMK AO2 SLP065 T01060083 10128 20094 401611006 58026;EQDQ01+000000PRSWM2
0071725625999992000110620009+40200-100583NSRDB+078699999V020999999999999999999999999999+99999+99999999999ADDGP10060015702008000002015015702008GQ100600585919809GR100600728913939
0071725625999992000111119009+40200-100583NSRDB+078699999V020999999999999999999999999999+99999+99999999999ADDGP10060010202008000002015010202008GQ100600580918109GR100600740913969
0218725625999992000111121534+40190-100570FM-15+0786KMCK V0203601N00511000151CN0004021N1-00401-00501101631ADDAA101000591GD15991+0001519GF109991999999000251999999MA1101351999999MW1491MW2751REMMET092KMCK 112153Z AUTO 36010KT 1/4SM +SN FZFG VV004 M04/M05 A2993 RMK AO2 SLP163 P0002 T10391050;EQDQ01+000003PRSWM1Q02    003PRSWM1
0071725625999992000111222009+40200-100583NSRDB+078699999V020999999999999999999999999999+99999+99999999999ADDGP10060007302008000002015007302008GQ100600721922589GR100600428913979
0054725625999992000111712009+40200-100583NSRDB+078699999V020999999999999999999999999999+99999+99999999999ADDGP10060000002000000002000000002000GR100600000900009
0071725625999992000111818009+40200-100583NSRDB+078699999V020999999999999999999999999999+99999+99999999999ADDGP10060052902009069602021019202009GQ100600612916459GR100600674914009
0071725625999992000112416009+40200-100583NSRDB+078699999V020999999999999999999999999999+99999+99999999999ADDGP10060016702009017202021011902009GQ100600738913679GR100600391914049
0071725625999992000112420009+40200-100583NSRDB+078699999V020999999999999999999999999999+99999+99999999999ADDGP10060031402009021402021021502009GQ100600626919609GR100600645914049
0071725625999992000112517009+40200-100583NSRDB+078699999V020999999999999999999999999999+99999+99999999999ADDGP10060039402009071902021011402009GQ100600672914979GR100600544914049
0071725625999992000112715009+40200-100583NSRDB+078699999V020999999999999999999999999999+99999+99999999999ADDGP10060010402009021802021007702009GQ100600829912569GR100600173914059
0071725625999992000120314009+40200-100583NSRDB+078699999V020999999999999999999999999999+99999+99999999999ADDGP10060000002009000002021000002009GQ100600893911999GR100600003902469
0152725625999992000120406534+40190-100570FM-15+0786KMCK V0202701N005112200019N0160931N1-00301-00601102571ADDGF100991999999999999999999MA1102341999999MW1001REMMET074KMCK 040653Z AUTO 27010KT 10SM CLR M03/M06 A3022 RMK AO2 SLP257 T10281056;EQDQ01+000000PRSWM2
0152725625999992000120510534+40190-100570FM-15+0786KMCK V0201201N003112200019N0160931N1-00301-00601102911ADDGF100991999999999999999999MA1102711999999MW1001REMMET074KMCK 051053Z AUTO 12006KT 10SM CLR M03/M06 A3033 RMK AO2 SLP291 T10331056;EQDQ01+000000PRSWM2
0238725625999992000120605534+40190-100570FM-15+0786KMCK V0203301N006210057019N0160931N1-00301-00501102701ADDGD14991+0057019GF108991999999999999999999KA1999M+00001KA2999N-00501MA1102471999999MD1110131+9999MW1001REMMET105KMCK 060553Z AUTO 33012KT 10SM OVC019 M03/M05 A3026 RMK AO2 SLP270 T10281050 10000 21050 400331050 51013;EQDQ01+000000PRSWM2
0169725625999992000120813534+40190-100570FM-15+0786KMCK V0202001N002110270019N0160931N1+00001-00201102641ADDGD14991+0270019GF108991999999999999999999MA1102441999999MW1001REMMET076KMCK 081353Z AUTO 20004KT 10SM OVC090 00/M02 A3025 RMK AO2 SLP264 T00001022;EQDQ01+000000PRSWM2
0071725625999992000120821009+40200-100583NSRDB+078699999V020999999999999999999999999999+99999+99999999999ADDGP10060006102009000002021006102009GQ100600686920859GR100600515914109
0212725625999992000121020534+40190-100570FM-15+0786KMCK V0200301N005710081019N0160931N1-01201-01601102411ADDGD12991+0057019GD24991+0081019GF108991999999999999999999MA1102071999999MD1610251+9999MW1001REMMET090KMCK 102053Z AUTO 03011KT 10SM SCT019 OVC027 M12/M16 A3014 RMK AO2 SLP241 T11171156 56025;EQDQ01+000000PRSWM2
0152725625999992000121204534+40190-100570FM-15+0786KMCK V0202601N003112200019N0160931N1-01701-02101103581ADDGF100991999999999999999999MA1102951999999MW1001REMMET074KMCK 120453Z AUTO 26006KT 10SM CLR M17/M21 A3040 RMK AO2 SLP358 T11721206;EQDQ01+000000PRSWM2
0170725625999992000121222534+40190-100570FM-15+0786KMCK V0201401N006710360019N0160931N1-00901-01401102411ADDGD13991+0360019GF107991999999999999999999MA1101901999999MW1001REMMET077KMCK 122253Z AUTO 14013KT 10SM BKN120 M09/M14 A3009 RMK AO2 SLP241 T10941144;EQDQ01+000000PRSWM2
0151725625999992000121509534+40190-100570FM-15+0786KMCK V0200601N002612200019N0112651N1-00701-00801101541ADDGF100991999999999999999999MA1101291999999MW1001REMMET073KMCK 150953Z AUTO 06005KT 7SM CLR M07/M08 A2991 RMK AO2 SLP154 T10671078;EQDQ01+000000PRSWM2
0054725625999992000121603009+40200-100583NSRDB+078699999V020999999999999999999999999999+99999+99999999999ADDGP10060000002000000002000000002000GR100600000900009
0181725625999992000121622534+40190-100570FM-15+0786KMCK V0203401N008712200019N0160931N1-00801-01901102911ADDGF100991999999999999999999MA1102471999999MW1001OC101231REMMET095KMCK 162253Z AUTO 34017G24KT 10SM CLR M08/M19 A3026 RMK AO2 PK WND 32035/2224 SLP291 T10831189;EQDQ01+000000PRSWM2
0054725625999992000121802009+40200-100583NSRDB+078699999V020999999999999999999999999999+99999+99999999999ADDGP10060000002000000002000000002000GR100600000900009
0071725625999992000121917009+40200-100583NSRDB+078699999V020999999999999999999999999999+99999+99999999999ADDGP10060034902009084902021006402009GQ100600705914869GR100600472914139
0054725625999992000122303009+40200-100583NSRDB+078699999V020999999999999999999999999999+99999+99999999999ADDGP10060000002000000002000000002000GR100600000900009
0238725625999992000122405534+40190-100570FM-15+0786KMCK V0201201N003610330019N0160931N1-00901-01301103311ADDGD14991+0330019GF108991999999999999999999KA1999M-00331KA2999N-00941MA1102951999999MD1110211+9999MW1001REMMET105KMCK 240553Z AUTO 12007KT 10SM OVC110 M09/M13 A3040 RMK AO2 SLP331 T10941128 11033 21094 400001094 51021;EQDQ01+000000PRSWM2
0234725625999992000122513534+40190-100570FM-15+0786KMCK V0201101N003110030019N0112651N1-01201-01401103541ADDAA101000021GD13991+0030019GD24991+0099019GF108991999999999999999999MA1103051999999MW1711REMMET099KMCK 251353Z AUTO 11006KT 7SM -SN BKN010 OVC033 M12/M14 A3043 RMK AO2 SNB35 SLP354 P0000 T11171139;EQDQ01+000003PRSWM1Q02    003PRSWM1
0152725625999992000122704534+40190-100570FM-15+0786KMCK V0202201N002612200019N0160931N1-00701-00901102961ADDGF100991999999999999999999MA1102611999999MW1001REMMET074KMCK 270453Z AUTO 22005KT 10SM CLR M07/M09 A3030 RMK AO2 SLP296 T10721089;EQDQ01+000000PRSWM2
0180725625999992000122816534+40190-100570FM-15+0786KMCK V0203001N010312200019N0160931N1+00701-00401102261ADDGF100991999999999999999999MA1102131999999MW1001OC101391REMMET094KMCK 281653Z AUTO 30020G27KT 10SM CLR 07/M04 A3016 RMK AO2 PK WND 32033/1609 SLP226 T00721044;EQDQ01+000000PRSWM2
0260725625999992000123105534+40190-100570FM-15+0786KMCK V0200901N003110045019N0160931N1-00501-00801102791ADDGD13991+0045019GD24991+0087019GF108991999999999999999999KA1999M-00391KA2999N-00561MA1102471999999MD1110111+9999MW1001REMMET112KMCK 310553Z AUTO 09006KT 10SM BKN015 OVC029 M05/M08 A3026 RMK AO2 SLP279 T10501083 11039 21056 410171111 51011;EQDQ01+000000PRSWM2
0197725626999992000011423004+40520-101620FM-15+0998KIML V0201401N002610180019N0241401N1+00701-00601999999ADDGD12991+0090099GD23991+0180099GD34991+0300099GF108991999999999999999999MA1102101999999MW1001REMMET074KIML 142256Z 14005KT 15SM SCT030 BKN060 OVC100 07/M06 A3015 RMK T00701062;EQDQ01+000000PRSWM2
0176725626999992000013020004+40520-101620FM-15+0998KIML V0202001N003110075019N0241401N1-00201-00401999999ADDGD13991+0075099GD24991+0150099GF108991999999999999999999MA1102201999999MW1001REMMET068KIML 301957Z 20006KT 15SM BKN025 OVC050 M02/M04 A3018 RMK T10201041;EQDQ01+000000PRSWM2
0135725626999992000013119004+40520-101620FM-15+0998KIML V0203401N004112200019N0241401N1+00401-00101999999ADDGF100991999999999999999999MA1101691999999MW1001REMMET057KIML 311857Z 34008KT 15SM SKC 04/M01 A3003 RMK T00401013;EQDQ01+000000PRSWM2
0210725626999992000021117284+40520-101620FM-16+0998KIML V0201101N002610024019N0048281N1-00801-01101999999ADDGD13991+0024099GD24991+0075099GF108991999999999999999999MA1101961999999MW1711REMMET086KIML 111728Z 11005KT 3SM -SN BKN008 OVC025 M08/M11 A3011 RMK SNBKN000 SNRWY T10801108;EQDQ01+000003PRSWM1Q02    003PRSWM1
0174725626999992000021521004+40520-101620FM-15+0998KIML V0203001N010312200019N0241401N1+01601+00501999999ADDGD12991+0240099GD22991+0600099GF104991999999999999999999MA1101151999999MW1001REMMET066KIML 152058Z 30020KT 15SM SCT080 SCT200 16/05 A2987 RMK T01600053;EQDQ01+000000PRSWM2
0197725626999992000022514464+40520-101620FM-15+0998KIML V0203201N008210075019N0241401N1+00401-00401999999ADDGD12991+0045099GD23991+0075099GD34991+0300099GF108991999999999999999999MA1099421999999MW1001REMMET074KIML 251446Z 32016KT 15SM SCT015 BKN025 OVC100 04/M04 A2936 RMK T00401038;EQDQ01+000000PRSWM2
0190725626999992000030612484+40520-101620FM-15+0998KIML V0202301N003612200019N0241401N1+00401-00601999999ADDGF100991999999999999999999MA1100511999999MW1001REMMET112KIML 061248Z 23007KT 15SM SKC 04/M06 A2968 RMK FIRST T00401057 24HR HIGH 20.0 CELSIUS OVERNIGHT LOW 3.3 CELSIUS;EQDQ01+000000PRSWM2
0204725626999992000031522004+40520-101620FM-15+0998KIML V0200301N006210036019N0241401N1+00301-00101999999ADDGD12991+0024099GD23991+0036099GD34991+0075099GF108991999999999999999999MA1101831999999MW1001REMMET081KIML 152158Z 03012KT 15SM SCT008 BKN012 OVC025 03/M01 A3007 RMK PRESRR T00301012;EQDQ01+000000PRSWM2
0182725626999992000031620004+40520-101620FM-15+0998KIML V0202201N002610600019N0241401N1+00701-00401999999ADDGD12991+0180099GD23991+0600099GF107991999999999999999999MA1102131999999MW1001REMMET074KIML 161955Z 22005KT 15SM SCT060 BKN200 07/M04 A3016 RMK PRESFR T00701042;EQDQ01+000000PRSWM2
0174725626999992000032618004+40520-101620FM-15+0998KIML V0200101N007710600019N0241401N1+01401+00101999999ADDGD12991+0300099GD23991+0600099GF107991999999999999999999MA1101591999999MW1001REMMET066KIML 261759Z 01015KT 15SM SCT100 BKN200 14/01 A3000 RMK T01400008;EQDQ01+000000PRSWM2
0134725626999992000040816454+40520-101620FM-15+0998KIML V0202301N005112200019N0241401N1+01101+00001999999ADDGF100991999999999999999999MA1102641999999MW1001REMMET056KIML 081645Z 23010KT 15SM SKC 11/00 A3031 RMK T01101002;EQDQ01+000000PRSWM2
0175725626999992000042113464+40520-101620FM-15+0998KIML V0209999C000010600019N0241401N1+00401-00601999999ADDGD12991+0360099GD23991+0600099GF107991999999999999999999MA1102201999999MW1001REMMET067KIML 211346Z 00000KT 15SM SCT120 BKN200 04/M06 A3018 RMK T00401057;EQDQ01+000000PRSWM2
0244725626999992000042422544+40520-101620FM-15+0998KIML V0203001N006210075019N0241401N1+01701+00401999999ADDGD12991+0045099GD23991+0075099GD34991+0150099GF108991999999999999999999MW1001REMMET120KIML 242254Z 30012KT 15SM SCT015 BKN025 OVC050 17/04 A2888 RMK T01700041 DAYTIME HIGH 23.9 CELSIUS 24HR LOW 9.4 CELSIUS;EQDQ01+097803APOA  Q02+000000PRSWM2
0152725626999992000042513504+40520-101620FM-15+0998KIML V0203101N006212200019N0241401N1+00801+00201999999ADDGD12991+0600099GF102991999999999999999999MA1102271999999MW1001REMMET059KIML 251350Z 31012KT 15SM FEW200 08/02 A3020 RMK T00800020;EQDQ01+000000PRSWM2
0196725626999992000050517004+40520-101620FM-15+0998KIML V0201501N004112200019N0160931N1+02301+01601999999ADDGD12991+0021099GD22991+0036099GD32991+0060099GF104991999999999999999999MA1101021999999MW1001REMMET073KIML 051656Z 15008KT 10SM FEW007 SCT012 SCT020 23/16 A2983 RMK T02300158;EQDQ01+000000PRSWM2
0196725626999992000050916004+40520-101620FM-15+0998KIML V0203401N002110210019N0241401N1+01301+00601999999ADDGD12991+0135099GD23991+0210099GD33991+0360099GF107991999999999999999999MA1101591999999MW1001REMMET073KIML 091555Z 34004KT 15SM SCT045 BKN070 BKN120 13/06 A3000 RMK T01300062;EQDQ01+000000PRSWM2
