0366726686240252000081222523+44383-100283FM-15+0528PIR  V0200105N007252200059N0720005N1+03355+01345101315ADDGD11995+0270019GD22995+0690019GF103995999999999999999999MA1101561999999MW1001REMMET074KPIR 122252Z 01014KT 45SM FEW090 SCT230 34/13 A29997 RMK SLP131 T03350134;EQDQ01+000000PRSWM2N01 00000JPWTH 0QNNE71D0 00299F71 0 00199E71D0 00299F71 0 00299G71U0 99999K71D0 00056J71 0 00134L71 0 04500N71 0 00000Q71 0 10131S71D0 00092R71 0 00335V71D0 00499U71 0 00399X71 0 01014
0054726686240252000081408009+44383-100283NSRDB+052899999V020999999999999999999999999999+99999+99999999999ADDGP10060000002000000002000000002000GR100600000900009
0260726686240252000081511003+44383-100283FM-15+0528PIR  V0200705N002152200059N019200599+01735+01235102105ADDGD12995+9999999GF103995999999999999999999GP10060000002000000002000000002000GR100600000900009EQDN01 00000JPWTH 0QNNE71D0 00299F71 0 00299G71U0 99999K71D0 00054J71 0 00123L71 0 01200N71 0 00000Q71 0 10210S71D0 00063R71 0 00173V71D0 00499U71 0 00399X71 0 07004
0332726686240252000081515513+44383-100283FM-15+0528PIR  V0200905N004152200059N0720005N1+02515+00885102425ADDGD12995+0450019GF104995999999999999999999MA1102541999999MW1001OC100771REMMET069KPIR 151551Z 09008G15KT 45SM SCT150 25/09 A3028 RMK SLP242 T02510088;EQDQ01+000000PRSWM2N01 00000JPWTH 0QNNE71D0 00299F71 0 00299G71U0 99999K71D0 00048J71 0 00088L71 0 04500N71 0 00000Q71 0 10242S71D0 00077R71 0 00251V71D0 00599U71 0 00499X71 0 09008
0071726686240252000081719009+44383-100283NSRDB+052899999V020999999999999999999999999999+99999+99999999999ADDGP10060081502008076302015016402008GQ100600316917309GR100601136913339
0314726686240252000081813003+44383-100283FM-15+0528PIR  V0200905N003152200059N012800599+01135+01045102425ADDGD11995+9999999GD22995+9999999GF104995999999999999999999GP10060002702008000002015002702008GQ100600835907829GR100600152913349EQDN01 00000JPWTH 0QNNE71D0 00299F71 0 00199E71D0 00299F71 0 00299G71U0 99999K71D0 00051J71 0 00104L71 0 00800N71 0 00000Q71 0 10242S71D0 00052R71 0 00113V71D0 00599U71 0 00499X71 0 09006
0277726686240252000082001003+44383-100283FM-15+0528PIR  V0201205N010352200059N032000599+02275+01695101115ADDGD10005+9999999GF100995999999999999999999GP10060011002008018902015007302008GQ100600787927649GR100600261913349EQDN01 00000JPWTH 0QNNE71D0 00000F71 0 00000G71U0 99999K71D0 00062J71 0 00169L71 0 02000N71 0 00000Q71 0 10111S71D0 00073R71 0 00227V71D0 00099U71 0 00099X71 0 12020
0260726686240252000082004003+44383-100283FM-15+0528PIR  V0201205N007752200059N019200599+01925+01655101245ADDGD12995+9999999GF103995999999999999999999GP10060000002000000002000000002000GR100600000900009EQDN01 00000JPWTH 0QNNE71D0 00299F71 0 00299G71U0 99999K71D0 00062J71 0 00165L71 0 01200N71 0 00000Q71 0 10124S71D0 00067R71 0 00192V71D0 00499U71 0 00399X71 0 12015
0389726686240252000082109503+44383-100283FM-15+0528PIR  V0203505N008850304859N0096005N1+01955+01755101585ADDGD12995+0180019GD23995+0300019GF107995999999999999999999MA1101731999999MW1055REMMET081KPIR 210950Z 35017KT 6SM HZ SCT060 BKN100 20/18 A3004 RMK TSE09 SLP158 T01950175;EQDQ01+000003PRSWM1Q02    003PRSWM1N01 00081JPWTH 0QNNE71D0 00299F71 0 00299E71D0 00499F71 0 00499G71 0 00100K71D0 00064J71 0 00175L71 0 00600N71 0 00081Q71 0 10158S71D0 00067R71 0 00195V71D0 00999U71 0 00799X71 0 35017
0054726686240252000082207009+44383-100283NSRDB+052899999V020999999999999999999999999999+99999+99999999999ADDGP10060000002000000002000000002000GR100600000900009
0321726686240252000082507513+44383-100283FM-15+0528PIR  V0201705N004650396259N0192005N1+03025+00955101035ADDGD14995+0390019GF108995999999999999999999MA1101251999999MW1001REMMET066KPIR 250751Z 17009KT 12SM OVC130 30/10 A2990 RMK SLP103 T03020095;EQDQ01+000000PRSWM2N01 00000JPWTH 0QNNE71D0 00699F71 0 00699G71 0 00130K71D0 00049J71 0 00095L71 0 01200N71 0 00000Q71 0 10103S71D0 00086R71 0 00302V71D0 01099U71 0 00899X71 0 17009
0157726686240252000082615144+44380-100270FM-16+0531KPIR V0200901N00411000151CN0012071N1+02101+02001999999ADDGD15991+0001519GF109991999999000251999999MA1101461999999MW1101REMMET048KPIR 261514Z 09008KT 3/4SM BR VV003 21/20 A2996;EQDQ01+000003PRSWM1Q02    003PRSWM1
0071726686240252000082720009+44383-100283NSRDB+052899999V020999999999999999999999999999+99999+99999999999ADDGP10060065202008040102015032802008GQ100600363920009GR100601079913399
0339726686240252000082815503+44383-100283FM-15+0528PIR  V0203005N009350762059N0320005N1+02925+01355100475ADDGD13995+0750019GF106995999999999999999999MA1100641999999MW1001OC101801REMMET076KPIR 281550Z 30018G35KT 20SM BKN250 29/14 A2972 RMK PRESRR SLP047 T02920135;EQDQ01+000000PRSWM2N01 00000JPWTH 0QNNE71D0 00499F71 0 00499G71 0 00250K71D0 00056J71 0 00135L71 0 02000N71 0 00000Q71 0 10047S71D0 00085R71 0 00292V71D0 00899U71 0 00699X71 0 30018
0289726686240252000082817003+44383-100283FM-15+0528PIR  V0203205N009850609659N008000599+02575+01605100815ADDGD13995+9999999GF107995999999999999999999GP10060067302008079302015011302008GQ100600452913089GR100600943913409MW1055MW2075EQDN01 07381JPWTH 0QNNE71D0 00499F71 0 00499G71 0 00200K71D0 00061J71 0 00160L71 0 00500N71 0 07381Q71 0 10081S71D0 00078R71 0 00257V71D0 00999U71 0 00799X71 0 32019
0376726686240252000082819503+44383-100283FM-15+0528PIR  V0203305N008852200059N0320005N1+02885+00975101145ADDGD11995+0540019GD22995+0750019GF104995999999999999999999MA1101291999999MW1001OC101541REMMET076KPIR 281950Z 33017G30KT 20SM FEW180 SCT250 29/10 A2991 RMK SLP114 T02880097;EQDQ01+000000PRSWM2N01 00000JPWTH 0QNNE71D0 00299F71 0 00199E71D0 00299F71 0 00299G71U0 99999K71D0 00049J71 0 00097L71 0 02000N71 0 00000Q71 0 10114S71D0 00084R71 0 00288V71D0 00599U71 0 00499X71 0 33017
0071726686240252000082915009+44383-100283NSRDB+052899999V020999999999999999999999999999+99999+99999999999ADDGP10060036502008054102015013102008GQ100600644910299GR100600578913409
0260726686240252000083007003+44383-100283FM-15+0528PIR  V0201205N008850609659N019200599+01885+01305101005ADDGD13995+9999999GF107995999999999999999999GP10060000002000000002000000002000GR100600000900009EQDN01 00000JPWTH 0QNNE71D0 00499F71 0 00499G71 0 00200K71D0 00055J71 0 00130L71 0 01200N71 0 00000Q71 0 10100S71D0 00066R71 0 00188V71D0 00999U71 0 00799X71 0 12017
0159726686240252000090512494+44380-100270FM-15+0531KPIR V0201101N007710045019N0321861N1+01901+01701101751ADDGD14991+0045019GF108991999999999999999999MA1101861999999MW1001REMMET066KPIR 051249Z 11015KT 20SM OVC015 19/17 A3008 RMK SLP175 T01890167;EQDQ01+000000PRSWM2
0326726686240252000090712503+44383-100283FM-15+0528PIR  V0202805N00525220005MN0160005N1+01505+00835101925ADDGD19999+0540019GF102991999999999999999999MA1102005999999MW1001REMMET066KPIR 071250Z 28011KT 45SM FEW180 14/09 A3013 RMK SLP195 T01440091;EQDQ01+000000PRSWM2N01 00000JPWTH 0P01     03SCCGD1QNNAA1D0 00000BA1 0 00000GA1U0 99999KA1D0 00047JA1 0 00083LA1 0 01000CA1 0 03012NA1 0 00000QA1 0 10192SA1D0 00059RA1 0 00150YA1 0 28010
0071726686240252000090902009+44383-100283NSRDB+052899999V020999999999999999999999999999+99999+99999999999ADDGP10060000002008000002015000002008GQ100600898927779GR100600000900569
0071726686240252000090917009+44383-100283NSRDB+052899999V020999999999999999999999999999+99999+99999999999ADDGP10060066802008086002015009602008GQ100600484913519GR100600894913489
0301726686240252000091001533+44383-100283FM-15+0528PIR  V0203105N00775220005MN0160005N1+01945+00175100795ADDGF100991999999999999999999MA1100915999999MW1001REMMET072KPIR 100153Z AUTO 31015KT 10SM CLR 19/02 A2980 RMK AO2 SLP079 T01940017;EQDQ01+000000PRSWM2N01 00000JPWTH 0QNNAA1D0 00000BA1 0 00000GA1U0 99999KA1D0 00035JA1 0 00017LA1 0 01000CA1 0 02980NA1 0 00000QA1 0 10079SA1D0 00067RA1 0 00194YA1 0 31015
0054726686240252000091012009+44383-100283NSRDB+052899999V020999999999999999999999999999+99999+99999999999ADDGP10060000002000000002000000002000GR100600000900009
0071726686240252000091023009+44383-100283NSRDB+052899999V020999999999999999999999999999+99999+99999999999ADDGP10060039102008071802015008002008GQ100600644924979GR100600582913489
0071726686240252000091119009+44383-100283NSRDB+052899999V020999999999999999999999999999+99999+99999999999ADDGP10060054302008025202015035002008GQ100600404917719GR100601028913499
0312726686240252000091216533+44383-100283FM-15+0528PIR  V0202005N00775220005MN0160005N1+02725+00675101245ADDGF100991999999999999999999MA1101325999999MW1001OC101081REMMET075KPIR 121653Z AUTO 20015G21KT 10SM CLR 27/07 A2992 RMK AO2 SLP124 T02720067;EQDQ01+000000PRSWM2N01 00000JPWTH 0QNNAA1D0 00000BA1 0 00000GA1U0 99999KA1D0 00044JA1 0 00067LA1 0 01000CA1 0 02992NA1 0 00000QA1 0 10124SA1D0 00081RA1 0 00272YA1 0 20015
0071726686240252000091323009+44383-100283NSRDB+052899999V020999999999999999999999999999+99999+99999999999ADDGP10060037302008065802015009902008GQ100600654924909GR100600562913519
0359726686240252000091423533+44383-100283FM-15+0528PIR  V0200405N00365220005MN0160005N1+02395+00005102375ADDGF100991999999999999999999KA1999M+02721KA2999N+02391MA1102405999999MD1510091+9999MW1001REMMET090KPIR 142353Z AUTO 04007KT 10SM CLR 24/00 A3024 RMK AO2 SLP237 T02390000 10272 20239 55009;EQDQ01+000000PRSWM2N01 00000JPWTH 0QNNAA1D0 00000BA1 0 00000GA1U0 99999KA1D0 00032JA1 0 00000LA1 0 01000CA1 0 03024NA1 0 00000QA1 0 10237SA1D0 00075RA1 0 00239YA1 0 04007
0054726686240252000091606009+44383-100283NSRDB+052899999V020999999999999999999999999999+99999+99999999999ADDGP10060000002000000002000000002000GR100600000900009
0071726686240252000092321009+44383-100283NSRDB+052899999V020999999999999999999999999999+99999+99999999999ADDGP10060024102008001802015023002008GQ100600519921829GR100600838913589
0054726686240252000092704009+44383-100283NSRDB+052899999V020999999999999999999999999999+99999+99999999999ADDGP10060000002000000002000000002000GR100600000900009
0054726686240252000092705009+44383-100283NSRDB+052899999V020999999999999999999999999999+99999+99999999999ADDGP10060000002000000002000000002000GR100600000900009
0302726686240252000092716533+44383-100283FM-15+0528PIR  V0201505N00415220005MN0160005N1+02065-00115102075ADDGF100991999999999999999999MA1102135999999MW1001REMMET073KPIR 271653Z AUTO 15008KT 10SM CLR 21/M01 A3016 RMK AO2 SLP207 T02061011;EQDQ01+000000PRSWM2N01 00000JPWTH 0QNNAA1D0 00000BA1 0 00000GA1U0 99999KA1D0 00030JA1 0-00011LA1 0 01000CA1 0 03016NA1 0 00000QA1 0 10207SA1D0 00069RA1 0 00206YA1 0 15008
0301726686240252000092810533+44383-100283FM-15+0528PIR  V0209999C00005220005MN0160005N1+00675+00065101835ADDGF100991999999999999999999MA1101905999999MW1001REMMET072KPIR 281053Z AUTO 00000KT 10SM CLR 07/01 A3009 RMK AO2 SLP183 T00670006;EQDQ01+000000PRSWM2N01 00000JPWTH 0QNNAA1D0 00000BA1 0 00000GA1U0 99999KA1D0 00033JA1 0 00006LA1 0 01000CA1 0 03009NA1 0 00000QA1 0 10183SA1D0 00044RA1 0 00067YA1 0 00000
0319726686240252000100221533+44383-100283FM-15+0528PIR  V0203105N00415025915MN0160005N1+02335+00395100845ADDGD13995+0259159GF107991999999999999999999MA1100885999999MW1001REMMET075KPIR 022153Z AUTO 31008KT 10SM BKN085 23/04 A2979 RMK AO2 SLP084 T02330039;EQDQ01+000000PRSWM2N01 00000JPWTH 0QNNAA1D0 04085BA1 0 04085GA1 0 00085KA1D0 00039JA1 0 00039LA1 0 01000CA1 0 02979NA1 0 00000QA1 0 10084SA1D0 00074RA1 0 00233YA1 0 31008
0343726686240252000100316533+44383-100283FM-15+0528PIR  V0200405N00675018295MN0160005N1+00785-00065102065ADDAA101000021GD14995+0182959GF108991999999999999999999MA1102035999999MW1001REMMET088KPIR 031653Z AUTO 04013KT 10SM OVC060 08/M01 A3013 RMK AO2 RAE08 SLP206 P0000 T00781006;EQDQ01+000000PRSWM2N01 00000JPWTH 0QNNAA1D0 06060BA1 0 06060GA1 0 00060KA1D0 00031JA1 0-00006LA1 0 01000CA1 0 03013NA1 0 00000QA1 0 10206SA1D0 00046RA1 0 00078YA1 0 04013
0071726686240252000100400009+44383-100283NSRDB+052899999V020999999999999999999999999999+99999+99999999999ADDGP10060001902008000002015001902008GQ100600824925639GR100600181913669
0054726686240252000101309009+44383-100283NSRDB+052899999V020999999999999999999999999999+99999+99999999999ADDGP10060000002000000002000000002000GR100600000900009
0319726686240252000101422533+44383-100283FM-15+0528PIR  V0200105N00415220005MN0160005N1+01395+00505101865ADDGD12995+0106759GF104991999999999999999999MA1101835999999MW1001REMMET075KPIR 142253Z AUTO 01008KT 10SM SCT035 14/05 A3007 RMK AO2 SLP186 T01390050;EQDQ01+000000PRSWM2N01 00000JPWTH 0QNNAA1D0 02035BA1 0 02035GA1U0 99999KA1D0 00041JA1 0 00050LA1 0 01000CA1 0 03007NA1 0 00000QA1 0 10186SA1D0 00057RA1 0 00139YA1 0 01008
0319726686240252000101616533+44383-100283FM-15+0528PIR  V0209999V00155220005MN0160005N1+01565+00675101755ADDGD12995+0335359GF104991999999999999999999MA1101765999999MW1001REMMET075KPIR 161653Z AUTO VRB03KT 10SM SCT110 16/07 A3005 RMK AO2 SLP175 T01560067;EQDQ01+000000PRSWM2N01 00000JPWTH 0QNNAA1D0 02110BA1 0 02110GA1U0 99999KA1D0 00044JA1 0 00067LA1 0 01000CA1 0 03005NA1 0 00000QA1 0 10175SA1D0 00060RA1 0 00156YA1 0 00003
0054726686240252000101702009+44383-100283NSRDB+052899999V020999999999999999999999999999+99999+99999999999ADDGP10060000002000000002000000002000GR100600000900009
0301726686240252000101721533+44383-100283FM-15+0528PIR  V0203005N00675220005MN0160005N1+02675+00005101785ADDGF100991999999999999999999MA1101835999999MW1001REMMET072KPIR 172153Z AUTO 30013KT 10SM CLR 27/00 A3007 RMK AO2 SLP178 T02670000;EQDQ01+000000PRSWM2N01 00000JPWTH 0QNNAA1D0 00000BA1 0 00000GA1U0 99999KA1D0 00032JA1 0 00000LA1 0 01000CA1 0 03007NA1 0 00000QA1 0 10178SA1D0 00080RA1 0 00267YA1 0 30013
0054726686240252000102006009+44383-100283NSRDB+052899999V020999999999999999999999999999+99999+99999999999ADDGP10060000002000000002000000002000GR100600000900009
0321726686240252000102114533+44383-100283FM-15+0528PIR  V0201205N00675220005MN0160005N1+01285+00115101235ADDGF100991999999999999999999MA1101255999999MD1610031+9999MW1001REMMET078KPIR 211453Z AUTO 12013KT 10SM CLR 13/01 A2990 RMK AO2 SLP123 T01280011 56003;EQDQ01+000000PRSWM2N01 00000JPWTH 0QNNAA1D0 00000BA1 0 00000GA1U0 99999KA1D0 00034JA1 0 00011LA1 0 01000CA1 0 02990NA1 0 00000QA1 0 10123SA1D0 00055RA1 0 00128YA1 0 12013
0312726686240252000102116533+44383-100283FM-15+0528PIR  V0201205N00825220005MN0160005N1+01835+00285101075ADDGF100991999999999999999999MA1101125999999MW1001OC101131REMMET075KPIR 211653Z AUTO 12016G22KT 10SM CLR 18/03 A2986 RMK AO2 SLP107 T01830028;EQDQ01+000000PRSWM2N01 00000JPWTH 0QNNAA1D0 00000BA1 0 00000GA1U0 99999KA1D0 00037JA1 0 00028LA1 0 01000CA1 0 02986NA1 0 00000QA1 0 10107SA1D0 00065RA1 0 00183YA1 0 12016
0319726686240252000102413533+44383-100283FM-15+0528PIR  V0201305N00365220005MN0160005N1+01285+00945102415ADDGD11995+0042759GF102991999999999999999999MA1102375999999MW1001REMMET075KPIR 241353Z AUTO 13007KT 10SM FEW014 13/09 A3023 RMK AO2 SLP241 T01280094;EQDQ01+000000PRSWM2N01 00000JPWTH 0QNNAA1D0 02014BA1 0 01014GA1U0 99999KA1D0 00049JA1 0 00094LA1 0 01000CA1 0 03023NA1 0 00000QA1 0 10241SA1D0 00055RA1 0 00128YA1 0 13007
0389726686240252000102418533+44383-100283FM-15+0528PIR  V0201205N00625004575MN0160005N1+01785+01175101995ADDAA101000021GD13995+0045759GD24995+0106759GF108991999999999999999999MA1102035999999MW1001REMMET097KPIR 241853Z AUTO 12012KT 10SM BKN015 OVC035 18/12 A3013 RMK AO2 RAB10E21 SLP199 P0000 T01780117;EQDQ01+000000PRSWM2N01 00000JPWTH 0QNNAA1D0 04015BA1 0 04015AA1D0 06035BA1 0 06035GA1 0 00015KA1D0 00053JA1 0 00117LA1 0 01000CA1 0 03013NA1 0 00000QA1 0 10199SA1D0 00064RA1 0 00178YA1 0 12012
0054726686240252000102503009+44383-100283NSRDB+052899999V020999999999999999999999999999+99999+99999999999ADDGP10060000002000000002000000002000GR100600000900009
0319726686240252000102504533+44383-100283FM-15+0528PIR  V0201405N00315000915MN0160005N1+01725+01565101335ADDGD14995+0009159GF108991999999999999999999MA1101395999999MW1001REMMET075KPIR 250453Z AUTO 14006KT 10SM OVC003 17/16 A2994 RMK AO2 SLP133 T01720156;EQDQ01+000000PRSWM2N01 00000JPWTH 0QNNAA1D0 06003BA1 0 06003GA1 0 00003KA1D0 00060JA1 0 00156LA1 0 01000CA1 0 02994NA1 0 00000QA1 0 10133SA1D0 00063RA1 0 00172YA1 0 14006
0447726686240252000102817533+44383-100283FM-15+0528PIR  V0201305N00825001835MN0112005N1+01115+00945101705ADDAA101000021AA206000021GD14995+0018359GF108991999999999999999999KA1999M+01111KA2999N+00941MA1101665999999MD1810161+9999MW1615OC101081REMMET117KPIR 281753Z AUTO 13016G21KT 7SM -RA OVC006 11/09 A3002 RMK AO2 RAB37 SLP170 P0000 60000 T01110094 10111 20094 58016;EQDQ01+000003PRSWM1Q02    003PRSWM1N01 00020JPWTH 0QNNAA1D0 06006BA1 0 06006GA1 0 00006KA1D0 00049JA1 0 00094LA1 0 00700CA1 0 03002NA1 0 00020QA1 0 10170SA1D0 00052RA1 0 00111YA1 0 13016
0343726686240252000103006533+44383-100283FM-15+0528PIR  V0201005N00525000915MN0080005N1+01285+01115101035ADDGD14995+0009159GF108991999999999999999999MA1101055999999MW1101MW2455REMMET077KPIR 300653Z AUTO 10010KT 5SM BR OVC003 13/11 A2984 RMK AO2 SLP103 T01280111;EQDQ01+000003PRSWM1Q02    003PRSWM1N01 00070JPWTH 0QNNAA1D0 06003BA1 0 06003GA1 0 00003KA1D0 00052JA1 0 00111LA1 0 00500CA1 0 02984NA1 0 00070QA1 0 10103SA1D0 00055RA1 0 00128YA1 0 10010
0343726686240252000103007533+44383-100283FM-15+0528PIR  V0201005N00365000915MN0080005N1+01285+01115101045ADDGD14995+0009159GF108991999999999999999999MA1101085999999MW1101MW2455REMMET077KPIR 300753Z AUTO 10007KT 5SM BR OVC003 13/11 A2985 RMK AO2 SLP104 T01280111;EQDQ01+000003PRSWM1Q02    003PRSWM1N01 00070JPWTH 0QNNAA1D0 06003BA1 0 06003GA1 0 00003KA1D0 00052JA1 0 00111LA1 0 00500CA1 0 02985NA1 0 00070QA1 0 10104SA1D0 00055RA1 0 00128YA1 0 10007
0054726686240252000110210009+44383-100283NSRDB+052899999V020999999999999999999999999999+99999+99999999999ADDGP10060000002000000002000000002000GR100600000900009
0054726686240252000110312009+44383-100283NSRDB+052899999V020999999999999999999999999999+99999+99999999999ADDGP10060000002000000002000000002000GR100600000900009
0054726686240252000110805009+44383-100283NSRDB+052899999V020999999999999999999999999999+99999+99999999999ADDGP10060000002000000002000000002000GR100600000900009
0437726686240252000110917533+44383-100283FM-15+0528PIR  V0203105N00725003965MN0160005N1-00675-01065101725ADDAA101000021AA206000021GD14995+0039659GF108991999999999999999999KA1999M-00671KA2999N-01171MA1101425999999MW1001REMMET113KPIR 091753Z AUTO 31014KT 10SM OVC013 M07/M11 A2995 RMK AO2 UPE23 SLP172 P0000 60000 T10671106 11067 21117 58000;EQDQ01+000082APCTENQ02+000002APC3  Q03+000000PRSWM2N01 00000JPWTH 0QNNAA1D0 06013BA1 0 06013GA1 0 00013KA1D0 00013JA1 0-00106LA1 0 01000CA1 0 02995NA1 0 00000QA1 0 10172SA1D0 00020RA1 0-00067YA1 0 31014
0238726686240252000111007003+44383-100283FM-15+0528PIR  V0202905N00465004575MN016000599-00675-00945102285ADDGD14995+0045759GP10060000002000000002000000002000GR100600000900009MA1102005999999EQDN01 00000JPWTH 0QNNAA1D0 06015BA1 0 06015GA1 0 00015KA1D0 00015JA1 0-00094LA1 0 01000CA1 0 03012NA1 0 00000QA1 0 10228SA1D0 00020RA1 0-00067YA1 0 29009
0323726686240252000111502533+44383-100283FM-15+0528PIR  V0202605N00365220005MN0160005N1-00565-01005101705ADDGF100991999999999999999999MA1101425999999MD1610101+9999MW1001REMMET080KPIR 150253Z AUTO 26007KT 10SM CLR M06/M10 A2995 RMK AO2 SLP170 T10561100 56010;EQDQ01+000000PRSWM2N01 00000JPWTH 0QNNAA1D0 00000BA1 0 00000GA1U0 99999KA1D0 00014JA1 0-00100LA1 0 01000CA1 0 02995NA1 0 00000QA1 0 10170SA1D0 00022RA1 0-00056YA1 0 26007
0347726686240252000111806533+44383-100283FM-15+0528PIR  V0203205N00725011285MN0160005N1-00445-01005102305ADDAA101000021GD14995+0112859GF108991999999999999999999MA1102075999999MW1001REMMET092KPIR 180653Z AUTO 32014KT 10SM OVC037 M04/M10 A3014 RMK AO2 SNB13E42 SLP230 P0000 T10441100;EQDQ01+000000PRSWM2N01 00000JPWTH 0QNNAA1D0 06037BA1 0 06037GA1 0 00037KA1D0 00014JA1 0-00100LA1 0 01000CA1 0 03014NA1 0 00000QA1 0 10230SA1D0 00024RA1 0-00044YA1 0 32014
0245726686240252000111912394+44380-100270FM-15+0531KPIR V0203201N013910270019N0096561N1-00101-00601999999ADDAA101000021GD12991+0102019GD22991+0150019GD34991+0270019GF108991999999999999999999MA1101421999999MW1001OC101901REMMET103KPIR 191239Z AUTO 32027G37KT 6SM UP FEW034 SCT055 OVC090 M01/M06 A2995 RMK AO2 PK WND 31042/1222 P0000;EQDQ01+000000PRSWM2
0303726686240252000112221533+44383-100283FM-15+0528PIR  V0209999C00005220005MN0160005N1-00565-00785102145ADDGF100991999999999999999999MA1101835999999MW1001REMMET074KPIR 222153Z AUTO 00000KT 10SM CLR M06/M08 A3007 RMK AO2 SLP214 T10561078;EQDQ01+000000PRSWM2N01 00000JPWTH 0QNNAA1D0 00000BA1 0 00000GA1U0 99999KA1D0 00018JA1 0-00078LA1 0 01000CA1 0 03007NA1 0 00000QA1 0 10214SA1D0 00022RA1 0-00056YA1 0 00000
0303726686240252000112403533+44383-100283FM-15+0528PIR  V0209999C00005220005MN0160005N1-00565-00725102165ADDGF100991999999999999999999MA1101905999999MW1001REMMET074KPIR 240353Z AUTO 00000KT 10SM CLR M06/M07 A3009 RMK AO2 SLP216 T10561072;EQDQ01+000000PRSWM2N01 00000JPWTH 0QNNAA1D0 00000BA1 0 00000GA1U0 99999KA1D0 00019JA1 0-00072LA1 0 01000CA1 0 03009NA1 0 00000QA1 0 10216SA1D0 00022RA1 0-00056YA1 0 00000
0054726686240252000112502009+44383-100283NSRDB+052899999V020999999999999999999999999999+99999+99999999999ADDGP10060000002000000002000000002000GR100600000900009
0324726686240252000112508533+44383-100283FM-15+0528PIR  V0203005N00675220005MN0160005N1+00065-00285102035ADDGF100991999999999999999999MA1101865999999MD1310121+9999MW1001REMMET081KPIR 250853Z AUTO 30013KT 10SM CLR 01/M03 A3008 RMK AO2 SLP203 T00061028 53012 $;EQDQ01+000000PRSWM2N01 00000JPWTH 0QNNAA1D0 00000BA1 0 00000GA1U0 99999KA1D0 00027JA1 0-00028LA1 0 01000CA1 0 03008NA1 0 00000QA1 0 10203SA1D0 00033RA1 0 00006YA1 0 30013
0278726686240252000112820454+44380-100270FM-15+0531KPIR V0203001N015410087019N0144841N1+00301-00201999999ADDAA101000391GD12991+0072019GD23991+0087019GD34991+0135019GF108991999999999999999999MA1101291999999MW1711OC101951REMMET120KPIR 282045Z AUTO 30030G38KT 9SM -SN FEW024 BKN029 OVC045 03/M02 A2991 RMK AO2 PK WND 31042/2024 UPE39SNB16E28B39 P0001;EQDQ01+000003PRSWM1Q02    003PRSWM1
0359726686240252000112908533+44383-100283FM-15+0528PIR  V0203205N01295008535MN0160005N1-00065-00565102465ADDGD14995+0085359GF108991999999999999999999MA1102305999999MD1310291+9999MW1001REMMET101KPIR 290853Z AUTO 32025KT 10SM OVC028 M01/M06 A3021 RMK AO2 PK WND 32029/0847 SLP246 T10061056 53029;EQDQ01+000000PRSWM2N01 00000JPWTH 0QNNAA1D0 06028BA1 0 06028GA1 0 00028KA1D0 00022JA1 0-00056LA1 0 01000CA1 0 03021NA1 0 00000QA1 0 10246SA1D0 00031RA1 0-00006YA1 0 32025
0409726686240252000120109533+44383-100283FM-15+0528PIR  V0203505N00415008535MN0160005N1-00615-00835103325ADDGD11995+0033559GD23995+0085359GD34995+0118959GF108991999999999999999999MA1103055999999MW1001REMMET091KPIR 010953Z AUTO 35008KT 10SM FEW011 BKN028 OVC039 M06/M08 A3043 RMK AO2 SLP332 T10611083;EQDQ01+000000PRSWM2N01 00000JPWTH 0QNNAA1D0 02011BA1 0 01011AA1D0 04028BA1 0 04028AA1D0 06039BA1 0 06039GA1 0 00028KA1D0 00017JA1 0-00083LA1 0 01000CA1 0 03043NA1 0 00000QA1 0 10332SA1D0 00021RA1 0-00061YA1 0 35008
0054726686240252000120509009+44383-100283NSRDB+052899999V020999999999999999999999999999+99999+99999999999ADDGP10060000002000000002000000002000GR100600000900009
0071726686240252000121016009+44383-100283NSRDB+052899999V020999999999999999999999999999+99999+99999999999ADDGP10060015302009051502021005802009GQ100600794913779GR100600259914119
0054726686240252000121110009+44383-100283NSRDB+052899999V020999999999999999999999999999+99999+99999999999ADDGP10060000002000000002000000002000GR100600000900009
0238726686240252000121413003+44383-100283FM-15+0528PIR  V0200905N00365000305MN014400599-01895-02065102195ADDGD14995+0003059GP10060000002000000002000000002000GR100600000900009MA1101735999999EQDN01 00000JPWTH 0QNNAA1D0 06001BA1 0 06001GA1 0 00001KA1D0-00005JA1 0-00206LA1 0 00900CA1 0 03004NA1 0 00000QA1 0 10219SA1D0-00002RA1 0-00189YA1 0 09007
0054726686240252000121703009+44383-100283NSRDB+052899999V020999999999999999999999999999+99999+99999999999ADDGP10060000002000000002000000002000GR100600000900009
0071726686240252000121716009+44383-100283NSRDB+052899999V020999999999999999999999999999+99999+99999999999ADDGP10060015802009058902021005602009GQ100600801913729GR100600242914139
0054726686240252000122309009+44383-100283NSRDB+052899999V020999999999999999999999999999+99999+99999999999ADDGP10060000002000000002000000002000GR100600000900009
0320726686240252000122807533+44383-100283FM-15+0528PIR  V0201705N00265033535MN0128005N1-00565-00785101525ADDGD13995+0335359GF107991999999999999999999MA1101295999999MW1001REMMET076KPIR 280753Z AUTO 17005KT 8SM BKN110 M06/M08 A2991 RMK AO2 SLP152 T10561078;EQDQ01+000000PRSWM2N01 00000JPWTH 0QNNAA1D0 04110BA1 0 04110GA1 0 00110KA1D0 00018JA1 0-00078LA1 0 00800CA1 0 02991NA1 0 00000QA1 0 10152SA1D0 00022RA1 0-00056YA1 0 17005
0344726686240252000123018533+44383-100283FM-15+0528PIR  V0203405N00215010975MN0160005N1-01335-01725103165ADDAA101000021GD14995+0109759GF108991999999999999999999MA1102785999999MW1001REMMET089KPIR 301853Z AUTO 34004KT 10SM OVC036 M13/M17 A3035 RMK AO2 SNE33 SLP316 P0000 T11331172;EQDQ01+000000PRSWM2N01 00000JPWTH 0QNNAA1D0 06036BA1 0 06036GA1 0 00036KA1D0 00001JA1 0-00172LA1 0 01000CA1 0 03035NA1 0 00000QA1 0 10316SA1D0 00008RA1 0-00133YA1 0 34004
0075726695999992000011211484+45930-102170FM-16+0781KY22 V02099999999992200019N9999999N1+99999+99999999999ADDMW1001REMMET038KY22 121148Z AUTO RMK PK WND M///M RM;EQDQ01+000000PRSWM2
0075726695999992000020805484+45930-102170FM-16+0781KY22 V02099999999992200019N9999999N1+99999+99999999999ADDMW1001REMMET038KY22 080548Z AUTO RMK PK WND M///M RM;EQDQ01+000000PRSWM2
0074726695999992000033106004+45930-102170FM-15+0781KY22 V02099999999992200019N9999999N1+99999+99999999999ADDMW1001REMMET037KY22 31054Z AUTO RMK PK WND M///M RM;EQDQ01+000000PRSWM2
0075726695999992000051711484+45930-102170FM-16+0781KY22 V02099999999992200019N9999999N1+99999+99999999999ADDMW1001REMMET038KY22 171148Z AUTO RMK PK WND M///M RM;EQDQ01+000000PRSWM2
0075726695999992000060923484+45930-102170FM-16+0781KY22 V02099999999992200019N9999999N1+99999+99999999999ADDMW1001REMMET038KY22 092348Z AUTO RMK PK WND M///M RM;EQDQ01+000000PRSWM2
0075726695999992000062023484+45920-102170FM-16+0781KY22 V02099999999992200019N9999999N1+99999+99999999999ADDMW1001REMMET038KY22 202348Z AUTO RMK PK WND M///M RM;EQDQ01+000000PRSWM2
0075726695999992000082105484+45920-102170FM-16+0781KY22 V02099999999992200019N9999999N1+99999+99999999999ADDMW1001REMMET038KY22 210548Z AUTO RMK PK WND M///M RM;EQDQ01+000000PRSWM2
0075726695999992000090711484+45920-102170FM-16+0781KY22 V02099999999992200019N9999999N1+99999+99999999999ADDMW1001REMMET038KY22 071148Z AUTO RMK PK WND M///M RM;EQDQ01+000000PRSWM2
0075726695999992000090823484+45920-102170FM-16+0781KY22 V02099999999992200019N9999999N1+99999+99999999999ADDMW1001REMMET038KY22 082348Z AUTO RMK PK WND M///M RM;EQDQ01+000000PRSWM2
0075726695999992000092105484+45920-102170FM-16+0781KY22 V02099999999992200019N9999999N1+99999+99999999999ADDMW1001REMMET038KY22 210548Z AUTO RMK PK WND M///M RM;EQDQ01+000000PRSWM2
0075726695999992000100123484+45920-102170FM-16+0781KY22 V02099999999992200019N9999999N1+99999+99999999999ADDMW1001REMMET038KY22 012348Z AUTO RMK PK WND M///M RM;EQDQ01+000000PRSWM2
0075726695999992000101511484+45920-102170FM-16+0781KY22 V02099999999992200019N9999999N1+99999+99999999999ADDMW1001REMMET038KY22 151148Z AUTO RMK PK WND M///M RM;EQDQ01+000000PRSWM2
0075726695999992000110417484+45920-102170FM-16+0781KY22 V02099999999992200019N9999999N1+99999+99999999999ADDMW1001REMMET038KY22 041748Z AUTO RMK PK WND M///M RM;EQDQ01+000000PRSWM2
0075726695999992000112917484+45920-102170FM-16+0781KY22 V02099999999992200019N9999999N1+99999+99999999999ADDMW1001REMMET038KY22 291748Z AUTO RMK PK WND M///M RM;EQDQ01+000000PRSWM2
0273726700999992000010812003+44520-109020FM-15+1553KCOD V0202401N010812200019N0160931N1-00101-01501999999ADDGD12991+0360019GF102991999999999999999999GP10060000002000000002000000002000GR100600000900009KA1999M+00201KA2999N-00101MA1101151999999MD1710201+9999MW1001OC101541REMMET081KCOD 081155Z AUTO 24021G30KT 10SM FEW120 M01/M15 A2987 RMK AO1 10020 21010 57020;EQDQ01+000000PRSWM2
0206726700999992000011609003+44520-109020FM-15+1553KCOD V0201701N003612200019N0160931N1-00201-00501999999ADDGF100991999999999999999999GP10060000002000000002000000002000GR100600000900009MA1101691999999MD1710171+9999MW1001REMMET063KCOD 160855Z AUTO 17007KT 10SM CLR M02/M05 A3003 RMK AO1 57017;EQDQ01+000000PRSWM2
0221726700999992000020120003+44520-109020FM-15+1553KCOD V0202801N005112200019N0160931N1+00601-00601999999ADDGF100991999999999999999999GP10060007902009000002021007902009GQ100600617918019GR100600667914099MA1101861999999MW1001OC100931REMMET067KCOD 011955Z AUTO 28010G18KT 240V300 10SM CLR 06/M06 A3008 RMK AO1;EQDQ01+000000PRSWM2
0214726700999992000021102003+44520-109020FM-15+1553KCOD V0200301N006210006019N0128741N1-00801-01001999999ADDGD14991+0006019GF108991999999999999999999GP10060000002000000002000000002000GR100600000900009MA1101351999999MW1001OC100981REMMET062KCOD 110155Z AUTO 03012G19KT 8SM OVC002 M08/M10 A2993 RMK AO1;EQDQ01+000000PRSWM2
0235726700999992000021502003+44520-109020FM-15+1553KCOD V0202401N008212200019N0160931N1+00701+00101999999ADDGD12991+0090019GD22991+0108019GF104991999999999999999999GP10060000002000000002000000002000GR100600000900009MA1099861999999MW1001OC101291REMMET068KCOD 150155Z AUTO 24016G25KT 10SM SCT030 SCT036 07/01 A2949 RMK AO1;EQDQ01+000000PRSWM2
0217726700999992000021909003+44520-109020FM-15+1553KCOD V0202501N008712200019N0160931N1-00201-01301999999ADDGF100991999999999999999999GP10060000002000000002000000002000GR100600000900009MA1102101999999MD1210031+9999MW1001OC101231REMMET066KCOD 190855Z AUTO 25017G24KT 10SM CLR M02/M13 A3015 RMK AO1 52003;EQDQ01+000000PRSWM2
0185726700999992000022102003+44520-109020FM-15+1553KCOD V0209999C000012200019N0160931N1+00101-00901999999ADDGF100991999999999999999999GP10060000002000000002000000002000GR100600000900009MA1101351999999MW1001REMMET056KCOD 210155Z AUTO 00000KT 10SM CLR 01/M09 A2993 RMK AO1;EQDQ01+000000PRSWM2
0186726700999992000022413003+44520-109020FM-15+1553KCOD V0209999C000012200019N0160931N1-00101-00601999999ADDGF100991999999999999999999GP10060000002000000002000000002000GR100600000900009MA1100201999999MW1001REMMET057KCOD 241255Z AUTO 00000KT 10SM CLR M01/M06 A2959 RMK AO1;EQDQ01+000000PRSWM2
0220726700999992000022902003+44520-109020FM-15+1553KCOD V0203001N003612200019N0160931N1+00701-00601999999ADDGD12991+0180019GF102991999999999999999999GP10060000002000000002000000002000GQ100600899925949GR100600000900129MA1100751999999MW1001REMMET059KCOD 290155Z AUTO 30007KT 10SM FEW060 07/M06 A2975 RMK AO1;EQDQ01+000000PRSWM2
0202726700999992000030302003+44520-109020FM-15+1553KCOD V0202501N001512200019N0160931N1+00601-00401999999ADDGF100991999999999999999999GP10060000002009000002021000002009GQ100600897926079GR100600001901049MA1101591999999MW1001REMMET056KCOD 030155Z AUTO 25003KT 10SM CLR 06/M04 A3000 RMK AO1;EQDQ01+000000PRSWM2
0232726700999992000030621003+44520-109020FM-15+1553KCOD V0201201N005112200019N0160931N1+01101+00101999999ADDGF100991999999999999999999GP10060067202009065102021026902009GQ100600519920009GR100600857913899MA1100341999999MD1710141+9999MW1001OC100931REMMET064KCOD 062055Z AUTO 12010G18KT 10SM CLR 11/01 A2963 RMK AO1 57014;EQDQ01+000000PRSWM2
0185726700999992000031208003+44520-109020FM-15+1553KCOD V0202601N004612200019N0160931N1+00001-01201999999ADDGF100991999999999999999999GP10060000002000000002000000002000GR100600000900009MA1102001999999MW1001REMMET056KCOD 120755Z AUTO 26009KT 10SM CLR 00/M12 A3012 RMK AO1;EQDQ01+000000PRSWM2
0279726700999992000031518003+44520-109020FM-15+1553KCOD V0209999C000010051019N0160931N1-00201-00801999999ADDGD13991+0051019GF107991999999999999999999GP10060064802009082102021015302009GQ100600530914319GR100600831913829KA1999M-00201KA2999N-00401MA1101801999999MD1210171+9999MW1001REMMET078KCOD 151755Z AUTO 00000KT 10SM BKN017 M02/M08 A3006 RMK AO1 11020 21040 52017;EQDQ01+000000PRSWM2
0202726700999992000031601003+44520-109020FM-15+1553KCOD V0200101N004112200019N0160931N1+00101-01101999999ADDGF100991999999999999999999GP10060019102009070102021008602009GQ100600814925919GR100600206913829MA1101831999999MW1001REMMET056KCOD 160055Z AUTO 01008KT 10SM CLR 01/M11 A3007 RMK AO1;EQDQ01+000000PRSWM2
0213726700999992000031823003+44520-109020FM-15+1553KCOD V0202501N006712200019N0160931N1+00801-01401999999ADDGF100991999999999999999999GP10060052702008070202015018702008GQ100600611923599GR100600666913799MA1101661999999MW1001OC101181REMMET059KCOD 182255Z AUTO 25013G23KT 10SM CLR 08/M14 A3002 RMK AO1;EQDQ01+000000PRSWM2
0268726700999992000032009003+44520-109020FM-15+1553KCOD V0203501N004610147019N0160931N1-00401-00801999999ADDGD12991+0129019GD23991+0147019GD34991+0180019GF108991999999999999999999GP10060000002000000002000000002000GR100600000900009MA1101081999999MD1210301+9999MW1001REMMET080KCOD 200855Z AUTO 35009KT 10SM SCT043 BKN049 OVC060 M04/M08 A2985 RMK AO1 52030;EQDQ01+000000PRSWM2
0254726700999992000040216003+44520-109020FM-15+1553KCOD V0200601N003110210019N0160931N1-00101-00601999999ADDGD12991+0111019GD23991+0210019GF107991999999999999999999GP10060013202008000002015013202008GQ100600635911059GR100600610913679MA1102001999999MW1001OC100771REMMET070KCOD 021555Z AUTO 06006G15KT 10SM FEW037 BKN075 M01/M06 A3012 RMK AO1;EQDQ01+000000PRSWM2
0202726700999992000040402003+44520-109020FM-15+1553KCOD V0209999C000012200019N0160931N1+00901-00601999999ADDGF100991999999999999999999GP10060000902008005002015000702008GQ100600864927479GR100600066910369MA1101831999999MW1001REMMET056KCOD 040155Z AUTO 00000KT 10SM CLR 09/M06 A3007 RMK AO1;EQDQ01+000000PRSWM2
0239726700999992000040702003+44520-109020FM-15+1553KCOD V0200101N005110048019N9999999N1+00101-00201999999ADDAA101000591GD14991+0048019GF108991999999999999999999GP10060000802008000002015000802008GQ100600860927609GR100600077911039MA1100951999999MW1001REMMET067KCOD 070155Z AUTO 01010KT BKN008 OVC016 01/M02 A2981 RMK AO1 P0002;EQDQ01+000000PRSWM2
0185726700999992000040910003+44520-109020FM-15+1553KCOD V0209999C000012200019N0160931N1+00101-01101999999ADDGF100991999999999999999999GP10060000002000000002000000002000GR100600000900009MA1101391999999MW1001REMMET056KCOD 090955Z AUTO 00000KT 10SM CLR 01/M11 A2994 RMK AO1;EQDQ01+000000PRSWM2
0221726700999992000041315003+44520-109020FM-15+1553KCOD V0200301N002612200019N0160931N1+01001+00001999999ADDGF100991999999999999999999GP10060030802008063502015009502008GQ100600704909639GR100600455913599MA1101351999999MD1410001+9999MW1001REMMET061KCOD 131455Z AUTO 03005KT 10SM CLR 10/00 A2993 RMK AO1 54000;EQDQ01+000000PRSWM2
0270726700999992000042200003+44520-109020FM-15+1553KCOD V0201801N003612200019N0160931N1+02101-00401999999ADDGF100991999999999999999999GP10060049002008086902015009302008GQ100600629926029GR100600616913529KA1999M+02201KA2999N+01801MA1101121999999MD1710271+9999MW1001REMMET084KCOD 212355Z AUTO 18007KT 10SM CLR 21/M04 A2986 RMK AO1 10220 20180 402200070 57027;EQDQ01+000000PRSWM2
0202726700999992000042217003+44520-109020FM-15+1553KCOD V0200101N001512200019N0160931N1+01701-00101999999ADDGF100991999999999999999999GP10060064802008071902015016202008GQ100600475911969GR100600912913529MA1100641999999MW1001REMMET056KCOD 221655Z AUTO 01003KT 10SM CLR 17/M01 A2972 RMK AO1;EQDQ01+000000PRSWM2
0212726700999992000042901003+44520-109020FM-15+1553KCOD V0202201N005112200019N0160931N1+01901+00001999999ADDGF100991999999999999999999GP10060019902008016202015014902008GQ100600722927309GR100600412913479MA1100471999999MW1001OC100981REMMET058KCOD 290055Z AUTO 22010G19KT 10SM CLR 19/00 A2967 RMK AO1;EQDQ01+000000PRSWM2
0243726700999992000050106003+44520-109020FM-15+1553KCOD V0201701N001512200019N0160931N1+00701-00201999999ADDGF100991999999999999999999GP10060000002000000002000000002000GR100600000900009KA1999M+01701KA2999N+00401MA1102271999999MD1710031+9999MW1001REMMET074KCOD 010555Z AUTO 17003KT 10SM CLR 07/M02 A3020 RMK AO1 10170 20040 57003;EQDQ01+000000PRSWM2
0184726700999992000050605003+44520-109020FM-15+1553KCOD V0209999C000012200019N0160931N1+00801+00201999999ADDGF100991999999999999999999GP10060000002000000002000000002000GR100600000900009MA1101081999999MW1001REMMET055KCOD 060455Z AUTO 00000KT 10SM CLR 08/02 A2985 RMK AO1;EQDQ01+000000PRSWM2
0250726700999992000052321003+44520-109020FM-15+1553KCOD V0202501N005710270019N0160931N1+02201+00301999999ADDGD13991+0270019GF107991999999999999999999GP10060093702008078002015025302008GQ100600288921979GR100601167913329MA1101021999999MD1710071+9999MW1001OC100871REMMET067KCOD 232055Z AUTO 25011G17KT 10SM BKN090 22/03 A2983 RMK AO1 57007;EQDQ01+000000PRSWM2
0201726700999992000052716003+44520-109020FM-15+1553KCOD V0202001N005712200019N0160931N1+01701+00301999999ADDGF100991999999999999999999GP10060063902008088902015007902008GQ100600510909809GR100600836913309MA1101691999999MW1001REMMET055KCOD 271555Z AUTO 20011KT 10SM CLR 17/03 A3003 RMK AO1;EQDQ01+000000PRSWM2
0213726700999992000052807003+44520-109020FM-15+1553KCOD V0202301N007212200019N0160931N1+01401+00501999999ADDGD12991+0270019GF102991999999999999999999GP10060000002000000002000000002000GR100600000900009MA1101461999999MW1001OC100981REMMET061KCOD 280655Z AUTO 23014G19KT 10SM FEW095 14/05 A2996 RMK AO1;EQDQ01+000000PRSWM2
0278726700999992000061100003+44520-109020FM-15+1553KCOD V0202401N005712200019N0160931N1+01401+00301999999ADDGD12991+0300019GF102991999999999999999999GP10060056802008082702015009902008GQ100600555926949GR100600750913259KA1999M+02201KA2999N+01201MA1101461999999MW1001OC101081REMMET083KCOD 102355Z AUTO 24011G21KT 10SM FEW100 14/03 A2996 RMK AO1 10220 20120 402200070;EQDQ01+000000PRSWM2
0219726700999992000061119003+44520-109020FM-15+1553KCOD V0200501N003112200019N0160931N1+02201+00601999999ADDGD12991+0117019GF102991999999999999999999GP10060077502008048502015032902008GQ100600236915309GR100601214913259MA1101421999999MW1001REMMET058KCOD 111855Z AUTO 05006KT 10SM FEW039 22/06 A2995 RMK AO1;EQDQ01+000000PRSWM2
0246726700999992000061305003+44520-109020FM-15+1553KCOD V0202901N003610240019N0160931N1+01301+00401999999ADDGD12991+0111019GD22991+0138019GD33991+0240019GF107991999999999999999999GP10060000002000000002000000002000GR100600000900009MA1101321999999MW1001REMMET072KCOD 130455Z AUTO 29007KT 10SM FEW037 SCT046 BKN085 13/04 A2992 RMK AO1;EQDQ01+000000PRSWM2
0184726700999992000061307003+44520-109020FM-15+1553KCOD V0209999C000012200019N0160931N1+01201+00301999999ADDGF100991999999999999999999GP10060000002000000002000000002000GR100600000900009MA1101321999999MW1001REMMET055KCOD 130655Z AUTO 00000KT 10SM CLR 12/03 A2992 RMK AO1;EQDQ01+000000PRSWM2
0288726700999992000061318003+44520-109020FM-15+1553KCOD V0203001N002110270019N0160931N1+01501+00001999999ADDGD13991+0270019GF107991999999999999999999GP10060090102008073902015026302008GQ100600305912609GR100601140913249KA1999M+01601KA2999N+01101MA1101731999999MD1210171+9999MW1001OC100771REMMET079KCOD 131755Z AUTO 30004G15KT 10SM BKN090 15/00 A3004 RMK AO1 10160 20110 52017;EQDQ01+000000PRSWM2
0201726700999992000061814003+44510-109190FM-15+1553KCOD V0201901N005112200019N0160931N1+01301+00101999999ADDGF100991999999999999999999GP10060010402008000502015010202008GQ100600716907499GR100600418913239MA1101421999999MW1001REMMET055KCOD 181355Z AUTO 19010KT 10SM CLR 13/01 A2995 RMK AO1;EQDQ01+000000PRSWM2
0221726700999992000062121003+44510-109190FM-15+1553KCOD V0201201N002612200019N0160931N1+02601+00301999999ADDGF100991999999999999999999GP10060096402008096102015009902008GQ100600259922039GR100601189913229MA1101591999999MD1710201+9999MW1001REMMET061KCOD 212055Z AUTO 12005KT 10SM CLR 26/03 A3000 RMK AO1 57020;EQDQ01+000000PRSWM2
0185726700999992000062205003+44510-109190FM-15+1553KCOD V0202301N003112200019N0160931N1+02001-00101999999ADDGF100991999999999999999999GP10060000002000000002000000002000GR100600000900009MA1101561999999MW1001REMMET056KCOD 220455Z AUTO 23006KT 10SM CLR 20/M01 A2999 RMK AO1;EQDQ01+000000PRSWM2
0184726700999992000070405003+44510-109190FM-15+1553KCOD V0203501N004112200019N0160931N1+01701+00801999999ADDGF100991999999999999999999GP10060000002000000002000000002000GR100600000900009MA1101051999999MW1001REMMET055KCOD 040455Z AUTO 35008KT 10SM CLR 17/08 A2984 RMK AO1;EQDQ01+000000PRSWM2
0259726700999992000070412003+44510-109190FM-15+1553KCOD V0202901N002112200019N0160931N1+01201+00501999999ADDGF100991999999999999999999GP10060000002008000002015000002008GQ100600886905829GR100600011904739KA1999M+01601KA2999N+01101MA1101491999999MD1210071+9999MW1001REMMET073KCOD 041155Z AUTO 29004KT 10SM CLR 12/05 A2997 RMK AO1 10160 20110 52007;EQDQ01+000000PRSWM2
0230726700999992000070423003+44510-109190FM-15+1553KCOD V0202201N007212200019N0160931N1+01801+00301999999ADDGD12991+0111019GF102991999999999999999999GP10060075202008062002015030702008GQ100600442925649GR100600946913219MA1101661999999MW1001OC101081REMMET061KCOD 042255Z AUTO 22014G21KT 10SM FEW037 18/03 A3002 RMK AO1;EQDQ01+000000PRSWM2
0201726700999992000070704003+44510-109190FM-15+1553KCOD V0202901N002612200019N0160931N1+02401+00101999999ADDGF100991999999999999999999GP10060000002008000002015000002008GQ100600899930319GR100600000900339MA1101561999999MW1001REMMET055KCOD 070355Z AUTO 29005KT 10SM CLR 24/01 A2999 RMK AO1;EQDQ01+000000PRSWM2
0161726700999992000071006003+44510-109190FM-15+1553KCOD V02099999999999999999N9999999N1+99999+99999999999ADDGP10060000002000000002000000002000GR100600000900009KA1999M+02801KA2999N+01701MW1001REMMET047KCOD 100555Z AUTO 10SM CLR RMK AO1 10280 20170;EQDQ01+000000PRSWM2
0222726700999992000071303003+44510-109190FM-15+1553KCOD V0201801N001512200019N0160931N1+02801-00201999999ADDGF100991999999999999999999GP10060003102008029902015001002008GQ100600858929719GR100600094912899MA1101931999999MD1210071+9999MW1001REMMET062KCOD 130255Z AUTO 18003KT 10SM CLR 28/M02 A3010 RMK AO1 52007;EQDQ01+000000PRSWM2
0185726700999992000071607003+44510-109190FM-15+1553KCOD V0203201N003112200019N0160931N1+01901-00301999999ADDGF100991999999999999999999GP10060000002000000002000000002000GR100600000900009MA1102101999999MW1001REMMET056KCOD 160655Z AUTO 32006KT 10SM CLR 19/M03 A3015 RMK AO1;EQDQ01+000000PRSWM2
0269726700999992000071800003+44510-109020FM-15+1553KCOD V0200201N003612200019N0160931N1+02201+01101999999ADDGF100991999999999999999999GP10060056202008062102015021102008GQ100600556926639GR100600746913229KA1999M+02201KA2999N+01401MA1101931999999MD1710031+9999MW1001REMMET083KCOD 172355Z AUTO 02007KT 10SM CLR 22/11 A3010 RMK AO1 10220 20140 402500140 57003;EQDQ01+000000PRSWM2
0242726700999992000072006003+44510-109020FM-15+1553KCOD V0201701N002112200019N0160931N1+01501+00801999999ADDGF100991999999999999999999GP10060000002000000002000000002000GR100600000900009KA1999M+02201KA2999N+01401MA1102471999999MD1210071+9999MW1001REMMET073KCOD 200555Z AUTO 17004KT 10SM CLR 15/08 A3026 RMK AO1 10220 20140 52007;EQDQ01+000000PRSWM2
0242726700999992000072106003+44510-109020FM-15+1553KCOD V0201601N003012200019N0160931N1+01401+00601999999ADDGF100991999999999999999999GP10060000002000000002000000002000GR100600000900009KA1999M+02301KA2999N+01401MA1102201999999MD1210031+9999MW1001REMMET073KCOD 210555Z AUTO 16003KT 10SM CLR 14/06 A3018 RMK AO1 10230 20140 52003;EQDQ01+000000PRSWM2
0221726700999992000072215003+44510-109020FM-15+1553KCOD V0202901N001512200019N0160931N1+02201+00601999999ADDGF100991999999999999999999GP10060038302008070502015007602008GQ100600641908669GR100600576913239MA1102301999999MD1210031+9999MW1001REMMET061KCOD 221455Z AUTO 29003KT 10SM CLR 22/06 A3021 RMK AO1 52003;EQDQ01+000000PRSWM2
0185726700999992000072407003+44510-109020FM-15+1553KCOD V0201801N003112200019N0160931N1+01701-00201999999ADDGF100991999999999999999999GP10060000002000000002000000002000GR100600000900009MA1101801999999MW1001REMMET056KCOD 240655Z AUTO 18006KT 10SM CLR 17/M02 A3006 RMK AO1;EQDQ01+000000PRSWM2
0071726700999992000072913009+44517-109017NSRDB+155399999V020999999999999999999999999999+99999+99999999999ADDGP10060002902008016402015001702008GQ100600856906789GR100600099912929
0184726700999992000073007003+44510-109020FM-15+1553KCOD V0201901N002112200019N0160931N1+02101+00301999999ADDGF100991999999999999999999GP10060000002000000002000000002000GR100600000900009MA1102201999999MW1001REMMET055KCOD 300655Z AUTO 19004KT 10SM CLR 21/03 A3018 RMK AO1;EQDQ01+000000PRSWM2
0184726700999992000080211003+44510-109020FM-15+1553KCOD V0209999C000012200019N0160931N1+01801+00401999999ADDGF100991999999999999999999GP10060000002000000002000000002000GR100600000900009MA1101861999999MW1001REMMET055KCOD 021055Z AUTO 00000KT 10SM CLR 18/04 A3008 RMK AO1;EQDQ01+000000PRSWM2
0269726700999992000080700003+44510-109020FM-15+1553KCOD V0200201N002112200019N0160931N1+02801+00401999999ADDGF100991999999999999999999GP10060049602008065802015015402008GQ100600587926239GR100600688913289KA1999M+02901KA2999N+02601MA1101461999999MD1710101+9999MW1001REMMET083KCOD 062355Z AUTO 02004KT 10SM CLR 28/04 A2996 RMK AO1 10290 20260 402900110 57010;EQDQ01+000000PRSWM2
0184726700999992000080905003+44510-109020FM-15+1553KCOD V0209999C000012200019N0160931N1+01801+00101999999ADDGF100991999999999999999999GP10060000002000000002000000002000GR100600000900009MA1101861999999MW1001REMMET055KCOD 090455Z AUTO 00000KT 10SM CLR 18/01 A3008 RMK AO1;EQDQ01+000000PRSWM2
0201726700999992000081614003+44510-109020FM-15+1553KCOD V0203301N004112200019N0160931N1+01701+00001999999ADDGF100991999999999999999999GP10060010202008013402015007602008GQ100600787908199GR100600260913339MA1102471999999MW1001REMMET055KCOD 161355Z AUTO 33008KT 10SM CLR 17/00 A3026 RMK AO1;EQDQ01+000000PRSWM2
0184726700999992000081807003+44510-109020FM-15+1553KCOD V0209999C000012200019N0160931N1+01601+00101999999ADDGF100991999999999999999999GP10060000002000000002000000002000GR100600000900009MA1101961999999MW1001REMMET055KCOD 180655Z AUTO 00000KT 10SM CLR 16/01 A3011 RMK AO1;EQDQ01+000000PRSWM2
0219726700999992000082419003+44510-109020FM-15+1553KCOD V0200401N003612200019N0160931N1+02701+00401999999ADDGD12991+0330019GF104991999999999999999999GP10060029402008002402015027502008GQ100600354915949GR100601089913379MA1102271999999MW1001REMMET058KCOD 241855Z AUTO 04007KT 10SM SCT110 27/04 A3020 RMK AO1;EQDQ01+000000PRSWM2
0184726700999992000082605003+44510-109020FM-15+1553KCOD V0201901N002612200019N0160931N1+01901+00401999999ADDGF100991999999999999999999GP10060000002000000002000000002000GR100600000900009MA1101861999999MW1001REMMET055KCOD 260455Z AUTO 19005KT 10SM CLR 19/04 A3008 RMK AO1;EQDQ01+000000PRSWM2
0213726700999992000082802003+44510-109020FM-15+1553KCOD V0202201N005712200019N0160931N1+02501-00201999999ADDGF100991999999999999999999GP10060004102008035802015001102008GQ100600852927919GR100600111913289MA1100881999999MW1001OC100821REMMET059KCOD 280155Z AUTO 22011G16KT 10SM CLR 25/M02 A2979 RMK AO1;EQDQ01+000000PRSWM2
0219726700999992000083117003+44510-109020FM-15+1553KCOD V0201801N002110300019N0160931N1+01401+00901999999ADDGD13991+0300019GF107991999999999999999999GP10060025902008001802015024802008GQ100600510912259GR100600843913429MA1101521999999MW1001REMMET058KCOD 311655Z AUTO 18004KT 10SM BKN100 14/09 A2998 RMK AO1;EQDQ01+000000PRSWM2
0203726700999992000090911003+44510-109020FM-15+1553KCOD V0201901N002112200019N0160931N1+01401-00701999999ADDGD12991+0330019GF102991999999999999999999GP10060000002000000002000000002000GR100600000900009MA1100171999999MW1001REMMET059KCOD 091055Z AUTO 19004KT 10SM FEW110 14/M07 A2958 RMK AO1;EQDQ01+000000PRSWM2
0241726700999992000090921003+44510-109020FM-15+1553KCOD V0202601N007212200019N0160931N1+01701-00801999999ADDGF100991999999999999999999GP10060079202008097102015008202008GQ100600431920869GR100600983913489MA1101021999999MD1410001+9999MW1001OC101131REMMET073KCOD 092055Z AUTO 26014G22KT 220V280 10SM CLR 17/M08 A2983 RMK AO1 54000;EQDQ01+000000PRSWM2
0202726700999992000091613003+44510-109020FM-15+1553KCOD V0202601N002612200019N0160931N1+01801-00101999999ADDGF100991999999999999999999GP10060000002008000002015000002008GQ100600898908639GR100600000900349MA1101961999999MW1001REMMET056KCOD 161255Z AUTO 26005KT 10SM CLR 18/M01 A3011 RMK AO1;EQDQ01+000000PRSWM2
0203726700999992000093013003+44510-109020FM-15+1553KCOD V0202701N004112200019N0160931N1+01601+00101999999ADDGF100991999999999999999999GP10060000002000000002000000002000GR100600000900009MA1101291999999MW1001OC100871REMMET066KCOD 301255Z AUTO 27008G17KT 240V300 10SM CLR 16/01 A2991 RMK AO1;EQDQ01+000000PRSWM2
0219726700999992000100220003+44510-109020FM-15+1553KCOD V0200101N002610300019N0160931N1+01401+00501999999ADDGD13991+0300019GF107991999999999999999999GP10060016702008000002015016702008GQ100600489918829GR100600898913659MA1101321999999MW1001REMMET058KCOD 021955Z AUTO 01005KT 10SM BKN100 14/05 A2992 RMK AO1;EQDQ01+000000PRSWM2
0202726700999992000100716003+44510-109020FM-15+1553KCOD V0201601N003112200019N0160931N1+00301-00401999999ADDGF100991999999999999999999GP10060032302008074702015006002008GQ100600694912159GR100600481913699MA1103151999999MW1001REMMET056KCOD 071555Z AUTO 16006KT 10SM CLR 03/M04 A3046 RMK AO1;EQDQ01+000000PRSWM2
0197726700999992000100816003+44510-109020FM-15+1553KCOD V0202101N003112200019N0160931N1+00701-00601999999ADDGF100991999999999999999999GP10060033102008080802015005002008GQ100600697912189GR100600476913709MA1102541999999MW1001REMMET051KCOD 081555Z 21006KT 10SM CLR 07/M06 A3028 RMK AO1;EQDQ01+000000PRSWM2
0271726700999992000101618003+44510-109020FM-15+1553KCOD V0202501N007212200019N0160931N1+01301-00301999999ADDGF100991999999999999999999GP10060057602008090402015009102008GQ100600576915309GR100600737913779KA1999M+01301KA2999N+00801MA1102071999999MD1410001+9999MW1001OC101181REMMET077KCOD 161755Z AUTO 25014G23KT 10SM CLR 13/M03 A3014 RMK AO1 10130 20080 54000;EQDQ01+000000PRSWM2
0221726700999992000101620003+44510-109020FM-15+1553KCOD V0202601N006212200019N0160931N1+01501-00401999999ADDGF100991999999999999999999GP10060063002008093802015008002008GQ100600542918879GR100600805913779MA1101961999999MW1001OC101341REMMET067KCOD 161955Z AUTO 26012G26KT 220V280 10SM CLR 15/M04 A3011 RMK AO1;EQDQ01+000000PRSWM2
0185726700999992000101808003+44510-109020FM-15+1553KCOD V0202201N006212200019N0160931N1+01201-00301999999ADDGF100991999999999999999999GP10060000002000000002000000002000GR100600000900009MA1102201999999MW1001REMMET056KCOD 180755Z AUTO 22012KT 10SM CLR 12/M03 A3018 RMK AO1;EQDQ01+000000PRSWM2
0222726700999992000102015003+44510-109020FM-15+1553KCOD V0202201N004612200019N0160931N1+00801-00201999999ADDGF100991999999999999999999GP10060009902008055502015002202008GQ100600820911349GR100600191913809MA1101831999999MD1710101+9999MW1001REMMET062KCOD 201455Z AUTO 22009KT 10SM CLR 08/M02 A3007 RMK AO1 57010;EQDQ01+000000PRSWM2
0134726700999992000110316354+44510-109020FM-15+1553KCOD V0209999C000012200019N0160931N1+00201-00901999999ADDGF100991999999999999999999MA1102241999999MW1001REMMET056KCOD 031635Z AUTO 00000KT 10SM CLR 02/M09 A3019 RMK AO1;EQDQ01+000000PRSWM2
0153726700999992000110601354+44510-109020FM-15+1553KCOD V0200201N005710021019N0160931N1-00401-00701999999ADDGD14991+0021019GF108991999999999999999999MA1100881999999MW1001REMMET060KCOD 060135Z AUTO 02011KT 10SM OVC007 M04/M07 A2979 RMK AO1;EQDQ01+000000PRSWM2
0054726700999992000110608009+44517-109017NSRDB+155399999V020999999999999999999999999999+99999+99999999999ADDGP10060000002000000002000000002000GR100600000900009
0177726700999992000110700354+44510-109020FM-15+1553KCOD V0203601N006210030019N0024141N1-00701-00901999999ADDGD12991+0003019GD24991+0030019GF108991999999999999999999MA1101561999999MW1001REMMET069KCOD 070035Z 36012KT 1 1/2SM SCT001 OVC010 M07/M09 A2999 RMK AO1 -SN;EQDQ01+000000PRSWM2
0071726700999992000111016009+44517-109017NSRDB+155399999V020999999999999999999999999999+99999+99999999999ADDGP10060017802008046602015008202008GQ100600781912949GR100600286913959
0130726700999992000111411354+44510-109020FM-15+1553KCOD V0209999C000012200019N0160931N1-01501-01801999999ADDGF100991999999999999999999MA1101661999999MW1001REMMET052KCOD 141135Z 00000KT 10SM CLR M15/M18 A3002 RMK AO1;EQDQ01+000000PRSWM2
0054726700999992000111412009+44517-109017NSRDB+155399999V020999999999999999999999999999+99999+99999999999ADDGP10060000002000000002000000002000GR100600000900009
0071726700999992000111616009+44517-109017NSRDB+155399999V020999999999999999999999999999+99999+99999999999ADDGP10060004502009000002021004502009GQ100600795913019GR100600254913999
0054726700999992000112314009+44517-109017NSRDB+155399999V020999999999999999999999999999+99999+99999999999ADDGP10060000002000000002000000002000GR100600000900009
0130726700999992000112404354+44510-109020FM-15+1553KCOD V0202401N004112200019N0160931N1-00601-00901999999ADDGF100991999999999999999999MA1101691999999MW1001REMMET052KCOD 240435Z 24008KT 10SM CLR M06/M09 A3003 RMK AO1;EQDQ01+000000PRSWM2
0130726700999992000112500354+44510-109020FM-15+1553KCOD V0209999C000012200019N0160931N1-00301-00901999999ADDGF100991999999999999999999MA1102241999999MW1001REMMET052KCOD 250035Z 00000KT 10SM CLR M03/M09 A3019 RMK AO1;EQDQ01+000000PRSWM2
0180726700999992000112610354+44510-109020FM-15+1553KCOD V0202301N005712200019N0160931N1+00401-00701999999ADDGD12991+0150019GD22991+0240019GF104991999999999999999999MA1101221999999MW1001OC100721REMMET064KCOD 261035Z 23011G14KT 10SM FEW050 SCT080 04/M07 A2989 RMK AO1;EQDQ01+000000PRSWM2
0054726700999992000112714009+44517-109017NSRDB+155399999V020999999999999999999999999999+99999+99999999999ADDGP10060000002000000002000000002000GR100600000900009
0140726700999992000112723354+44510-109020FM-15+1553KCOD V0202601N006212200019N0160931N1+00401-00601999999ADDGF100991999999999999999999MA1100881999999MW1001OC101031REMMET054KCOD 272335Z 26012G20KT 10SM CLR 04/M06 A2979 RMK AO1;EQDQ01+000000PRSWM2
0054726700999992000112809009+44517-109017NSRDB+155399999V020999999999999999999999999999+99999+99999999999ADDGP10060000002000000002000000002000GR100600000900009
0054726700999992000113006009+44517-109017NSRDB+155399999V020999999999999999999999999999+99999+99999999999ADDGP10060000002000000002000000002000GR100600000900009
0145726700999992000120105354+44510-109020FM-15+1553KCOD V0203201N004612200019N0160931N1+00201-01101999999ADDGF100991999999999999999999MA1102471999999MW1001OC100821REMMET059KCOD 010535Z AUTO 32009G16KT 10SM CLR 02/M11 A3026 RMK AO1;EQDQ01+000000PRSWM2
0071726700999992000120220009+44517-109017NSRDB+155399999V020999999999999999999999999999+99999+99999999999ADDGP10060027802009029202021016302009GQ100600669918619GR100600552914089
0135726700999992000120410354+44510-109020FM-15+1553KCOD V0201701N002612200019N0160931N1-00801-01101999999ADDGF100991999999999999999999MA1102841999999MW1001REMMET057KCOD 041035Z AUTO 17005KT 10SM CLR M08/M11 A3037 RMK AO1;EQDQ01+000000PRSWM2
0071726700999992000120616009+44517-109017NSRDB+155399999V020999999999999999999999999999+99999+99999999999ADDGP10060006502009022902021003802009GQ100600833913109GR100600164914099
0054726700999992000120702009+44517-109017NSRDB+155399999V020999999999999999999999999999+99999+99999999999ADDGP10060000002000000002000000002000GR100600000900009
0130726700999992000120816354+44510-109020FM-15+1553KCOD V0209999C000012200019N0160931N1-00401-00701999999ADDGF100991999999999999999999MA1101251999999MW1001REMMET052KCOD 081635Z 00000KT 10SM CLR M04/M07 A2990 RMK AO1;EQDQ01+000000PRSWM2
0054726700999992000120903009+44517-109017NSRDB+155399999V020999999999999999999999999999+99999+99999999999ADDGP10060000002000000002000000002000GR100600000900009
0054726700999992000121205009+44517-109017NSRDB+155399999V020999999999999999999999999999+99999+99999999999ADDGP10060000002000000002000000002000GR100600000900009
0130726700999992000121218354+44510-109020FM-15+1553KCOD V0209999C000012200019N0160931N1-01301-03101999999ADDGF100991999999999999999999MA1101191999999MW1001REMMET052KCOD 121835Z 00000KT 10SM CLR M13/M31 A2988 RMK AO1;EQDQ01+000000PRSWM2
0054726700999992000121508009+44517-109017NSRDB+155399999V020999999999999999999999999999+99999+99999999999ADDGP10060000002000000002000000002000GR100600000900009
0054726700999992000121712009+44517-109017NSRDB+155399999V020999999999999999999999999999+99999+99999999999ADDGP10060000002000000002000000002000GR100600000900009
0140726700999992000121720354+44510-109020FM-15+1553KCOD V0202801N004612200019N0160931N1+00201-00901999999ADDGF100991999999999999999999MA1100881999999MW1001OC101131REMMET054KCOD 172035Z 28009G22KT 10SM CLR 02/M09 A2979 RMK AO1;EQDQ01+000000PRSWM2
0054726700999992000122003009+44517-109017NSRDB+155399999V020999999999999999999999999999+99999+99999999999ADDGP10060000002000000002000000002000GR100600000900009
0054726700999992000122409009+44517-109017NSRDB+155399999V020999999999999999999999999999+99999+99999999999ADDGP10060000002000000002000000002000GR100600000900009
0148726700999992000122412354+44510-109020FM-15+1553KCOD V0209999C000012200019N0160931N1-00501-00801999999ADDGD12991+0270019GF102991999999999999999999MA1101631999999MW1001REMMET055KCOD 241235Z 00000KT 10SM FEW095 M05/M08 A3001 RMK AO1;EQDQ01+000000PRSWM2
0054726700999992000122814009+44517-109017NSRDB+155399999V020999999999999999999999999999+99999+99999999999ADDGP10060000002000000002000000002000GR100600000900009
0054726700999992000122912009+44517-109017NSRDB+155399999V020999999999999999999999999999+99999+99999999999ADDGP10060000002000000002000000002000GR100600000900009
0071726700999992000123015009+44517-109017NSRDB+155399999V020999999999999999999999999999+99999+99999999999ADDGP10060000002009000002021000002009GQ100600896912339GR100600001901309
0071726700999992000123016009+44517-109017NSRDB+155399999V020999999999999999999999999999+99999+99999999999ADDGP10060001102009000002021001102009GQ100600853912929GR100600116914159
0148726700999992000123100354+44510-109020FM-15+1553KCOD V0209999C000010033019N0160931N1-00301-00601999999ADDGD14991+0033019GF108991999999999999999999MA1101801999999MW1001REMMET055KCOD 310035Z 00000KT 10SM OVC011 M03/M06 A3006 RMK AO1;EQDQ01+000000PRSWM2
0054726700999992000123114009+44517-109017NSRDB+155399999V020999999999999999999999999999+99999+99999999999ADDGP10060000002000000002000000002000GR100600000900009
0182726710241642000011318534+42570-110100FM-15+2124KBPI V0203501N002110150019N0160931N1-00801-01101103521ADDGD14991+0150099GF108991999999999999999999MA1102841999999MW1001REMMET089KBPI 131853Z AUTO 35004KT 10SM OVC050 M08/M11 A3037 RMK AO2 SLP352 T10781106 FZRANO TSNO;EQDQ01+000000PRSWM2
0181726710241642000011716534+42570-110100FM-15+2124KBPI V0200501N001512200019N0112651N1-00301-00301102501ADDGD12991+0003099GF102991999999999999999999MA1102371999999MW1001REMMET088KBPI 171653Z AUTO 05003KT 7SM FEW001 M03/M03 A3023 RMK AO2 SLP250 T10281028 FZRANO TSNO;EQDQ01+000000PRSWM2
0242726710241642000011814534+42570-110100FM-15+2124KBPI V0209999C000010006019N0016091N1-00401-00401102521ADDGD13991+0006099GD24991+0018099GF108991999999999999999999MA1102371999999MD1810081+9999MW1101REMMET104KBPI 181453Z AUTO 00000KT 1SM BR BKN002 OVC006 M04/M04 A3023 RMK AO2 SLP252 T10441044 58008 FZRANO TSNO;EQDQ01+000003PRSWM1Q02    003PRSWM1
0255726710241642000011917534+42570-110100FM-15+2124KBPI V0209999C000012200019N0160931N1+00001-00401102351ADDAA101001391AA206001391GF100991999999999999999999KA1999M+00001KA2999N-00891MA1102371999999MD1110221+9999MW1001REMMET115KBPI 191753Z AUTO 00000KT 10SM CLR 00/M04 A3023 RMK AO2 SLP235 P0005 60005 T00001044 10000 21089 51022 FZRANO TSNO;EQDQ01+000000PRSWM2
0206726710241642000012409534+42570-110100FM-15+2124KBPI V0200501N001510210019N0160931N1-01101-01201102191ADDGD13991+0210099GD24991+0270099GF108991999999999999999999MA1101831999999MW1001REMMET098KBPI 240953Z AUTO 05003KT 10SM BKN075 OVC090 M11/M12 A3007 RMK AO2 SLP219 T11061122 FZRANO TSNO $;EQDQ01+000000PRSWM2
0164726710241642000020400534+42570-110100FM-15+2124KBPI V0201601N004612200019N0160931N1-00301-00701103181ADDGF100991999999999999999999MA1102611999999MW1001REMMET086KBPI 040053Z AUTO 16009KT 10SM CLR M03/M07 A3030 RMK AO2 SLP318 T10281067 FZRANO TSNO;EQDQ01+000000PRSWM2
0202726710241642000020914534+42570-110100FM-15+2124KBPI V0209999C000010300019N0160931N1-00601-00701101871ADDGD13991+0300099GF107991999999999999999999MA1101661999999MD1610071+9999MW1001REMMET095KBPI 091453Z AUTO 00000KT 10SM BKN100 M06/M07 A3002 RMK AO2 SLP187 T10611072 56007 FZRANO TSNO;EQDQ01+000000PRSWM2
0689726710241642000021406596+42584-110107SOD  +2126KBPI V020999999999999999999999999999+99999+99999999999ADDAA124001395AT1MW18SN  1AT2MW13BR  1KA1240M-00055KA2240N-01385MG1077519999994OE11240058108017175OE22240049208017175OE33240018399999995REMSOD54424 HR PRECIPITATION (IN): 0.05 24 HR MAX TEMP (F): 3124 HR MAX TEMP TIME (LST):1450 24 HR MIN TEMP (F):  724 HR MIN TEMP TIME (LST):0733 AVERAGE STATION PRESSURE:22.89  PEAK WIND SPEED (MPH): 13 PEAK WIND DIR (DEG):080 PEAK WIND TIME (LST):1717  FASTEST 2MIN SPEED (MPH): 11FASTEST 2MIN DIR (DEG):080 FASTEST 2MIN TIME (LST):1717 AVERAGE WIND SPEED (MPH): 4.1 24 HR AVG TEMP (F):19 HOURLY INCREMENTAL PRECIPITATION VALUES (IN):.00  .00   T    T   .00  .00  .00  .00  .00  .00  .04  .01  .00  .00  .00  .00   T    T    T    T    T    T    T    T
0204726710241642000022020534+42570-110100FM-15+2124KBPI V0209999C000012200019N0160931N1-00401-01001102781ADDGD12991+0330099GF102991999999999999999999MA1102071999999MD1810251+9999MW1001REMMET097KBPI 202053Z AUTO 00000KT 10SM FEW110 M04/M10 A3014 RMK AO2 SLP278 T10391100 58025 FZRANO TSNO $;EQDQ01+000000PRSWM2
0203726710241642000022720534+42570-110100FM-15+2124KBPI V0209999V001510270019N0160931N1+00101-00401101521ADDGD13991+0270099GF107991999999999999999999MA1101461999999MD1810221+9999MW1001REMMET096KBPI 272053Z AUTO VRB03KT 10SM BKN095 01/M04 A2996 RMK AO2 SLP152 T00111039 58022 FZRANO TSNO $;EQDQ01+000000PRSWM2
0245726710241642000022820534+42570-110100FM-15+2124KBPI V0202601N002610180019N0160931N1+00201-00301100841ADDGD12991+0132099GD23991+0180099GD34991+0210099GF108991999999999999999999MA1100751999999MD1710041+9999MW1001REMMET108KBPI 282053Z AUTO 26005KT 10SM FEW044 BKN060 OVC070 02/M03 A2975 RMK AO2 SLP084 T00171033 57004 FZRANO TSNO;EQDQ01+000000PRSWM2
0164726710241642000022916534+42570-110100FM-15+2124KBPI V0209999V001512200019N0160931N1-00401-00801101991ADDGF100991999999999999999999MA1101801999999MW1001REMMET086KBPI 291653Z AUTO VRB03KT 10SM CLR M04/M08 A3006 RMK AO2 SLP199 T10391078 FZRANO TSNO;EQDQ01+000000PRSWM2
0181726710241642000030118534+42570-110100FM-15+2124KBPI V0209999V001512200019N0160931N1+00201-00201101931ADDGD12991+0135099GF102991999999999999999999MA1101831999999MW1001REMMET088KBPI 011853Z AUTO VRB03KT 10SM FEW045 02/M02 A3007 RMK AO2 SLP193 T00171022 FZRANO TSNO;EQDQ01+000000PRSWM2
0183726710241642000030607534+42570-110100FM-15+2124KBPI V0202401N003110240019N0160931N1+00101-00301100061ADDGD13991+0240099GF107991999999999999999999MA1100411999999MW1001REMMET090KBPI 060753Z AUTO 24006KT 10SM BKN080 01/M03 A2965 RMK AO2 SLP006 T00061033 FZRANO TSNO $;EQDQ01+000000PRSWM2
0202726710241642000031002534+42570-110100FM-15+2124KBPI V0203401N004610240019N0160931N1-00301-00701101641ADDGD14991+0240099GF108991999999999999999999MA1101521999999MD1110191+9999MW1001REMMET095KBPI 100253Z AUTO 34009KT 10SM OVC085 M03/M07 A2998 RMK AO2 SLP164 T10331072 51019 FZRANO TSNO;EQDQ01+000000PRSWM2
0166726710241642000031503534+42570-110100FM-15+2124KBPI V0203001N004112200019N0160931N1-00101-00901101521ADDGF100991999999999999999999MA1101491999999MW1001REMMET088KBPI 150353Z AUTO 30008KT 10SM CLR M01/M09 A2997 RMK AO2 SLP152 T10111094 FZRANO TSNO $;EQDQ01+000000PRSWM2
0166726710241642000031522534+42570-110100FM-15+2124KBPI V0202701N004112200019N0160931N1-00201-00601101791ADDGF100991999999999999999999MA1101691999999MW1001REMMET088KBPI 152253Z AUTO 27008KT 10SM CLR M02/M06 A3003 RMK AO2 SLP179 T10221061 FZRANO TSNO $;EQDQ01+000000PRSWM2
0099726710241642000031919534+42570-110100FM-16+2124KBPI V02099999999992200019N9999999N1+99999+99999999999ADDMW1001REMMET062KBPI 191953Z AUTO A2969 RMK AO2 SLPNO PWINO FZRANO TSNO PNO $;EQDQ01+000000PRSWM2
0099726710241642000032304534+42570-110100FM-16+2124KBPI V02099999999992200019N9999999N1+99999+99999999999ADDMW1001REMMET062KBPI 230453Z AUTO A3005 RMK AO2 SLPNO PWINO FZRANO TSNO PNO $;EQDQ01+000000PRSWM2
0099726710241642000032903534+42570-110100FM-16+2124KBPI V02099999999992200019N9999999N1+99999+99999999999ADDMW1001REMMET062KBPI 290353Z AUTO A2980 RMK AO2 SLPNO PWINO FZRANO TSNO PNO $;EQDQ01+000000PRSWM2
0192726710241642000040506534+42570-110100FM-15+2124KBPI V0202801N003612200019N0160931N1+00401-00301100751ADDGF100991999999999999999999KA1999M+01831KA2999N-00831MA1101351999999MW1001REMMET088KBPI 050653Z AUTO 28007KT 10SM CLR 04/M03 A2993 RMK AO2 SLP075 T00391028 401831083 TSNO;EQDQ01+000000PRSWM2
0195726710241642000040519534+42570-110100FM-15+2124KBPI V0203001N007712200019N0160931N1+01101-01201101021ADDGF100991999999999999999999MA1101561999999MW1001OC101341REMMET109KBPI 051953Z AUTO 30015G26KT 270V350 10SM CLR 11/M12 A2999 RMK AO2 PK WND 29030/1921 SLP102 T01111122 TSNO $;EQDQ01+000000PRSWM2
0222726710241642000040605534+42570-110100FM-15+2124KBPI V0200301N003612200019N0160931N1-00101-01001101061ADDGF100991999999999999999999KA1999M+01111KA2999N-00171MA1101391999999MD1810011+9999MW1001REMMET104KBPI 060553Z AUTO 03007KT 10SM CLR M01/M10 A2994 RMK AO2 SLP106 T10111100 10111 21017 58001 FZRANO TSNO;EQDQ01+000000PRSWM2
0159726710241642000041720534+42570-110100FM-15+2124KBPI V0202001N007712200019N0160931N1+01401-00301101201ADDMA1101661999999MD1610201+9999MW1001OC101081REMMET085KBPI 172053Z AUTO 20015G21KT 10SM 14/M03 A3002 RMK AO2 SLP120 T01391033 56020 TSNO $;EQDQ01+000000PRSWM2
0213726710241642000042017534+42570-110100FM-15+2124KBPI V0209999V002112200019N0160931N1+00901+00101102291ADDGF100991999999999999999999KA1999M+01001KA2999N-00391MA1102641999999MD1510021+9999MW1001REMMET095KBPI 201753Z AUTO VRB04KT 10SM CLR 09/01 A3031 RMK AO2 SLP229 T00940011 10100 21039 55002 TSNO;EQDQ01+000000PRSWM2
0156726710241642000042519534+42570-110100FM-15+2124KBPI V0209999V003112200019N0160931N1+01201-00501101861ADDGF100991999999999999999999MA1102131999999MW1001REMMET078KBPI 251953Z AUTO VRB06KT 10SM CLR 12/M05 A3016 RMK AO2 SLP186 T01221050 TSNO;EQDQ01+000000PRSWM2
0174726710241642000042601534+42570-110100FM-15+2124KBPI V0202401N003612200019N0160931N1+01001-00201101741ADDGF100991999999999999999999MA1101961999999MW1001REMMET096KBPI 260153Z AUTO 24007KT 10SM CLR 10/M02 A3011 RMK AO2 PK WND 25028/0106 SLP174 T01001022 TSNO;EQDQ01+000000PRSWM2
0169726710241642000050503534+42570-110100FM-15+2124KBPI V0200801N002610360019N0160931N1+01301-00401100451ADDGD13991+0360099GF107991999999999999999999MA1101321999999MW1001REMMET076KBPI 050353Z AUTO 08005KT 10SM BKN120 13/M04 A2992 RMK AO2 SLP045 T01281044;EQDQ01+000000PRSWM2
0260726710241642000050817534+42570-110100FM-15+2124KBPI V0202601N003110210019N0160931N1+00901-00201100981ADDGD12991+0150099GD23991+0210099GF107991999999999999999999KA1999M+01061KA2999N-00111MA1101391999999MD1610101+9999MW1001OC100721REMMET104KBPI 081753Z AUTO 26006G14KT 10SM SCT055 BKN070 09/M02 A2994 RMK AO2 SLP098 T00941022 10106 21011 56010;EQDQ01+000000PRSWM2
0226726710241642000050923534+42570-110100FM-15+2124KBPI V0202601N008212200019N0160931N1+00901+00201100941ADDGF100991999999999999999999KA1999M+01391KA2999N+00831MA1101221999999MD1310031+9999MW1001REMMET108KBPI 092353Z AUTO 26016KT 10SM CLR 09/02 A2989 RMK AO2 PK WND 26029/2258 SLP094 T00890017 10139 20083 53003;EQDQ01+000000PRSWM2
0277726710241642000051120534+42570-110100FM-15+2124KBPI V0202701N005712200019N0160931N1+00101-00401101181ADDAA101000021AA203000021GD12991+0147099GF102991999999999999999999MA1101221999999MD1310091+9999MW1711REMMET132KBPI 112053Z AUTO 27011KT 10SM -SN FEW049 01/M04 A2989 RMK AO2 WSHFT 1943 UPB1959E08SNB53 SLP118 P0000 60000 T00061039 53009 FZRANO;EQDQ01+000003PRSWM1Q02    003PRSWM1
0237726710241642000052217534+42570-110100FM-15+2124KBPI V0202901N009312200019N0160931N1+02101+00401101221ADDGF100991999999999999999999KA1999M+02111KA2999N+00221MA1102101999999MD1510041+9999MW1001OC101231REMMET111KBPI 221753Z AUTO 29018G24KT 10SM CLR 21/04 A3015 RMK AO2 PK WND 31027/1728 SLP122 T02060044 10211 20022 55004;EQDQ01+000000PRSWM2
0203726710241642000052504534+42570-110100FM-15+2124KBPI V0202801N018012200019N0160931N1+01201+00401100861ADDAA101000021MA1101591999999MW1181MW2611OC102211REMMET110KBPI 250453Z AUTO 28035G43KT 10SM -RA SQ 12/04 A3000 RMK AO2 PK WND 29044/0428 RAB51 SLP086 P0000 T01170039 $;EQDQ01+000003PRSWM1Q02    003PRSWM1
0170726710241642000053002534+42570-110100FM-15+2124KBPI V0202801N004112200019N0160931N1+01601+00101100361ADDGF100991999999999999999999MA1101221999999MD1510071+9999MW1001REMMET078KBPI 300253Z AUTO 28008KT 10SM CLR 16/01 A2989 RMK AO2 SLP036 T01560006 55007;EQDQ01+000000PRSWM2
0150726710241642000060422534+42570-110100FM-15+2124KBPI V0202901N005112200019N0160931N1+02601+00101101711ADDGF100991999999999999999999MA1102511999999MW1001REMMET072KBPI 042253Z AUTO 29010KT 10SM CLR 26/01 A3027 RMK AO2 SLP171 T02560011;EQDQ01+000000PRSWM2
0151726710241642000060704534+42570-110100FM-15+2124KBPI V0209999V001512200019N0160931N1+01101-00201101431ADDGF100991999999999999999999MA1102371999999MW1001REMMET073KBPI 070453Z AUTO VRB03KT 10SM CLR 11/M02 A3023 RMK AO2 SLP143 T01111017;EQDQ01+000000PRSWM2
0188726710241642000061406534+42570-110100FM-15+2124KBPI V0209999V001512200019N0160931N1+00601+00001101971ADDGF100991999999999999999999KA1999M+01671KA2999N+00391MA1102611999999MW1001REMMET084KBPI 140653Z AUTO VRB03KT 10SM CLR 06/00 A3030 RMK AO2 SLP197 T00560000 401670039 $;EQDQ01+000000PRSWM2
0116726710241642000061608534+42570-110100FM-16+2124KBPI V02099999999992200019N9999999N1+99999+99999999999ADDMD1110051+9999MW1001REMMET065KBPI 160853Z AUTO A3004 RMK AO2 SLPNO 6//// 51005 PWINO FZRANO $;EQDQ01+000000PRSWM2
0150726710241642000061800534+42570-110100FM-15+2124KBPI V0203101N004112200019N0160931N1+01701+00001101441ADDGF100991999999999999999999MA1101961999999MW1001REMMET072KBPI 180053Z AUTO 31008KT 10SM CLR 17/00 A3011 RMK AO2 SLP144 T01720000;EQDQ01+000000PRSWM2
0209726710241642000062105534+42570-110100FM-15+2124KBPI V0202901N002612200019N0160931N1+00601-00101101811ADDGF100991999999999999999999KA1999M+01721KA2999N+00501MA1102401999999MD1110091+9999MW1001REMMET091KBPI 210553Z AUTO 29005KT 10SM CLR 06/M01 A3024 RMK AO2 SLP181 T00611006 10172 20050 51009;EQDQ01+000000PRSWM2
0150726710241642000062119534+42570-110100FM-15+2124KBPI V0202201N003612200019N0160931N1+02301+00201101471ADDGF100991999999999999999999MA1102241999999MW1001REMMET072KBPI 211953Z AUTO 22007KT 10SM CLR 23/02 A3019 RMK AO2 SLP147 T02280022;EQDQ01+000000PRSWM2
0150726710241642000062307534+42570-110100FM-15+2124KBPI V0200301N003112200019N0160931N1+00901+00001100961ADDGF100991999999999999999999MA1101931999999MW1001REMMET072KBPI 230753Z AUTO 03006KT 10SM CLR 09/00 A3010 RMK AO2 SLP096 T00940000;EQDQ01+000000PRSWM2
0170726710241642000062408534+42570-110100FM-15+2124KBPI V0200101N002112200019N0160931N1+00801+00101101241ADDGF100991999999999999999999MA1102171999999MD1310031+9999MW1001REMMET078KBPI 240853Z AUTO 01004KT 10SM CLR 08/01 A3017 RMK AO2 SLP124 T00830006 53003;EQDQ01+000000PRSWM2
0170726710241642000062414534+42570-110100FM-15+2124KBPI V0209999V001512200019N0160931N1+01801+00301101281ADDGF100991999999999999999999MA1102301999999MD1310071+9999MW1001REMMET078KBPI 241453Z AUTO VRB03KT 10SM CLR 18/03 A3021 RMK AO2 SLP128 T01830028 53007;EQDQ01+000000PRSWM2
0187726710241642000062506534+42570-110100FM-15+2124KBPI V0200801N001512200019N0160931N1+01101-00201101281ADDGF100991999999999999999999KA1999M+02611KA2999N+00611MA1102271999999MW1001REMMET083KBPI 250653Z AUTO 08003KT 10SM CLR 11/M02 A3020 RMK AO2 SLP128 T01061017 402610061;EQDQ01+000000PRSWM2
0188726710241642000062708534+42570-110100FM-15+2124KBPI V0202201N003610300019N0160931N1+00901+00401101651ADDGD13991+0300099GF107991999999999999999999MA1102541999999MD1310051+9999MW1001REMMET081KBPI 270853Z AUTO 22007KT 10SM BKN100 09/04 A3028 RMK AO2 SLP165 T00940044 53005;EQDQ01+000000PRSWM2
0152726710241642000070315534+42570-110100FM-15+2124KBPI V0201801N005712200019N0160931N1+02101+00001100601ADDGF100991999999999999999999MA1101661999999MW1001REMMET074KBPI 031553Z AUTO 18011KT 10SM CLR 21/00 A3002 RMK AO2 SLP060 T02110000 $;EQDQ01+000000PRSWM2
0152726710241642000071001534+42570-110100FM-15+2124KBPI V0202301N003612200019N0160931N1+02301+00601100851ADDGF100991999999999999999999MA1102071999999MW1001REMMET074KBPI 100153Z AUTO 23007KT 10SM CLR 23/06 A3014 RMK AO2 SLP085 T02280056 $;EQDQ01+000000PRSWM2
0152726710241642000072006534+42570-110100FM-15+2124KBPI V0209999V001512200019N0160931N1+01001+00101101821ADDGF100991999999999999999999MA1102781999999MW1001REMMET074KBPI 200653Z AUTO VRB03KT 10SM CLR 10/01 A3035 RMK AO2 SLP182 T01000006 $;EQDQ01+000000PRSWM2
0208726710241642000073005534+42570-110100FM-15+2124KBPI V0203001N002612200019N0160931N1+01401+00301101641ADDGF100991999999999999999999KA1999M+02941KA2999N+01391MA1102711999999MD1310141+9999MW1001REMMET090KBPI 300553Z AUTO 30005KT 10SM CLR 14/03 A3033 RMK AO2 SLP164 T01390028 10294 20139 53014;EQDQ01+000000PRSWM2
0172726710241642000080718534+42570-110100FM-15+2124KBPI V0202801N007212200019N0160931N1+02701+00301101191ADDGF100991999999999999999999MA1102241999999MW1001OC101081REMMET086KBPI 071853Z AUTO 28014G21KT 10SM CLR 27/03 A3019 RMK AO2 WSHFT 1833 SLP119 T02670028;EQDQ01+000000PRSWM2
0150726710241642000080913534+42570-110100FM-15+2124KBPI V0201001N001512200019N0160931N1+01401+00301101501ADDGF100991999999999999999999MA1102611999999MW1001REMMET072KBPI 091353Z AUTO 10003KT 10SM CLR 14/03 A3030 RMK AO2 SLP150 T01390028;EQDQ01+000000PRSWM2
0161726710241642000081319534+42570-110100FM-15+2124KBPI V0202401N008712200019N0160931N1+03101+00301101031ADDGF100991999999999999999999MA1102101999999MW1001OC101181REMMET075KBPI 131953Z AUTO 24017G23KT 10SM CLR 31/03 A3015 RMK AO2 SLP103 T03060028;EQDQ01+000000PRSWM2
0150726710241642000081416534+42570-110100FM-15+2124KBPI V0200901N002612200019N0160931N1+02401+00101101531ADDGF100991999999999999999999MA1102541999999MW1001REMMET072KBPI 141653Z AUTO 09005KT 10SM CLR 24/01 A3028 RMK AO2 SLP153 T02390006;EQDQ01+000000PRSWM2
0150726710241642000081703534+42570-110100FM-15+2124KBPI V0202301N002612200019N0160931N1+01601+00801101851ADDGF100991999999999999999999MA1102811999999MW1001REMMET072KBPI 170353Z AUTO 23005KT 10SM CLR 16/08 A3036 RMK AO2 SLP185 T01610083;EQDQ01+000000PRSWM2
0265726710241642000083017534+42570-110100FM-15+2124KBPI V0202401N008210180019N0160931N1+01801+01201100861ADDAA106000021GD12991+0129099GD24991+0180099GF108991999999999999999999KA1999M+01891KA2999N+01171MA1101731999999MD1810031+9999MW1001REMMET106KBPI 301753Z AUTO 24016KT 10SM FEW043 OVC065 18/12 A3004 RMK AO2 SLP086 60000 T01830117 10189 20117 58003;EQDQ01+000000PRSWM2
0186726710241642000090122534+42570-110100FM-15+2124KBPI V0202001N008212200019N0160931N1+01501+00701101201ADDGD12991+0300099GF102991999999999999999999MA1101861999999MW1001REMMET093KBPI 012253Z AUTO 20016KT 10SM FEW100 15/07 A3008 RMK AO2 LTG DSNT SW AND W SLP120 T01500067;EQDQ01+000000PRSWM2
0158726710241642000090309534+42570-110100FM-15+2124KBPI V0209999V001512200019N0160931N1+00001-00101101501ADDGF100991999999999999999999MA1102101999999MW1001REMMET080KBPI 030953Z AUTO VRB03KT 10SM CLR 00/M01 A3015 RMK AO2 SLP150 T00001006 FZRANO;EQDQ01+000000PRSWM2
0208726710241642000090405534+42570-110100FM-15+2124KBPI V0200501N002112200019N0160931N1+00601+00201101441ADDGF100991999999999999999999KA1999M+02061KA2999N+00561MA1102131999999MD1310061+9999MW1001REMMET090KBPI 040553Z AUTO 05004KT 10SM CLR 06/02 A3016 RMK AO2 SLP144 T00560022 10206 20056 53006;EQDQ01+000000PRSWM2
0122726710241642000091107534+42570-110100FM-15+2124KBPI V0202501N004112200019N0160931N1+00801+00101101111ADDMA1101931999999MW1001REMMET070KBPI 110753Z AUTO 25008KT 10SM 08/01 A3010 RMK AO2 SLP111 T00780006 $;EQDQ01+000000PRSWM2
0172726710241642000091108534+42570-110100FM-15+2124KBPI V0209999V002612200019N0160931N1+00601+00101101091ADDGF100991999999999999999999MA1101931999999MD1810031+9999MW1001REMMET080KBPI 110853Z AUTO VRB05KT 10SM CLR 06/01 A3010 RMK AO2 SLP109 T00610006 58003 $;EQDQ01+000000PRSWM2
0133726710241642000091710534+42570-110100FM-15+2124KBPI V0200401N006212200019N0160931N1+01801+00301101211ADDMA1102371999999MW1001OC100771REMMET073KBPI 171053Z AUTO 04012G15KT 10SM 18/03 A3023 RMK AO2 SLP121 T01830033 $;EQDQ01+000000PRSWM2
0161726710241642000092109534+42570-110100FM-15+2124KBPI V0200601N002612200019N0160931N1-00201-00701100441ADDGF100991999999999999999999MA1100851999999MW1001REMMET083KBPI 210953Z AUTO 06005KT 10SM CLR M02/M07 A2978 RMK AO2 SLP044 T10221072 FZRANO $;EQDQ01+000000PRSWM2
0224726710241642000092407534+42570-110100FM-15+2124KBPI V0209999C000010012019N0096561N1-00401-00401102631ADDAA101000021GD14991+0012099GF108991999999999999999999MA1102441999999MW1101REMMET104KBPI 240753Z AUTO 00000KT 6SM BR OVC004 M04/M04 A3025 RMK AO2 SNE06B36E45 SLP263 P0000 T10441044 FZRANO;EQDQ01+000003PRSWM1Q02    003PRSWM1
0188726710241642000092920534+42570-110100FM-15+2124KBPI V0202701N008212200019N0160931N1+02101+00001101361ADDGD12991+0300099GF104991999999999999999999MA1102071999999MD1610161+9999MW1001REMMET081KBPI 292053Z AUTO 27016KT 10SM SCT100 21/00 A3014 RMK AO2 SLP136 T02060000 56016;EQDQ01+000000PRSWM2
0330726710241642000101105534+42570-110100FM-15+2124KBPI V0202601N003110105019N0160931N1+00401+00401100621ADDAA101000021AA206000591GD12991+0075099GD23991+0105099GD34991+0210099GF108991999999999999999999KA1999M+00831KA2999N+00441MA1101151999999MD1110141+9999MW1611REMMET129KBPI 110553Z AUTO 26006KT 10SM -RA FEW025 BKN035 OVC075 04/04 A2987 RMK AO2 RAB15 SLP062 P0000 60002 T00440039 10083 20044 51014;EQDQ01+000003PRSWM1Q02    003PRSWM1
0159726710241642000101207534+42570-110100FM-15+2124KBPI V0209999C000012200019N0160931N1-00301-00401101601ADDGF100991999999999999999999MA1101661999999MW1001REMMET081KBPI 120753Z AUTO 00000KT 10SM CLR M03/M04 A3002 RMK AO2 SLP160 T10281039 FZRANO;EQDQ01+000000PRSWM2
0197726710241642000101408534+42570-110100FM-15+2124KBPI V0200101N002110210019N0160931N1-00101-00201101861ADDGD14991+0210099GF108991999999999999999999MA1102071999999MD1310011+9999MW1001REMMET090KBPI 140853Z AUTO 01004KT 10SM OVC070 M01/M02 A3014 RMK AO2 SLP186 T10111017 53001 FZRANO;EQDQ01+000000PRSWM2
0150726710241642000101718534+42570-110100FM-15+2124KBPI V0209999V002612200019N0160931N1+01101+00101102661ADDGF100991999999999999999999MA1102981999999MW1001REMMET072KBPI 171853Z AUTO VRB05KT 10SM CLR 11/01 A3041 RMK AO2 SLP266 T01110011;EQDQ01+000000PRSWM2
0159726710241642000102004534+42570-110100FM-15+2124KBPI V0200501N001512200019N0160931N1-00101-00501102241ADDGF100991999999999999999999MA1102471999999MW1001REMMET081KBPI 200453Z AUTO 05003KT 10SM CLR M01/M05 A3026 RMK AO2 SLP224 T10061050 FZRANO;EQDQ01+000000PRSWM2
0157726710241642000102601534+42570-110100FM-15+2124KBPI V0203101N003612200019N0160931N1+00201+00001101711ADDGF100991999999999999999999MA1101801999999MW1001REMMET079KBPI 260153Z AUTO 31007KT 10SM CLR 02/00 A3006 RMK AO2 SLP171 T00220000 FZRANO;EQDQ01+000000PRSWM2
0190726710241642000102819534+42570-110100FM-15+2124KBPI V0209999C000010240019N0160931N1+00901+00301100881ADDGD13991+0240099GD24991+0270099GF108991999999999999999999MA1101221999999MW1001REMMET082KBPI 281953Z AUTO 00000KT 10SM BKN080 OVC095 09/03 A2989 RMK AO2 SLP088 T00940028;EQDQ01+000000PRSWM2
0714726710241642000103106596+42584-110107SOD  +2126KBPI V020999999999999999999999999999+99999+99999999999ADDAA124002895AT1MW16RA  1AT2MW18SN  1AT3MW01FG  1AT4MW13BR  1KA1240M+00615KA2240N-00165MG1078169999994OE11240062603017195OE22240053603017375OE33240021599999995REMSOD54524 HR PRECIPITATION (IN): 0.11 24 HR MAX TEMP (F): 4324 HR MAX TEMP TIME (LST):1433 24 HR MIN TEMP (F): 2924 HR MIN TEMP TIME (LST):2359 AVERAGE STATION PRESSURE:23.08  PEAK WIND SPEED (MPH): 14 PEAK WIND DIR (DEG):030 PEAK WIND TIME (LST):1719  FASTEST 2MIN SPEED (MPH): 12FASTEST 2MIN DIR (DEG):030 FASTEST 2MIN TIME (LST):1737 AVERAGE WIND SPEED (MPH): 4.8 24 HR AVG TEMP (F):36 HOURLY INCREMENTAL PRECIPITATION VALUES (IN): T    T   .00  .00  .00  .00   T    T    T   .02  .06  .03   T    T   .00  .00  .00   T    T   .00  .00  .00  .00  .00
0151726710241642000110418534+42570-110100FM-15+2124KBPI V0201601N002612200019N0160931N1+00301-00701101791ADDGF100991999999999999999999MA1101691999999MW1001REMMET073KBPI 041853Z AUTO 16005KT 10SM CLR 03/M07 A3003 RMK AO2 SLP179 T00281067;EQDQ01+000000PRSWM2
0248726710241642000111009534+42570-110100FM-15+2124KBPI V0202101N002610051019N0024141N1-00801-01001100641ADDAA101000021GD13991+0051099GD24991+0084099GF108991999999999999999999MA1100471999999MW1101MW2711REMMET107KBPI 100953Z AUTO 21005KT 1 1/2SM -SN BR BKN017 OVC028 M08/M10 A2967 RMK AO2 SLP064 P0000 T10781100 FZRANO;EQDQ01+000003PRSWM1Q02    003PRSWM1
0164726710241642000111205434+42570-110100FM-15+2124KBPI V0209999C000012200019N0028161N1-02101-02201999999ADDGF100991999999999999999999MA1101461999999MW1101REMMET070KBPI 120543Z AUTO 00000KT 1 3/4SM BR CLR M21/M22 A2996 RMK AO2 FZRANO;EQDQ01+000003PRSWM1Q02    003PRSWM1
0179726710241642000112020534+42570-110100FM-15+2124KBPI V0201201N002112200019N0160931N1-00201-00901103391ADDGF100991999999999999999999MA1102911999999MD1810151+9999MW1001REMMET087KBPI 202053Z AUTO 12004KT 10SM CLR M02/M09 A3039 RMK AO2 SLP339 T10171089 58015 FZRANO;EQDQ01+000000PRSWM2
0159726710241642000112401534+42570-110100FM-15+2124KBPI V0209999C000012200019N0160931N1-00701-01001102961ADDGF100991999999999999999999MA1102271999999MW1001REMMET081KBPI 240153Z AUTO 00000KT 10SM CLR M07/M10 A3020 RMK AO2 SLP296 T10721100 FZRANO;EQDQ01+000000PRSWM2
0159726710241642000112704534+42570-110100FM-15+2124KBPI V0209999C000012200019N0160931N1-00701-00801102391ADDGF100991999999999999999999MA1102131999999MW1001REMMET081KBPI 270453Z AUTO 00000KT 10SM CLR M07/M08 A3016 RMK AO2 SLP239 T10671083 FZRANO;EQDQ01+000000PRSWM2
0249726710241642000112710344+42570-110100FM-15+2124KBPI V0200501N001510180019N0048281N1-00701-00801999999ADDAA101000021GD12991+0138099GD23991+0180099GD34991+0270099GF108991999999999999999999MA1101961999999MW1101MW2711REMMET093KBPI 271034Z AUTO 05003KT 3SM -SN BR FEW046 BKN060 OVC090 M07/M08 A3011 RMK AO2 P0000 FZRANO;EQDQ01+000003PRSWM1Q02    003PRSWM1
0231726710241642000112716464+42570-110100FM-15+2124KBPI V0201801N001510024019N0040231N1-00401-00601999999ADDAA101000021GD13991+0024099GD24991+0057099GF108991999999999999999999MA1101661999999MW1101MW2711REMMET090KBPI 271646Z AUTO 18003KT 2 1/2SM -SN BR BKN008 OVC019 M04/M06 A3002 RMK AO2 P0000 FZRANO;EQDQ01+000003PRSWM1Q02    003PRSWM1
0257726710241642000112804534+42570-110100FM-15+2124KBPI V0202701N004610075019N0112651N1-00301-00401101751ADDAA101000021GD13991+0075099GD23991+0147099GD34991+0150099GF108991999999999999999999MA1101591999999MW1711REMMET107KBPI 280453Z AUTO 27009KT 7SM -SN BKN025 BKN049 OVC055 M03/M04 A3000 RMK AO2 SLP175 P0000 T10331044 FZRANO;EQDQ01+000003PRSWM1Q02    003PRSWM1
0272726710241642000122222534+42570-110100FM-15+2124KBPI V0202201N002610123019N0096561N1-00501-00701102001ADDAA101000021GD12991+0066099GD22991+0087099GD33991+0123099GF107991999999999999999999MA1101521999999MW1101MW2711REMMET116KBPI 222253Z AUTO 22005KT 6SM -SN BR FEW022 SCT029 BKN041 M05/M07 A2998 RMK AO2 SNB21 SLP200 P0000 T10501067 FZRANO;EQDQ01+000003PRSWM1Q02    003PRSWM1
0179726710241642000122502534+42570-110100FM-15+2124KBPI V0203201N003612200019N0160931N1-01001-01201102231ADDGF100991999999999999999999MA1101661999999MD1310081+9999MW1001REMMET087KBPI 250253Z AUTO 32007KT 10SM CLR M10/M12 A3002 RMK AO2 SLP223 T11001122 53008 FZRANO;EQDQ01+000000PRSWM2
0159726710241642000122612534+42570-110100FM-15+2124KBPI V0209999C000012200019N0160931N1-02201-02401104001ADDGF100991999999999999999999MA1102841999999MW1001REMMET081KBPI 261253Z AUTO 00000KT 10SM CLR M22/M24 A3037 RMK AO2 SLP400 T12221244 FZRANO;EQDQ01+000000PRSWM2
0235726763999992000022100104+44650-111100FM-15+2031KWEY V0209999C000010600019N0241401N1-00501-01401102751ADDAJ100669199999999GD12991+0300099GD23991+0600099GF107991999999999999999999KA1999M-00111MD1710241+9999MW1001REMMET098KWEY 210010Z 00000KT 15SM SCT100 BKN200 M05/M14 RMK ACSL N SLP275 NOSPECI 4/026 8/041 11011 57024;EQDQ01+000000PRSWM2
0193726763999992000030211504+44650-111100FM-15+2031KWEY V0209999C000010060019N0160931N1-00901-01201102351ADDAJ100669199999999GD14991+0060099GF108991999999999999999999MD1710031+9999MW1001REMMET084KWEY 021150Z 00000KT 10SM OVC020 M09/M12 RMK SLP235 NOSPECI 4/026 8/5// 21139 57003;EQDQ01+000000PRSWM2
0163726763999992000040920504+44650-111100FM-15+2031KWEY V0209999C000010150019N0241401N1+00501+00001101561ADDGD14991+0150099GF108991999999999999999999MD1410001+9999MW1001REMMET071KWEY 092050Z 00000KT 15SM OVC050 05/M00 RMK NOSPECI SLP156 8/5// 54000;EQDQ01+000000PRSWM2
0174726763999992000052416424+44650-111100FM-15+2031KWEY V0209999C000010240019N0241401N1+01401+00401101341ADDGD14991+0240099GF108991999999999999999999MD1710051+9999MW1001REMMET082KWEY 241742Z 00000KT 15SM OVC080 14/04 RMK SLP134 NOSPECI 60000 8/5// 20012 57005;EQDQ01+000000PRSWM2
0184726763999992000080215004+44650-111100FM-15+2031KWEY V0209999C000012200019N0241401N1+01401+01001101701ADDGD12991+0150099GD22991+0600099GF104991999999999999999999MD1110071+9999MW1001REMMET077KWEY 021459Z 00000KT 15SM FEW050 SCT200 14/10 RMK SLP170 NOSPECI 8/209 51007;EQDQ01+000000PRSWM2
0163726763999992000081710304+44650-111100FM-15+2031KWEY V0209999C000012200019N0048281N1+00101-00101102111ADDGF100991999999999999999999MD1210031+9999MW1041REMMET070KWEY 171130Z 00000KT 3SM FU SKC 01/M01 RMK SLP211 NOSPECI 20011 52003;EQDQ01+000003PRSWM1Q02    003PRSWM1
0180726763999992000082013384+44650-111100FM-15+2031KWEY V0209999C000012200019N0032181N1+01001+00301101611ADDGD12991+0600099GF104991999999999999999999MD1210081+9999MW1041REMMET072KWEY 201438Z 00000KT 2SM FU SCT200 10/03 RMK SLP161 NOSPECI 8/001 52008;EQDQ01+000003PRSWM1Q02    003PRSWM1
0162726763999992000092003104+44650-111100FM-15+2031KWEY V0209999C000012200019N0241401N1+00301+00001102251ADDGD12991+0150099GF104991999999999999999999MD1210341+9999MW1001REMMET070KWEY 200310Z 00000KT 15SM SCT050 03/00 RMK SLP225 NOSPECI 8/100 52034;EQDQ01+000000PRSWM2
0140726763999992000100714504+44650-111100FM-15+2031KWEY V0209999C000012200019N0241401N1-00701-01201103441ADDGF100991999999999999999999MD1210051+9999MW1001REMMET063KWEY 071450Z 00000KT 15SM SKC M07/M12 RMK SLP344 NOSPECI 52005;EQDQ01+000000PRSWM2
0185726763999992000102711504+44650-111100FM-15+2031KWEY V0209999C000010060019N0160931N1+00201+00101101361ADDAA106000021GD14991+0060099GF108991999999999999999999MD1410001+9999MW1001REMMET082KWEY 271150Z 00000KT 10SM OVC020 02/01 RMK SLP136 NOSPECI 60000 8/5// 20021 54000;EQDQ01+000000PRSWM2
0191726763999992000110915074+44650-111100FM-15+2031KWEY V0209999C000010030019N0160931N1-00701-00901100971ADDGD14991+0030099GF108991999999999999999999MD1210151+9999MW1001REMMET099KWEY 091507Z 00000KT 10SM OVC010 M07/M09 RMK BINOVC W SHSN DSNT S AND W SLP097 NOSPECI 8/5// 52015;EQDQ01+000000PRSWM2
0182726763999992000111400104+44650-111100FM-15+2031KWEY V0209999C000012200019N0241401N1-01301-01701102941ADDAJ100089199999999GF100991999999999999999999KA1999M-00721MD1210051+9999MW1001REMMET075KWEY 140010Z 00000KT 15SM SKC M13/M17 RMK SLP294 NOSPECI 4/003 11072 52005;EQDQ01+000000PRSWM2
0185726763999992000120721034+44650-111100FM-15+2031KWEY V0209999C000010600019N0241401N1+00201-00801102501ADDGD12991+0150099GD24991+0600099GF108991999999999999999999MD1710031+9999MW1001REMMET078KWEY 072103Z 00000KT 15SM SCT050 OVC200 02/M08 RMK SLP250 NOSPECI 8/107 57003;EQDQ01+000000PRSWM2
0227726763999992000122311464+44650-111100FM-15+2031KWEY V0209999C000010030019N0160931N1-00701-01001102501ADDAA106000891AA224001391AJ100439199999999GD14991+0030099GF108991999999999999999999MD1110051+9999MW1001REMMET096KWEY 231146Z 00000KT 10SM OVC010 M07/M10 RMK SLP250 NOSPECI 60003 70005 4/017 8/5// 21067 51005;EQDQ01+000000PRSWM2
0158726764999992000060522544+44680-111120FM-16+2025KWYS V0201601N005110240019N0402331N1+02701+99999999999ADDGD12991+0180099GD23991+0240099GF107991999999999999999999MA1101731999999MW1001REMMET050KWYS 052254Z 16010KT 25SM SCT060 BKN080 27/ A3004;EQDQ01+000000PRSWM2
0136726764999992000062223154+44670-111110FM-16+2025KWYS V0209999C000010180019N0402331N1+02001+99999999999ADDGD13991+0180099GF107991999999999999999999MA1101591999999MW1001REMMET043KWYS 222315Z 00000KT 25SM BKN060 20/ A3000;EQDQ01+000000PRSWM2
0136726764999992000071916134+44670-111110FM-16+2025KWYS V0209999C000010060019N0193121N1+01001+99999999999ADDGD13991+0060099GF107991999999999999999999MA1102881999999MW1001REMMET043KWYS 191613Z 00000KT 12SM BKN020 10/ A3038;EQDQ01+000000PRSWM2
0136726764999992000072111164+44670-111110FM-16+2025KWYS V0209999C000012200019N0321861N1+00301+99999999999ADDGD12991+0150099GF102991999999999999999999MA1102471999999MW1001REMMET043KWYS 211116Z 00000KT 20SM FEW050 03/ A3026;EQDQ01+000000PRSWM2
0158726764999992000072721144+44670-111110FM-16+2025KWYS V0202301N006212200019N0321861N1+02901+99999999999ADDGD12991+0240099GD22991+0300099GF104991999999999999999999MA1102271999999MW1001REMMET050KWYS 272114Z 23012KT 20SM SCT080 SCT100 29/ A3020;EQDQ01+000000PRSWM2
0158726764999992000081522534+44670-111110FM-16+2025KWYS V0202001N007712200019N0402331N1+02901+99999999999ADDGD12991+0180099GD22991+0240099GF104991999999999999999999MA1102371999999MW1001REMMET050KWYS 152253Z 20015KT 25SM SCT060 SCT080 29/ A3023;EQDQ01+000000PRSWM2
0149726764999992000081623064+44670-111110FM-16+2025KWYS V0201901N005112200019N0160931N1+02601+99999999999ADDGD12991+0180099GF102991999999999999999999MA1102511999999MW1001REMMET056KWYS 162306Z 19010KT 10SM FEW065 26/ A3027 RMK FU ALQDS;EQDQ01+000000PRSWM2
0130726764999992000081711174+44670-111110FM-16+2025KWYS V0209999C000012200019N0112651N1+00301+99999999999ADDGF100991999999999999999999MA1102611999999MW1001REMMET052KWYS 171117Z 00000KT 7SM SKC 03/ A3030 RMK FU ALQDS;EQDQ01+000000PRSWM2
0158726764999992000091923034+44670-111110FM-16+2025KWYS V0202801N007710180019N0321861N1+01401+99999999999ADDGD13991+0180099GD23991+0360099GF107991999999999999999999MA1101631999999MW1001REMMET050KWYS 192303Z 28015KT 20SM BKN060 BKN120 14/ A3001;EQDQ01+000000PRSWM2
0412726770240332000010514003+45800-108550FM-15+1087BIL  V0202605N009850300019N0160005N1+00065-01065101435ADDAA101000095GD13995+0304859GD23995+0548659GF107991999999999999999999GP10060000002000000002000000002000GR100600000900009MA1101195999999MW1001REMMET080KBIL 051356Z 26019KT 10SM BKN100 BKN180 01/M11 A2988 RMK AO2 SLP143 T00061106 $;EQDQ01+000000PRSWM2N01 00000JPWTH 0QNNAA1D0 04100BA1 0 04100AA1D0 04180BA1 0 04180KA1D0 00013JA1 0-00106LA1 0 01000CA1 0 02988NA1 0 00000QA1 0 10143SA1D0 00033RA1 0 00006YA1 0 26019
0286726770240332000010907003+45800-108550FM-15+1087BIL  V0202205N00625220005MN016000599-00115-01115100485ADDAA101000095GD11995+0259159GD22995+0762059GP10060000002000000002000000002000GR100600000900009MA1100305999999EQDN01 00000JPWTH 0QNNAA1D0 02085BA1 0 01085AA1D0 02250BA1 0 02250GA1U0 99999KA1D0 00012JA1 0-00111LA1 0 01000CA1 0 02962NA1 0 00000QA1 0 10048SA1D0 00030RA1 0-00011YA1 0 22012
0414726770240332000011307003+45800-108550FM-15+1087BIL  V0202305N00625220005MN0160005N1-00785-01445102785ADDAA101000095GD11995+0609659GF102991999999999999999999GP10060000002000000002000000002000GR100600000900009KA1999M+00001KA2999N-00891MA1102345999999MW1001REMMET082KBIL 130656Z 23012KT 10SM FEW200 M08/M14 A3022 RMK AO2 SLP278 T10781144 400001089;EQDQ01+000000PRSWM2N01 00000JPWTH 0QNNAA1D0 02200BA1 0 01200GA1U0 99999KA1D0 00006JA1 0-00144LA1 0 01000CA1 0 03022NA1 0 00000QA1 0 10278SA1D0 00018RA1 0-00078YA1 0 23012
0279726770240332000011511564+45800-108530FM-15+1088KBIL V0201801N003112200019N0160931N1-00401-00801101671ADDAJ100059199999999GD12991+0390019GD22991+0660019GF104991999999999999999999KA1999M-00281KA2999N-00891MA1101221999999MD1310051+9999MW1001REMMET114KBIL 151156Z COR 18006KT 10SM FEW130 SCT220 M04/M08 A2989 RMK AO2 SLP167 HZ E-S 4/002 T10441083 11028 21089 53005;EQDQ01+000000PRSWM2
0512726770240332000011512003+45800-108550SY-MT+1087BIL  V0201805N00315220005MN0160005N1-00445-00835101675ADDAA101000095AJ100059199999999GD11995+0396259GD22995+0670659GF104991999999999999999999GP10060000002000000002000000002000GR100600000900009KA1999M+00391KA2120N-00891MA1101225088821MD1310051+9999REMSYN102    AAXX  15124 72677 32966 41806 11044 21083 38882 40167 53005 91156 333 10039 21089 4/005 555 91512;EQDQ01  00002PRCP99Q02  00003PRCP99N01 00000JPWTH 0QNNAA1D0 02130BA1 0 01130AA1D0 02220BA1 0 02220GA1U0 99999KA1D0 00017JA1 0-00083LA1 0 01000CA1 0 02989NA1 0 00000QA1 0 10167SA1D0 00024RA1 0-00044YA1 0 18006
0201726770240332000012416274+45800-108530FM-16+1088KBIL V0200201N003110066019N0128741N1-00401-00801999999ADDGD13991+0066019GD24991+0105019GF108991999999999999999999MA1102001999999MW1711REMMET077KBIL 241627Z 02006KT 8SM -SN BKN022 OVC035 M04/M08 A3012 RMK AO2 SNB14 P0000;EQDQ01+000003PRSWM1Q02    003PRSWM1
0465726770240332000012419003+45800-108550FM-15+1087BIL  V0201105N00155170085MN0160005N1-00335-00785102505ADDAA101000025GD11995+0106759GD24995+0167659GF108991999999999999999999GP10060019402009003602021018002009GQ100600664916559GR100600566914129MA1102105999999MW1715REMMET089KBIL 241856Z 11003KT 10SM -SN FEW035 OVC055 M03/M08 A3015 RMK AO2 SLP250 P0000 T10331078;EQDQ01+000003PRSWM1Q02    003PRSWM1N01 00040JPWTH 0QNNAA1D0 02035BA1 0 01035AA1D0 06055BA1 0 06055GA1 0 00558KA1D0 00018JA1 0-00078LA1 0 01000CA1 0 03015NA1 0 00040QA1 0 10250SA1D0 00026RA1 0-00033YA1 0 11003
0454726770240332000012620003+45800-108550FM-15+1087BIL  V0201905N00525220005MN0160005N1+00445-00395101295ADDAA101000095GD11995+0228659GD22995+0457259GF104991999999999999999999GP10060044702009094102021004202009GQ100600646918099GR100600605914119MA1101025999999MW1001REMMET094KBIL 261956Z 19010KT 10SM FEW075 SCT150 04/M04 A2983 RMK AO2 SLP129 ACSL DSNT ALQDS T00441039;EQDQ01+000000PRSWM2N01 00000JPWTH 0QNNAA1D0 02075BA1 0 01075AA1D0 02150BA1 0 02150GA1U0 99999KA1D0 00025JA1 0-00039LA1 0 01000CA1 0 02983NA1 0 00000QA1 0 10129SA1D0 00040RA1 0 00044YA1 0 19010
0245726770240332000012709434+45800-108530FM-16+1088KBIL V0202201N003610066019N0160931N1-00301-00301999999ADDGD12991+0003019GD23991+0066019GD34991+0240019GF108991999999999999999999MA1101691999999MW1411REMMET106KBIL 270943Z 22007KT 10SM BCFG FEW001 BKN022 OVC085 M03/M03 A3003 RMK AO2 SNE07 VIS LWR E-SE AND SW P0000;EQDQ01+000003PRSWM1Q02    003PRSWM1
0654726770240332000012806003+45800-108550SY-MT+1087BIL  V0202005N00215185325MN0160005N1-00285-00675102855ADDAA101000095GD11995+0152459GD23995+0182959GD34995+0243859GF108991999999017501999999GP10060000002000000002000000002000GR100600000900009KA1240M-00111KA2240N-00331MA1102475089951MD1110051+9999MW1001REMSYN092AAXX  28064 72677 32766 82004 11028 21067 38995 40285 51005 90556 333 11011 21033 555 92806;MET104KBIL 280556Z 20004KT 10SM FEW050 BKN060 OVC080 M03/M07 A3026 RMK AO2 SLP285 T10281067 11011 21033 51005;EQDQ01+000000PRSWM2Q02  00002PRCP99Q03  00003PRCP99N01 00000JPWTH 0QNNAA1D0 02050BA1 0 01050AA1D0 04060BA1 0 04060AA1D0 06080BA1 0 06080GA1 0 00608KA1D0 00020JA1 0-00067LA1 0 01000CA1 0 03026NA1 0 00000QA1 0 10285SA1D0 00027RA1 0-00028YA1 0 20004
0360726770240332000012910003+45800-108550FM-15+1087BIL  V0202105N00575220005MN0160005N1-00785-01065102615ADDAA101000095GF100991999999999999999999GP10060000002000000002000000002000GR100600000900009MA1102205999999MW1001REMMET069KBIL 290956Z 21011KT 10SM CLR M08/M11 A3018 RMK AO2 SLP261 T10781106;EQDQ01+000000PRSWM2N01 00000JPWTH 0QNNAA1D0 00000BA1 0 00000GA1U0 99999KA1D0 00013JA1 0-00106LA1 0 01000CA1 0 03018NA1 0 00000QA1 0 10261SA1D0 00018RA1 0-00078YA1 0 21011
0494726770240332000020103003+45800-108550SY-MT+1087BIL  V0202205N00725220005MN0160005N1-00225-01175102455ADDAA101000095GF100991001001999999001001GP10060000002000000002000000002000GR100600000900009MA1101935089461MD1110181+9999MW1001REMSYN076AAXX  01034 72677 35966 02214 11022 21117 38946 40245 51018 90256 555 90103;MET075KBIL 010256Z 22014KT 10SM CLR M02/M12 A3010 RMK AO2 SLP245 T10221117 51018;EQDQ01+000000PRSWM2Q02  00002PRCP99Q03  00003PRCP99N01 00000JPWTH 0QNNAA1D0 00000BA1 0 00000GA1U0 99999KA1D0 00011JA1 0-00117LA1 0 01000CA1 0 03010NA1 0 00000QA1 0 10245SA1D0 00028RA1 0-00022YA1 0 22014
0497726770240332000020216003+45800-108550FM-15+1087BIL  V0202905N00465025915MN0160005N1+00615-00445102015ADDAA101000095GD11995+0182959GD23995+0259159GD33995+0548659GF107991999999999999999999GP10060009402009037802021004402009GQ100600824912389GR100600186914089MA1101865999999MW1001REMMET100KBIL 021556Z 29009KT 10SM FEW060 BKN085 BKN180 06/M04 A3008 RMK AO2 SLP201 ACSL DSNT E-SE T00611044;EQDQ01+000000PRSWM2N01 00000JPWTH 0QNNAA1D0 02060BA1 0 01060AA1D0 04085BA1 0 04085AA1D0 04180BA1 0 04180GA1 0 00085KA1D0 00024JA1 0-00044LA1 0 01000CA1 0 03008NA1 0 00000QA1 0 10201SA1D0 00043RA1 0 00061YA1 0 29009
0507726770240332000020223003+45800-108550FM-15+1087BIL  V0203505N00675007925MN0112005N1+00445-00115102325ADDAA101000595GD13995+0079259GD23995+0097559GD34995+0137259GF108991999999999999999999GP10060020402009025002021013902009GQ100600749922509GR100600366914089MA1102175999999MW1615REMMET094KBIL 022256Z 35013KT 7SM -RA BKN026 BKN032 OVC045 04/M01 A3017 RMK AO2 SLP232 P0002 T00441011;EQDQ01+000003PRSWM1Q02    003PRSWM1N01 00020JPWTH 0QNNAA1D0 04026BA1 0 04026AA1D0 04032BA1 0 04032AA1D0 06045BA1 0 06045GA1 0 00026KA1D0 00030JA1 0-00011LA1 0 00700CA1 0 03017NA1 0 00020QA1 0 10232SA1D0 00040RA1 0 00044YA1 0 35013
0211726770240332000020306184+45800-108530FM-16+1088KBIL V0202301N004610180019N0096561N1+00101-00101999999ADDGD12991+0003019GD23991+0180019GD34991+0240019GF108991999999999999999999MA1102441999999MW1411REMMET072KBIL 030618Z 23009KT 6SM BCFG FEW001 BKN060 OVC080 01/M01 A3025 RMK AO2;EQDQ01+000003PRSWM1Q02    003PRSWM1
0497726770240332000020621003+45800-108550SY-MT+1087BIL  V0203105N01035067065MN0160005N1+01285-00445102305ADDAA101000095GD11995+0213459GD22995+0426759GD33995+0670659GF106991999999022501999999GP10060046502009087702021006602009GQ100600631919679GR100600637914079MA1102205089711MD1810041+9999REMSYN076AAXX  06214 72677 35866 63120 10128 21044 38971 40230 58004 92056 555 90621;EQDQ01  00002PRCP99Q02  00003PRCP99N01 00000JPWTH 0QNNAA1D0 02070BA1 0 01070AA1D0 02140BA1 0 02140AA1D0 04220BA1 0 04220GA1 0 00220KA1D0 00024JA1 0-00044LA1 0 01000CA1 0 03018NA1 0 00000QA1 0 10230SA1D0 00055RA1 0 00128YA1 0 31020
0440726770240332000020801003+45800-108550FM-15+1087BIL  V0202305N00825220005MN0160005N1+00725-00445102445ADDAA101000095GD11995+0365859GD22995+0762059GF104991999999999999999999GP10060000002009000002021000002009GQ100600881924609GR100600021906219MA1102275999999MW1001REMMET080KBIL 080056Z 23016KT 10SM FEW120 SCT250 07/M04 A3020 RMK AO2 SLP244 T00721044 $;EQDQ01+000000PRSWM2N01 00000JPWTH 0QNNAA1D0 02120BA1 0 01120AA1D0 02250BA1 0 02250GA1U0 99999KA1D0 00024JA1 0-00044LA1 0 01000CA1 0 03020NA1 0 00000QA1 0 10244SA1D0 00045RA1 0 00072YA1 0 23016
0436726770240332000021311003+45800-108550FM-15+1087BIL  V0203605N00215002445MN0020005N1-01115-01225101145ADDAA101000395GD14995+0024459GF108991999999999999999999GP10060000002000000002000000002000GR100600000900009MA1100585999999MW1101MW2455MW3715REMMET102KBIL 131056Z 36004KT 1 1/4SM -SN BR OVC008 M11/M12 A2970 RMK AO2 SLP114 VIS 1V1 1/2 P0001 T11111122 $;EQDQ01+000003PRSWM1Q02    003PRSWM1N01 04070JPWTH 0QNNAA1D0 06008BA1 0 06008GA1 0 00008KA1D0 00010JA1 0-00122LA1 0 00125CA1 0 02970NA1 0 04070QA1 0 10114SA1D0 00012RA1 0-00111YA1 0 36004
0463726770240332000021319003+45800-108550FM-15+1087BIL  V0202005N00825024385MN0160005N1-00675-01115101055ADDAA101000095GD13995+0243859GD23995+0670659GF107991999999999999999999GP10060013202009000002021013202009GQ100600607916379GR100600686914039MA1100545999999MW1001REMMET103KBIL 131856Z 20016KT 10SM BKN080 BKN220 M07/M11 A2969 RMK AO2 SLP105 VCSH NW-N SHSN DSNT S T10671111 $;EQDQ01+000000PRSWM2N01 00000JPWTH 0QNNAA1D0 04080BA1 0 04080AA1D0 04220BA1 0 04220GA1 0 00080KA1D0 00012JA1 0-00111LA1 0 01000CA1 0 02969NA1 0 00000QA1 0 10105SA1D0 00020RA1 0-00067YA1 0 20016
0380726770240332000021914003+45800-108550FM-15+1087BIL  V0201905N00575220005MN0160005N1-01065-01285102785ADDAA101000095GD11995+0762059GF102991999999999999999999GP10060000002000000002000000002000GR100600000900009MA1102305999999MW1001REMMET074KBIL 191356Z 19011KT 10SM FEW250 M11/M13 A3021 RMK AO2 SLP278 T11061128 $;EQDQ01+000000PRSWM2N01 00000JPWTH 0QNNAA1D0 02250BA1 0 01250GA1U0 99999KA1D0 00009JA1 0-00128LA1 0 01000CA1 0 03021NA1 0 00000QA1 0 10278SA1D0 00013RA1 0-00106YA1 0 19011
