0183488400999992000122215004+19790+105770FM-12+000799999V0209999C000012200019N0200001N1+01771+01551101921ADDAA199000091GA1001+999999999GF100991001001999999001001MA1999999101861MD1310161-0031REMSYN070AAXX  22151 48840 32998 00000 10177 20155 30186 40192 53016 333 59003;EQDQ01  00002PRCP99
0211488400999992000122506004+19790+105770FM-12+000799999V0200501N002012200019N0200001N1+01801+00711101851ADDAA199000091GA1041+017509059GF104991041051017501999001MA1999999101791MD1810281-0021REMSYN082AAXX  25061 48840 32798 40502 10180 20071 30179 40185 58028 84500 333 59002 84697;EQDQ01+000002SCOMCGQ02  00002PRCP99
0195488450999992000010309004+18700+105670FM-12+0006VVVH V0200501N002019999999N0200001N1+02081+01791101261ADDAA106000091GA1071+999999089GF107991001001999999001081MA1999999101191MD1710161-0301REMSYN082AAXX  03091 48845 32998 70502 10208 20179 30119 40126 57016 80008 333 59030 87299;EQDQ01  00002PRCP06
0183488450999992000010415004+18700+105670FM-12+0006VVVH V0209999C000012200019N0200001N1+01951+01901101321ADDAA106000091GA1001+999999999GF100991001001999999001001MA1999999101251MD1210131-0141REMSYN070AAXX  04151 48845 32998 00000 10195 20190 30125 40132 52013 333 59014;EQDQ01  00002PRCP06
0205488450999992000011509004+18700+105670FM-12+000699999V0200901N00301105001CN0200001N1+02551+02171100831ADDAA199000091GA1011+008009089GF107991021021008001001081MA1999999100761MD1510141+0111REMSYN092    AAXX  15091 48845 32598 70903 10255 20217 30076 40083 55014 82208 333 58011 81895 87299;EQDQ01  00002PRCP99
0201488450999992000012409004+18700+105670FM-12+0006VVVH V0200501N00201004501CN0200001N1+02121+01811101611ADDAA199000091GA1061+004509089GF108991081081004501999999MA1999999101541MD1310091+0181REMSYN088AAXX  24091 48845 32498 80502 10212 20181 30154 40161 53009 888// 333 58018 86894 88697;EQDQ01  00002PRCP99
0195488450999992000013003004+18700+105670FM-12+0006VVVH V0203201N002010175019N0200001N1+01351+00891102981ADDAA199000091GA1081+017509059GF108991081051017501999999MA1999999102911MD1210221+0401REMSYN082AAXX  30031 48845 32798 83202 10135 20089 30291 40298 52022 885// 333 58040 88697;EQDQ01  00002PRCP99
0226488450999992000020212004+18700+105670FM-12+0006VVVH V0209999C000010175019N0200001N1+01431+01191102071ADDAA124000091GA1071+017509059GF107991071051017501999999KA1120M+01771MA1999999102001MD1210041-0311REMSYN100AAXX  02121 48845 32798 70000 10143 20119 30200 40207 52004 875// 333 00013 10177 59031 70000 87697;EQDQ01  00002PRCP24
0201488450999992000020306004+18700+105670FM-12+0006VVVH V0200901N00201105001CN0200001N1+02071+01221101951ADDAA199000091GA1031+008009089GF107991031021008001001081MA1999999101881MD1710351-0271REMSYN088AAXX  03061 48845 32598 70902 10207 20122 30188 40195 57035 83208 333 59027 83895 86299;EQDQ01  00002PRCP99
0216488450999992000022518004+18700+105670FM-12+0006VVVH V0203401N00401004501CN0100001N1+01351+01311102241ADDAA106000891AY161061AY221061GA1051+004509089GF108991081081004501999999MA1999999102171MD1810011+0571MW1611REMSYN100AAXX  25181 48845 11497 83404 10135 20131 30217 40224 58001 69981 76162 888// 333 58057 85894 88697;
0201488450999992000030703004+18700+105670FM-12+0006VVVH V0209999C00001009001CN0200001N1+02291+02001101501ADDAA199000091GA1021+004509089GF107991071081004501999999MA1999999101431MD1210191+0101REMSYN088AAXX  07031 48845 32498 70000 10229 20200 30143 40150 52019 878// 333 58010 82894 87697;EQDQ01  00002PRCP99
0201488450999992000032218004+18700+105670FM-12+0006VVVH V0209999C00001004501CN0200001N1+02281+02191101231ADDAA199000091GA1051+004509089GF108991081081004501999999MA1999999101161MD1710021+0091REMSYN088AAXX  22181 48845 32498 80000 10228 20219 30116 40123 57002 888// 333 58009 85894 88697;EQDQ01  00002PRCP99
0199488450999992000032403004+18700+105670FM-12+0006VVVH V0203601N00301004501CN0100001N1+01881+01721101981ADDAY161031AY221031GA1051+004509089GF108991081081004501999999MA1999999101911MD1110181+0441MW1601REMSYN094AAXX  24031 48845 41497 83603 10188 20172 30191 40198 51018 76062 888// 333 58044 85894 88697;
0195488450999992000032803004+18700+105670FM-12+0006VVVH V0202301N002019999999N0200001N1+02331+01811101651ADDAA199000091GA1071+999999089GF107991001001999999001081MA1999999101581MD1010031-0281REMSYN082AAXX  28031 48845 32998 72302 10233 20181 30158 40165 50003 80008 333 59028 87299;EQDQ01  00002PRCP99
0232488450999992000032912004+18700+105670FM-12+0006VVVH V0200901N00201105001CN0200001N1+02241+01841101351ADDAA124000091GA1021+017509069GF107991021051017501001081KA1120M+02811MA1999999101281MD1210051-0141REMSYN106AAXX  29121 48845 32798 70902 10224 20184 30128 40135 52005 82508 333 00021 10281 59014 70000 82697 87299;EQDQ01  00002PRCP24
0226488450999992000040212004+18700+105670FM-12+0006VVVH V0200501N003019999999N0200001N1+02411+02291100241ADDAA124000091GA1071+999999089GF107991001001999999001081KA1120M+03011MA1999999100171MD1210101+0121REMSYN100AAXX  02121 48845 32998 70503 10241 20229 30017 40024 52010 80008 333 00024 10301 58012 70000 87299;EQDQ01  00002PRCP24
0201488450999992000041206004+18700+105670FM-12+0006VVVH V0200901N00201012001CN0200001N1+02731+02321100971ADDAA199000091GA1021+008009089GF107991071081008001999999MA1999999100901MD1710291-0371REMSYN088AAXX  12061 48845 32598 70902 10273 20232 30090 40097 57029 878// 333 59037 82895 86697;EQDQ01  00002PRCP99
0195488450999992000041615004+18700+105670FM-12+0006VVVH V0209999C000010175019N0200001N1+02111+01771101501ADDAA199000091GA1081+017509059GF108991081051017501999999MA1999999101431MD1210101-0241REMSYN082AAXX  16151 48845 32798 80000 10211 20177 30143 40150 52010 885// 333 59024 88697;EQDQ01  00002PRCP99
0244488450999992000051200004+18700+105670FM-12+0006VVVH V0203401N00201009001CN0200001N1+02591+02481100591ADDAA199000091GA1031+004509089GF108991081081004501999999IA2999+02509KA1120N+02561MA1999999100521MD1310081-0021REMSYN106AAXX  12001 48845 32498 83402 10259 20248 30052 40059 53008 888// 333 00027 20256 3/025 59002 83894 88697;EQDQ01  00002PRCP99
0259488450999992000052200004+18700+105670FM-12+0006VVVH V0202501N00101009001CN0200001N1+02121+02061101131ADDAA112002091AY161061AY221061GA1031+004509089GF108991081081004501999999IA2999+02109KA1120N+02071MA1999999101061MD1210151+0121MW1021REMSYN118AAXX  22001 48845 11498 82501 10212 20206 30106 40113 52015 60022 70262 888// 333 01022 20207 3/021 58012 83894 88697;
0195488450999992000053021004+18700+105670FM-12+0006VVVH V0202701N001010175019N0200001N1+02691+02531100471ADDAA199000091GA1071+017509059GF107991071051017501999999MA1999999100401MD1710151-0061REMSYN082AAXX  30211 48845 32798 72701 10269 20253 30040 40047 57015 875// 333 59006 87697;EQDQ01  00002PRCP99
0183488450999992000060521004+18700+105670FM-12+0006VVVH V0209999C000012200019N0200001N1+02611+02501100601ADDAA199000091GA1001+999999999GF100991001001999999001001MA1999999100531MD1310041-0141REMSYN070AAXX  05211 48845 32998 00000 10261 20250 30053 40060 53004 333 59014;EQDQ01  00002PRCP99
0195488450999992000062521004+18700+105670FM-12+0006VVVH V0209999C000010175019N0200001N1+02671+02361100331ADDAA199000091GA1071+017509059GF107991071051017501999999MA1999999100261MD1710061+0191REMSYN082AAXX  25211 48845 32798 70000 10267 20236 30026 40033 57006 875// 333 58019 87697;EQDQ01  00002PRCP99
0201488450999992000062809004+18700+105670FM-12+0006VVVH V0200501N00301008001CN0200001N1+03091+02461100471ADDAA199000091GA1051+008009089GF107991061081008001001081MA1999999100401MD1710131+0121REMSYN088AAXX  28091 48845 32598 70503 10309 20246 30040 40047 57013 86808 333 58012 85895 86299;EQDQ01  00002PRCP99
0195488450999992000072803004+18700+105670FM-12+0006VVVH V0202301N002019999999N0200001N1+03311+02321100311ADDAA199000091GA1071+999999089GF107991001001999999001081MA1999999100241MD1010051+0121REMSYN082AAXX  28031 48845 32998 72302 10331 20232 30024 40031 50005 80008 333 58012 87299;EQDQ01  00002PRCP99
0253488450999992000073000004+18700+105670FM-12+0006VVVH V0201801N002019999999N0200001N1+02881+02501100451ADDAA112000191AY161061AY211061GA1071+999999089GF107991001001999999001081IA2999+02509KA1120N+02731MA1999999100381MD1310081+0101MW1021REMSYN112AAXX  30001 48845 11998 71802 10288 20250 30038 40045 53008 69912 70261 80008 333 00033 20273 3/025 58010 87299;
0183488450999992000073018004+18700+105670FM-12+0006VVVH V0209999C000012200019N0200001N1+02841+02561100441ADDAA199000091GA1001+999999999GF100991001001999999001001MA1999999100371MD1810121-0041REMSYN070AAXX  30181 48845 32998 00000 10284 20256 30037 40044 58012 333 59004;EQDQ01  00002PRCP99
0195488450999992000081309004+18700+105670FM-12+0006VVVH V0202301N004019999999N0200001N1+03581+02401100211ADDAA199000091GA1071+999999089GF107991001001999999001081MA1999999100141MD1710181+0021REMSYN082AAXX  13091 48845 32998 72304 10358 20240 30014 40021 57018 80008 333 58002 87299;EQDQ01  00002PRCP99
0201488450999992000083015004+18700+105670FM-12+0006VVVH V0202301N00201105001CN0200001N1+02711+02411100191ADDAA199000091GA1031+017509069GF107991031051017501001081MA1999999100121MD1010121-0101REMSYN088AAXX  30151 48845 32798 72302 10271 20241 30012 40019 50012 83508 333 59010 83697 85299;EQDQ01  00002PRCP99
0219488450999992000090512004+18700+105670FM-12+0006VVVH V0201801N00201105001CN0200001N1+02761+02501100311ADDAA112002091GA1031+017509069GF107991031051017501001081KA1120M+03081MA1999999100241MD1310011-0161REMSYN112AAXX  05121 48845 12798 71802 10276 20250 30024 40031 53001 60022 83508 333 01028 10308 59016 70015 83697 86299;
0195488450999992000093018004+18700+105670FM-12+0006VVVH V0209999C000010080019N0200001N1+02551+02481101381ADDAA199000091GA1071+008009099GF107991071091008001999999MA1999999101311MD1810011+0241REMSYN082AAXX  30181 48845 32598 70000 10255 20248 30131 40138 58001 879// 333 58024 87995;EQDQ01  00002PRCP99
0223488450999992000093021004+18700+105670FM-12+0006VVVH V0209999C000012200019N0200001N1+02501+02421101321ADDAA199000091AY111031AY211031GA1021+008009099GF102991021091008001001001MA1999999101251MD1710061+0241MW1131REMSYN088AAXX  30211 48845 31598 20000 10250 20242 30125 40132 57006 71311 82900 333 58024 82995;EQDQ01  00002PRCP99
0201488450999992000101309004+18700+105670FM-12+0006VVVH V0203601N00401004501CN0200001N1+02531+01971100521ADDAA199000091GA1051+004509089GF108991081081004501999999MA1999999100451MD1710191-0031REMSYN088AAXX  13091 48845 32498 83604 10253 20197 30045 40052 57019 888// 333 59003 85894 88697;EQDQ01  00002PRCP99
0266488450999992000102600004+18700+105670FM-12+0006VVVH V0209999C000019999999N0040001N1+02431+02371101481ADDAA199000091AY121061AY221061GA1071+999999089GF107991001001999999001081IA2999+02309KA1120N+02401MA1999999101411MD1210081+0041MW1101REMSYN106AAXX  26001 48845 31996 70000 10243 20237 30141 40148 52008 71022 80008 333 01025 20240 3/023 58004 87299;EQDQ01  00002PRCP99
0199488450999992000102803004+18700+105670FM-12+0006VVVH V0200501N00201009001CN0200001N1+02731+02361101551ADDAY161031AY221031GA1041+004509089GF108991081081004501999999MA1999999101481MD1010181+0001MW1021REMSYN094AAXX  28031 48845 41498 80502 10273 20236 30148 40155 50018 70262 888// 333 58000 84894 88697;
0219488450999992000103112004+18700+105670FM-12+0006VVVH V0209999C00001009001CN0200001N1+02201+01591101501ADDAA112000791GA1021+004509089GF108991081081004501999999KA1120M+02501MA1999999101431MD1210171+0301REMSYN112AAXX  31121 48845 12498 80000 10220 20159 30143 40150 52017 69902 888// 333 01021 10250 58030 79999 82894 88697;
0242488450999992000121206004+18700+105670FM-12+0006VVVH V0203201N00101004501CN0100001N1+01981+01931101631ADDAA106009991AY161061AY261061GA1061+004509089GA2081+017509069GF108991081081004501999999MA1999999101561MD1710251-0061MW1611REMSYN110AAXX  12061 48845 11497 83201 10198 20193 30156 40163 57025 60101 76166 888// 333 59006 86894 88697 555 20197;
0201488450999992000121403004+18700+105670FM-12+0006VVVH V0209999C00001009001CN0200001N1+01621+01331102121ADDAA199000091GA1041+004509089GF108991081081004501999999MA1999999102051MD1010071+0061REMSYN088AAXX  14031 48845 32498 80000 10162 20133 30205 40212 50007 888// 333 58006 84894 88697;EQDQ01  00002PRCP99
0201488450999992000122109004+18700+105670FM-12+0006VVVH V0202301N00401018001CN0200001N1+01711+01351101901ADDAA199000091GA1011+004509089GF107991071081017501999999MA1999999101831MD1610221+0361REMSYN088AAXX  21091 48845 32798 72304 10171 20135 30183 40190 56022 878// 333 58036 81894 87697;EQDQ01  00002PRCP99
0217488450999992000123112004+18700+105670FM-12+0006VVVH V0201801N00101017501CN0200001N1+01781+01641101641ADDAA124000191GA1071+017509069GF107991071051017501999999KA1120M+02101MA1999999101571MD1210071+0111REMSYN110AAXX  31121 48845 32798 71801 10178 20164 30157 40164 52007 875// 333 00017 10210 58011 70001 87697 555 20178;
0183488460999992000010215004+18350+105900FM-12+000399999V0209999C000012200019N0200001N1+01661+01661101711ADDAA106000091GA1001+999999999GF100991001001999999001001MA1999999101681MD1110031-0081REMSYN070AAXX  02151 48846 32998 00000 10166 20166 30168 40171 51003 333 59008;EQDQ01  00002PRCP06
0182488460999992000012309004+18350+105900FM-12+000399999V0200901N00301009001CN0200001N1+02041+01881101461ADDAA199000021GA1021+004509089GF108991081081004501999999MA1999999101431MD1510131-0221REMSYN088AAXX  23091 48846 32498 80903 10204 20188 30143 40146 55013 888// 333 59022 82894 88697;
0176488460999992000022203004+18350+105900FM-12+000399999V0200501N002010175019N0100001N1+01821+01791101361ADDAA199000021GA1081+017509059GF108991081051017501999999MA1999999101331MD1110141+0021REMSYN082AAXX  22031 48846 32797 80502 10182 20179 30133 40136 51014 885// 333 58002 88697;
0199488460999992000022321004+18350+105900FM-12+000399999V0200501N00201009001CN0100001N1+01661+01661101411ADDAY161031AY261031GA1031+004509089GF108991081081004501999999MA1999999101381MD1510031+0461MW1611REMSYN094AAXX  23211 48846 41497 80502 10166 20166 30138 40141 55003 76166 888// 333 58046 83894 88697;
0195488460999992000052821004+18350+105900FM-12+000399999V0209999C000019999999N0200001N1+02701+02561100461ADDAA199000091GA1071+999999089GF107991001001999999001081MA1999999100431MD1610071+0061REMSYN082AAXX  28211 48846 32998 70000 10270 20256 30043 40046 56007 80008 333 58006 87299;EQDQ01  00002PRCP99
0193488460999992000060903004+18350+105900FM-12+000399999V0202301N002010175019N0200001N1+02981+02441100531ADDAY161031AY221031GA1071+017509059GF107991071051017501999999MA1999999100501MD1810031-0271MW1021REMSYN088AAXX  09031 48846 41798 72302 10298 20244 30050 40053 58003 70262 875// 333 59027 87697;
0201488460999992000062909004+18340+105890FM-12+000399999V0200901N004012200019N0200001N1+03141+02551100331ADDAA199000091GA1011+008009089GF104991021091008001001011MA1999999100301MD1710171-0091REMSYN088AAXX  29091 48846 32598 40904 10314 20255 30030 40033 57017 82901 333 59009 81895 82995;EQDQ01  00002PRCP99
0229488460999992000072509004+18340+105890FM-12+000399999V0201401N00201007501CN0200001N1+03321+02471100051ADDAA199000091AY191031AY211031GA1041+008009089GF106991061091008001999999MA1999999100021MD1510181-0041MW1171REMSYN094AAXX  25091 48846 31598 61402 10332 20247 30002 40005 55018 71791 869// 333 59004 84895 82995;EQDQ01  00002PRCP99
0201488460999992000082003004+18340+105890FM-12+000399999V0200901N00201105001CN0200001N1+03121+02441100551ADDAA199000091GA1011+008009089GF107991011021008001001081MA1999999100521MD1010031-0181REMSYN088AAXX  20031 48846 32598 70902 10312 20244 30052 40055 50003 81208 333 59018 81895 87299;EQDQ01  00002PRCP99
0183488460999992000091703004+18340+105890FM-12+000399999V0203601N003012200019N0200001N1+02721+99999101271ADDAA199000091GA1001+999999999GF100991001001999999001001MA1999999101241MD1010031+0151REMSYN070AAXX  17031 48846 32998 03603 10272 20297 30124 40127 50003 333 58015;EQDQ01  00002PRCP99
0201488460999992000100603004+18340+105890FM-12+000399999V0203201N00201012001CN0200001N1+02761+02441101411ADDAA199000091GA1031+008009089GF107991071081008001999999MA1999999101381MD1110151+0221REMSYN088AAXX  06031 48846 32598 73202 10276 20244 30138 40141 51015 878// 333 58022 83895 86697;EQDQ01  00002PRCP99
0199488460999992000101021004+18340+105890FM-12+000399999V0209999C00001012001CN0100001N1+02621+02481100651ADDAY181031AY221031GA1021+008009089GF108991081081008001999999MA1999999100621MD1610091+0041MW1031REMSYN094AAXX  10211 48846 41597 80000 10262 20248 30062 40065 56009 70382 888// 333 58004 82895 88697;
0199488460999992000101621004+18340+105890FM-12+000399999V0203201N00401009001CN0100001N1+01921+01811101251ADDAY161031AY261031GA1041+004509089GF108991081081004501999999MA1999999101221MD1710061-0041MW1611REMSYN094AAXX  16211 48846 41497 83204 10192 20181 30122 40125 57006 76166 888// 333 59004 84894 88697;
0199488460999992000102503004+18340+105890FM-12+000399999V0203201N00301009001CN0200001N1+02621+02451101521ADDAY161031AY221031GA1011+004509089GF108991081081004501999999MA1999999101491MD1010151+0181MW1021REMSYN094AAXX  25031 48846 41498 83203 10262 20245 30149 40152 50015 70262 888// 333 58018 81894 88697;
0199488460999992000121009004+18340+105890FM-12+000399999V0200501N00201009001CN0100001N1+02141+02081101351ADDAY161031AY221031GA1021+004509089GF108991081081004501999999MA1999999101321MD1510031+0261MW1611REMSYN094AAXX  10091 48846 41497 80502 10214 20208 30132 40135 55003 76162 888// 333 58026 82894 88697;
0199488460999992000122103004+18340+105890FM-12+000399999V0203201N00301009001CN0100001N1+01671+01591102281ADDAY161031AY221031GA1031+004509089GF108991081081004501999999MA1999999102251MD1010191+0551MW1611REMSYN094AAXX  21031 48846 41497 83203 10167 20159 30225 40228 50019 76162 888// 333 58055 83894 88697;
0232488480999992000010112004+17520+106580FM-12+000899999V0203601N00201012001CN0200001N1+01961+01811101601ADDAA106000091GA1021+008009089GF108991081081008001999999KA1120M+02251MA1999999101521MD1210171+0051REMSYN106AAXX  01121 48848 32598 83602 10196 20181 30152 40160 52017 888// 333 00020 10225 58005 70000 82895 88697;EQDQ01  00002PRCP06
0183488480999992000010415004+17520+106580FM-12+000899999V0209999C000012200019N0200001N1+01921+01871101331ADDAA106000091GA1001+999999999GF100991001001999999001001MA1999999101251MD1210151-0131REMSYN070AAXX  04151 48848 32998 00000 10192 20187 30125 40133 52015 333 59013;EQDQ01  00002PRCP06
0182488480999992000011915004+17520+106580FM-12+000899999V0202701N00301012001CN0200001N1+01411+01141102201ADDAA199000021GA1021+008009089GF108991081081008001999999MA1999999102121MD1110121+0101REMSYN088AAXX  19151 48848 32598 82703 10141 20114 30212 40220 51012 888// 333 58010 82895 88697;
0267488480999992000012712004+17520+106580FM-12+000899999V0203201N00401004501CN0100001N1+01231+01181999999ADDAA112002091AY161061AY261061GA1051+004509089GA2081+017509069GF108991081081004501999999KA1120M+02571MA1999999102561MD1310061-0081MW1611REMSYN122AAXX  27121 48848 11497 83204 10123 20118 30256 53006 60022 76166 888// 333 01014 10257 59008 70027 85894 88697 555 20122;
0201488480999992000013018004+17520+106580FM-12+000899999V0203601N00701012001CN0200001N1+01301+01031102551ADDAA199000091GA1021+008009089GF108991081081008001999999MA1999999102471MD1710131-0021REMSYN088AAXX  30181 48848 32598 83607 10130 20103 30247 40255 57013 888// 333 59002 82895 88697;EQDQ01  00002PRCP99
0195488480999992000021309004+17520+106580FM-12+000899999V0200501N002012200019N0200001N1+02421+01941100841ADDAA199000091GA1021+008009029GF102991021011008001001001MA1999999100761MD1610171-0151REMSYN082AAXX  13091 48848 32570 20502 10242 20194 30076 40084 56017 82100 333 59015 82895;EQDQ01  00002PRCP99
0201488480999992000030521004+17520+106580FM-12+000899999V0209999C00001012001CN0200001N1+02001+01941101091ADDAA199000091GA1021+008009089GF108991081081008001999999MA1999999101011MD1510031-0011REMSYN088AAXX  05211 48848 32598 80000 10200 20194 30101 40109 55003 888// 333 59001 82895 88697;EQDQ01  00002PRCP99
0266488480999992000030700004+17520+106580FM-12+000899999V0209999C000010175019N0040001N1+02041+02011101301ADDAA199000091AY121061AY221061GA1081+017509059GF108991081051017501999999IA2999+02109KA1120N+02011MA1999999101221MD1210061+0121MW1101REMSYN106AAXX  07001 48848 31796 80000 10204 20201 30122 40130 52006 71022 885// 333 00022 20201 3/021 58012 88697;EQDQ01  00002PRCP99
0228488480999992000030900004+17520+106580FM-12+000899999V0209999C000010120019N0200001N1+02231+02151101431ADDAA199000091GF108991081081008001999999IA2999+02209KA1120N+02211MA1999999101351MD1210221+0041REMSYN106AAXX  09001 48848 32570 80000 10223 20215 30135 40143 52022 888// 333 00023 20221 3/022 58004 5895/ 88697;EQDQ01  00002PRCP99
0213488480999992000031312004+17520+106580FM-12+000899999V0203601N00201012001CN0200001N1+01941+01741101081ADDAA124000591GA1021+008009089GF108991081081008001999999KA1120M+02181MA1999999101001MD1310101+0131REMSYN106AAXX  13121 48848 32598 83602 10194 20174 30100 40108 53010 888// 333 00022 10218 58013 70004 82895 88697;
0201488480999992000032303004+17520+106580FM-12+000899999V0201101N00301012001CN0150001N1+02451+02331101541ADDAA199000091GA1031+008009089GF108991081081008001999999MA1999999101461MD1110121+0201REMSYN088AAXX  23031 48848 32565 81103 10245 20233 30146 40154 51012 888// 333 58020 83895 88697;EQDQ01  00002PRCP99
0226488480999992000042912004+17520+106580FM-12+000899999V0201401N002019999999N0200001N1+02851+02421100831ADDAA124000091GA1071+999999089GF107991001001999999001081KA1120M+03611MA1999999100751MD1310231+0141REMSYN100AAXX  29121 48848 32998 71402 10285 20242 30075 40083 53023 80008 333 00031 10361 58014 70000 87299;EQDQ01  00002PRCP24
0247488480999992000051712004+17520+106580FM-12+000899999V0201401N00201012001CN0200001N1+02851+02571100461ADDAA112000791AY191061AY261061GA1031+008009089GF108991081081008001999999KA1120M+03351MA1999999100381MD1310221+0001MW1031REMSYN118AAXX  17121 48848 11598 81402 10285 20257 30038 40046 53022 69902 70396 888// 333 00030 10335 58000 79999 83895 88697;
0201488480999992000052303004+17520+106580FM-12+000899999V0200701N00201012001CN0200001N1+02621+02281101021ADDAA199000091GA1031+008009089GF108991081081008001999999MA1999999100941MD1110081-0091REMSYN088AAXX  23031 48848 32570 80702 10262 20228 30094 40102 51008 888// 333 59009 83895 88697;EQDQ01  00002PRCP99
0211488480999992000052615004+17520+106580FM-12+000899999V0202301N004012200019N0200001N1+03011+02501100461ADDAA199000091GA1011+017509059GF101991011051017501999001MA1999999100381MD1210301+0001REMSYN082AAXX  26151 48848 32798 12304 10301 20250 30038 40046 52030 81500 333 58000 81697;EQDQ01+000002SCOMCGQ02  00002PRCP99
0266488480999992000061800004+17510+106570FM-12+000899999V0209999C00001105001CN0200001N1+02541+02471100611ADDAA199000091GA1011+008009089GA2031+017509069GF107991031081008001001081IA2999+02509KA1120N+02461MA1999999100531MD1210101+0141REMSYN112AAXX  18001 48848 32570 70000 10254 20247 30053 40061 52010 83808 333 01027 20246 3/025 58014 81895 83697 87299;EQDQ01  00002PRCP99
0182488480999992000061815004+17510+106570FM-12+000899999V0209999C00001008001CN0200001N1+02631+02521100711ADDAA199000021GA1051+008009089GF108991081081008001999999MA1999999100631MD1210201+0091REMSYN088AAXX  18151 48848 32598 80000 10263 20252 30063 40071 52020 888// 333 58009 85895 88697;
0201488480999992000071409004+17510+106570FM-12+000899999V0200901N00501105001CN0200001N1+03241+02491100031ADDAA199000091GA1011+008009099GF106991011091008001001081MA1999999099951MD1710171-0141REMSYN088AAXX  14091 48848 32570 60905 10324 20249 39995 40003 57017 81908 333 59014 81995 86299;EQDQ01  00002PRCP99
0251488480999992000071515004+17510+106570FM-12+000899999V0209999C00001007501CN0200001N1+02661+02521100181ADDAA199000091AY191031AY221031GA1011+008009099GA2021+008009089GF107991071091008001999999MA1999999100101MD1110051-0061MW1131REMSYN100AAXX  15151 48848 31598 70000 10266 20252 30010 40018 51005 71392 879// 333 59006 82895 81995 87697;EQDQ01  00002PRCP99
0232488480999992000072612004+17510+106570FM-12+000899999V0202701N00201105001CN0200001N1+03131+02201100121ADDAA124000091GA1011+008009089GF107991011021008001001081KA1120M+03491MA1999999100041MD1310021-0081REMSYN106AAXX  26121 48848 32598 72702 10313 20220 30004 40012 53002 81208 333 00032 10349 59008 70000 81895 87299;EQDQ01  00002PRCP24
0195488480999992000072715004+17510+106570FM-12+000899999V0202001N003019999999N0200001N1+02941+02351100221ADDAA199000091GA1071+999999089GF107991001001999999001081MA1999999100141MD1210191-0101REMSYN082AAXX  27151 48848 32998 72003 10294 20235 30014 40022 52019 80008 333 59010 87299;EQDQ01  00002PRCP99
0195488480999992000072721004+17510+106570FM-12+000899999V0200201N002012200019N0200001N1+02811+02271100121ADDAA199000091GA1021+999999019GF102991001001999999001011MA1999999100041MD1610041-0021REMSYN082AAXX  27211 48848 32998 20202 10281 20227 30004 40012 56004 80001 333 59002 82099;EQDQ01  00002PRCP99
0195488480999992000092518004+17510+106570FM-12+000899999V0209999C000019999999N0200001N1+02631+02541100781ADDAA199000091GA1071+999999089GF107991001001999999001081MA1999999100701MD1810171-0121REMSYN082AAXX  25181 48848 32998 70000 10263 20254 30070 40078 58017 80008 333 59012 87299;EQDQ01  00002PRCP99
0195488480999992000100109004+17510+106570FM-12+000899999V0201101N003012200019N0200001N1+02971+02491101111ADDAA199000091GA1021+008009029GF102991021021008001001011MA1999999101031MD1610131+0081REMSYN082AAXX  01091 48848 32570 21103 10297 20249 30103 40111 56013 82201 333 58008 82895;EQDQ01  00002PRCP99
0254488480999992000100300004+17510+106570FM-12+000899999V0209999C000012200019N0200001N1+02511+02391101221ADDAA199000091GA1011+017509059GF101991011051017501999001IA2999+02409KA1120N+02361MA1999999101141MD1310141+0041REMSYN100AAXX  03001 48848 32770 10000 10251 20239 30114 40122 53014 81500 333 00027 20236 3/024 58004 81697;EQDQ01+000002SCOMCGQ02  00002PRCP99
0194488480999992000102609004+17510+106570FM-12+000899999V0200201N004012200019N0200001N1+02771+02491101131ADDAA199000091GA1011+008009029GF101991011021008001001001MA1999999101051MD1710171+0021REMSYN081AAXX  26091 4884832570 10204 10277 20249 30105 40113 57017 81200 333 58002 81895;EQDQ01  00002PRCP99
0184488480999992000112115004+17510+106570FM-12+000899999V0209999C000010120019N0200001N1+01681+01341102051ADDAA199000091GF106991061081008001999999MA1999999101971MD1210131+9999REMSYN087AAXX  21151 48848 32598 60000 10168 20134 30197 40205 52013 868// 33 59007 82895 86697;EQDQ01  00002PRCP99
0247488480999992000112612004+17510+106570FM-12+000899999V0209999C00001012001CN0200001N1+02351+02281101451ADDAA112004191AY161061AY221061GA1021+008009089GF108991081081008001999999KA1120M+02471MA1999999101371MD1310081+0121MW1021REMSYN118AAXX  26121 48848 11598 80000 10235 20228 30137 40145 53008 60042 70262 888// 333 01023 10247 58012 70037 82895 88697;
0195488480999992000121021004+17510+106570FM-12+000899999V0202701N001019999999N0200001N1+02111+02001101431ADDAA199000091GA1071+999999089GF107991001001999999001081MA1999999101351MD1610151+0161REMSYN082AAXX  10211 48848 32998 72701 10211 20200 30135 40143 56015 80008 333 58016 87299;EQDQ01  00002PRCP99
0201488480999992000121815004+17510+106570FM-12+000899999V0202501N00201012001CN0200001N1+02131+02051101301ADDAA199000091GA1021+008009089GF107991071081008001999999MA1999999101221MD1110061-0381REMSYN088AAXX  18151 48848 32598 72502 10213 20205 30122 40130 51006 878// 333 59038 82895 87697;EQDQ01  00002PRCP99
0221488520999992000010209004+16400+107680FM-12+0017VVPB V0203201N00101004501CN0060001N1+02011+01951101441ADDAY161031AY261031GA1061+004509089GA2081+017509069GF108991081081004501999999MA1999999101341MD1610131+0081MW1611REMSYN100AAXX  02091 48852 41456 83201 10201 20195 30134 40144 56013 76166 888// 333 58008 86894 88697 96010;
0201488520999992000010306004+16400+107680FM-12+0017VVPB V0203201N00201012001CN0200001N1+02311+01901101421ADDAA106000091GA1031+008009089GF107991071081008001999999MA1999999101321MD1710181-0151REMSYN088AAXX  03061 48852 32570 73202 10231 20190 30132 40142 57018 878// 333 59015 83895 87697;EQDQ01  00002PRCP06
0183488520999992000010815004+16400+107680FM-12+0017VVPB V0209999C000012200019N0200001N1+02071+02011101181ADDAA106000091GA1001+999999999GF100991001001999999001001MA1999999101081MD1110111-0261REMSYN070AAXX  08151 48852 32998 00000 10207 20201 30108 40118 51011 333 59026;EQDQ01  00002PRCP06
0216488520999992000012906004+16400+107680FM-12+0017VVPB V0203201N00201012001CN0200001N1+01751+01531102221ADDAA106000591AY161061AY221061GA1031+008009089GF108991081081008001999999MA1999999102121MD1810171+0041MW1021REMSYN100AAXX  29061 48852 11570 83202 10175 20153 30212 40222 58017 69951 70262 888// 333 58004 83895 88697;
0221488520999992000020609004+16400+107680FM-12+0017VVPB V0203601N00201004501CN0060001N1+01961+01881101381ADDAY161031AY221031GA1061+004509089GA2081+017509069GF108991081081008001999999MA1999999101281MD1510121-0081MW1641REMSYN100AAXX  06091 48852 41556 83602 10196 20188 30128 40138 55012 76462 888// 333 59008 86894 88697 96010;
0232488520999992000020912004+16400+107680FM-12+0017VVPB V0203201N00101012001CN0200001N1+01951+01751101401ADDAA124000091GA1031+008009069GF107991071081008001999999KA1120M+02461MA1999999101301MD1210151-0171REMSYN106AAXX  09121 48852 32598 73201 10195 20175 30130 40140 52015 878// 333 01021 10246 59017 70000 83695 87697;EQDQ01  00002PRCP24
0232488520999992000021512004+16400+107680FM-12+0017VVPB V0201401N00201008001CN0200001N1+02231+02041101421ADDAA124000091GA1061+008009089GF107991071081017501999999KA1120M+02181MA1999999101321MD1310051+0151REMSYN106AAXX  15121 48852 32798 71402 10223 20204 30132 40142 53005 878// 333 01022 10218 58015 70000 86895 82697;EQDQ01  00002PRCP24
0199488520999992000022515004+16400+107680FM-12+0017VVPB V0203401N00101004501CN0100001N1+01671+01621101971ADDAY161031AY261031GA1061+004509089GF108991081081004501999999MA1999999101871MD1110141+0451MW1611REMSYN094AAXX  25151 48852 41497 83401 10167 20162 30187 40197 51014 76166 888// 333 58045 86894 88697;
0216488520999992000032706004+16400+107680FM-12+0017VVPB V0203201N00201008001CN0200001N1+02231+01711101591ADDAA106000191AY161061AY221061GA1061+008009089GF107991071081008001999999MA1999999101491MD1710351-0121MW1021REMSYN100AAXX  27061 48852 11570 73202 10223 20171 30149 40159 57035 69921 70262 878// 333 59012 86895 87697;
0195488520999992000040203004+16400+107680FM-12+0017VVPB V0201801N001019999999N0200001N1+03391+02331100681ADDAA199000091GA1071+999999089GF107991001001999999001081MA1999999100581MD1110051-0051REMSYN082AAXX  02031 48852 32970 71801 10339 20233 30058 40068 51005 80008 333 59005 87299;EQDQ01  00002PRCP99
0201488520999992000041303004+16400+107680FM-12+0017VVPB V0201801N00101105001CN0200001N1+02861+02021100831ADDAA199000091GA1031+008009089GF107991031021008001001081MA1999999100731MD1110041-0341REMSYN088AAXX  13031 48852 32570 71801 10286 20202 30073 40083 51004 83208 333 59034 83895 87299;EQDQ01  00002PRCP99
0201488520999992000041403004+16400+107680FM-12+0017VVPB V0201401N00201045001CN0200001N1+03011+02391100661ADDAA199000091GA1031+017509069GF107991031051017501031999MA1999999100561MD1810011-0221REMSYN088AAXX  14031 48852 32770 71402 10301 20239 30056 40066 58001 8353/ 333 59022 83697 85399;EQDQ01  00002PRCP99
0216488520999992000041706004+16400+107680FM-12+0017VVPB V0203201N00201004501CN0060001N1+02011+01921101271ADDAA106013091AY161061AY261061GA1061+004509089GF108991081081004501999999MA1999999101171MD1810111-0091MW1631REMSYN100AAXX  17061 48852 11456 83202 10201 20192 30117 40127 58011 60131 76366 888// 333 59009 86894 88697;
0207488520999992000042106004+16400+107680FM-12+0017VVPB V0202301N00301105001CN0200001N1+03331+02521100651ADDAA199000091GA1021+002409099GF107991021091008001001081MA1999999100551MD1710201+0031REMSYN094AAXX  21061 48852 32570 72303 10333 20252 30055 40065 57020 82908 333 58003 81895 82995 87299;EQDQ01  00002PRCP99
0251488520999992000043006004+16400+107680FM-12+0017VVPB V0200701N00301105001CN0200001N1+03411+02591100921ADDAA199000091AY191061AY221061GA1021+008009099GA2011+008009089GF106991021091008001001081MA1999999100821MD1710221-0071MW1171REMSYN100AAXX  30061 48852 31570 60703 10341 20259 30082 40092 57022 71792 82908 333 59007 81895 82995 86299;EQDQ01  00002PRCP99
0199488520999992000051521004+16400+107680FM-12+0017VVPB V0209999C00001017501CN0200001N1+02551+02521100561ADDAY161031AY221031GA1051+017509069GF107991051051017501001081MA1999999100461MD1610081+0021MW1021REMSYN094AAXX  15211 48852 41798 70000 10255 20252 30046 40056 56008 70262 85508 333 58002 85697 87299;
0216488520999992000053109004+16400+107680FM-12+0017VVPB V0200901N00101105001CN0200001N1+02981+02631100311ADDAA103001091AY181031AY221031GA1031+008009089GF107991031021008001001081MA1999999100211MD1610151-0021MW1031REMSYN100AAXX  31091 48852 21570 70901 10298 20263 30021 40031 56015 70382 83208 333 59002 60017 83895 87299;
0211488520999992000070115004+16400+107680FM-12+0017VVPB V0209999C000012200019N0200001N1+02631+02501100611ADDAA199000091GA1011+017509059GF101991011051017501999001MA1999999100511MD1210161-0111REMSYN082AAXX  01151 48852 32798 10000 10263 20250 30051 40061 52016 81500 333 59011 81697;EQDQ01+000002SCOMCGQ02  00002PRCP99
0176488520999992000080918004+16400+107680FM-12+0017VVPB V0201801N002012200019N0200001N1+02441+02281100751ADDAA199000021GA1021+999999019GF102991001001999999001011MA1999999100651MD1810131-0121REMSYN082AAXX  09181 48852 32998 21802 10244 20228 30065 40075 58013 80001 333 59012 82099;
0201488520999992000082603004+16400+107680FM-12+0017VVPB V0209999C00001105001CN0200001N1+03161+02501100561ADDAA199000091GA1021+008009089GF106991021021008001001081MA1999999100461MD1010031+0011REMSYN088AAXX  26031 48852 32570 60000 10316 20250 30046 40056 50003 82208 333 58001 82895 86299;EQDQ01  00002PRCP99
0233488520999992000082903004+16400+107680FM-12+0017VVPB V0209999C00001017501CN0200001N1+03281+02431100341ADDAA199000091GA1081+017509069GF199999061081008001001081MA1999999100241MD1410001-0101REMSYN088AAXX  29031 48852 32570 70000 10328 20243 30024 40034 58000 86808 333 59010 88697 87299;EQDQ01+000072SCOTCVQ02+000082APCTENQ03  00002PRCP99
0240488520999992000090321004+16400+107680FM-12+0017VVPB V0209999C00001105001CN0200001N1+02541+02441100481ADDAY181031AY221031GA1021+008009089GA2031+025009039GF107991031081008001999081MA1999999100381MD1710191+0021MW1021REMSYN100AAXX  03211 48852 41598 70000 10254 20244 30038 40048 57019 70282 83808 333 58002 82895 83399 87299;EQDQ01+000002SCOMCG
0199488520999992000090609004+16400+107680FM-12+0017VVPB V0201801N00201105001CN0200001N1+02891+02481100301ADDAY181031AY221031GA1011+008009089GF107991021081008001001081MA1999999100201MD1610071-0031MW1031REMSYN094AAXX  06091 48852 41570 71802 10289 20248 30020 40030 56007 70382 82808 333 59003 81895 87299;
0238488520999992000091006004+16400+107680FM-12+0017VVPB V0201401N00101017501CN0200001N1+02911+02531099971ADDAA106004191AY161061AY221061GA1011+008009089GA2051+017509069GF108991051081008001021999MA1999999099871MD1710081-0311MW1021REMSYN106AAXX  10061 48852 11570 81401 10291 20253 39987 49997 57008 60041 70262 8582/ 333 59031 81895 85697 88499;
0201488520999992000091509004+16400+107680FM-12+0017VVPB V0203601N00301105001CN0200001N1+02921+02161100641ADDAA199000091GA1021+008009089GF106991021021008001001081MA1999999100541MD1610111-0111REMSYN088AAXX  15091 48852 32570 63603 10292 20216 30054 40064 56011 82208 333 59011 82895 86299;EQDQ01  00002PRCP99
0199488520999992000102215004+16400+107680FM-12+0017VVPB V0209999C00001008001CN0040001N1+02551+02481100991ADDAY181031AY221031GA1061+008009089GF107991071091004501999999MA1999999100891MD1110101-0061MW1811REMSYN094AAXX  22151 48852 41496 70000 10255 20248 30089 40099 51010 78182 879// 333 59006 86895 82995;
0199488520999992000102521004+16400+107680FM-12+0017VVPB V0209999C00001007501CN0100001N1+02411+02361101221ADDAY181031AY221031GA1041+008009089GF108991061091008001999999MA1999999101121MD1510101+0041MW1801REMSYN094AAXX  25211 48852 41597 80000 10241 20236 30112 40122 55010 78082 869// 333 58004 84895 82995;
0176488520999992000103018004+16400+107680FM-12+0017VVPB V0209999C000019999999N0200001N1+01931+01871101191ADDAA199000021GA1061+999999089GF106991001001999999001081MA1999999101091MD1810121-0121REMSYN082AAXX  30181 48852 32998 60000 10193 20187 30109 40119 58012 80008 333 59012 86299;
0201488520999992000110706004+16400+107680FM-12+0017VVPB V0203401N00201105001CN0200001N1+02771+01851101151ADDAA199000091GA1011+008009089GF107991011021008001001081MA1999999101051MD1710241+0201REMSYN088AAXX  07061 48852 32570 73402 10277 20185 30105 40115 57024 81208 333 58020 81895 87299;EQDQ01  00002PRCP99
0195488520999992000110709004+16400+107680FM-12+0017VVPB V0203601N001019999999N0200001N1+02651+01891101071ADDAA199000091GA1061+999999089GF106991001001999999001081MA1999999100971MD1610081+0171REMSYN082AAXX  07091 48852 32970 63601 10265 20189 30097 40107 56008 80008 333 58017 86299;EQDQ01  00002PRCP99
0273488520999992000111712004+16400+107680FM-12+0017VVPB V0203601N00101004501CN0100001N1+02271+02181101431ADDAA112034091AY161061AY261061GA1061+004509089GA2081+025009049GF108991061071004501021999KA1120M+02401MA1999999101331MD1210131+0011MW1611REMSYN128AAXX  17121 48852 11497 83601 10227 20218 30133 40143 52013 60342 76166 8672/ 333 01022 10240 58001 70463 86894 88499 555 20219;
0199488520999992000121315004+16400+107680FM-12+0017VVPB V0203201N00201004501CN0100001N1+01891+01831101661ADDAY161031AY261031GA1061+004509089GF108991061071004501021999MA1999999101561MD1210061+0201MW1611REMSYN094AAXX  13151 48852 41497 83202 10189 20183 30156 40166 52006 76166 8672/ 333 58020 86894 88499;
0199488520999992000121615004+16400+107680FM-12+0017VVPB V0203201N00101004501CN0100001N1+02071+99999101851ADDAY161031AY261031GA1061+004509089GF108991081081004501999999MA1999999101751MD1110071+0091MW1601REMSYN094AAXX  16151 48852 41497 83201 10207 20251 30175 40185 51007 76066 888// 333 58009 86894 88697;
0281488520999992000121800004+16400+107680FM-12+0017VVPB V0209999C00001008001CN0005001N1+02121+02011101571ADDAA112000591AY181061AY241061GA1061+008009089GA2081+017509069GF108991081081008001999999IA2999+02109KA1120N+02101MA1999999101471MD1210181-0221MW1801REMSYN124AAXX  18001 48852 11505 80000 10212 20201 30147 40157 52018 69962 78084 888// 333 01022 20210 3/021 59022 86895 88697 96046;
0150488550999992000010102304+16030+108180FM-15+0007VVDN V02099999999990150019N0070001N1+02301+02001999999ADDGA1021+004509999GA2071+015009999GF107991999999999999999999MA1101691999999MW1001REMMET059VVDN 010330Z VRB02MPS 7000 FEW015 BKN050 23/20 Q1017 NOSIG;
0201488550999992000010421004+16030+108180FM-12+0007VVDN V0202001N00101012001CN0100001N1+02211+02121101181ADDAA106000091GA1021+008009089GF107991071081008001999999MA1999999101101MD1610111-0021REMSYN088AAXX  04211 48855 32597 72001 10221 20212 30110 40118 56011 878// 333 59002 82895 87697;EQDQ01  00002PRCP06
0154488550999992000011104304+16030+108180FM-15+0007VVDN V0201701N003012200019N0112651N1+02801+02101999999ADDGA1021+004509999GF104991999999999999999999MA1101191999999MW1001REMMET060VVDN 110530Z 17003MPS 100V240 9999 SCT015 28/21 Q1012 NOSIG;EQDQ01+000000PRSWM2
0232488550999992000011112004+16030+108180FM-12+0007VVDN V0201601N00101105001CN0200001N1+02481+02341101161ADDAA106000091GA1031+008009089GF107991031021008001001081KA1120M+02921MA1999999101081MD1210181-0111REMSYN106AAXX  11121 48855 32598 71601 10248 20234 30108 40116 52018 83208 333 00026 10292 59011 70000 83895 87299;EQDQ01  00002PRCP06
0201488550999992000011115004+16030+108180FM-12+0007VVDN V0201601N00101008001CN0200001N1+02481+02361101171ADDAA106000091GA1061+008009089GF107991071081008001999999MA1999999101091MD1010011-0111REMSYN088AAXX  11151 48855 32598 71601 10248 20236 30109 40117 50001 878// 333 59011 86895 87697;EQDQ01  00002PRCP06
0205488550999992000011603004+16030+108180FM-12+000799999V0201401N00101105001CN0200001N1+02731+02201101431ADDAA199000091GA1021+008009089GF106991021011008001001081MA1999999101351MD1010101+0121REMSYN092    AAXX  16031 48855 32570 61401 10273 20220 30135 40143 50010 82108 333 58012 82895 86299;EQDQ01  00002PRCP99
0169488550999992000013021304+16030+108180FM-15+0007VVDN V0200101N004010120019N0060001N1+01801+01701999999ADDGA1021+003909999GA2071+012009999GF107991999999999999999999MA1102301999999MW1001REMMET059VVDN 302230Z 01004MPS 6000 SCT013 BKN040 18/17 Q1023 NOSIG;EQDQ01+000000PRSWM2
0204488550999992000020115004+16030+108180FM-12+0007VVDN V0203401N00101017501CN0100001N1+01811+01521102141ADDAA199000021GA1031+008009089GA2061+017509069GF107991061081008001001081MA1999999102061MD1010121-0261REMSYN094AAXX  01151 48855 32597 73401 10181 20152 30206 40214 50012 86808 333 59026 83895 86697 87299;
0188488550999992000020615304+16030+108180FM-15+0007VVDN V0203301N002010150019N0035001N1+01901+01901999999ADDGA1021+003909999GA2071+015009999GF107991999999999999999999MA1101591999999MW1101REMMET062VVDN 061630Z 33002MPS 3500 BR FEW013 BKN050 19/19 Q1016 NOSIG;EQDQ01+000003PRSWM1Q02    003PRSWM1
0188488550999992000020814304+16030+108180FM-15+0007VVDN V02099999999992200019N0040001N1+01901+01601999999ADDGA1021+004509999GA2021+018009999GF104991999999999999999999MA1101691999999MW1101REMMET062VVDN 081530Z VRB01MPS 4000 BR FEW015 SCT060 19/16 Q1017 NOSIG;EQDQ01+000003PRSWM1Q02    003PRSWM1
0165488550999992000021103304+16030+108180FM-15+0007VVDN V02099999999992200019N0050001N1+02401+01801999999ADDGA1021+004509999GF104991999999999999999999MA1101391999999MW1101REMMET055VVDN 110430Z VRB01MPS 5000 BR SCT015 24/18 Q1014 NOSIG;EQDQ01+000003PRSWM1Q02    003PRSWM1
0146488550999992000022011304+16030+108180FM-15+0007VVDN V02099999999992200019N0070001N1+02401+02401999999ADDGA1021+004509999GF102991999999999999999999MA1100911999999MW1001REMMET052VVDN 201230Z VRB02MPS 7000 FEW015 24/24 Q1009 NOSIG;EQDQ01+000000PRSWM2
0078488550999992000022020004+16030+108180SAO  +0007VVDN V0209999C000019999999N9999999N1+99999+99999999999ADDMW1001REMAWY060VVDN 202030Z AUTO 19002MPS 5000 BR FEW015 24/24 Q1009 NOSIG;
0201488550999992000022503004+16030+108180FM-12+0007VVDN V0202901N00501012001CN0100001N1+02351+01721101681ADDAA199000091GA1031+008009089GF108991081081008001999999MA1999999101601MD1110171+0191REMSYN088AAXX  25031 48855 32560 82905 10235 20172 30160 40168 51017 888// 333 58019 83895 88696;EQDQ01  00002PRCP99
0169488550999992000022701304+16030+108180FM-15+0007VVDN V02099999999992200019N0112651N1+02201+01401999999ADDGA1021+004509999GA2021+018009999GF104991999999999999999999MA1101901999999MW1001REMMET059VVDN 270230Z VRB01MPS 9999 FEW015 SCT060 22/14 Q1019 NOSIG;EQDQ01+000000PRSWM2
0201488550999992000030615004+16030+108180FM-12+0007VVDN V0201101N00101012001CN0200001N1+02291+02091101281ADDAA199000091GA1031+008009089GF107991071081008001999999MA1999999101201MD1110211+0131REMSYN088AAXX  06151 48855 32598 71101 10229 20209 30120 40128 51021 878// 333 58013 83895 87697;EQDQ01  00002PRCP99
0169488550999992000030700304+16030+108180FM-15+0007VVDN V02099999999990105019N0080001N1+02401+02101999999ADDGA1021+003909999GA2071+010509999GF107991999999999999999999MA1101391999999MW1001REMMET059VVDN 070130Z VRB01MPS 8000 FEW013 BKN035 24/21 Q1014 NOSIG;EQDQ01+000000PRSWM2
0193488550999992000031404304+16030+108180FM-15+0007VVDN V0201201N003010750019N9999999N1+02801+02201999999ADDGA1021+003909999GA2071+075009999GF107991999999999999999999MA1101191999999MW1001REMMET067VVDN 140530Z 12003MPS 060V160 7000 FEW013 BKN250 28/22 Q1012 NOSIG;EQDQ01+070002VODIS Q02+000000PRSWM2
0154488550999992000031505304+16030+108180FM-15+0007VVDN V0201301N005012200019N0112651N1+02801+02201999999ADDGA1021+005109999GF102991999999999999999999MA1101021999999MW1001REMMET060VVDN 150630Z 13005MPS 090V160 9999 FEW017 28/22 Q1010 NOSIG;EQDQ01+000000PRSWM2
0177488550999992000031703304+16030+108180FM-15+0007VVDN V0201301N004012200019N0080001N1+02801+02401999999ADDGA1021+003909999GA2021+021009999GF104991999999999999999999MA1101081999999MW1001REMMET067VVDN 170430Z 13004MPS 040V170 8000 FEW013 SCT070 28/24 Q1011 NOSIG;EQDQ01+000000PRSWM2
0201488550999992000032506004+16030+108180FM-12+0007VVDN V0200201N00101008001CN0100001N1+02731+02231101521ADDAA199000091GA1051+008009089GF107991051021008001001081MA1999999101441MD1710251+0021REMSYN088AAXX  25061 48855 32560 70201 10273 20223 30144 40152 57025 85208 333 58002 85895 87299;EQDQ01  00002PRCP99
0272488550999992000032800004+16030+108180FM-12+0007VVDN V0202701N00101105001CN0040001N1+02131+02011101491ADDAA199000091AY121061AY221061GA1031+008009089GF107991031051017501001081IA2999+02009KA1120N+02041MA1999999101411MD1210071-0211MW1101REMSYN112AAXX  28001 48855 31796 72701 10213 20201 30141 40149 52007 71022 83508 333 00023 20204 3/020 59021 83895 87299;EQDQ01  00002PRCP99
0127488550999992000033010304+16030+108180FM-15+0007VVDN V02099999999992200019N0060001N1+02501+02001999999ADDGF100991999999999999999999MA1100911999999MW1001REMMET049VVDN 301130Z VRB01MPS 6000 SKC 25/20 Q1009 NOSIG;EQDQ01+000000PRSWM2
0169488550999992000040310304+16030+108180FM-15+0007VVDN V02099999999990180019N0080001N1+02501+02401999999ADDGA1021+004509999GA2071+018009999GF107991999999999999999999MA1100611999999MW1001REMMET059VVDN 031130Z VRB01MPS 8000 FEW015 BKN060 25/24 Q1006 NOSIG;EQDQ01+000000PRSWM2
0201488550999992000040706004+16030+108180FM-12+0007VVDN V0203401N00401105001CN0200001N1+02841+02191101221ADDAA199000091GA1011+008009089GF107991011021008001001081MA1999999101141MD1710241+0091REMSYN088AAXX  07061 48855 32570 73404 10284 20219 30114 40122 57024 81208 333 58009 81895 87299;EQDQ01  00002PRCP99
0177488550999992000041303304+16030+108180FM-15+0007VVDN V0201101N003012200019N0112651N1+03001+02501999999ADDGA1021+005109999GA2021+021009999GF104991999999999999999999MA1100811999999MW1001REMMET067VVDN 130430Z 11003MPS 070V200 9999 FEW017 SCT070 30/25 Q1008 NOSIG;EQDQ01+000000PRSWM2
0075488550999992000041916004+16030+108180SAO  +0007VVDN V0209999C000019999999N9999999N1+99999+99999999999ADDMW1001REMAWY057VVDN 191630Z AUTO 25001MPS 8000 FEW010 25/24 Q1010 NOSIG;
0177488550999992000042708304+16030+108180FM-15+0007VVDN V0200301N008010810019N0112651N1+02901+02601999999ADDGA1021+004509999GA2071+081009999GF107991999999999999999999MA1100611999999MW1001REMMET067VVDN 270930Z 03008MPS 360V060 9999 FEW015 BKN270 29/26 Q1006 NOSIG;EQDQ01+000000PRSWM2
0146488550999992000042901304+16030+108180FM-15+0007VVDN V02099999999992200019N0112651N1+03101+02401999999ADDGA1021+005109999GF102991999999999999999999MA1101291999999MW1001REMMET052VVDN 290230Z VRB02MPS 9999 FEW017 31/24 Q1013 NOSIG;EQDQ01+000000PRSWM2
0146488550999992000050300304+16030+108180FM-15+0007VVDN V02099999999992200019N0112651N1+03001+02301999999ADDGA1021+005109999GF102991999999999999999999MA1101191999999MW1001REMMET052VVDN 030130Z VRB01MPS 9999 FEW017 30/23 Q1012 NOSIG;EQDQ01+000000PRSWM2
0223488550999992000050706004+16030+108180FM-12+0007VVDN V0200701N00301105001CN0200001N1+03251+02391100971ADDAA199000091GA1011+008009099GA2011+008009089GF107991021031008001001081MA1999999100891MD1710211-0111REMSYN094AAXX  07061 48855 32570 70703 10325 20239 30089 40097 57021 82308 333 59011 81895 81995 87299;EQDQ01  00002PRCP99
0208488550999992000051308304+16030+108180FM-15+0007VVDN V0203601N005012200019N0080001N1+02801+02501999999ADDGA1021+005109099GA2021+015009999GF104991999999999999999999MA1100201999999MW1611REMMET082VVDN 130930Z 36005MPS 330V030 8000 -RA FEW017CB SCT050 28/25 Q1002 NOSIG RMK CB/S;EQDQ01+000003PRSWM1Q02    003PRSWM1
0169488550999992000051423304+16030+108180FM-15+0007VVDN V02099999999990900019N0112651N1+02701+02501999999ADDGA1021+005109999GA2071+090009999GF107991999999999999999999MA1100811999999MW1001REMMET059VVDN 150030Z VRB02MPS 9999 FEW017 BKN300 27/25 Q1008 NOSIG;EQDQ01+000000PRSWM2
0201488550999992000051818004+16030+108180FM-12+0007VVDN V0203401N00101105001CN0200001N1+02661+02561100581ADDAA199000091GA1021+017509069GF107991021051017501001081MA1999999100501MD1810181+0041REMSYN088AAXX  18181 48855 32798 73401 10266 20256 30050 40058 58018 82508 333 58004 82697 87299;EQDQ01  00002PRCP99
0189488550999992000052309304+16030+108180FM-15+0007VVDN V0203301N001010180019N0060001N1+02501+02501999999ADDGA1021+004509999GA2071+018009999GF107991999999999999999999MA1100711999999MW1611REMMET063VVDN 231030Z 33001MPS 6000 -RA SCT015 BKN060 25/25 Q1007 NOSIG;EQDQ01+000003PRSWM1Q02    003PRSWM1
0105488550999992000052518004+16030+108180SAO  +0007VVDN V0209999C000019999999N9999999N1+99999+99999999999ADDAA199000091MW1001REMAWY057VVDN 251830Z AUTO 00000MPS 9999 FEW017 26/25 Q1005 NOSIG;EQDQ01  00002PRCP99
0146488550999992000052523304+16030+108180FM-15+0007VVDN V02099999999992200019N0112651N1+03001+02401999999ADDGA1021+005109999GF102991999999999999999999MA1100611999999MW1001REMMET052VVDN 260030Z VRB01MPS 9999 FEW017 30/24 Q1006 NOSIG;EQDQ01+000000PRSWM2
0232488550999992000052712004+16030+108180FM-12+0007VVDN V0200901N00101105001CN0200001N1+03011+02661100421ADDAA124000091GA1031+017509069GF107991031051017501001081KA1120M+03411MA1999999100341MD1210121-0021REMSYN106AAXX  27121 48855 32798 70901 10301 20266 30034 40042 52012 83508 333 00031 10341 59002 70000 83697 87299;EQDQ01  00002PRCP24
0098488550999992000052922304+16030+108180FM-15+0007VVDN V0209999999999220001CN0099001N1+02601+02501999999ADDMA1100711999999MW1001REMMET046VVDN 292330Z VRB02MPS CAVOK 26/25 Q1007 NOSIG;EQDQ01+000000PRSWM2
0177488550999992000053003304+16030+108180FM-15+0007VVDN V0201101N004010810019N0112651N1+03101+02601999999ADDGA1021+005109999GA2071+081009999GF107991999999999999999999MA1100711999999MW1001REMMET067VVDN 300430Z 11004MPS 070V160 9999 FEW017 BKN270 31/26 Q1007 NOSIG;EQDQ01+000000PRSWM2
0244488550999992000060200004+16030+108180FM-12+0007VVDN V0202001N00101045001CN0200001N1+02671+02501100581ADDAA199000091GA1011+008009089GF107991021081008001041081IA2999+02409KA1120N+02401MA1999999100501MD1210161+0451REMSYN106AAXX  02001 48855 32570 72001 10267 20250 30050 40058 52016 82848 333 01029 20240 3/024 58045 81895 87299;EQDQ01  00002PRCP99
0201488550999992000060318004+16030+108180FM-12+0007VVDN V0201601N00101008001CN0200001N1+02721+02561100791ADDAA199000091GA1061+008009089GF107991071081008001999999MA1999999100711MD1010011+0101REMSYN088AAXX  03181 48855 32598 71601 10272 20256 30071 40079 50001 878// 333 58010 86895 84697;EQDQ01  00002PRCP99
0169488550999992000062303304+16290+108180FM-15+0007VVDN V0202301N005012200019N0112651N1+03401+01901999999ADDGA1021+005109999GA2021+021009999GF104991999999999999999999MA1100711999999MW1001REMMET059VVDN 230430Z 23005MPS 9999 FEW017 SCT070 34/19 Q1007 NOSIG;EQDQ01+000000PRSWM2
0169488550999992000062310304+16290+108180FM-15+0007VVDN V02099999999992200019N0112651N1+02901+02601999999ADDGA1021+005109999GA2021+090009999GF104991999999999999999999MA1100511999999MW1001REMMET059VVDN 231130Z VRB02MPS 9999 FEW017 SCT300 29/26 Q1005 NOSIG;EQDQ01+000000PRSWM2
0075488550999992000063020004+16290+108180SAO  +0007VVDN V0209999C000019999999N9999999N1+99999+99999999999ADDMW1001REMAWY057VVDN 302030Z AUTO 20001MPS 9999 FEW015 25/25 Q1006 NOSIG;
0193488550999992000070506304+16290+108180FM-15+0007VVDN V0200501N005010900019N0112651N1+03201+02401999999ADDGA1021+005109029GA2071+090009999GF107991999999999999999999MA1100201999999MW1001REMMET083VVDN 050730Z 05005MPS 360V080 9999 FEW017TCU BKN300 32/24 Q1002 NOSIG RMK TCU/S/SW;EQDQ01+000000PRSWM2
0082488550999992000070917004+16290+108180SAO  +0007VVDN V0209999C000012200019N9999999N1+99999+99999999999ADDMW1001REMAWY064VVDN 091730Z AUTO 23002MPS 9999 FEW015 SCT060 27/25 Q1002 NOSIG;
0247488550999992000071012004+16290+108180FM-12+0007VVDN V0201601N00101012001CN0200001N1+02821+02491100281ADDAA112000191AY191061AY281061GA1011+008009089GF108991081081008001999999KA1120M+03301MA1999999100201MD1210161+0211MW1021REMSYN118AAXX  10121 48855 11598 81601 10282 20249 30020 40028 52016 69912 70298 888// 333 00030 10330 58021 70000 81895 88697;
0192488550999992000071110304+16290+108180FM-15+0007VVDN V02099999999990690019N0112651N1+02601+02501999999ADDGA1021+004509999GA2021+018009999GA3071+069009999GF107991999999999999999999MA1100411999999MW1001REMMET066VVDN 111130Z VRB02MPS 9999 FEW015 SCT060 BKN230 26/25 Q1004 NOSIG;EQDQ01+000000PRSWM2
0266488550999992000071400004+16290+108180FM-12+0007VVDN V0202501N00101105001CN0200001N1+02681+02391100401ADDAA199000091GA1011+008009099GA2011+008009089GF107991021091008001001081IA2999+02509KA1120N+02571MA1999999100321MD1210101-0241REMSYN112AAXX  14001 48855 32570 72501 10268 20239 30032 40040 52010 82908 333 00031 20257 3/025 59024 81895 81995 87299;EQDQ01  00002PRCP99
0177488550999992000071403304+16290+108180FM-15+0007VVDN V0201001N004012200019N0112651N1+03301+02201999999ADDGA1021+005109999GA2021+090009999GF104991999999999999999999MA1100411999999MW1001REMMET067VVDN 140430Z 10004MPS 060V150 9999 FEW017 SCT300 33/22 Q1004 NOSIG;EQDQ01+000000PRSWM2
0169488550999992000071604304+16290+108180FM-15+0007VVDN V02099999999990360019N0112651N1+02801+02701999999ADDGA1021+004509999GA2071+036009999GF107991999999999999999999MA1100201999999MW1001REMMET059VVDN 160530Z VRB01MPS 9999 FEW015 BKN120 28/27 Q1002 NOSIG;EQDQ01+000000PRSWM2
0169488550999992000072012304+16020+108180FM-15+0007VVDN V02099999999990750019N0112651N1+02901+02401999999ADDGA1021+005109999GA2071+075009999GF107991999999999999999999MA1100611999999MW1001REMMET059VVDN 201330Z VRB01MPS 9999 FEW017 BKN250 29/24 Q1006 NOSIG;EQDQ01+000000PRSWM2
0162488550999992000072608304+16020+108180FM-15+0007VVDN V02099999999992200019N0112651N1+03201+02101999999ADDGA1021+005109099GF102991999999999999999999MA1100201999999MW1001REMMET068VVDN 260930Z VRB03MPS 9999 FEW017CB 32/21 Q1002 NOSIG RMK CB/SSW/SW;EQDQ01+000000PRSWM2
0231488550999992000072800004+16020+108180FM-12+0007VVDN V0202501N00101105001CN0200001N1+02681+02421100381ADDAA112000191GA1021+017509069GF107991021051017501001081IA2999+02509KA1120N+02521MA1999999100301MD1210171+0071REMSYN112AAXX  28001 48855 12770 72501 10268 20242 30030 40038 52017 69912 82508 333 01029 20252 3/025 58007 82697 87299;
0154488550999992000073004304+16020+108180FM-15+0007VVDN V0202701N003012200019N0112651N1+03501+01801999999ADDGA1021+005109999GF102991999999999999999999MA1100511999999MW1001REMMET060VVDN 300530Z 27003MPS 200V340 9999 FEW017 35/18 Q1005 NOSIG;EQDQ01+000000PRSWM2
0177488550999992000080305304+16020+108180FM-15+0007VVDN V0202101N004010900019N0112651N1+03601+01901999999ADDGA1021+005109999GA2071+090009999GF107991999999999999999999MA1100311999999MW1001REMMET067VVDN 030630Z 21004MPS 160V260 9999 FEW017 BKN300 36/19 Q1003 NOSIG;EQDQ01+000000PRSWM2
0201488550999992000080309004+16020+108180FM-12+0007VVDN V0200501N00201105001CN0200001N1+03481+02651100161ADDAA199000091GA1021+008009089GF107991021081008001001081MA1999999100081MD1510111-0111REMSYN088AAXX  03091 48855 32570 70502 10348 20265 30008 40016 55011 82808 333 59011 82895 87299;EQDQ01  00002PRCP99
0169488550999992000080621304+16020+108180FM-15+0007VVDN V02099999999992200019N0112651N1+02401+02201999999ADDGA1021+005109999GA2021+018009999GF104991999999999999999999MA1100711999999MW1001REMMET059VVDN 062230Z VRB01MPS 9999 FEW017 SCT060 24/22 Q1007 NOSIG;EQDQ01+000000PRSWM2
0190488550999992000080702304+16020+108180FM-15+0007VVDN V0201201N003012200019N0112651N1+03101+02501999999ADDGA1021+005109029GA2021+090009999GF104991999999999999999999MA1100811999999MW1001REMMET080VVDN 070330Z 12003MPS 050V170 9999 FEW017TCU SCT300 31/25 Q1008 NOSIG RMK TCU/W;EQDQ01+000000PRSWM2
0167488550999992000080805304+16020+108180FM-15+0007VVDN V0201201N003012200019N0112651N1+03101+02301999999ADDGA1021+005109029GF102991999999999999999999MA1100811999999MW1001REMMET073VVDN 080630Z 12003MPS 050V190 9999 FEW017TCU 31/23 Q1008 NOSIG RMK TCU/S;EQDQ01+000000PRSWM2
0077488550999992000081009304+16020+108180FM-15+0007VVDN V02099999999992200019N0112651N1+99999+99999999999ADDMW1001MW2171REMMET034VVDN 101030Z VRB02MPS 9999 TS FEW;EQDQ01+000003PRSWM1
0238488550999992000081100004+16020+108180FM-12+0007VVDN V0202001N001019999999N0200001N1+02581+02331100521ADDAA199000091GA1061+999999089GF106991001001999999001081IA2999+02409KA1120N+02441MA1999999100441MD1310071-0381REMSYN100AAXX  11001 48855 32970 62001 10258 20233 30044 40052 53007 80008 333 00029 20244 3/024 59038 86299;EQDQ01  00002PRCP99
0169488550999992000081523304+16020+108180FM-15+0007VVDN V02099999999992200019N0112651N1+03001+02601999999ADDGA1021+005109999GA2021+090009999GF104991999999999999999999MA1100511999999MW1001REMMET059VVDN 160030Z VRB01MPS 9999 FEW017 SCT300 30/26 Q1005 NOSIG;EQDQ01+000000PRSWM2
0158488550999992000081621304+16020+108180FM-15+0007VVDN V0202301N002012200019N0112651N1+02401+02301999999ADDGA1021+005109099GF102991999999999999999999MA1100411999999MW1001REMMET064VVDN 162230Z 23002MPS 9999 FEW017CB 24/23 Q1004 NOSIG RMK CB/SW;EQDQ01+000000PRSWM2
0195488550999992000081721004+16020+108180FM-12+0007VVDN V0202001N001019999999N0200001N1+02531+02351100571ADDAA199000091GA1061+999999089GF106991001001999999001081MA1999999100491MD1510071+0191REMSYN082AAXX  17211 48855 32998 62001 10253 20235 30049 40057 55007 80008 333 58019 86299;EQDQ01  00002PRCP99
0146488550999992000081813304+16020+108180FM-15+0007VVDN V02099999999992200019N0112651N1+02901+02601999999ADDGA1021+005109999GF102991999999999999999999MA1100811999999MW1001REMMET052VVDN 181430Z VRB01MPS 9999 FEW017 29/26 Q1008 NOSIG;EQDQ01+000000PRSWM2
0206488550999992000082022304+16020+108180FM-15+0007VVDN V0209999C000010810019N0112651N1+02501+02401999999ADDGA1021+004509029GA2021+012009999GA3071+081009999GF107991999999999999999999MA1100001999999MW1001REMMET080VVDN 202330Z 00000MPS 9999 FEW015TCU SCT040 BKN270 25/24 Q1000 NOSIG RMK TCU/NE;EQDQ01+000000PRSWM2
0228488550999992000082207304+16020+108180FM-15+0007VVDN V0201501N008010090019N0030001N1+02401+02401999999ADDGA1021+000909999GA2021+003009999GA3071+009009999GF107991999999999999999999MA1098921999999MW1611REMMET086VVDN 220830Z 15008MPS 120V190 3000 -RA FEW003 SCT010 BKN030 24/24 Q0989 TEMPO 1500 RA;EQDQ01+000003PRSWM1Q02    003PRSWM1
0169488550999992000090508304+16020+108180FM-15+0007VVDN V02099999999990180019N0112651N1+02901+02401999999ADDGA1021+005109999GA2071+018009999GF107991999999999999999999MA1100411999999MW1001REMMET059VVDN 050830Z VRB02MPS 9999 FEW017 BKN060 29/24 Q1004 NOSIG;EQDQ01+000000PRSWM2
0197488550999992000091408304+16020+108180FM-15+0007VVDN V0203501N005010105019N0040001N1+02501+02201999999ADDGA1021+003909999GA2071+010509999GF107991999999999999999999MA1100711999999MW1611REMMET071VVDN 140830Z 35005MPS 330V030 4000 -RA SCT013 BKN035 25/22 Q1007 NOSIG;EQDQ01+000003PRSWM1Q02    003PRSWM1
0185488550999992000091512304+16020+108180FM-15+0007VVDN V02099999999992200019N9999999N1+02601+01801999999ADDGA1021+004509999GA2021+090009999GF104991999999999999999999MA1100811999999MW1001REMMET059VVDN 151230Z VRB01MPS 6000 FEW015 SCT300 26/18 Q1008 NOSIG;EQDQ01+060002VODIS Q02+000000PRSWM2
0170488550999992000091808304+16020+108180FM-15+0007VVDN V0201101N004012200019N9999999N1+02901+02101999999ADDGA1021+004509999GF102991999999999999999999MA1100911999999MW1001REMMET060VVDN 180830Z 11004MPS 070V150 7000 FEW015 29/21 Q1009 NOSIG;EQDQ01+070002VODIS Q02+000000PRSWM2
0188488550999992000091814304+16020+108180FM-15+0007VVDN V02099999999990150019N0050001N1+02801+02401999999ADDGA1021+004509999GA2071+015009999GF107991999999999999999999MA1101191999999MW1101REMMET062VVDN 181430Z VRB01MPS 5000 BR FEW015 BKN050 28/24 Q1012 NOSIG;EQDQ01+000003PRSWM1Q02    003PRSWM1
0201488550999992000092106004+16020+108180FM-12+0007VVDN V0203401N00401105001CN0200001N1+02981+02391101181ADDAA199000091GA1031+008009089GF107991031021008001001081MA1999999101101MD1810131+0131REMSYN088AAXX  21061 48855 32570 73404 10298 20239 30110 40118 58013 83208 333 58013 83895 87299;EQDQ01  00002PRCP99
0181488550999992000092511304+16020+108180FM-15+0007VVDN V02099999999992200019N0112651N1+02801+02601999999ADDGA1021+005109099GA2021+090009999GF104991999999999999999999MA1100911999999MW1001REMMET071VVDN 251130Z VRB01MPS 9999 FEW017CB SCT300 28/26 Q1009 NOSIG RMK CB/SW;EQDQ01+000000PRSWM2
0169488550999992000092711304+16020+108180FM-15+0007VVDN V0209999C000012200019N0112651N1+02801+02501999999ADDGA1021+005109999GA2021+090009999GF104991999999999999999999MA1100911999999MW1001REMMET059VVDN 271130Z 00000MPS 9999 FEW017 SCT300 28/25 Q1009 NOSIG;EQDQ01+000000PRSWM2
0146488550999992000100201304+16020+108180FM-15+0007VVDN V02099999999992200019N0112651N1+02701+02401999999ADDGA1021+004509999GF102991999999999999999999MA1101391999999MW1001REMMET052VVDN 020130Z VRB02MPS 9999 FEW015 27/24 Q1014 NOSIG;EQDQ01+000000PRSWM2
0082488550999992000100315304+16020+108180SAO  +0007VVDN V0209999C000012200019N9999999N1+99999+99999999999ADDMW1001REMAWY064VVDN 031530Z AUTO 00000MPS 9999 FEW015 BKN270 26/23 Q1011 NOSIG;
0154488550999992000100504304+16020+108180FM-15+0007VVDN V0200201N003012200019N0112651N1+03101+02201999999ADDGA1021+005109999GF102991999999999999999999MA1101191999999MW1001REMMET060VVDN 050430Z 02003MPS 320V120 9999 FEW017 31/22 Q1012 NOSIG;EQDQ01+000000PRSWM2
0223488550999992000100615004+16020+108180FM-12+0007VVDN V0203401N00101105001CN0200001N1+02711+02361101151ADDAA199000091GA1031+008009099GA2011+008009089GF107991031091008001001081MA1999999101071MD1110151-0041REMSYN094AAXX  06151 48855 32598 73401 10271 20236 30107 40115 51015 83908 333 59004 81895 83995 87299;EQDQ01  00002PRCP99
0198488550999992000101315304+16020+108180FM-15+0007VVDN V02099999999990090019N0035001N1+02401+02301999999ADDGA1021+003009999GA2071+009009999GF107991999999999999999999MA1100311999999MW1101MW2611REMMET066VVDN 131530Z VRB02MPS 3500 -RA BR SCT010 BKN030 24/23 Q1003 NOSIG;EQDQ01+000003PRSWM1Q02    003PRSWM1
0082488550999992000101516304+16020+108180SAO  +0007VVDN V0209999C000012200019N9999999N1+99999+99999999999ADDMW1001REMAWY064VVDN 151630Z AUTO 36002MPS 9999 FEW017 BKN270 24/18 Q1011 NOSIG;
0201488550999992000103106004+16020+108180FM-12+0007VVDN V0203601N00601008001CN0200001N1+02681+01761101081ADDAA199000091GA1061+008009089GF107991061021008001001081MA1999999101001MD1710181+0081REMSYN088AAXX  31061 48855 32570 73606 10268 20176 30100 40108 57018 86208 333 58008 86895 87299;EQDQ01  00002PRCP99
0146488550999992000110405304+16020+108180FM-15+0007VVDN V0203601N007012200019N0112651N1+02701+01701999999ADDGA1021+005109999GF102991999999999999999999MA1101491999999MW1001REMMET052VVDN 040530Z 36007MPS 9999 FEW017 27/17 Q1015 NOSIG;EQDQ01+000000PRSWM2
0075488550999992000110819304+16020+108180SAO  +0007VVDN V0209999C000019999999N9999999N1+99999+99999999999ADDMW1001REMAWY057VVDN 081930Z AUTO 00000MPS 9999 FEW017 20/18 Q1011 NOSIG;
0188488550999992000111414304+16020+108180FM-15+0007VVDN V02099999999990120019N0050001N1+02501+02301999999ADDGA1021+003009999GA2071+012009999GF107991999999999999999999MA1101391999999MW1101REMMET062VVDN 141430Z VRB02MPS 5000 BR SCT010 BKN040 25/23 Q1014 NOSIG;EQDQ01+000003PRSWM1Q02    003PRSWM1
0178488550999992000111605304+16020+108180FM-15+0007VVDN V02099999999990120019N0080001N1+02301+02201999999ADDGA1021+003009999GA2071+012009999GF107991999999999999999999MA1101291999999MW1001REMMET068VVDN 160530Z VRB02MPS 8000 SCT010 BKN040 23/22 Q1013 TEMPO 3000 -RA;EQDQ01+000000PRSWM2
0199488550999992000111703004+16020+108180FM-12+0007VVDN V0200201N00801008001CN0100001N1+02521+02221101491ADDAY161031AY221031GA1051+008009089GF108991081081008001999999MA1999999101411MD1110091+0051MW1021REMSYN094AAXX  17031 48855 41560 80208 10252 20222 30141 40149 51009 70262 888// 333 58005 85895 88696;
0177488550999992000111905304+16020+108180FM-15+0007VVDN V0200101N003012200019N0080001N1+02701+02301999999ADDGA1021+004509999GA2021+015009999GF104991999999999999999999MA1101191999999MW1001REMMET067VVDN 190530Z 01003MPS 320V080 8000 FEW015 SCT050 27/23 Q1012 NOSIG;EQDQ01+000000PRSWM2
0177488550999992000111913304+16020+108180FM-15+0007VVDN V0200201N003010150019N0070001N1+02401+02201999999ADDGA1021+004509999GA2071+015009999GF107991999999999999999999MA1101391999999MW1001REMMET067VVDN 191330Z 02003MPS 350V060 7000 FEW015 BKN050 24/22 Q1014 NOSIG;EQDQ01+000000PRSWM2
0169488550999992000112708304+16020+108180FM-15+0007VVDN V0203601N002012200019N0070001N1+02501+02401999999ADDGA1021+003909999GA2021+015009999GF104991999999999999999999MA1101391999999MW1001REMMET059VVDN 270830Z 36002MPS 7000 SCT013 SCT050 25/24 Q1014 NOSIG;EQDQ01+000000PRSWM2
0177488550999992000120107304+16020+108180FM-15+0007VVDN V0201101N003012200019N0112651N1+02701+02201999999ADDGA1021+004509999GA2021+015009999GF104991999999999999999999MA1101191999999MW1001REMMET067VVDN 010730Z 11003MPS 060V150 9999 SCT015 SCT050 27/22 Q1012 NOSIG;EQDQ01+000000PRSWM2
0221488550999992000120313304+16020+108180FM-15+0007VVDN V0200101N008010105019N0020001N1+02201+02101999999ADDGA1021+002109999GA2021+003009999GA3071+010509999GF107991999999999999999999MA1101691999999MW1101MW2611REMMET073VVDN 031330Z 01008MPS 2000 -RA BR FEW007 SCT010 BKN035 22/21 Q1017 NOSIG;EQDQ01+000003PRSWM1Q02    003PRSWM1
0189488550999992000121202304+16020+108180FM-15+0007VVDN V0203401N002010090019N0030001N1+02201+02101999999ADDGA1021+003009999GA2081+009009999GF108991999999999999999999MA1101591999999MW1611REMMET063VVDN 120230Z 34002MPS 3000 -RA SCT010 OVC030 22/21 Q1016 NOSIG;EQDQ01+000003PRSWM1Q02    003PRSWM1
0177488550999992000121708304+16020+108180FM-15+0007VVDN V0200101N005010150019N0070001N1+02401+02101999999ADDGA1021+004509999GA2071+015009999GF107991999999999999999999MA1101391999999MW1001REMMET067VVDN 170830Z 01005MPS 350V050 7000 FEW015 BKN050 24/21 Q1014 NOSIG;EQDQ01+000000PRSWM2
0193488550999992000121816304+16020+108180FM-15+0007VVDN V0209999C000012200019N0040001N1+02301+02201999999ADDGA1021+003909999GA2021+015009999GF104991999999999999999999MA1101291999999MW1101REMMET067VVDN 181630Z AUTO 00000MPS 4000 BR FEW013 SCT050 23/22 Q1013 NOSIG;EQDQ01+000003PRSWM1Q02    003PRSWM1
0146488550999992000122215304+16020+108180FM-15+0007VVDN V02099999999992200019N0080001N1+01901+01701999999ADDGA1021+004509999GF102991999999999999999999MA1101801999999MW1001REMMET052VVDN 221530Z VRB01MPS 8000 FEW015 19/17 Q1018 NOSIG;EQDQ01+000000PRSWM2
0177488550999992000122602304+16020+108180FM-15+0007VVDN V0203301N003010150019N0060001N1+02101+02001999999ADDGA1021+003909999GA2071+015009999GF107991999999999999999999MA1101901999999MW1001REMMET067VVDN 260230Z 33003MPS 300V360 6000 FEW013 BKN050 21/20 Q1019 NOSIG;EQDQ01+000000PRSWM2
0201488660999992000011109004+13980+108000FM-12+0801VVPK V0200901N00301012001CN0200001N1+02621+01991101011ADDAA106000091GA1021+008009089GF107991071081008001999999MA1999999092391MD1610071-0031REMSYN088AAXX  11091 48866 32598 70903 10262 20199 39239 40101 56007 878// 333 59003 82895 85697;EQDQ01  00002PRCP06
0183488660999992000020421004+13980+108000FM-12+0801VVPK V0209999C000012200019N0200001N1+01531+01441101481ADDAA199000091GA1001+999999999GF100991001001999999001001MA1999999092551MD1510081-0131REMSYN070AAXX  04211 48866 32998 00000 10153 20144 39255 40148 55008 333 59013;EQDQ01  00002PRCP99
0195488660999992000022203004+13980+108000FM-12+0801VVPK V0201101N002012200019N0200001N1+02651+02081101321ADDAA199000091GA1021+008009029GF103991021021008001001011MA1999999092701MD1210101-0031REMSYN082AAXX  22031 48866 32598 31102 10265 20208 39270 40132 52010 82201 333 59003 82895;EQDQ01  00002PRCP99
0176488660999992000031103004+13980+108000FM-12+0801VVPK V0202701N002010080019N0200001N1+02411+02001101341ADDAA199000021GA1071+008009029GF107991071021008001999999MA1999999092661MD1110091-0011REMSYN082AAXX  11031 48866 32598 72702 10241 20200 39266 40134 51009 872// 333 59001 87895;
0201488660999992000031721004+13980+108000FM-12+0801VVPK V0200901N001019999999N0200001N1+01831+01801101121ADDAA199000091GA1011+025009039GF106991011001999999041081MA1999999092251MD1610041-0021REMSYN088AAXX  17211 48866 32998 60901 10183 20180 39225 40112 56004 81048 333 59002 81399 86299;EQDQ01  00002PRCP99
0229488660999992000050309004+13980+108000FM-12+0801VVPK V0201101N00501007501CN0200001N1+02991+01941100691ADDAA199000091AY191031AY221031GA1041+008009089GF107991071091008001999999MA1999999092231MD1710251-0051MW1171REMSYN094AAXX  03091 48866 31598 71105 10299 20194 39223 40069 57025 71792 879// 333 59005 84895 84995;EQDQ01  00002PRCP99
0199488660999992000061303004+13980+108000FM-12+0801VVPK V0202701N00401004501CN0100001N1+02151+02151101211ADDAY191031AY281031GA1061+004509089GF107991071041004501999999MA1999999092471MD1110041-0061MW1601REMSYN094AAXX  13031 48866 41497 72704 10215 20215 39247 40121 51004 76098 874// 333 59006 86894 87696;
0193488660999992000062003004+13980+108000FM-12+0801VVPK V0202701N003010080019N0200001N1+02381+02041101091ADDAY161031AY221031GA1071+008009029GF107991071021008001999999MA1999999092411MD1110051+0081MW1021REMSYN088AAXX  20031 48866 41598 72703 10238 20204 39241 40109 51005 70262 872// 333 58008 87895;
0199488660999992000070921004+13980+108000FM-12+0801VVPK V0202701N00401004501CN0100001N1+02071+02071100661ADDAY161031AY261031GA1071+004509089GF108991071071004501021999MA1999999091901MD1610101+0071MW1601REMSYN094AAXX  09211 48866 41497 82704 10207 20207 39190 40066 56010 76066 8772/ 333 58007 87894 88499;
0182488660999992000071909004+13980+108000FM-12+0801VVPK V0202701N00301008001CN0200001N1+02431+02201100601ADDAA199000021GA1051+008009089GF107991061091008001041999MA1999999091961MD1710101-0181REMSYN088AAXX  19091 48866 32598 72703 10243 20220 39196 40060 57010 8694/ 333 59018 85895 83995;
0195488660999992000081121004+13980+108000FM-12+0801VVPK V0209999C000012200019N0200001N1+02091+02081101071ADDAA199000091GA1011+008009029GF101991011011008001001001MA1999999092261MD1310011+0091REMSYN082AAXX  11211 48866 32598 10000 10209 20208 39226 40107 53001 81100 333 58009 81895;EQDQ01  00002PRCP99
0182488660999992000082615004+13980+108000FM-12+0801VVPK V0202701N00401004501CN0200001N1+02091+02091101211ADDAA199000021GA1051+004509089GF107991071091004501999999MA1999999092401MD1210181+0081REMSYN088AAXX  26151 48866 32498 72704 10209 20209 39240 40121 52018 879// 333 58008 85894 82995;
0223488660999992000101515004+13980+108000FM-12+0801VVPK V0209999C00001008001CN0200001N1+02231+02201101171ADDAA199000091GA1021+008009099GA2051+008009089GF108991081091008001999999MA1999999092431MD1210121+0281REMSYN094AAXX  15151 48866 32598 80000 10223 20220 39243 40117 52012 889// 333 58028 85895 82995 86697;EQDQ01  00002PRCP99
0195488660999992000102403004+13980+108000FM-12+0801VVPK V0200901N004012200019N0200001N1+02711+02061101251ADDAA199000091GA1021+008009029GF102991021021008001001001MA1999999092691MD1210091+0111REMSYN082AAXX  24031 48866 32598 20904 10271 20206 39269 40125 52009 82200 333 58011 82895;EQDQ01  00002PRCP99
0183488660999992000110121004+13980+108000FM-12+0801VVPK V0200701N002012200019N0200001N1+01331+01141101521ADDAA199000091GA1001+999999999GF100991001001999999001001MA1999999092521MD1610041+0181REMSYN070AAXX  01211 48866 32998 00702 10133 20114 39252 40152 56004 333 58018;EQDQ01  00002PRCP99
0199488700999992000011415004+13770+109220FM-12+000699999V0209999C000012200019N0200001N1+02501+02311101081ADDAA199000091GA1011+004509029GF102991021021004501001081MA1999999101011MD1110151+0001REMSYN086    AAXX  14151 48870 32498 20000 10250 20231 30101 40108 51015 82208 333 58000 81894;EQDQ01  00002PRCP99
0182488700999992000012115004+13770+109220FM-12+0006VVQN V0203601N00301009001CN0200001N1+02401+02171101711ADDAA199000021GA1031+004509089GF108991081081004501999999MA1999999101641MD1110111-0091REMSYN088AAXX  21151 48870 32498 83603 10240 20217 30164 40171 51011 888// 333 59009 83894 88696;
0241488700999992000013012004+13770+109220FM-12+0006VVQN V0200501N00201009001CN0200001N1+02281+01931102031ADDAA112000891AY161061AY221061GA1031+004509089GF107991071081004501999999KA1120M+02401MA1999999101961MD1310211+0161MW1021REMSYN112AAXX  30121 48870 11498 70502 10228 20193 30196 40203 53021 69972 70262 878// 333 10240 58016 70167 83894 87696;
0244488700999992000020403004+13770+109220FM-12+0006VVQN V0209999V00301045001CN0200001N1+02161+01721101411ADDAA199000091GA1011+004509089GF107991031081004501041081IA2999+01809KA1120N+02191MA1999999101311MD1310051-0261REMSYN106AAXX  04031 48870 32498 79903 10216 20172 30131 40141 53005 83848 333 00020 20219 3/018 59026 81894 86299;EQDQ01  00002PRCP99
0195488700999992000021518004+13770+109220FM-12+0006VVQN V0203601N001010090019N0200001N1+02361+02161101411ADDAA199000091GA1031+008009029GF105991051081004501001001MA1999999101341MD1610011+0151REMSYN082AAXX  15181 48870 32498 53601 10236 20216 30134 40141 56001 85800 333 58015 83895;EQDQ01  00002PRCP99
0201488700999992000040906004+13770+109220FM-12+0006VVQN V0203601N00201009001CN0200001N1+02901+02431100961ADDAA199000091GA1021+004509089GF107991071081004501999999MA1999999100891MD1810161-0031REMSYN088AAXX  09061 48870 32498 73602 10290 20243 30089 40096 58016 878// 333 59003 82894 86697;EQDQ01  00002PRCP99
0195488700999992000041303004+13770+109220FM-12+0006VVQN V0201401N002012200019N0200001N1+03101+02551101051ADDAA199000091GA1011+004509029GF103991021021004501001011MA1999999100981MD1010031-0161REMSYN082AAXX  13031 48870 32498 31402 10310 20255 30098 40105 50003 82201 333 59016 81894;EQDQ01  00002PRCP99
0195488700999992000050303004+13770+109220FM-12+0006VVQN V0209999C000012200019N0200001N1+03211+02701101151ADDAA199000091GA1011+004509029GF101991011011004501001001MA1999999101071MD1110071+0011REMSYN082AAXX  03031 48870 32498 10000 10321 20270 30107 40115 51007 81100 333 58001 81894;EQDQ01  00002PRCP99
0273488700999992000052112004+13770+109220FM-12+0006VVQN V0202701N00101999999CN0200001N1+02621+02431100761ADDAA112003091AY181061AY261061GA1021+017509069GA2071+025009029GF107991021051017501001061KA1120M+02931MA1999999100701MD1310031+0011MW1031REMSYN128AAXX  21121 48870 11798 72701 10262 20243 30070 40076 53003 60032 70386 82506 333 01026 10293 58001 70046 82697 87299 555 20251;
0244488700999992000052200004+13770+109220FM-12+0006VVQN V0209999C000012200019N0200001N1+02611+02511101011ADDAA112000391GA1041+017509059GF104991041051017501999001IA2999+02409KA1120N+02521MA1999999100941MD1310171+0121REMSYN106AAXX  22001 48870 12798 40000 10261 20251 30094 40101 53017 69932 84500 333 01028 20252 3/024 58012 84697;EQDQ01+000002SCOMCG
0260488700999992000052412004+13770+109220FM-12+0006VVQN V0202301N002010042019N0200001N1+02971+02721100661ADDAA124000091AY191061AY221061GA1041+004509089GF106991061091004501999999KA1120M+03251MA1999999100591MD1310221-0021MW1171REMSYN112AAXX  24121 48870 31498 62302 10297 20272 30059 40066 53022 71792 869// 333 00029 10325 59002 70000 84894 8395/;EQDQ01  00002PRCP24
0231488700999992000060200004+13770+109220FM-12+0006VVQN V0209999C00001105001CN0200001N1+02741+02481100651ADDAA112004191GA1021+012509089GF106991021051012501001081IA2999+02409KA1120N+02521MA1999999100581MD1310141+0251REMSYN112AAXX  02001 48870 12698 60000 10274 20248 30058 40065 53014 60042 82508 333 00029 20252 3/024 58025 82896 85299;
0226488700999992000062812004+13760+109220FM-12+0006VVQN V0209999C000019999999N0200001N1+02931+02531100601ADDAA124000091GA1061+999999089GF106991001001999999001081KA1120M+03351MA1999999100531MD1310021-0031REMSYN100AAXX  28121 48870 32998 60000 10293 20253 30053 40060 53002 80008 333 00031 10335 59003 70000 86299;EQDQ01  00002PRCP24
0211488700999992000072103004+13760+109220FM-12+0006VVQN V0209999C000012200019N0200001N1+03341+02431100771ADDAA199000091GA1011+999999019GF101991001001999999001011MA1999999100701MD1010031+0271REMSYN082AAXX  21031 48870 32498 10000 10334 20243 30070 40077 50003 80001 333 58027 81099;EQDQ01+004502SCOLCBQ02  00002PRCP99
0195488700999992000072909004+13760+109220FM-12+0006VVQN V0201401N002012200019N0200001N1+03441+02851100391ADDAA199000091GA1011+004509029GF102991021021004501001001MA1999999100321MD1610121+0161REMSYN082AAXX  29091 48870 32498 21402 10344 20285 30032 40039 56012 82200 333 58016 81894;EQDQ01  00002PRCP99
0195488700999992000080715004+13760+109220FM-12+0006VVQN V0209999C000012200019N0200001N1+02801+02381100871ADDAA199000091GA1011+004509029GF102991011011004501001011MA1999999100801MD1110141+0021REMSYN082AAXX  07151 48870 32498 20000 10280 20238 30080 40087 51014 81101 333 58002 81894;EQDQ01  00002PRCP99
0201488700999992000081109004+13760+109220FM-12+0006VVQN V0201601N001012200019N0200001N1+03241+02691100281ADDAA199000091GA1011+004509089GF102991021091004501001001MA1999999100211MD1610091-0221REMSYN088AAXX  11091 48870 32498 21601 10324 20269 30021 40028 56009 82900 333 59022 81894 81995;EQDQ01  00002PRCP99
0182488700999992000090415004+13760+109220FM-12+0006VVQN V0209999C00001009001CN0200001N1+02911+02351100721ADDAA199000021GA1021+004509089GF107991071081004501999999MA1999999100651MD1110101-0141REMSYN088AAXX  04151 48870 32498 70000 10291 20235 30065 40072 51010 878// 333 59014 82894 86697;
0199488700999992000090509004+13760+109220FM-12+0006VVQN V0209999C00001004501CN0100001N1+02901+02411100511ADDAY161031AY221031GA1051+004509089GF108991051071004501021999MA1999999100441MD1810141-0031MW1601REMSYN094AAXX  05091 48870 41497 80000 10290 20241 30044 40051 58014 76062 8572/ 333 59003 85894 88499;
0201488700999992000090721004+13760+109220FM-12+0006VVQN V0209999V00101009001CN0200001N1+02701+02261100591ADDAA199000091GA1031+004509089GF107991071081004501999999MA1999999100521MD1510031+0061REMSYN088AAXX  07211 48870 32498 79901 10270 20226 30052 40059 55003 878// 333 58006 83894 87696;EQDQ01  00002PRCP99
0217488700999992000100121004+13760+109220FM-12+0006VVQN V0209999C000019999999N0200001N1+02631+02431101131ADDAA199000091GA1031+004509089GF107991999081004501999999MA1999999101061MD1610081-0111REMSYN088AAXX  01211 48870 32498 70000 10263 20243 30106 40113 56008 888// 333 59011 83894 87696;EQDQ01+000082SCOTLCQ02  00002PRCP99
0195488700999992000100203004+13760+109220FM-12+0006VVQN V0209999C000012200019N0200001N1+03061+02481101311ADDAA199000091GA1021+008009029GF102991021021008001001001MA1999999101241MD1010091+0001REMSYN082AAXX  02031 48870 32598 20000 10306 20248 30124 40131 50009 82200 333 58000 82895;EQDQ01  00002PRCP99
0199488700999992000100621004+13760+109220FM-12+0006VVQN V0203201N00101009001CN0200001N1+02441+02311100761ADDAY161031AY221031GA1031+004509089GF107991071081004501999999MA1999999100691MD1810161-0161MW1021REMSYN094AAXX  06211 48870 41498 73201 10244 20231 30069 40076 58016 70262 878// 333 59016 83894 87697;
0199488700999992000111715004+13760+109220FM-12+0006VVQN V0200501N00201009001CN0200001N1+02551+02451101171ADDAY161031AY221031GA1041+004509089GF108991081081004501999999MA1999999101101MD1010071-0031MW1211REMSYN094AAXX  17151 48870 41498 80502 10255 20245 30110 40117 50007 72162 888// 333 59003 84894 88696;
0182488700999992000112118004+13760+109220FM-12+0006VVQN V0209999V00101009001CN0200001N1+02161+01871101341ADDAA199000021GA1041+004509089GF108991081081004501999999MA1999999101271MD1810191+0061REMSYN088AAXX  21181 48870 32498 89901 10216 20187 30127 40134 58019 888// 333 58006 84894 88696;
0199488700999992000120709004+13760+109220FM-12+0006VVQN V0200501N00101004501CN0020001N1+02371+02321101001ADDAY161031AY261031GA1061+004509089GF108991031071004501021999MA1999999100931MD1610021+0071MW1651REMSYN094AAXX  07091 48870 41495 80501 10237 20232 30093 40100 56002 76566 8372/ 333 58007 86894 88499;
0199488700999992000122003004+13760+109220FM-12+0006VVQN V0200201N00201009001CN0200001N1+02631+02521101401ADDAY161031AY221031GA1031+004509089GF107991071081004501999999MA1999999101331MD1010111+0071MW1211REMSYN094AAXX  20031 48870 41498 70202 10263 20252 30133 40140 50011 72162 878// 333 58007 83894 86697;
0216488700999992000122006004+13760+109220FM-12+0006VVQN V0200201N00201009001CN0100001N1+02661+02061101201ADDAA106000791AY161061AY221061GA1011+004509089GF108991081081004501999999MA1999999101131MD1810201+0151MW1601REMSYN100AAXX  20061 48870 11497 80202 10266 20206 30113 40120 58020 69901 76062 888// 333 58015 81894 88696;
0195488750999992000010721004+12680+108080FM-12+053799999V0200501N006012200019N0200001N1+01911+01771101271ADDAA106000091GA1021+004509029GF102991021011004501001001MA1999999095861MD1610021+0161REMSYN082AAXX  07211 48875 32498 20506 10191 20177 39586 40127 56002 82100 333 58016 82894;EQDQ01  00002PRCP06
0201488750999992000022821004+12680+108080FM-12+053799999V0200901N01001004501CN0200001N1+01991+01801101281ADDAA199000091GA1061+004509089GF108991081081004501999999MA1999999095871MD1710071-0011REMSYN088AAXX  28211 48875 32498 80910 10199 20180 39587 40128 57007 888// 333 59001 86894 88696;EQDQ01  00002PRCP99
0229488750999992000030315004+12680+108080FM-12+053799999V0200701N005012200019N0200001N1+02111+01921101311ADDAA199000091AY101031AY201031GA1011+008009099GF102991021091008001001001MA1999999095941MD1210181-0081MW1131REMSYN094AAXX  03151 48875 31598 20705 10211 20192 39594 40131 52018 71300 82900 333 59008 81995 81696;EQDQ01  00002PRCP99
0195488750999992000040115004+12680+108080FM-12+053799999V0201401N002012200019N0200001N1+02441+02011100751ADDAA199000091GA1021+008009029GF102991021011008001001001MA1999999095441MD1210141-0211REMSYN082AAXX  01151 48875 32598 21402 10244 20201 39544 40075 52014 82100 333 59021 82895;EQDQ01  00002PRCP99
0195488750999992000051003004+12680+108080FM-12+053799999V0201401N001012200019N0200001N1+02901+02281100721ADDAA199000091GA1021+008009029GF103991021021008001001011MA1999999095521MD1010031-0251REMSYN082AAXX  10031 48875 32570 31401 10290 20228 39552 40072 50003 82201 333 59025 82895;EQDQ01  00002PRCP99
0201488750999992000052503004+12680+108080FM-12+053799999V0209999C00001220001CN0200001N1+02811+02271100901ADDAA199000091GA1021+008009089GF105991021021008001001081MA1999999095671MD1010011-0101REMSYN088AAXX  25031 48875 32570 50000 10281 20227 39567 40090 50001 82208 333 59010 82895 83299;EQDQ01  00002PRCP99
0191488750999992000052515004+12680+108080FM-12+053799999V0201401N001012200019N0200001N1+02391+02291100851ADDAA199000091AY111031AY211031GF102991021091008001001001MA1999999095541MD1210121+9999MW1131REMSYN072AAXX  25151 48875 31598 21401 10239 20229 39554 40085 52012 71311 82900;EQDQ01  00002PRCP99
0195488750999992000072003004+12670+108070FM-12+053799999V0202301N003010080019N0200001N1+02701+02191100841ADDAA199000091GA1051+008009029GF106991051021008001001011MA1999999095611MD1110141+0041REMSYN082AAXX  20031 48875 32570 62303 10270 20219 39561 40084 51014 85201 333 58004 85895;EQDQ01  00002PRCP99
0199488750999992000080809004+12670+108070FM-12+053799999V0202301N00201004501CN0200001N1+02411+02201100871ADDAY191031AY281031GA1071+004509089GF108991081091004501999999MA1999999095561MD1710021+0151MW1171REMSYN094AAXX  08091 48875 41470 82302 10241 20220 39556 40087 57002 71798 889// 333 58015 87894 88995;
0201488750999992000082821004+12670+108070FM-12+053799999V0202301N00201009001CN0200001N1+02231+02151100831ADDAA199000091GA1031+004509089GF108991081081004501999999MA1999999095491MD1810101+0111REMSYN088AAXX  28211 48875 32498 82302 10223 20215 39549 40083 58010 888// 333 58011 83894 88696;EQDQ01  00002PRCP99
0199488750999992000090809004+12670+108070FM-12+053799999V0202701N00201004201CN0100001N1+02581+02251100501ADDAY181031AY221031GA1031+004509089GF107991071021004501999999MA1999999095231MD1610231-0251MW1801REMSYN094AAXX  08091 48875 41460 72702 10258 20225 39523 40050 56023 78082 872// 333 59025 83894 86895;
0195488750999992000092009004+12670+108070FM-12+053799999V0200901N00201105001CN0200001N1+02941+99999100671ADDAA199000091GA1021+008009089GF106991021021008001001081MA1999999095471MD1610151-0091REMSYN082AAXX  20091 48875 32570 60902 10294 39547 40067 56015 82208 333 59009 82895 85299;EQDQ01  00002PRCP99
0201488750999992000110921004+12670+108070FM-12+053799999V0209999C00001009001CN0200001N1+01881+01811101211ADDAA199000091GA1021+004509089GF105991051081004501001001MA1999999095761MD1710011+0111REMSYN088AAXX  09211 48875 32498 50000 10188 20181 39576 40121 57001 85800 333 58011 82894 83696;EQDQ01  00002PRCP99
0199488750999992000111609004+12670+108070FM-12+053799999V0200501N00301009001CN0100001N1+02251+02171100941ADDAY161031AY261031GA1031+004509089GF108991081081004501999999MA1999999095601MD1510021+0041MW1611REMSYN094AAXX  16091 48875 41460 80503 10225 20217 39560 40094 55002 76166 888// 333 58004 83894 88696;
0201488750999992000120809004+12670+108070FM-12+053799999V0200701N00701004501CN0200001N1+02511+02051100891ADDAA199000091GA1061+004509089GF108991081081004501999999MA1999999095581MD1510061+0031REMSYN088AAXX  08091 48875 32470 80707 10251 20205 39558 40089 55006 888// 333 58003 86894 88696;EQDQ01  00002PRCP99
0201488770999992000010309004+12250+109200FM-12+0010VVNT V0200201N00601012001CN0200001N1+02561+02111101001ADDAA106000091GA1031+008009089GF107991071081008001999999MA1999999100951MD1610111+0011REMSYN088AAXX  03091 48877 32598 70206 10256 20211 30095 40100 56011 878// 333 58001 83895 87697;EQDQ01  00002PRCP06
0254488770999992000010800004+12250+109200FM-12+0010VVNT V0209999C000012200019N0200001N1+02181+01901101351ADDAA106000091GA1021+017509059GF103991021051017501999011IA2999+01909KA1120N+02091MA1999999101301MD1210131+0161REMSYN100AAXX  08001 48877 32798 30000 10218 20190 30130 40135 52013 82501 333 00021 20209 3/019 58016 82697;EQDQ01+000002SCOMCGQ02  00002PRCP06
0195488770999992000011306004+12250+109200FM-12+0010VVNT V0200501N004012200019N0200001N1+02781+02311100871ADDAA106000091GA1011+008009029GF102991011021008001001011MA1999999100821MD1810281-0121REMSYN082AAXX  13061 48877 32598 20504 10278 20231 30082 40087 58028 81201 333 59012 81895;EQDQ01  00002PRCP06
0213488770999992000012412004+12250+109200FM-12+0010VVNT V0209999C00001105001CN0200001N1+02571+02281101311ADDAA124016391GA1021+008009089GF106991021021008001001081KA1120M+02831MA1999999101261MD1310091+0031REMSYN106AAXX  24121 48877 32598 60000 10257 20228 30126 40131 53009 82208 333 00025 10283 58003 70163 82895 86299;
0232488770999992000020512004+12250+109200FM-12+0010VVNT V0203401N00901012001CN0200001N1+02521+02061101151ADDAA124000091GA1021+008009089GF107991071081008001999999KA1120M+02701MA1999999101101MD1110051-0021REMSYN106AAXX  05121 48877 32598 73409 10252 20206 30110 40115 51005 878// 333 00025 10270 59002 70000 82895 87697;EQDQ01  00002PRCP24
0232488770999992000022512004+12250+109200FM-12+0010VVNT V0203601N00601105001CN0200001N1+02591+02241101151ADDAA124000091GA1021+017509069GF106991021051017501001081KA1120M+03011MA1999999101101MD1210101+0091REMSYN106AAXX  25121 48877 32798 63606 10259 20224 30110 40115 52010 82508 333 00026 10301 58009 70000 82697 86299;EQDQ01  00002PRCP24
0201488770999992000032115004+12250+109200FM-12+0010VVNT V0209999C00001012001CN0200001N1+02641+02121101121ADDAA199000091GA1021+008009089GF107991071081008001999999MA1999999101061MD1110111+0061REMSYN088AAXX  21151 48877 32598 70000 10264 20212 30106 40112 51011 878// 333 58006 82895 87697;EQDQ01  00002PRCP99
0232488770999992000032512004+12250+109200FM-12+0010VVNT V0200201N00801012001CN0200001N1+02691+02101101211ADDAA124000091GA1011+008009089GF107991061081008001001011KA1120M+02871MA1999999101161MD1310101+0021REMSYN106AAXX  25121 48877 32598 70208 10269 20210 30116 40121 53010 86801 333 00027 10287 58002 70000 81895 86697;EQDQ01  00002PRCP24
0244488770999992000040900004+12250+109200FM-12+0010VVNT V0209999C00001012001CN0200001N1+02461+02341100991ADDAA199000091GA1031+008009089GF107991071081008001999999IA2999+02409KA1120N+02381MA1999999100941MD1210191-0131REMSYN106AAXX  09001 48877 32598 70000 10246 20234 30094 40099 52019 878// 333 01026 20238 3/024 59013 83895 87697;EQDQ01  00002PRCP99
0201488770999992000041921004+12250+109200FM-12+0010VVNT V0209999C00001220001CN0200001N1+02471+02321100901ADDAA199000091GA1021+017509069GF105991021051017501001081MA1999999100851MD1510101-0101REMSYN088AAXX  19211 48877 32798 50000 10247 20232 30085 40090 55010 82508 333 59010 82697 85299;EQDQ01  00002PRCP99
0201488770999992000050609004+12250+109200FM-12+0010VVNT V0200501N00601105001CN0200001N1+02991+02521100901ADDAA199000091GA1011+008009099GF107991011091008001001081MA1999999100851MD1710191+0021REMSYN088AAXX  06091 48877 32598 70506 10299 20252 30085 40090 57019 81908 333 58002 81995 87299;EQDQ01  00002PRCP99
0182488770999992000050915004+12250+109200FM-12+0010VVNT V0209999V00101105001CN0200001N1+02801+02471100611ADDAA199000021GA1021+017509069GF106991021051017501001081MA1999999100561MD1010041-0311REMSYN088AAXX  09151 48877 32798 69901 10280 20247 30056 40061 50004 82508 333 59031 82697 86299;
0247488770999992000051112004+12250+109200FM-12+0010VVNT V0209999C00001009001CN0200001N1+02901+02501100451ADDAA112000191AY181061AY221061GA1021+004509089GF108991081081004501999999KA1120M+03201MA1999999100401MD1310101+0061MW1021REMSYN118AAXX  11121 48877 11498 80000 10290 20250 30040 40045 53010 69922 70282 888// 333 00029 10320 58006 70134 82894 88696;
0201488770999992000051903004+12250+109200FM-12+0010VVNT V0201101N00401105001CN0200001N1+03251+02441100711ADDAA199000091GA1011+008009089GF107991011021008001001081MA1999999100661MD1010061-0041REMSYN088AAXX  19031 48877 32598 71104 10325 20244 30066 40071 50006 81208 333 59004 81895 87299;EQDQ01  00002PRCP99
0211488770999992000060418004+12250+109200FM-12+0010VVNT V0209999C000012200019N0200001N1+02661+02431100811ADDAA199000091GA1011+017509059GF102991011051017501999011MA1999999100761MD1810031+0011REMSYN082AAXX  04181 48877 32798 20000 10266 20243 30076 40081 58003 81501 333 58001 81697;EQDQ01+000002SCOMCGQ02  00002PRCP99
0232488770999992000070712004+12250+109190FM-12+0010VVNT V0200501N00301007501CN0200001N1+02851+02391100491ADDAA124000091GA1021+008009099GF107991071091008001999999KA1120M+03231MA1999999100441MD1210201-0011REMSYN106AAXX  07121 48877 32598 70503 10285 20239 30044 40049 52020 879// 333 00028 10323 59001 70000 82995 87697;EQDQ01  00002PRCP24
0171488770999992000070715004+12250+109190FM-12+0010VVNT V0209999C00001021001CN0270001N1+02781+02441100591ADDGA1011+008009089GF107991071081022501999999MA1999999100541MD1110101-0081REMSYN088AAXX  07151 48877 4/877 70000 10278 20244 30054 40059 51010 878// 333 59008 81895 87697;
0195488770999992000073109004+12250+109190FM-12+0010VVNT V0209999V005012200019N0200001N1+03031+02541100481ADDAA199000091GA1011+008009029GF103991011021008001001011MA1999999100431MD1710121-0051REMSYN082AAXX  31091 48877 32598 39905 10303 20254 30043 40048 57012 81201 333 59005 81895;EQDQ01  00002PRCP99
0195488770999992000073121004+12250+109190FM-12+0010VVNT V0209999C000012200019N0200001N1+02491+02281100711ADDAA199000091GA1021+999999019GF102991001001999999001011MA1999999100661MD1710111-0061REMSYN082AAXX  31211 48877 32998 20000 10249 20228 30066 40071 57011 80001 333 59006 82099;EQDQ01  00002PRCP99
0201488770999992000090206004+12250+109190FM-12+0010VVNT V0209999V00101105001CN0200001N1+03191+02391100531ADDAA199000091GA1021+008009089GF107991041081008001001081MA1999999100481MD1710241-0021REMSYN088AAXX  02061 48877 32598 79901 10319 20239 30048 40053 57024 84808 333 59002 82895 87299;EQDQ01  00002PRCP99
0201488770999992000090315004+12250+109190FM-12+0010VVNT V0209999V00201012001CN0200001N1+02971+02331100931ADDAA199000091GA1021+008009089GF106991061081008001999999MA1999999100881MD1010161+0171REMSYN088AAXX  03151 48877 32598 69902 10297 20233 30088 40093 50016 868// 333 58017 82895 86697;EQDQ01  00002PRCP99
0201488770999992000091309004+12250+109190FM-12+0010VVNT V0209999V00401012001CN0200001N1+02931+02421100601ADDAA199000091GA1021+008009089GF107991061081008001001011MA1999999100551MD1710131+0031REMSYN088AAXX  13091 48877 32598 79904 10293 20242 30055 40060 57013 86801 333 58003 82895 86697;EQDQ01  00002PRCP99
0221488770999992000100115004+12250+109190FM-12+0010VVNT V0203601N00901008001CN0040001N1+02621+02521101231ADDAY191031AY281031GA1031+008009099GA2021+008009089GF108991081091008001999999MA1999999101271MD1010201+0021MW1951REMSYN100AAXX  01151 48877 41596 83609 10262 20252 30127 40123 50020 79598 889// 333 58002 82895 83995 88696;
0182488770999992000102815004+12250+109190FM-12+0010VVNT V0209999C00001012001CN0200001N1+02561+02421101031ADDAA199000021GA1021+008009089GF108991081081008001999999MA1999999100981MD1210101-0111REMSYN088AAXX  28151 48877 32598 80000 10256 20242 30098 40103 52010 888// 333 59011 82895 88696;
0219488770999992000102912004+12250+109190FM-12+0010VVNT V0209999V00201105001CN0200001N1+02731+02031100961ADDAA112011991GA1021+017509069GF107991021051017501001081KA1120M+02951MA1999999100911MD1210181+0031REMSYN112AAXX  29121 48877 12798 79902 10273 20203 30091 40096 52018 60122 82508 333 01025 10295 58003 70193 82697 87299;
0201488770999992000103006004+12250+109190FM-12+0010VVNT V0203601N00601012001CN0200001N1+02961+02081100821ADDAA199000091GA1011+008009089GF107991061081008001001011MA1999999100771MD1710191-0041REMSYN088AAXX  30061 48877 32598 73606 10296 20208 30077 40082 57019 86801 333 59004 81895 86697;EQDQ01  00002PRCP99
0201488770999992000121406004+12250+109190FM-12+0010VVNT V0203401N00701012001CN0200001N1+02641+02131101141ADDAA199000091GA1041+008009089GF107991071081008001999999MA1999999101091MD1710141+0291REMSYN088AAXX  14061 48877 32598 73407 10264 20213 30109 40114 57014 878// 333 58029 84895 87697;EQDQ01  00002PRCP99
0182488770999992000121515004+12250+109190FM-12+0010VVNT V0203401N00401012001CN0200001N1+02511+02311101381ADDAA199000021GA1041+008009089GF108991081081008001999999MA1999999101331MD1010031-0011REMSYN088AAXX  15151 48877 32598 83404 10251 20231 30133 40138 50003 888// 333 59001 84895 88696;
0201488770999992000121609004+12250+109190FM-12+0010VVNT V0203401N00401012001CN0200001N1+02651+02281101271ADDAA199000091GA1041+008009089GF108991081081008001999999MA1999999101221MD1510011-0081REMSYN088AAXX  16091 48877 32598 83404 10265 20228 30122 40127 55001 888// 333 59008 84895 88696;EQDQ01  00002PRCP99
0259488770999992000121900004+12250+109190FM-12+0010VVNT V0209999C00001012001CN0200001N1+02391+02291101101ADDAA112002091AY181061AY221061GA1041+008009089GF108991081081008001999999IA2999+02309KA1120N+02361MA1999999101051MD1210161-0141MW1031REMSYN118AAXX  19001 48877 11598 80000 10239 20229 30105 40110 52016 60022 70382 888// 333 01024 20236 3/023 59014 84895 88696;
0201488770999992000122018004+12250+109190FM-12+0010VVNT V0209999C00001012001CN0200001N1+02581+02361101271ADDAA199000091GA1021+008009089GF106991061081008001999999MA1999999101221MD1810051+0191REMSYN088AAXX  20181 48877 32598 60000 10258 20236 30122 40127 58005 868// 333 58019 82895 86697;EQDQ01  00002PRCP99
0195488870999992000010715004+10930+108100FM-12+000899999V0209999C000012200019N0200001N1+02481+02171101161ADDAA106000091GA1011+012509059GF102991011051008001001011MA1999999101101MD1110181+0001REMSYN082AAXX  07151 48887 32598 20000 10248 20217 30110 40116 51018 81501 333 58000 81696;EQDQ01  00002PRCP06
0201488870999992000020503004+10930+108100FM-12+000899999V0201401N00301045001CN0200001N1+02771+02651101131ADDAA199000091GA1011+008009089GF106991011011008001041081MA1999999101071MD1310061-0081REMSYN088AAXX  05031 48887 32570 61403 10277 20265 30107 40113 53006 81148 333 59008 81895 86299;EQDQ01  00002PRCP99
0195488870999992000022318004+10930+108100FM-12+000899999V0209999C000019999999N0200001N1+02581+02361101121ADDAA199000091GA1051+999999089GF105991001001999999001081MA1999999101061MD1010041+0041REMSYN082AAXX  23181 48887 32998 50000 10258 20236 30106 40112 50004 80008 333 58004 85299;EQDQ01  00002PRCP99
0195488870999992000022915004+10930+108100FM-12+000899999V0200901N004012200019N0200001N1+02671+02001101131ADDAA199000091GA1021+999999019GF102991001001999999001011MA1999999101071MD1010191-0131REMSYN082AAXX  29151 48887 32998 20904 10267 20200 30107 40113 50019 80001 333 59013 82099;EQDQ01  00002PRCP99
0195488870999992000041409004+10930+108100FM-12+000899999V0201601N005012200019N0260001N1+02901+02411100561ADDAA199000091GA1011+008009029GF101991011021008001001001MA1999999100501MD1610191-0141REMSYN082AAXX  14091 48887 32576 11605 10290 20241 30050 40056 56019 81200 333 59014 81895;EQDQ01  00002PRCP99
0201488870999992000042015004+10930+108100FM-12+000899999V0209999C00001220001CN0200001N1+02771+02451100881ADDAA199000091GA1021+008009089GF106991021021008001001061MA1999999100821MD1310111-0221REMSYN088AAXX  20151 48887 32598 60000 10277 20245 30082 40088 53011 82206 333 59022 82895 86299;EQDQ01  00002PRCP99
0195488870999992000042521004+10930+108100FM-12+000899999V0209999C000012200019N0200001N1+02651+02451100771ADDAA199000091GA1031+008009029GF103991031021008001001001MA1999999100711MD1610051+0011REMSYN082AAXX  25211 48887 32598 30000 10265 20245 30071 40077 56005 83200 333 58001 83895;EQDQ01  00002PRCP99
0195488870999992000050309004+10930+108100FM-12+000899999V0201401N005012200019N0200001N1+03321+02611100741ADDAA199000091GA1021+012509099GF102991021091012501001001MA1999999100681MD1510181-0091REMSYN082AAXX  03091 48887 32670 21405 10332 20261 30068 40074 55018 82900 333 59009 82996;EQDQ01  00002PRCP99
0195488870999992000050615004+10930+108100FM-12+000899999V0200501N002012200019N0200001N1+02821+02401101241ADDAA199000091GA1021+008009029GF102991021011008001001001MA1999999101181MD1210171+0041REMSYN082AAXX  06151 48887 32598 20502 10282 20240 30118 40124 52017 82100 333 58004 82895;EQDQ01  00002PRCP99
0201488870999992000052203004+10930+108100FM-12+000899999V0201801N00201105001CN0200001N1+02911+02381101161ADDAA199000091GA1031+008009089GF106991031021008001001081MA1999999101101MD1110101+0091REMSYN088AAXX  22031 48887 32570 61802 10291 20238 30110 40116 51010 83208 333 58009 83895 84299;EQDQ01  00002PRCP99
0195488870999992000052618004+10930+108100FM-12+000899999V0202901N001012200019N0200001N1+02671+02301100681ADDAA199000091GA1031+999999089GF103991001001999999001081MA1999999100621MD1810131-0101REMSYN082AAXX  26181 48887 32998 32901 10267 20230 30062 40068 58013 80008 333 59010 83299;EQDQ01  00002PRCP99
0231488870999992000060100004+10930+108100FM-12+000899999V0202901N00401045001CN0200001N1+02521+02311100561ADDAA112003091GA1011+008009089GF107991021081008001041081IA2999+02409KA1120N+02371MA1999999100501MD1310151-0011REMSYN112AAXX  01001 48887 12570 72904 10252 20231 30050 40056 53015 60032 82848 333 01026 20237 3/024 59001 81895 87299;
0223488870999992000060706004+10930+108100FM-12+000899999V0201401N00401105001CN0200001N1+03061+02491100901ADDAA199000091GA1021+008009089GA2011+012509099GF107991031091008001001081MA1999999100841MD1810121+0031REMSYN094AAXX  07061 48887 32570 71404 10306 20249 30084 40090 58012 83908 333 58003 82895 81996 86299;EQDQ01  00002PRCP99
0204488870999992000070103004+10920+108100FM-12+000899999V0209999C00001105001CN0200001N1+02821+02511100841ADDAA199000021GA1021+008009089GA2011+012509099GF107991041091008001001081MA1999999100581MD1110061-0171REMSYN094AAXX  01031 48887 32570 70000 10282 20251 30058 40084 51006 84908 333 59017 82895 81996 84299;
0176488870999992000072918004+10920+108100FM-12+000899999V0203201N002012200019N0200001N1+02521+02311100891ADDAA199000021GA1021+008009029GF102991021011008001001001MA1999999100831MD1810031+0061REMSYN082AAXX  29181 48887 32598 23202 10252 20231 30083 40089 58003 82100 333 58006 82895;
0199488870999992000080709004+10920+108100FM-12+000899999V0202701N00201012501CN0200001N1+02731+02351100731ADDAY181031AY211031GA1071+012509099GF107991071091012501999999MA1999999100671MD1610081+0141MW1031REMSYN094AAXX  07091 48887 41670 72702 10273 20235 30067 40073 56008 70381 879// 333 58014 87996 81697;
0201488870999992000081303004+10920+108100FM-12+000899999V0202701N00401105001CN0200001N1+03121+02321101051ADDAA199000091GA1021+008009089GF107991021021008001001081MA1999999100991MD1810051+0131REMSYN088AAXX  13031 48887 32570 72704 10312 20232 30099 40105 58005 82208 333 58013 82895 87299;EQDQ01  00002PRCP99
0201488870999992000081606004+10920+108100FM-12+000899999V0202001N00601105001CN0200001N1+03001+02321100541ADDAA199000091GA1011+008009089GF107991031081008001001081MA1999999100481MD1710111-0141REMSYN088AAXX  16061 48887 32570 72006 10300 20232 30048 40054 57011 83808 333 59014 81895 87299;EQDQ01  00002PRCP99
0238488870999992000081618004+10920+108100FM-12+000899999V0202701N00401007501CN0200001N1+02541+02431100711ADDAA106018091AY191061AY281061GA1031+008009089GA2011+012509099GF108991081091008001999999MA1999999100651MD1810071-0021MW1131REMSYN106AAXX  16181 48887 11598 82704 10254 20243 30065 40071 58007 60181 71398 889// 333 59002 83895 81996 88697;
0199488870999992000082421004+10920+108100FM-12+000899999V0209999C00001012001CN0200001N1+02441+02381100681ADDAY181031AY221031GA1041+008009089GF108991081081008001999999MA1999999100621MD1510101-0041MW1251REMSYN094AAXX  24211 48887 41598 80000 10244 20238 30062 40068 55010 72582 888// 333 59004 84895 88697;
0241488870999992000091312004+10920+108100FM-12+000899999V0202501N00401012001CN0200001N1+02781+02251100711ADDAA124000191AY121061AY221061GA1011+012509099GF106991061091012501999999KA1120M+03341MA1999999100651MD1310131-0091MW1131REMSYN112AAXX  13121 48887 31698 62504 10278 20225 30065 40071 53013 71322 869// 333 00029 10334 59009 70001 81996 86697;
