0169763420999992000061719404+26880-101420FM-15+0615MMMV V0200601N00821021001CN0096561N1+03501+01601999999ADDGD13991+0210099GD23991+1500099GF107991999999999999999999MA1100911999999MW1001REMMET061MMMV 172040Z 06016KT 6SM BKN500 BKN070 35/16 A2980 RMK 80009;EQDQ01+000000PRSWM2
0147763420999992000061816404+26880-101420FM-15+0615MMMV V0209999C000010180019N0096561N1+02901+02201999999ADDGD13991+0180099GF107991999999999999999999MA1101591999999MW1001REMMET054MMMV 181740Z 00000KT 6SM BKN060 29/22 A3000 RMK 20009;EQDQ01+000000PRSWM2
0247763420999992000062003004+26880-101420FM-12+0615MMMV V0202101N001012200019N0040001N1+02961+01961101081ADDAA199000091AY121031AY211031GA1031+006009029GF103991031021004501001001IA1099MA1999999094291MD1210061-0051MW1011REMSYN106AAXX  20031 76342 31440 32101 10296 20196 39429 40108 52006 70121 83200 90248 333 31/// 56300 59005 83820;EQDQ01  00002PRCP99
0171763420999992000062320404+26880-101420FM-15+0615MMMV V0200601N010310210019N0048281N1+99999+02501999999ADDGD14991+0210099GF108991999999999999999999MA1101191999999MW1001MW2631REMMET056MMMV 232140Z 06020KT 3SMRA OVC070 28/25 A2988 RMK 40899;EQDQ01+002803ATOT  Q02+000003PRSWM1
0262763420999992000070721004+26880-101420FM-12+0615MMMV V0200201N00101036001CN0120001N1+03181+01921101091ADDAA103999929AY161031AY211031GA1021+006009099GA2021+006009089GF106991041091008001021001IA1019MA1999999094391MD1710121+0101MW1601REMSYN124AAXX  07211 76342 21562 60201 10318 20192 39439 40109 57012 76061 84920 92030 333 30/// 56330 58010 69907 82920 82820 82457;
0129763420999992000070914404+26880-101420FM-15+0615MMMV V0209999C000012200019N0096561N1+03001+01501999999ADDGF100991999999999999999999MA1101661999999MW1001REMMET051MMMV 091540Z 00000KT 6SM SKC 30/15 A3002 RMK 00000;EQDQ01+000000PRSWM2
0124763420999992000071017404+26880-101420FM-15+0615MMMV V0200601N004612200019N0096561N1+03301+02101999999ADDGF100991999999999999999999MA1101491999999MW1001REMMET046MMMV 101840Z 06009KT 6SM SKC 33/21 A2997 RMK ;EQDQ01+000000PRSWM2
0147763420999992000071517404+26880-101420FM-15+0615MMMV V0200901N004112200019N0096561N1+03801+02301999999ADDGD12991+0180099GF104991999999999999999999MA1101351999999MW1001REMMET054MMMV 151840Z 09008KT 6SM SCT060 38/23 A2993 RMK 20009;EQDQ01+000000PRSWM2
0124763420999992000071715404+26880-101420FM-15+0615MMMV V0200601N004112200019N0096561N1+03201+01501999999ADDGF100991999999999999999999MA1101561999999MW1001REMMET046MMMV 171640Z 06008KT 6SM SKC 32/15 A2999 RMK ;EQDQ01+000000PRSWM2
0147763420999992000072020404+26880-101420FM-15+0615MMMV V0200601N008012200019N0096561N1+04101+01901999999ADDGD12991+0210099GF104991999999999999999999MA1101221999999MW1001REMMET054MMMV 202140Z 06008KT 6SM SCT070 41/19 A2989 20009 RMK;EQDQ01+000000PRSWM2
0147763420999992000072621404+26880-101420FM-15+0615MMMV V0200601N009812200019N0096561N1+03601+01901999999ADDGD12991+0210099GF104991999999999999999999MA1101221999999MW1001REMMET054MMMV 262240Z 06019KT 6SM SCT070 36/19 A2989 20009 HZY;EQDQ01+000000PRSWM2
0297763420999992000072900004+26880-101420FM-12+0615MMMV V0200801N001012200019N0120001N1+03681+01201100731ADDAA124000091AY111061AY211061GF102991021011008001001001IA1019KA1120M+03791KA2180N+02501MA1999999094051MD1710131-0251MW1021REMSYN130AAXX  29001 76342 31562 20801 10368 20120 39405 40073 57013 70211 82100 92340 333 10379 20250 30/// 50970 56300 59025 70000 82820;EQDQ01  00002PRCP99Q02  00003PRCP99
0325763420999992000080212004+26880-101420FM-12+0615MMMV V0202401N001019999999N0040001N1+02321+99999101381ADDAA124000291AY111061AY211061GA1041+018009039GF107991999001022501071001IA1019IA2999+02009KA1999M+03481KA2120N+02081MA1999999094571MD1710031-0101MW1021REMSYN130AAXX  02121 76342 31840 72401 10232 20211 39457 40138 57003 70211 84070 91140 333 10348 20208 30020 56050 59010 70002 84356 83458;EQDQ01+000042SCOTLCQ02+002113ATOD  
0203763420999992000080214404+26880-101420FM-15+0615MMMV V0209999C000010540019N0096561N1+02901+01701999999ADDGD12991+0180099GD23991+0540099GF107991999999999999999999MA1101691999999MD1010061+9999MW1001REMMET065MMMV 021540Z 00000KT 6SM SCT060 BKN180 29/17 A3003 RMK 50799 HZY;EQDQ01+007997APC3  Q02+000000PRSWM2
0147763420999992000081620404+26880-101420FM-15+0615MMMV V0200601N006210210019N0096561N1+03301+02501999999ADDGD13991+0210099GF107991999999999999999999MA1101831999999MW1001REMMET054MMMV 162140Z 06012KT 6SM BKN070 33/25 A3007 RMK 5///9;EQDQ01+000000PRSWM2
0123763420999992000082617404+26880-101420FM-15+0615MMMV V0200601N005112200019N0096561N1+03301+01501999999ADDGF100991999999999999999999MA1101461999999MW1001REMMET045MMMV 261740Z 06010KT 6SM SKC 33/15 A2996 RMK;EQDQ01+000000PRSWM2
0127763420999992000090519404+26880-101420FM-15+0615MMMV V0200901N005112200019N0096561N1+03901+02101999999ADDGF100991999999999999999999MA1101421999999MW1001REMMET049MMMV 051940Z 09010KT 6SM SKC 39/21 A2995 RMK HZY;EQDQ01+000000PRSWM2
0124763420999992000092622404+26880-101420FM-15+0615MMMV V0200601N005112200019N0096561N1+02401+01501999999ADDGF100991999999999999999999MA1102031999999MW1001REMMET046MMMV 262240Z 06010KT 6SM SKC 24/15 A3013 RMK ;EQDQ01+000000PRSWM2
0201763420999992000100109004+26880-101420FM-12+0615MMMV V0202301N001012200019N0040001N1+02121+01181101271ADDAA199000091GA1001+999999999GF100991001001999999001001IA1019MA1999999094381MD1710091-0281REMSYN082AAXX  01091 76342 32940 02301 10212 20118 39438 40127 57009 90840 333 30/// 59028;EQDQ01  00002PRCP99
0127763420999992000100214404+26880-101420FM-15+0615MMMV V0201801N003112200019N0096561N1+02401+01201999999ADDGF100991999999999999999999MA1101351999999MW1001REMMET049MMMV 021440Z 18006KT 6SM SKC 24/12 A2993 RMK HZY;EQDQ01+000000PRSWM2
0197763420999992000100819404+26880-101420FM-15+0615MMMV V0200301N005710021019N0064371N1+00901+00701999999ADDGD13991+0021099GD24991+0030099GF108991999999999999999999MA1103351999999MW1101MW2531REMMET067MMMV 081940Z 03011KT 4SM BR DZ BKN007 OVC010 09/07 A3052 RMK 5///9;EQDQ01+000003PRSWM1Q02    003PRSWM1
0187763420999992000101317404+26880-101420FM-15+0615MMMV V0200601N003110105019N0096561N1+02501+01701999999ADDGD12991+0075099GD23991+0105099GF107991999999999999999999MA1102031999999MD1010091+9999MW1001REMMET065MMMV 131740Z 06006KT 6SM SCT025 BKN035 25/17 A3013 RMK 50009 HZY;EQDQ01+000000PRSWM2
0165763420999992000101711404+26880-101420FM-15+0615MMMV V0209999C000010120019N0096561N1+02101+01501999999ADDGD13991+0120099GF107991999999999999999999MA1101761999999MD1010091+9999MW1001REMMET058MMMV 171140Z 00000KT 6SM BKN040 21/15 A3005 RMK 50009 HZY;EQDQ01+000000PRSWM2
0166763420999992000101816404+26880-101420FM-15+0615MMMV V0200901N004110060019N0064371N1+01901+01801999999ADDGD14991+0060099GF108991999999999999999999MA1102441999999MW1101REMMET057MMMV 181640Z 09008KT 4SM BR OVC020 19/18 A3025 RMK 5///9;EQDQ01+000003PRSWM1Q02    003PRSWM1
0291763420999992000102418004+26880-101420FM-12+0615MMMV V0203601N00101004201CN0100001N1+02541+01801102031ADDAA199000091AY121061AY211061GA1031+006009089GF107991071021004501041001IA1019KA1120M+02571KA2240N+01751MA1999999095181MD1710081+0231MW1021REMSYN124AAXX  24181 76342 31460 73601 10254 20180 39518 40203 57008 70221 87240 91740 333 10257 20175 30/// 56340 58023 83820 84456;EQDQ01  00002PRCP99
0239763420999992000111118004+26880-101420FM-12+0615MMMV V0200901N001012200019N0120001N1+02001+01171101361ADDAA199000091GA1001+999999999GF100991001001999999001001IA1019KA1120M+02031KA2240N+01061MA1999999094291MD1710041-0231REMSYN094AAXX  11181 76342 32962 00901 10200 20117 39429 40136 57004 91740 333 10203 20106 30/// 59023;EQDQ01  00002PRCP99
0147763420999992000111216404+26880-101420FM-15+0615MMMV V0209999C000012200019N0096561N1+02201+01301999999ADDGD12991+0600099GF104991999999999999999999MA1100981999999MW1001REMMET054MMMV 121640Z 00000KT 6SM SCT200 22/13 A2982 RMK 00290;EQDQ01+000000PRSWM2
0284763420999992000111412004+26880-101420FM-12+0615MMMV V0200301N001010030019N0040001N1+00901+00451102591ADDAA124000091AY121061AY211061GA1081+003009069GF108991081061004501999999IA1019IA2999+00809KA1999M+01701KA2120N+00861MA1999999095341MD1110031+0641MW1031REMSYN124AAXX  14121 76342 31440 80301 10090 20045 39534 40259 51003 70321 886// 91144 333 10170 20086 30008 561// 58064 70000 88710;
0165763420999992000111413404+26880-101420FM-15+0615MMMV V0200601N004110150019N0096561N1+00701+00201999999ADDGD13991+0150099GF107991999999999999999999MA1102611999999MD1010091+9999MW1001REMMET058MMMV 141340Z 06008KT 6SM BKN050 07/02 A3030 RMK 50009 HZY;EQDQ01+000000PRSWM2
0187763420999992000111709004+26880-101420FM-12+0615MMMV V0200901N001019999999N0040001N1+99999+99999999999ADDAA199000091GF108991999999004501999999IA1019MD1999999+0361REMSYN099AAXX  17091 76342 31440 80901 1044 20109 39454 40153 52001 70322 886// 333 30/// 561// 58036 88710;EQDQ01  00002PRCP99
0253763420999992000112106004+26880-101420FM-12+0615MMMV V0209999C000012200019N0040001N1+00781+00501103341ADDAA199000091GA1001+999999999GF100991001001999999001001GJ105589IA1099KA1240M+01681KA2240N+00461MA1999999096041MD1210141+0331REMSYN100AAXX  21061 76342 32940 00000 10078 20050 39604 40334 52014 90530 333 10168 20046 31/// 55093 58033;EQDQ01  00002PRCP99
0238763420999992000112312004+26880-101420FM-12+0615MMMV V0201501N001012200019N0040001N1+01401+01231101441ADDAA124002091GA1001+999999999GF100991001001999999001001IA1019IA2999+01309KA1999M+01881KA2120N+01351MA1999999094361MD1710201-1081REMSYN100AAXX  23121 76342 32940 01501 10140 20123 39436 40144 57020 91150 333 10188 20135 30013 59108 70020;
0315763420999992000112406004+26880-101420FM-12+0615MMMV V0200901N020010021019N9999999N1+01701+00671101331ADDAA199000091AY101061AY201061GF108991999071002501001001GJ105409IA1019KA1240M+03071KA2240N+01351MA1999999094431MD1210561-0181MW1001REMSYN124AAXX  24061 76342 31340 80920 10170 20067 39443 40133 52056 70000 86700 90538 333 10307 20135 30/// 55090 56100 59018 86710;EQDQ01+000062SCOTLCQ02+040002VODIS Q03  00002PRCP99
0188763420999992000120315404+26880-101420FM-15+0615MMMV V0209999C000010030019N0064371N1+00601+00401999999ADDGD13991+0030099GD24991+0060099GF108991999999999999999999MA1102951999999MW1531REMMET064MMMV 031540Z 00000KT 4SM DZ BKN010 OVC020 06/04 A3040 RMK 5///9;EQDQ01+000003PRSWM1Q02    003PRSWM1
0188763420999992000121217404+26880-101420FM-15+0615MMMV V0200301N006210030019N0096561N1+00201+00001999999ADDGD13991+0030099GD24991+0060099GF108991999999999999999999MA1102441999999MW1051REMMET064MMMV 121740Z 03012KT 6SM HZ BKN010 OVC020 02/00 A3025 7///9 RMK;EQDQ01+000003PRSWM1Q02    003PRSWM1
0127763420999992000121713404+26880-101420FM-15+0615MMMV V0209999C000012200019N0096561N1+00701+00201999999ADDGF100991999999999999999999MA1102711999999MW1001REMMET049MMMV 171340Z 00000KT 6SM SKC 07/02 A3033 RMK HZY;EQDQ01+000000PRSWM2
0253763420999992000121806004+26880-101420FM-12+0615MMMV V0209999C000012200019N0040001N1+01241+00661101781ADDAA199000091GA1001+999999999GF100991001001999999001001GJ105709IA1019KA1240M+02181KA2240N+00551MA1999999094681MD1710111-0951REMSYN100AAXX  18061 76342 32940 00000 10124 20066 39468 40178 57011 90540 333 10218 20055 30/// 55095 59095;EQDQ01  00002PRCP99
0187763420999992000122414404+26880-101420FM-15+0615MMMV V0209999C000010120019N0048281N1+01001+00501999999ADDGD13991+0120099GD24991+0180099GF108991999999999999999999MA1102241999999MW1101REMMET063MMMV 241440 00000KT 3SM BR BKN040 OVC060 10/05 A3019 7///9 RMK;EQDQ01+000003PRSWM1Q02    003PRSWM1
0093763420999992000122820404+26880-101420FM-16+0615MMMV V02099999999992200019N0096561N1+99999+99999999999ADDMW1001REMMET056MMMV 282040 26010K 6SM SCT180 18/09 A3010 00190 RMK HZY;EQDQ01+000000PRSWM2
0141763503999992000010122454+26020-098230FM-15+0039MMRX V0201501N006212200019N0060001N1+02601+01901999999ADDGF100991999999999999999999MA1101191999999MW1071OC101131REMMET055MMRX 012245Z 15012G22KT 6 SM BLDU SKC 26/19 A2988 RMK ;EQDQ01    003PRSWM1
0123763503999992000011723404+26020-098230FM-15+0039MMRX V0201501N005112200019N0096561N1+02501+01801999999ADDGF100991999999999999999999MA1102201999999MW1001REMMET045MMRX 180040Z 15010KT 6SM SKC 25/18 A3018 RMK;EQDQ01+000000PRSWM2
0174763503999992000012323464+26020-098230FM-15+0039MMRX V0209999C000012200019N0096561N1+02801+01801999999ADDGD12991+0750099GF102991999999999999999999MA1101121999999MW1051REMMET065MMRX 232346Z 00000KT 6SM HZ FEW250 28/18 A2986 RMK 00290 104 933;EQDQ01+000003PRSWM1Q02    003PRSWM1
0148763503999992000013013454+26020-098230FM-15+0039MMRX V0203601N005110090019N0096561N1+00601+00401999999ADDGD14991+0090099GF108991999999999999999999MA1102811999999MW1001REMMET055MMRX 301345Z 36010KT 6SM OVC030 06/04 A3036 RMK 5///9 ;EQDQ01+000000PRSWM2
0193763503999992000020123474+26020-098230FM-16+0039MMRX V0203301N003110060019N0080461N1+02101+01901999999ADDGA1999+006009099GD13991+0060099GF107991999999999999999999MA1101491999999MW1611REMMET068MMRX 012347Z 33006KT 5SM -RA BKN020CB 21/19 A2997 RMK 80008 -RA B42;EQDQ01+000003PRSWM1Q02    003PRSWM1
0108763503999992000030814404+26020-098230FM-16+0039MMRX V0201901N002612200019N0080461N1+99999+99999999999ADDMW1001MW2051REMMET065MMRX 081540Z 19005KT 5SM HZ ABKN016 OVC025 26/22 A2995 RMK 5///4;EQDQ01+000003PRSWM1
0131763503999992000031201404+26020-098230FM-15+0039MMRX V0200501N002612200019N0096561N1+01701+01001999999ADDGF100991999999999999999999MA1102441999999MW1001REMMET053MMRX 120240Z 05005KT 6SM SKC 17/10 A3025 RMK 129 949;EQDQ01+000000PRSWM2
0166763503999992000031517404+26020-098230FM-15+0039MMRX V0200301N002610030019N0096561N1+02001+01801999999ADDGD14991+0030099GF108991999999999999999999MA1101081999999MW1051REMMET057MMRX 151840Z 03005KT 6SM HZ OVC010 20/18 A2985 RMK 8///9;EQDQ01+000003PRSWM1Q02    003PRSWM1
0167763503999992000032413454+26020-098230FM-15+0039MMRX V0201501N004112200019N0096561N1+02301+02201999999ADDGD12991+0030099GF104991999999999999999999MA1101461999999MW1101REMMET058MMRX 241345Z 15008KT 6SM BR SCT010 23/22 A2996 RMK 60004 ;EQDQ01+000003PRSWM1Q02    003PRSWM1
0194763503999992000033019454+26020-098230FM-15+0039MMRX V0200901N003110840019N0096561N1+03101+02101999999ADDGD12991+0090099GD24991+0840099GF108991999999999999999999KA1999M+99999MA1101081999999MW1001REMMET073MMRX 301945Z 09006KT 6SM SCT030 OVC280 31/21 A2985 RMK 10699 HZDU BINOVC;EQDQ01+000000PRSWM2
0211763503999992000043012054+26020-098230FM-15+0039MMRX V0201501N004110480019N0016091N1+02401+02301101141ADDGD12991+0021099GD23991+0480099GF107991999999999999999999MA1101221999999MW1051MW2101REMMET081MMRX 301205 RTD 15008KT 1SM BRHZ SCT007 BKN160 24/23 A2989 RMK 65094 SLP114 970 ;EQDQ01+000003PRSWM1Q02    003PRSWM1
0147763503999992000052100404+26020-098230FM-15+0039MMRX V0200901N004110105019N0096561N1+02701+02301999999ADDGD13991+0105099GF107991999999999999999999MA1101351999999MW1001REMMET054MMRX 210140Z 09008KT 6SM BKN035 27/23 A2993 RMK 5///9;EQDQ01+000000PRSWM2
0178763503999992000061517454+26200-098220FM-15+0039MMRX V0201401N007710105019N0096561N1+03301+02501100981ADDGD13991+0105099GF107991999999999999999999MA1100981999999MD1010041+9999MW1001REMMET071MMRX 151745Z 14015KT 6SM BKN035 33/25 A2982 RMK 50004 SLP098 970 TCU/E;EQDQ01+000000PRSWM2
0176763503999992000061721404+26200-098220FM-15+0039MMRX V0201501N005110060019N0096561N1+03401+02501999999ADDGD13991+0060099GF107991999999999999999999KA1999M+99999MA1100951999999MW1001REMMET054MMRX 172240Z 15010KT 6SM BKN020 34/25 A2981 RMK 10004;EQDQ01+000000PRSWM2Q02 +00042ATMX  
0179763503999992000070818454+26200-098220FM-15+0039MMRX V0201501N005112200019N0096561N1+03501+02401999999ADDGD12991+0105099GF104991999999999999999999KA1999M+99999MA1101591999999MW1001REMMET057MMRX 081845Z 15010KT 6SM SCT035 35/24 A3000 RMK 10004 HZ;EQDQ01+000000PRSWM2Q02 +00042ATMX  
0181763503999992000072218454+26010-098220FM-15+0039MMRX V0201501N008212200019N0096561N1+03701+02501999999ADDGD12991+0060099GF102991999999999999999999KA1999M+99999MA1101291999999MW1001REMMET059MMRX 221845Z 15016KT 6SM FEW020 37/25 A2991 RMK 10004 HZDU;EQDQ01+000000PRSWM2Q02 +00042ATMX  
0183763503999992000072417454+26010-098220FM-15+0039MMRX V0201501N004110780019N0096561N1+03601+02401101451ADDGD12991+0540099GD23991+0780099GF107991999999999999999999MA1101491999999MW1001REMMET075MMRX 241745Z 15008KT 6SM SCT180 BKN260 36/24 A2997 RMK 06690 SLP145 963 HZ;EQDQ01+000000PRSWM2
0187763503999992000072419404+26010-098220FM-15+0039MMRX V0201201N005112200019N0096561N1+03901+02301101251ADDGD12991+0060099GF104991999999999999999999KA1999M+99999MA1101351999999MW1001REMMET065MMRX 242040Z 12010KT 6SM SCT020 39/23 A2993 RMK 10004 SLP125 953;EQDQ01+000000PRSWM2Q02 +00042ATMX  
0142763503999992000072514434+26010-098220FM-15+0039MMRX V0201601N007712200019N0096561N1+03401+02501999999ADDGF100991999999999999999999MA1101391999999MW1051REMMET048MMRX 251543Z 16015KT 6SMHZ SKC 34/25 A2994 RMK ;EQDQ01+000003PRSWM1Q02    003PRSWM1
0146763503999992000080523404+26010-098220FM-15+0039MMRX V0201401N005112200019N0096561N1+03201+02501999999ADDGD12991+0210099GF104991999999999999999999MA1101321999999MW1001REMMET053MMRX 060040 14010KT 6SM SCT070 32/25 A2992 RMK 02090;EQDQ01+000000PRSWM2
0142763503999992000082613404+26010-098220FM-15+0039MMRX V0201601N002612200019N0096561N1+02501+02301999999ADDGF100991999999999999999999MA1101351999999MW1051REMMET048MMRX 261340Z 16005KT 6SM HZ SKC 25/23 A2993 RMK;EQDQ01+000003PRSWM1Q02    003PRSWM1
0127763503999992000090415454+26010-098220FM-15+0039MMRX V0201501N002112200019N0096561N1+03201+02401999999ADDGF100991999999999999999999MA1101251999999MW1001REMMET049MMRX 041545Z 15004KT 6SM SKC 32/24 A2990 RMK HZ ;EQDQ01+000000PRSWM2
0152763503999992000091018454+26010-098220FM-15+0039MMRX V0201401N006212200019N0096561N1+03501+02401999999ADDGD12991+0720099GF104991999999999999999999MA1101191999999MW1001REMMET059MMRX 101845Z 14012KT 6SM SCT240 35/24 A2988 RMK 00290 HZFU;EQDQ01+000000PRSWM2
0222763503999992000092420454+26010-098220FM-15+0039MMRX V0201501N005112200019N0096561N1+03701+02701999999ADDGD12991+0120099GF104991999999999999999999KA1999M+99999MA1100751999999MW1051MW2061OC101031REMMET070MMRX 242045Z 15010G20KT 6SM HZDU SCT040 37/27 A2975 RMK 10004 060 963;EQDQ01+000003PRSWM1Q02    003PRSWM1Q03 +00042ATMX  
0165763503999992000093012054+26010-098220FM-15+0039MMRX V0209999C000012200019N0096561N1+01801+01701101751ADDGF100991999999999999999999MA1101561999999MW1051MW2101REMMET065MMRX 301205 RTD 00000KT 6SM BRHZ SKC 18/17 A2999 RMK SLP175 900 ;EQDQ01+000003PRSWM1Q02    003PRSWM1
0134763503999992000093014454+26010-098220FM-15+0039MMRX V0203501N002612200019N0096561N1+02301+01801999999ADDGF100991999999999999999999MA1101491999999MW1001REMMET056MMRX 301445Z 35005KT 6SM SKC 23/18 A2997 RMK 185 957 HZ;EQDQ01+000000PRSWM2
0123763503999992000100122404+26010-098220FM-15+0039MMRX V0209999C000012200019N0096561N1+03401+02001999999ADDGF100991999999999999999999MA1101121999999MW1001REMMET045MMRX 012240Z 00000KT 6SM SKC 34/20 A2986 RMK;EQDQ01+000000PRSWM2
0128763503999992000100212454+26010-098220FM-15+0039MMRX V0201801N003112200019N0096561N1+02001+01901999999ADDGF100991999999999999999999MA1101251999999MW1001REMMET050MMRX 021245Z 18006KT 6SM SKC 20/19 A2990 RMK BRHZ;EQDQ01+000000PRSWM2
0135763503999992000100323484+26010-098220FM-15+0039MMRX V0201501N004112200019N0096561N1+03301+02401100971ADDGF100991999999999999999999MA1100981999999MW1001REMMET057MMRX 032348Z 15008KT 6SM SKC 33/24 A2982 RMK SLP097 910 ;EQDQ01+000000PRSWM2
0227763503999992000100621404+26010-098220FM-15+0039MMRX V0203001N004110075019N0032181N1+02501+02501999999ADDGD12991+0030099GD23991+0075099GD34991+0150099GF108991999999999999999999MA1101391999999MW1631REMMET088MMRX 062140Z 30008KT 2SM RA+ SCT010 BKN025 OVC050 25/25 A2994 RMK 9///8 RA B15 RA CONT ;EQDQ01+000003PRSWM1Q02    003PRSWM1
0170763503999992000102101424+26010-098220FM-15+0039MMRX V0201601N005110300019N0096561N1+02401+02001999999ADDGD13991+0300099GD23991+0750099GF107991999999999999999999MA1101591999999MW1001REMMET062MMRX 210142Z 16010KT 6SM BKN100 BKN250 24/20 A3000 RMK 05890 ;EQDQ01+000000PRSWM2
0176763503999992000102122404+26010-098220FM-15+0039MMRX V0201601N005110075019N0096561N1+02801+02101999999ADDGD13991+0075099GF107991999999999999999999KA1999M+99999MA1101351999999MW1001REMMET054MMRX 212240Z 16010KT 6SM BKN025 28/21 A2993 RMK 10004;EQDQ01+000000PRSWM2Q02 +00042ATMX  
0176763503999992000102416404+26010-098220FM-15+0039MMRX V0209999C000010090019N0096561N1+02901+02301999999ADDGD13991+0090099GF107991999999999999999999KA1999M+99999MA1102341999999MW1001REMMET054MMRX 241640Z 00000KT 6SM BKN030 29/23 A3022 RMK 10004;EQDQ01+000000PRSWM2Q02 +00042ATMX  
0176763503999992000103115404+26010-098220FM-15+0039MMRX V0201701N005112200019N0096561N1+02501+02001999999ADDGD12991+0045099GF104991999999999999999999KA1999M+99999MA1101731999999MW1001REMMET054MMRX 311540Z 17010KT 6SM SCT015 25/20 A3004 RMK 10004;EQDQ01+000000PRSWM2Q02 +00042ATMX  
0151763503999992000110913404+26010-098220FM-15+0039MMRX V0203001N002112200019N0080461N1+00901+00401999999ADDGF100991999999999999999999MA1101661999999MW1041MW2051REMMET051MMRX 091340Z 30004KT 5SMHZ FU SKC 09/04 A3002 RMK ;EQDQ01+000003PRSWM1Q02    003PRSWM1
0172763503999992000112114454+26010-098220FM-15+0039MMRX V0203301N002612200019N0096561N1+01101+00801103241ADDGD12991+0480099GF104991999999999999999999MA1103351999999MD1010041+9999MW1001REMMET065MMRX 211445Z 33005KT 6SM SCT160 11/08 A3052 RMK 50004 SLP324 900;EQDQ01+000000PRSWM2
0199763503999992000120502404+26010-098220FM-15+0039MMRX V0203301N005110030019N0064371N1+00801+00801999999ADDGD13991+0030099GD24991+0045099GF108991999999999999999999MA1103081999999MW1101REMMET075MMRX 050240Z 33010KT 4SM BR BKN010 OVC015 08/08 A3044 RMK 7///9 SLP321 941;EQDQ01+000003PRSWM1Q02    003PRSWM1
0144763503999992000120823404+26010-098220FM-15+0039MMRX V0201201N001012200019N0096561N1+02001+01701101751ADDGF100991999999999999999999MA1101761999999MW1001REMMET066MMRX 082340Z 12002KT 6SM SKC 20/17 A3005 RMK SLP175 956 000 HZ FU;EQDQ01+000000PRSWM2
0194763503999992000121523404+26010-098220FM-15+0039MMRX V0209999C000010012019N0024141N1+01501+01501999999ADDGD14991+0012099GF108991999999999999999999MA1101561999999MW1051MW2101REMMET079MMRX 152340Z 00000KT 1 1/2SM BR HZ OVC004 15/15 A2999 RMK 6///9 SLP155 995 000;EQDQ01+000003PRSWM1Q02    003PRSWM1
0124763503999992000121621454+26010-098220FM-15+0039MMRX V0203501N008212200019N0096561N1+02401+01101999999ADDGF100991999999999999999999MA1102071999999MW1001REMMET046MMRX 162145Z 35016KT 6SM SKC 24/11 A3014 RMK ;EQDQ01+000000PRSWM2
0158763503999992000122715424+26010-098220FM-15+0039MMRX V0203101N005110120019N0096561N1+00701+00101999999ADDGD14991+0120099GF108991999999999999999999MA1102641999999MW1001OC101031REMMET057MMRX 271542Z 31010G20KT 6SM OVC040 07/01 A3031 RMK 5///8;EQDQ01+000000PRSWM2
0174763503999992000122915454+26010-098220FM-15+0039MMRX V0203301N003112200019N0096561N1+01001+00601999999ADDGD12991+0360099GF104991999999999999999999MA1102611999999MW1051REMMET065MMRX 291545Z 33006KT 6SM HZ SCT120 10/06 A3030 RMK 05090 PRESRR ;EQDQ01+000003PRSWM1Q02    003PRSWM1
0091763615999992000010318454+25680-109080FM-15+0004MMLM V0202701N009312200019N0096561N1+99999+99999999999ADDMW1001REMMET054MMLM 031845Z 27018KT 6SM 5SM BLDU SKC 20/05 A3010 RMK;EQDQ01+000000PRSWM2
0127763615999992000010416454+25680-109080FM-15+0004MMLM V0203001N002612200019N0096561N1+01701+00901999999ADDGF100991999999999999999999MA1101961999999MW1001REMMET049MMLM 041645Z 30005KT 6SM SKC 17/09 A3011 RMK HZY;EQDQ01+000000PRSWM2
0127763615999992000020122454+25680-109080FM-15+0004MMLM V0203001N007712200019N0096561N1+02301+00901999999ADDGF100991999999999999999999MA1101831999999MW1001REMMET049MMLM 012245Z 30015KT 6SM SKC 23/09 A3007 RMK HZY;EQDQ01+000000PRSWM2
0131763615999992000021217454+25680-109080FM-15+0004MMLM V0209999C000012200019N0096561N1+02401+01001999999ADDGF100991999999999999999999MA1101861999999MW1001REMMET053MMLM 121745Z 00000KT 6SM SKC 24/10 A3008 RMK ISOL CC;EQDQ01+000000PRSWM2
0123763615999992000030103454+25680-109080FM-15+0004MMLM V0203301N003612200019N0096561N1+01601+00901999999ADDGF100991999999999999999999MA1101731999999MW1001REMMET045MMLM 010345Z 33007KT 6SM SKC 16/09 A3004 RMK;EQDQ01+000000PRSWM2
0128763615999992000031719404+25680-109080FM-15+0004MMLM V0201901N005112200019N0096561N1+02501+01401999999ADDGF100991999999999999999999MA1101661999999MW1001REMMET050MMLM 172040Z 19010KT 6SM SKC 25/14 A3002 RMK HZY ;EQDQ01+000000PRSWM2
0147763615999992000032516454+25680-109080FM-15+0004MMLM V0203001N004110630019N0096561N1+02301+01401999999ADDGD14991+0630099GF108991999999999999999999MA1101901999999MW1001REMMET054MMLM 251645Z 30008KT 6SM OVC210 23/14 A3009 RMK 00690;EQDQ01+000000PRSWM2
0123763615999992000040701454+25680-109080FM-15+0004MMLM V0202701N003612200019N0096561N1+02501+00801999999ADDGF100991999999999999999999MA1101351999999MW1001REMMET045MMLM 070145Z 27007KT 6SM SKC 25/08 A2993 RMK;EQDQ01+000000PRSWM2
0152763615999992000042201454+25680-109080FM-15+0004MMLM V0202901N003112200019N0096561N1+02701+01001999999ADDGD12991+0600099GF102991999999999999999999MA1101251999999MW1001REMMET059MMLM 220145Z 29006KT 6SM FEW200 27/10 A2990 RMK 00290 HZY ;EQDQ01+000000PRSWM2
0127763615999992000043022454+25680-109080FM-15+0004MMLM V0202601N005112200019N0096561N1+03301+01201999999ADDGF100991999999999999999999MA1101291999999MW1001REMMET049MMLM 302245Z 26010KT 6SM SKC 33/12 A2991 RMK HZY;EQDQ01+000000PRSWM2
0127763615999992000050814454+25680-109080FM-15+0004MMLM V0209999C000012200019N0096561N1+02401+01501999999ADDGF100991999999999999999999MA1101421999999MW1001REMMET049MMLM 081445Z 00000KT 6SM SKC 24/15 A2995 RMK HZY;EQDQ01+000000PRSWM2
0123763615999992000051413454+25680-109080FM-15+0004MMLM V0209999C000012200019N0096561N1+02301+01401999999ADDGF100991999999999999999999MA1101191999999MW1001REMMET045MMLM 141345Z 00000KT 6SM SKC 23/14 A2988 RMK;EQDQ01+000000PRSWM2
0126763615999992000051716094+25680-109080FM-15+0004MMLM V0202801N002612200019N0096561N1+02701+01801999999ADDGF100991999999999999999999MA1101351999999MW1001REMMET048MMLM 171609Z 28005KT 6SM SKC 27/18 A2993RMK HZY;EQDQ01+000000PRSWM2
0127763615999992000052819454+25680-109080FM-15+0004MMLM V0202501N004112200019N0096561N1+03201+01901999999ADDGF100991999999999999999999MA1101151999999MW1001REMMET049MMLM 281945Z 25008KT 6SM SKC 32/19 A2987 RMK HZY;EQDQ01+000000PRSWM2
0123763615999992000060414454+25680-109080FM-15+0004MMLM V0209999C000012200019N0096561N1+03101+01901999999ADDGF100991999999999999999999MA1101391999999MW1001REMMET045MMLM 041445Z 00000KT 6SM SKC 31/19 A2994 RMK;EQDQ01+000000PRSWM2
0127763615999992000061017454+25680-109080FM-15+0004MMLM V0202001N003112200019N0096561N1+03801+01601999999ADDGF100991999999999999999999MA1101221999999MW1001REMMET049MMLM 101745Z 20006KT 6SM SKC 38/16 A2989 RMK HZY;EQDQ01+000000PRSWM2
0169763615999992000061517454+25680-109800FM-15+0004MMLM V0201801N003110630019N0096561N1+03201+01701999999ADDGD12991+0060099GD23991+0630099GF107991999999999999999999MA1101421999999MW1001REMMET061MMLM 151745Z 18006KT 6SM FEW020 BKN210 32/17 A2995 RMK 70699;EQDQ01+000000PRSWM2
0153763615999992000070123454+25680-109800FM-15+0004MMLM V0202101N007712200019N0096561N1+03601+02001999999ADDGD12991+0690099GF104991999999999999999999MA1101051999999MW1001REMMET060MMLM 012345Z 21015KT 6SM SCT230 36/20 A2984 RMK 00190 TCU N;EQDQ01+000000PRSWM2
0096763615999992000070316504+25680-109800FM-15+0004MMLM V02099999999992200019N0099001N1+99999+99999999999ADDMW1001REMMET059MMLM 031650Z RTD 190110T 6SM FEW210 34/23 A2995 RMK 00190 ;EQDQ01+000000PRSWM2
0175763615999992000070612454+25680-109800FM-15+0004MMLM V0209999C000010060019N0096561N1+02401+02301999999ADDGD13991+0060099GD24991+0300099GF108991999999999999999999MA1101351999999MW1001REMMET067MMLM 061245Z 00000KT 6SM BKN020 OVC100 24/23 A2993 RMK 76/99 RA SW;EQDQ01+000000PRSWM2
0174763615999992000070615454+25680-109800FM-15+0004MMLM V0200901N004110060019N0096561N1+03201+02401999999ADDGD13991+0060099GD23991+0300099GF107991999999999999999999MA1101421999999MW1001REMMET066MMLM 061545Z 09008KT 6SM BKN020 BKN100 32/24 A2995 RMK 76099 RA S;EQDQ01+000000PRSWM2
0123763615999992000071100454+25680-109800FM-15+0004MMLM V0202401N005112200019N0096561N1+03301+02201999999ADDGF100991999999999999999999MA1100951999999MW1001REMMET045MMLM 110045Z 24010KT 6SM SKC 33/22 A2981 RMK;EQDQ01+000000PRSWM2
0176763615999992000072201454+25680-109070FM-15+0004MMLM V0202301N004610240019N0096561N1+03101+01801999999ADDGD13991+0240099GD24991+0600099GF108991999999999999999999MA1101251999999MW1001REMMET068MMLM 220145Z 23009KT 6SM BKN080 OVC200 31/18 A2990 RMK 70799 BINOVC;EQDQ01+000000PRSWM2
0123763615999992000073013454+25680-109070FM-15+0004MMLM V0200701N003612200019N0096561N1+02901+01701999999ADDGF100991999999999999999999MA1101251999999MW1001REMMET045MMLM 301345Z 07007KT 6SM SKC 29/17 A2990 RMK;EQDQ01+000000PRSWM2
0134763615999992000073115454+25680-109070FM-15+0004MMLM V0200801N002612200019N0096561N1+03001+02301999999ADDGF100991999999999999999999MA1101351999999MW1001REMMET056MMLM 311545Z 08005KT 6SM SKC 30/23 A2993 RMK ISOL CI NE;EQDQ01+000000PRSWM2
0163763615999992000080114454+25680-109070FM-15+0004MMLM V0209999C000012200019N0096561N1+02901+02101999999ADDGD12991+0630099GF104991999999999999999999MA1101391999999MW1001REMMET070MMLM 011445Z 00000KT 6SM SCT210 29/21 A2994 RMK 00190 HZY CU OVER SEA;EQDQ01+000000PRSWM2
0181763615999992000080116454+25680-109070FM-15+0004MMLM V0209999C000010075019N0096561N1+03401+02201999999ADDGD13991+0075099GF107991999999999999999999KA1999M+99999MA1101421999999MW1001REMMET059MMLM 011645Z 00000KT 6SM BKN025 34/22 A2995 RMK 10003 HZY ;EQDQ01+000000PRSWM2Q02 +00032ATMX  
0127763615999992000081014454+25680-109070FM-15+0004MMLM V0209999C000012200019N0096561N1+03201+02201999999ADDGF100991999999999999999999MA1101051999999MW1001REMMET049MMLM 101445Z 00000KT 6SM SKC 32/22 A2984 RMK HZY;EQDQ01+000000PRSWM2
0177763615999992000081113004+25680-109070FM-15+0004MMLM V0201201N004110090019N0096561N1+02801+02301999999ADDGD13991+0090099GD23991+0300099GF107991999999999999999999MA1101191999999MW1001REMMET069MMLM 111300Z RTD 12008KT 6SM BKN030 BKN100 28/23 A2988 RMK 76099 HZY;EQDQ01+000000PRSWM2
0166763615999992000081315454+25680-109070FM-15+0004MMLM V0209999C000010090019N0096561N1+03401+02101999999ADDGA1999+009009029GD13991+0090099GF107991999999999999999999MA1101221999999MW1001REMMET057MMLM 131545Z 00000KT 6SM BKN030TCU 34/21 A2989 RMK 20009;EQDQ01+000000PRSWM2
0166763615999992000081318454+25680-109070FM-15+0004MMLM V0202201N002610090019N0096561N1+03501+01901999999ADDGA1999+009009029GD13991+0090099GF107991999999999999999999MA1101121999999MW1001REMMET057MMLM 131845Z 22005KT 6SM BKN030TCU 35/19 A2986 RMK 20009;EQDQ01+000000PRSWM2
0147763615999992000090512404+25680-109070FM-15+0004MMLM V0200801N003612200019N0096561N1+02701+02301999999ADDGD12991+0690099GF102991999999999999999999MA1101221999999MW1001REMMET054MMLM 051240Z 08007KT 6SM FEW230 27/23 A2989 RMK 00990;EQDQ01+000000PRSWM2
0139763615999992000091300454+25680-109070FM-15+0004MMLM V0203001N005112200019N0096561N1+03201+02301999999ADDGF100991999999999999999999MA1100581999999MW1001REMMET061MMLM 130045Z 30010KT 6SM SKC 32/23 A2970 RMK DIST CBS NE HZY;EQDQ01+000000PRSWM2
0152763615999992000092200404+25680-109070FM-15+0004MMLM V0202601N005110630019N0096561N1+03201+02401999999ADDGD14991+0630099GF108991999999999999999999MA1100541999999MW1001REMMET059MMLM 220040Z 26010KT 6SM OVC210 32/24 A2969 RMK 00790 HZY ;EQDQ01+000000PRSWM2
0152763615999992000092201454+25680-109070FM-15+0004MMLM V0202601N004110630019N0096561N1+03001+02301999999ADDGD14991+0630099GF108991999999999999999999MA1100541999999MW1001REMMET059MMLM 220145Z 26008KT 6SM OVC210 30/23 A2969 RMK 00790 HZY ;EQDQ01+000000PRSWM2
0122763615999992000100223454+25680-109070FM-15+0004MMLM V02099999999992200019N0096561N1+03301+02301999999ADDGF100991999999999999999999MA1100951999999MW1001REMMET044MMLM 022345Z 2700KT 6SM SKC 33/23 A2981 HZY;EQDQ01+000000PRSWM2
0128763615999992000100620454+25680-109070FM-15+0004MMLM V0202501N004612200019N0096561N1+03501+02301999999ADDGF100991999999999999999999MA1100751999999MW1001REMMET050MMLM 062045Z 25009KT 6SM SKC 35/23 A2975 RMK HZY ;EQDQ01+000000PRSWM2
0175763615999992000101123454+25680-109070FM-15+0004MMLM V0202401N005112200019N0096561N1+03001+02201999999ADDGA1999+010509099GD12991+0105099GF104991999999999999999999MA1101391999999MW1001REMMET066MMLM 112345Z 24010KT 6SM SCT035CB 30/22 A2994 RMK 30009 RMK CB N ;EQDQ01+000000PRSWM2
0123763615999992000101912454+25680-109070FM-15+0004MMLM V0209999C000012200019N0096561N1+02301+01801999999ADDGF100991999999999999999999MA1101391999999MW1001REMMET045MMLM 191245Z 00000KT 6SM SKC 23/18 A2994 RMK;EQDQ01+000000PRSWM2
0170763615999992000102000404+25680-109070FM-15+0004MMLM V0202001N003610600019N0096561N1+02801+02401999999ADDGD12991+0300099GD24991+0600099GF108991999999999999999999MA1101151999999MW1001REMMET062MMLM 200040Z 20007KT 6SM SCT100 OVC200 28/24 A2987 RMK 02790 ;EQDQ01+000000PRSWM2
0196763615999992000102313464+25680-109070FM-15+0004MMLM V0209999C000010210019N0096561N1+02201+02201999999ADDGD12991+0030099GD22991+0090099GD34991+0210099GF108991999999999999999999MA1101591999999MW1001REMMET073MMLM 231346Z 00000KT 6SM FEW010 SCT030 OVC070 22/22 A3000 RMK 77/94 RU-E;EQDQ01+000000PRSWM2
0151763615999992000112115484+25680-109070FM-15+0004MMLM V0209999C000010630019N0096561N1+01801+01301999999ADDGD13991+0630099GF107991999999999999999999MA1101901999999MW1001REMMET058MMLM 211548Z 00000KT 6SM BKN210 18/13 A3009 RMK 00290 HZY;EQDQ01+000000PRSWM2
0166763615999992000112914504+25680-109070FM-15+0004MMLM V0209999C000012200019N0080461N1+01701+01501999999ADDGD12991+0630099GF102991999999999999999999MA1101901999999MW1101REMMET057MMLM 291450Z 00000KT 5SM BR FEW210 17/15 A3009 RMK 00490;EQDQ01+000003PRSWM1Q02    003PRSWM1
0123763615999992000120422454+25680-109070FM-15+0004MMLM V0203001N004112200019N0096561N1+02701+01201999999ADDGF100991999999999999999999MA1101661999999MW1001REMMET045MMLM 042245Z 30008KT 6SM SKC 27/12 A3002 RMK;EQDQ01+000000PRSWM2
0147763615999992000121422474+25680-109070FM-15+0004MMLM V0203001N002610600019N0096561N1+02301+01201999999ADDGD13991+0600099GF107991999999999999999999MA1101591999999MW1001REMMET054MMLM 142247Z 30005KT 6SM BKN200 23/12 A3000 RMK 00690;EQDQ01+000000PRSWM2
0147763615999992000121622454+25680-109070FM-15+0004MMLM V0203201N007712200019N0096561N1+02301+01001999999ADDGD12991+0630099GF104991999999999999999999MA1101661999999MW1001REMMET054MMLM 162245Z 32015KT 6SM SCT210 23/10 A3002 RMK 00190;EQDQ01+000000PRSWM2
0123763615999992000122223454+25680-109070FM-15+0004MMLM V0202901N003112200019N0096561N1+02401+01301999999ADDGF100991999999999999999999MA1101491999999MW1001REMMET045MMLM 222345Z 29006KT 6SM SKC 24/13 A2997 RMK;EQDQ01+000000PRSWM2
0147763615999992000122719514+25680-109070FM-15+0004MMLM V0209999C000010600019N0096561N1+02101+01501999999ADDGD13991+0600099GF107991999999999999999999MA1101931999999MW1001REMMET054MMLM 271951Z 00000KT 6SM BKN200 21/15 A3010 RMK 00690;EQDQ01+000000PRSWM2
0127763615999992000122913454+25680-109070FM-15+0004MMLM V0209999C000012200019N0096561N1+01101+01001999999ADDGF100991999999999999999999MA1101931999999MW1001REMMET049MMLM 291345Z 00000KT 6SM SKC 11/10 A3010 RMK HZY;EQDQ01+000000PRSWM2
0201763730999992000020721004+25350-105780FM-12+196799999V0201501N005012200019N0700001N1+02281-01031999999ADDAA199000091GA1001+999999999GF100991001001999999001001IA1019MA1999999082631MD1610311+9999REMSYN082AAXX  07211 76373 32988 01505 10228 21103 38263 4//// 56031 92035 333 30/// 58///;EQDQ01  00002PRCP99
0257763730999992000030512004+25350-105780FM-12+196799999V0209999C000012200019N0000001N1+00221-00461101411ADDAA124000091GA1001+999999999GF100991001001999999001001IA1019IA2999-00209KA1999M+02801KA2120N+00121MA1999999081851MD1999999-0071REMSYN100AAXX  05121 76373 32900 00000 10022 21046 38185 40141 5//// 91130 333 10280 20012 30102 59007 70000;EQDQ01  00002PRCP24
0225763730999992000030715004+25350-105780FM-12+196799999V0202701N001012200019N0600001N1+01361-00341101501ADDAA199000091GA1011+024009039GF102991011001017501031041IA1019MA1999999081921MD1210031-0141REMSYN106AAXX  07151 76373 32786 22701 10136 21034 38192 40150 52003 81034 91447 333 30/// 56055 59014 81358 81070;EQDQ01  00002PRCP99
0235763730999992000031721004+25350-105780FM-12+196799999V0201501N003012200019N0700001N1+02542-01031101222ADDAA199000091GA1011+003009029GF101991011011002501001001IA1019MA1999999081761MD1610401+0061REMSYN100AAXX  17211 76373 32388 11503 10254 21103 38176 40122 56040 81100 92044 333 30/// 56500 58006 81810;EQDQ01+101223APOSLPQ02  00002PRCP99
0189763730999992000050121004+25350-105780FM-12+196799999V0200901N003012200019N0700001N1+03061-00571100861ADDGA1011+003609029GF101991011011004501001001IA1019MA1999999081671MD1610351-0201REMSYN100AAXX  01211 76373 42488 10903 10306 21057 38167 40086 56035 81100 92055 333 30/// 56600 59020 81812;
0219763730999992000061103004+25350-105780FM-12+196799999V0203001N003012200019N0000001N1+02381+01181100701ADDAA199000091GA1031+003009099GF103991031031002501001001IA1019MA1999999081801MD1210161+9999REMSYN100AAXX  11031 76373 32300 33003 10238 20118 38180 40070 52016 83300 90250 333 30/// 56500 58/// 83910;EQDQ01  00002PRCP99
0313763730999992000062200004+25340-105770FM-12+196799999V0201201N005010900019N0700001N1+02841+00971100611ADDAA124000091GA1021+003009099GA2011+003009089GF106991021031004501001021IA1019KA1120M+03181KA2180N+01621MA1999999081861MD1710031+0111REMSYN136AAXX  22001 76373 32488 61205 10284 20097 38186 40061 57003 82302 92340 333 10318 20162 30/// 50940 56202 58011 70000 82910 81810 83070;EQDQ01  00002PRCP99Q02  00003PRCP99
0194763730999992000082915004+25340-105770FM-12+196799999V0203301N001012200019N0600001N1+01441+01041101681ADDAA118000891GA1001+999999999GF100991001001999999001001IA1099MA1999999082401MD1999999+0181REMSYN094AAXX  29151 76373 /2986 03301 10144 20104 38240 40168 5//// 69983 91436 333 31/// 58018 69983;
0275763730999992000091212004+25340-105770FM-12+196799999V0202701N003012200019N0002001N1+01881+00821100861ADDAA124000091GA1011+024009079GF101991011999017501061001IA1019IA2999+01509KA1999M+03381KA2120N+01821MA1999999082071MD1210021+9999REMSYN118AAXX  12121 76373 32702 12703 10188 20082 38207 40086 52002 81060 91138 333 10338 20182 30015 56010 58/// 70000 81358;EQDQ01    003SCOLCG
0257763730999992000100312004+25340-105770FM-12+196799999V0209999C000012200019N0002001N1+00631+00211101461ADDAA124000091GA1001+999999999GF100991001001999999001001IA1019IA2999+00109KA1999M+03111KA2120N+00521MA1999999082151MD1510001+9999REMSYN100AAXX  03121 76373 32902 00000 10063 20021 38215 40146 55000 91137 333 10311 20052 30001 58/// 70000;EQDQ01  00002PRCP24
0225763730999992000112121004+25340-105770FM-12+196799999V0201201N00201220001CN0700001N1+02091+01101102251ADDAA199000091GA1021+003009089GF107991021011004501001041IA1019MA1999999082391MD1710371-0031REMSYN106AAXX  21211 76373 32488 71202 10209 20110 38239 40225 57037 82104 92040 333 30/// 56606 59003 82810 85070;EQDQ01  00002PRCP99
0256763730999992000112212004+25340-105770FM-12+196799999V0209999C000012200019N0002001N1+00441+00281102351ADDAA124000091GA1011+060009019GF101991001001999999001041IA1019IA2999+00109KA1999M+02381KA2120N+00341MA1999999082541MD1710021-0211REMSYN118AAXX  22121 76373 32902 10000 10044 20028 38254 40235 57002 80004 91140 333 10238 20034 30001 56006 59021 70000 81070;
0201763730999992000112903004+25340-105770FM-12+196799999V0202801N001012200019N0002001N1+01431+00471102041ADDAA199000091GA1001+999999999GF100991001001999999001001IA1019MA1999999082291MD1210221+0061REMSYN082AAXX  29031 76373 32902 02801 10143 20047 38229 40204 52022 90235 333 30/// 58006;EQDQ01  00002PRCP99
0263763730999992000121418004+25340-105770FM-12+196799999V0201501N001012200019N0700001N1+01381+00081102621ADDAA199000091GA1011+030009039GF102991011001012501031021IA1019KA1120M+02341KA2240N-00401MA1999999082631MD1610121+0471REMSYN118AAXX  14181 76373 32688 21501 10138 20008 38263 40262 56012 81032 91740 333 10234 21040 30/// 56066 58047 81360 81070;EQDQ01  00002PRCP99
0155763820999992000010311424+25530-103450FM-15+1124MMTC V0203601N005112200019N0096561N1+01601+00301999999ADDGD12991+0690099GF102991999999999999999999MA1101661999999MW1001REMMET062MMTC 031242Z 36010KT 6SM FEW230 16/03 A3002 RMK 00290 091 954;EQDQ01+000000PRSWM2
0132763820999992000010811434+25530-103450FM-15+1124MMTC V0209999C000012200019N0096561N1+00301-00501999999ADDGF100991999999999999999999MA1102271999999MW1001REMMET054MMTC 081243Z 00000KT 6SM SKC 03/M05 A3020 RMK 214 927;EQDQ01+000000PRSWM2
0201763820999992000011503004+25530-103450FM-12+112499999V0209999C000012200019N0200001N1+01761+01021102381ADDAA199000091GF101991001001999999001051IA1019MA1999999089891MD1210111+0191REMSYN098    AAXX  15031 76382 32970 10000 10176 20102 38989 40238 52011 80005 90245 333 30/// 56005 58019;EQDQ01  00002PRCP99
0131763820999992000011611404+25530-103450FM-15+1124MMTC V0203001N002612200019N0096561N1+01101+00601999999ADDGF100991999999999999999999MA1102611999999MW1001REMMET053MMTC 161240Z 30005KT 6SM SKC 11/06 A3030 RMK 193 977;EQDQ01+000000PRSWM2
0148763820999992000012212434+25530-103450FM-15+1124MMTC V0203001N003112200019N0096561N1+00901-00201999999ADDGD12991+0690099GF104991999999999999999999MA1101691999999MW1001REMMET055MMTC 221343Z 30006KT 6SM SCT230 09/M02 A3003 RMK 00290;EQDQ01+000000PRSWM2
0201763820999992000012821004+25530-103450FM-12+1124MMTC V0200201N003012200019N0300001N1+02761+00701100991ADDAA199000091GA1001+999999999GF100991001001999999001001IA1019MA1999999088741MD1710351+0181REMSYN082AAXX  28211 76382 32980 00203 10276 20070 38874 40099 57035 92100 333 30/// 58018;EQDQ01  00002PRCP99
0123763820999992000012915434+25530-103450FM-15+1124MMTC V0209999C000012200019N0096561N1+01201+00101999999ADDGF100991999999999999999999MA1102201999999MW1001REMMET045MMTC 291643Z 00000KT 6SM SKC 12/01 A3018 RMK;EQDQ01+000000PRSWM2
0127763820999992000020120434+25530-103450FM-15+1124MMTC V0209999C000012200019N0096561N1+02401+00401999999ADDGF100991999999999999999999MA1101391999999MW1001REMMET049MMTC 012143Z 00000KT 6SM SKC 24/04 A2994 RMK HZY;EQDQ01+000000PRSWM2
0062763820999992000022917404+25530-103450FM-16+1124MMTC V0201501N003112200019N0096561N1+99999+99999999999ADDMW1001REMMET025MMTC 291740Z 15006KT 6SM;EQDQ01+000000PRSWM2
0201763820999992000030112404+25530-103450FM-15+1124MMTC V0201201N003112200019N0096561N1+01801+00401999999ADDGD12991+0150099GD22991+0600099GF104991999999999999999999MA1102001999999MW1001REMMET061MMTC 011340Z 12006KT 6SM SCT050 SCT200 18/04 A3012 RMK 50899;EQDQ01+000007APCTENQ02+008997APC3  Q03+000000PRSWM2
0245763820999992000030423174+25530-103450FM-16+1124MMTC V0203301N010310240019N0096561N1+02601+01401999999ADDGA1999+012009099GD12991+0120099GD23991+0240099GD33991+0690099GF107991999999999999999999MA1101081999999MW1811MW2951REMMET084MMTC 042317Z 33020KT 6SM TSRA SCT040CB BKN080 BKN230 26/14 A2985 RMK 97344 TSRA B12;EQDQ01+000003PRSWM1Q02    003PRSWM1
0124763820999992000030823434+25530-103450FM-15+1124MMTC V0201001N005112200019N0096561N1+02801+00501999999ADDGF100991999999999999999999MA1101351999999MW1001REMMET046MMTC 090043Z 10010KT 6SM SKC 28/05 A2993 RMK ;EQDQ01+000000PRSWM2
0128763820999992000031317404+25530-103450FM-15+1124MMTC V0209999C000012200019N0096561N1+02401+00801999999ADDGF100991999999999999999999MA1101661999999MW1001REMMET050MMTC 131840Z 00000KT 6SM SKC 24/08 A3002 RMK CI-N;EQDQ01+000000PRSWM2
0131763820999992000031813434+25530-103450FM-15+1124MMTC V0201201N002612200019N0096561N1+01601+00401999999ADDGF100991999999999999999999MA1101831999999MW1001REMMET053MMTC 181443Z 12005KT 6SM SKC 16/04 A3007 RMK 183 960;EQDQ01+000000PRSWM2
0148763820999992000032103404+25530-103450FM-15+1124MMTC V0202601N007712200019N0096561N1+02601-00201999999ADDGD12991+0300099GF104991999999999999999999MA1100981999999MW1001REMMET055MMTC 210440Z 26015KT 6SM SCT100 26/M02 A2982 RMK 03060;EQDQ01+000000PRSWM2
0235763820999992000032315004+25530-103450FM-12+1124MMTC V0209999C000012200019N0300001N1+01841+00201101061ADDAA199000091GA1031+075009089GF103991999001999999001071IA1019MA1999999089041MD1210281+0241REMSYN100AAXX  23151 76382 32980 30000 10184 20020 38904 40106 52028 80007 91445 333 30/// 56005 58024 83275;EQDQ01+000002SCOTLCQ02  00002PRCP99
0235763820999992000032803004+25530-103450FM-12+1124MMTC V0209999C000012200019N0100001N1+02561+01071099951ADDAA199000091GA1021+075009089GF102991999001999999001071IA1019MA1999999088141MD1210021-0441REMSYN100AAXX  28031 76382 32960 20000 10256 20107 38814 49995 52002 80007 90245 333 30/// 56005 59044 82275;EQDQ01+000002SCOTLCQ02  00002PRCP99
0123763820999992000040612404+25530-103450FM-15+1124MMTC V0209999C000012200019N0096561N1+01501+00301999999ADDGF100991999999999999999999MA1101861999999MW1001REMMET045MMTC 061340Z 00000KT 6SM SKC 15/03 A3008 RMK;EQDQ01+000000PRSWM2
0201763820999992000040621004+25530-103450FM-12+1124MMTC V0202601N003012200019N0300001N1+03341-00211100581ADDAA199000091GA1001+999999999GF100991001001999999001001IA1019MA1999999088621MD1710341-0081REMSYN082AAXX  06211 76382 32980 02603 10334 21021 38862 40058 57034 92100 333 30/// 59008;EQDQ01  00002PRCP99
0235763820999992000040903004+25530-103450FM-12+1124MMTC V0200201N004010600019N0100001N1+01941+00491101401ADDAA199000091GA1071+060009089GF107991999001999999001081IA1019MA1999999089261MD1210141+0621REMSYN100AAXX  09031 76382 32960 70204 10194 20049 38926 40140 52014 80008 90230 333 30/// 56005 58062 87270;EQDQ01+000002SCOTLCQ02  00002PRCP99
0257763820999992000041312004+25530-103450FM-12+1124MMTC V0209999C000012200019N0150001N1+01521+01141101411ADDAA124000091GA1001+999999999GF100991001001999999001001IA1019IA2999+01209KA1999M+03101KA2120N+01451MA1999999089351MD1210061+0451REMSYN100AAXX  13121 76382 32965 00000 10152 20114 38935 40141 52006 91150 333 10310 20145 30012 58045 70000;EQDQ01  00002PRCP24
0196763820999992000041822404+25530-103450FM-15+1124MMTC V0201001N004110690019N0080461N1+03501+01201999999ADDGD12991+0270099GD23991+0690099GF107991999999999999999999MA1101151999999MW1051REMMET072MMTC 182340Z 10008KT 5SM HZ SCT090 BKN230 35/12 A2987 RMK 03890 014 977;EQDQ01+000003PRSWM1Q02    003PRSWM1
0147763820999992000042314404+25530-103450FM-15+1124MMTC V0203501N007712200019N0096561N1+02801+00401999999ADDGD12991+0600099GF104991999999999999999999MA1101421999999MW1001REMMET054MMTC 231540Z 35015KT 6SM SCT200 28/04 A2995 RMK 00890;EQDQ01+000000PRSWM2
0155763820999992000043002484+25530-103450FM-15+1124MMTC V0200701N004112200019N0096561N1+02701+01001999999ADDGD12991+0300099GF104991999999999999999999MA1101251999999MW1001REMMET062MMTC 300248Z 07008KT 6SM SCT100 27/10 A2990 RMK 07090 086 964;EQDQ01+000000PRSWM2
0256763820999992000051012004+25530-103450FM-12+1124MMTC V0209999C000012200019N0100001N1+02021+00821100271ADDAA124000091GA1011+075009019GF101991001001999999001011IA1019IA2999+01709KA1999M+03801KA2120N+02001MA1999999088501MD1210061+0001REMSYN118AAXX  10121 76382 32960 10000 10202 20082 38850 40027 52006 80001 91140 333 10380 20200 30017 56009 58000 70000 81075;
0166763820999992000051214434+25530-103450FM-15+1124MMTC V0203601N002612200019N0080461N1+02901+00601999999ADDGD12991+0690099GF104991999999999999999999MA1101691999999MW1051REMMET057MMTC 121543Z 36005KT 5SM HZ SCT230 29/06 A3003 RMK 00290;EQDQ01+000003PRSWM1Q02    003PRSWM1
0138763820999992000052216404+25530-103450FM-15+1124MMTC V0201201N003112200019N0096561N1+02601+01601100781ADDGF100991999999999999999999MA1101861999999MW1001REMMET060MMTC 221740Z 12006KT 6SM SKC 26/16 A3008 RMK SLP078 900 HZY;EQDQ01+000000PRSWM2
0177763820999992000052520454+25530-103450FM-15+1124MMTC V0203601N004110690019N0096561N1+03701+01101999999ADDGD12991+0330099GD23991+0690099GF107991999999999999999999MA1100911999999MW1001REMMET069MMTC 252045Z 36008KT 6SM SCT110 BKN230 37/11 A2980 RMK 07860 030 964;EQDQ01+000000PRSWM2
0188763820999992000053018444+25530-103450FM-15+1124MMTC V0201001N003112200019N0096561N1+03001+01801999999ADDGA1999+010509029GD12991+0105099GD22991+0270099GF104991999999999999999999MA1101491999999MW1001REMMET064MMTC 301944Z 10006KT 6SM SCT035TCU SCT090 30/18 A2997 RMK 27099;EQDQ01+000000PRSWM2
0213763820999992000060114404+25530-103450FM-15+1124MMTC V0201501N003110090019N0064371N1+02101+01801999999ADDGD13991+0090099GD24991+0240099GF108991999999999999999999MA1101931999999MW1051MW2101REMMET083MMTC 011540Z 15006KT 4SM BRHZ BKN030 OVC080 21/18 A3010 RMK 53/99 -RAB25 BINOVC/SW;EQDQ01+000003PRSWM1Q02    003PRSWM1
0199763820999992000061011404+25530-103450FM-15+1124MMTC V0201201N006212200019N0096561N1+02301+01601999999ADDGD12991+0105099GD22991+0270099GF104991999999999999999999MA1101491999999MD1310992+9999MW1001REMMET061MMTC 101240Z 12012KT 6SM SCT035 SCT090 23/16 A2997 RMK 53099;EQDQ01+000992APC3  Q02+000000PRSWM2
0196763820999992000061519434+25520-103440FM-15+1124MMTC V0209999C000010690019N0096561N1+03401+01601999999ADDGA1999+010509029GD12991+0105099GD23991+0690099GF107991999999999999999999MA1101151999999MW1001REMMET072MMTC 152043Z 00000KT 6SM SCT035TCU BKN230 34/16 A2987 RMK 20899 076 960;EQDQ01+000000PRSWM2
0175763820999992000061719494+25520-103440FM-15+1124MMTC V0209999C000012200019N0096561N1+03301+01401999999ADDGA1999+010509029GD12991+0105099GF104991999999999999999999MA1101121999999MW1001REMMET066MMTC 171949Z 00000KT 6SM SCT035TCU 33/14 A2986 RMK 20009 CBS ALQS;EQDQ01+000000PRSWM2
0235763820999992000062015004+25520-103440FM-12+1124MMTC V0201301N001012200019N0300001N1+02681+01801100801ADDAA199000091GA1021+018009079GF102991021999022501031001IA1019MA1999999089021MD1210181-0081REMSYN100AAXX  20151 76382 32880 21301 10268 20180 38902 40080 52018 82030 91435 333 30/// 56050 59008 82356;EQDQ01+000002SCOLCGQ02  00002PRCP99
0158763820999992000062116404+25520-103440FM-15+1124MMTC V0201501N004110150019N0096561N1+02901+01601100671ADDGD13991+0150099GF107991999999999999999999MA1101861999999MW1001REMMET065MMTC 211740Z 15008KT 6SM BKN050 29/16 A3008 RMK 80009 SLP067 900;EQDQ01+000000PRSWM2
0218763820999992000062320454+25520-103440FM-15+1124MMTC V0209999C000010360019N0096561N1+03101+01801999999ADDGA1999+012009029GD12991+0120099GD23991+0360099GD33991+0690099GF107991999999999999999999MA1101761999999MW1001REMMET079MMTC 232045Z 00000KT 6SM SCT040TCU BKN120 BKN230 31/18 A3005 RMK 27299 130 923;EQDQ01+000000PRSWM2
0147763820999992000063011404+25520-103440FM-15+1124MMTC V0209999C000012200019N0096561N1+02201+01401999999ADDGD12991+0240099GF104991999999999999999999MA1101831999999MW1001REMMET054MMTC 301240Z 00000KT 6SM SCT080 22/14 A3007 RMK 07090;EQDQ01+000000PRSWM2
0270763820999992000070706004+25520-103440FM-12+1124MMTC V0201801N002010360019N0100001N1+02581+01531100681ADDAA106001091AY191061AY251061GF107991021031004501031001GJ104809IA1019KA1240M+03441KA2240N+02151MA1999999088861MD1210251+0131MW1021REMSYN130AAXX  07061 76382 11460 71802 10258 20153 38886 40068 52025 69991 70295 82330 90530 333 10344 20215 30/// 55080 56220 58013 82910;
0158763820999992000073010404+25520-103440FM-15+1124MMTC V0201601N002612200019N0096561N1+02301+01001100421ADDGD12991+0300099GF104991999999999999999999MA1101521999999MW1001REMMET065MMTC 301140Z 16005KT 6SM SCT100 23/10 A2998 RMK 07090 SLP042 971;EQDQ01+000000PRSWM2
0225763820999992000080803004+25520-103440FM-12+1124MMTC V0209999C000012200019N0100001N1+02851+02051100531ADDAA199000091GA1031+003009099GF104991031031004501001031IA1019MA1999999088731MD1210091+0091REMSYN106AAXX  08031 76382 32460 40000 10285 20205 38873 40053 52009 83303 90230 333 30/// 56303 58009 83910 81075;EQDQ01  00002PRCP99
0275763820999992000081012004+25520-103440FM-12+1124MMTC V0201101N002012200019N0100001N1+02221+01741101001ADDAA124999929GA1031+075009019GF199999001001999999001011IA1019IA2999+02009KA1999M+03501KA2120N+02201MA1999999089141MD1210101+0231REMSYN118AAXX  10121 76382 32960 21102 10222 20174 38914 40100 52010 80001 91140 333 10350 20220 30020 56003 58023 79999 83075;EQDQ01+000022SCOTCV
0220763820999992000081018004+25520-103440FM-12+1124MMTC V0201101N002012200019N0300001N1+03101+01501101061ADDAA199000021GA1001+999999999GF100991001001999999001001IA1019KA1120M+03121KA2240N+02151MA1999999089201MD1710081+0121REMSYN094AAXX  10181 76382 32980 01102 10310 20150 38920 40106 57008 91750 333 10312 20215 30/// 58012;
0180763820999992000081216404+25520-103440FM-15+1124MMTC V0209999C000012200019N0096561N1+02901+01401100711ADDGD12991+0120099GD22991+0300099GF104991999999999999999999MA1101931999999MW1001REMMET072MMTC 121740Z 00000KT 6SM SCT040 SCT100 29/14 A3010 RMK 17099 SLP071 963;EQDQ01+000000PRSWM2
0169763820999992000082412434+25520-103440FM-15+1124MMTC V0201401N003112200019N0096561N1+02401+01201999999ADDGD12991+0300099GD22991+0690099GF104991999999999999999999MA1102341999999MW1001REMMET061MMTC 241243Z 14006KT 6SM SCT100 SCT230 24/12 A3022 RMK 03290;EQDQ01+000000PRSWM2
0205763820999992000090723404+25520-103440FM-15+1124MMTC V0200701N008212200019N0080461N1+03501+00901999999ADDGD12991+0135099GF102991999999999999999999KA1999M+99999MA1101151999999MW1071REMMET067MMTC 072340Z 07016KT 5SM BLDU FEW045 35/09 A2987 RMK 10009 009 971;EQDQ01+000003PRSWM1Q02    003PRSWM1Q03 +00092ATMX  
0166763820999992000092016404+25520-103440FM-15+1124MMTC V0209999C000012200019N0096561N1+02701+01201999999ADDGD12991+0600099GF104991999999999999999999MA1101521999999MW1051REMMET057MMTC 201640Z 00000KT 6SM HZ SCT200 27/12 A2998 RMK 00290;EQDQ01+000003PRSWM1Q02    003PRSWM1
0201763820999992000092415004+25520-103440FM-12+1124MMTC V0209999C000012200019N0300001N1+02271+01671100541ADDAA199000091GA1001+999999999GF100991001001999999001001IA1019MA1999999088741MD1210141-0041REMSYN082AAXX  24151 76382 32980 00000 10227 20167 38874 40054 52014 91451 333 30/// 59004;EQDQ01  00002PRCP99
0128763820999992000092721434+25520-103440FM-15+1124MMTC V0200401N003112200019N0096561N1+02801+01201999999ADDGF100991999999999999999999MA1102071999999MW1001REMMET050MMTC 272143Z 04006KT 6SM SKC 28/12 A3014 RMK CU W;EQDQ01+000000PRSWM2
0134763820999992000092817404+25520-103440FM-15+1124MMTC V0200901N002612200019N0096561N1+02401+01001101341ADDGF100991999999999999999999MA1102371999999MW1001REMMET056MMTC 281740Z 09005KT 6SM SKC 24/10 A3023 RMK SLP134 904;EQDQ01+000000PRSWM2
0123763820999992000092923404+25520-103440FM-15+1124MMTC V0209999C000012200019N0096561N1+02601+00801999999ADDGF100991999999999999999999MA1101831999999MW1001REMMET045MMTC 292340Z 00000KT 6SM SKC 26/08 A3007 RMK;EQDQ01+000000PRSWM2
0127763820999992000093016434+25520-103440FM-15+1124MMTC V0209999C000012200019N0096561N1+02201+00701999999ADDGF100991999999999999999999MA1102101999999MW1001REMMET049MMTC 301643Z 00000KT 6SM SKC 22/07 A3015 RMK HZY;EQDQ01+000000PRSWM2
0138763820999992000093023434+25520-103440FM-15+1124MMTC V0209999C000012200019N0096561N1+02701+00801100831ADDGF100991999999999999999999MA1101591999999MW1001REMMET060MMTC 302343Z 00000KT 6SM SKC 27/08 A3000 RMK SLP083 970 000;EQDQ01+000000PRSWM2
0147763820999992000101612404+25520-103440FM-15+1124MMTC V0202401N002612200019N0080461N1+01801+01401999999ADDGF100991999999999999999999MA1102131999999MW1051REMMET053MMTC 161240Z 24005KT 5SM HZ SKC 18/14 A3016 RMK AC-N;EQDQ01+000003PRSWM1Q02    003PRSWM1
0219763820999992000101621004+25520-103440FM-12+1124MMTC V0200801N001012200019N0300001N1+02941+01511100681ADDAA199000091GA1021+004209029GF102991021021004501001001IA1099MA1999999088861MD1710311+0141REMSYN100AAXX  16211 76382 32480 20801 10294 20151 38886 40068 57031 82200 92100 333 31/// 56000 58014 82814;EQDQ01  00002PRCP99
0219763820999992000101721004+25520-103440FM-12+1124MMTC V0201401N002012200019N0300001N1+02761+01761100991ADDAA199000091GA1031+004209029GF103991031011004501001001IA1019MA1999999089061MD1710311+0201REMSYN100AAXX  17211 76382 32480 31402 10276 20176 38906 40099 57031 83100 92100 333 30/// 56600 58020 83814;EQDQ01  00002PRCP99
0186763820999992000101821434+25520-103440FM-15+1124MMTC V0201201N003112200019N0096561N1+02701+01401999999ADDGD12991+0105099GD22991+0690099GF104991999999999999999999KA1999M+02991MA1102001999999MW1001REMMET065MMTC 182143Z 12006KT 6SM SCT035 SCT230 27/14 A3012 RMK 10299 HZY;EQDQ01+000000PRSWM2
0239763820999992000102418004+25520-103440FM-12+1124MMTC V0201101N002012200019N0300001N1+02621+01551101531ADDAA199000091GA1001+999999999GF100991001001999999001001IA1019KA1120M+02651KA2240N+01601MA1999999089491MD1710071+0271REMSYN094AAXX  24181 76382 32980 01102 10262 20155 38949 40153 57007 91750 333 10265 20160 30/// 58027;EQDQ01  00002PRCP99
0158763820999992000102617454+25520-103440FM-15+1124MMTC V0201201N002612200019N0096561N1+02501+01101101011ADDGD12991+0600099GF104991999999999999999999MA1101591999999MW1001REMMET065MMTC 261745Z 12005KT 6SM SCT200 25/11 A3000 RMK 00890 SLP101 907;EQDQ01+000000PRSWM2
0147763820999992000103000464+25520-103440FM-15+1124MMTC V0209999C000012200019N0096561N1+02501+00801999999ADDGD12991+0690099GF102991999999999999999999MA1101631999999MW1001REMMET054MMTC 300046Z 00000KT 6SM FEW230 25/08 A3001 RMK 00250;EQDQ01+000000PRSWM2
0262763820999992000110812004+25520-103440FM-12+1124MMTC V0202901N00401036001CN0100001N1+01201+00511100591ADDAA124000091GA1041+003909069GF107991041041004501031001IA1019IA2999+01109KA1999M+03161KA2120N+01201MA1999999088111MD1210181+0211REMSYN124AAXX  08121 76382 32460 72904 10120 20051 38811 40059 52018 84430 91140 333 10316 20120 30011 56770 58021 70000 84613 83356;
0169763820999992000110819404+25520-103440FM-15+1124MMTC V0203601N010310075019N0096561N1+00901+00501999999ADDGD13991+0075099GD24991+0090099GF108991999999999999999999MA1101351999999MW1001REMMET061MMTC 081940Z 36020KT 6SM BKN025 OVC030 09/05 A2993 RMK 5///9;EQDQ01+000000PRSWM2
0142763820999992000111418404+25520-103440FM-15+1124MMTC V0209999C000012200019N0096561N1+01901+00701999999ADDGF100991999999999999999999MA1101931999999MW1051REMMET048MMTC 141840Z 00000KT 6SM HZ SKC 19/07 A3010 RMK;EQDQ01+000003PRSWM1Q02    003PRSWM1
0225763820999992000111721004+25520-103440FM-12+1124MMTC V0209999C00001036001CN0300001N1+02441+01491100541ADDAA199000091GA1041+006009069GF108991041051004501071001IA1019MA1999999088551MD1710221+0151REMSYN106AAXX  17211 76382 32480 80000 10244 20149 38855 40054 57022 84570 92100 333 30/// 56550 58015 84620 84356;EQDQ01  00002PRCP99
0155763820999992000112802404+25520-103440FM-15+1124MMTC V0209999C000010360019N0096561N1+01401+00301999999ADDGD13991+0360099GF107991999999999999999999MA1101961999999MW1001REMMET062MMTC 280240Z 00000KT 6SM BKN120 14/03 A3011 RMK 03090 211 967;EQDQ01+000000PRSWM2
0163763820999992000112815404+25520-103440FM-15+1124MMTC V0209999C000012200019N0064371N1+01501+00101999999ADDGF100991999999999999999999MA1102201999999MW1051REMMET069MMTC 281540Z 00000KT 4SM HZ SKC 15/01 A3018 RMK FU CAB12/30 VIS 3 MI;EQDQ01+000003PRSWM1Q02    003PRSWM1
0257763820999992000120112004+25520-103440FM-12+1124MMTC V0209999C000012200019N0050001N1+01141+00981101741ADDAA124000091GA1001+999999999GF100991001001999999001001IA1019IA2999+00909KA1999M+02701KA2120N+01101MA1999999089091MD1210031-0241REMSYN100AAXX  01121 76382 32950 00000 10114 20098 38909 40174 52003 91147 333 10270 20110 30009 59024 70000;EQDQ01  00002PRCP24
0256763820999992000120222434+25520-103440FM-15+1124MMTC V0200901N003110690019N0080461N1+02001+01101999999ADDGD12991+0105099GD22991+0270099GD33991+0690099GF107991999999999999999999MA1102101999999MD1710141+9999MW1051REMMET071MMTC 022243Z 09006KT 5SM HZ SCT035 SCT090 BKN230 20/11 A3015 RMK 53899;EQDQ01+000037APCTENQ02+008997APC3  Q03+000003PRSWM1Q04    003PRSWM1
0235763820999992000120609004+25520-103440FM-12+1124MMTC V0209999C000012200019N0100001N1+00971+00751101911ADDAA199000091GA1031+060009089GF103991999001999999001081IA1019MA1999999089171MD1710011-0441REMSYN100AAXX  06091 76382 32960 30000 10097 20075 38917 40191 57001 80008 90840 333 30/// 56005 59044 83270;EQDQ01+000002SCOTLCQ02  00002PRCP99
0249763820999992000121106004+25520-103440FM-12+1124MMTC V0201001N001012200019N0100001N1+01341+00771101441ADDAA199000091GF101991001001999999001041GJ105409IA1019KA1240M+02781KA2240N+00811MA1999999088761MD1710011+9999REMSYN112AAXX  11061 76382 32960 11001 10134 20077 38876 40144 57001 80004 90545 333 10278 20081 30/// 55090 56005 59013;EQDQ01  00002PRCP99
0239763820999992000121118004+25520-103440FM-12+1124MMTC V0209999C000012200019N0250001N1+02261+01061101731ADDAA199000091GA1001+999999999GF100991001001999999001001IA1019KA1120M+02301KA2240N+00951MA1999999089021MD1410001-0031REMSYN094AAXX  11181 76382 32975 00000 10226 20106 38902 40173 54000 91740 333 10230 20095 30/// 59003;EQDQ01  00002PRCP99
0219763820999992000121915004+25520-103440FM-12+1124MMTC V0202701N001012200019N0300001N1+00641-00331103281ADDAA199000091GA1011+060009019GF101991001001999999001041IA1019MA1999999090231MD1210131+0801REMSYN100AAXX  19151 76382 32980 12701 10064 21033 39023 40328 52013 80004 91450 333 30/// 56005 58080 81070;EQDQ01  00002PRCP99
0147763820999992000123116404+25520-103440FM-15+1124MMTC V0209999C000012200019N0096561N1+01101+00101999999ADDGD12991+0600099GF104991999999999999999999MA1102071999999MW1001REMMET054MMTC 311640Z 00000KT 6SM SCT200 11/01 A3014 RMK 00890;EQDQ01+000000PRSWM2
0147763900999992000010301454+25450-100980FM-15+1790MMIO V0203301N003112200019N0096561N1+02201+00901999999ADDGD12991+0600099GF104991999999999999999999MA1101591999999MW1001REMMET054MMIO 030145Z 33006KT 6SM SCT200 22/09 A3000 RMK 00490;EQDQ01+000000PRSWM2
0213763900999992000010321004+25450-100980FM-12+1790MMIO V0200301N002012200019N0200001N1+02321+99999100741ADDAA106000091GF101991001001999999001091IA1019MA1999999081971MD1710221-0061REMSYN094AAXX  03211 76390 32970 10302 10232 21111 38197 40074 57022 80009 92042 333 30/// 56008 59006;EQDQ01-001113ATOD  Q02  00002PRCP06
0123763900999992000010914404+25450-100980FM-15+1790MMIO V0201601N002612200019N0096561N1+01601+00501999999ADDGF100991999999999999999999MA1102031999999MW1001REMMET045MMIO 091540Z 16005KT 6SM SKC 16/05 A3013 RMK;EQDQ01+000000PRSWM2
0123763900999992000011120404+25450-100980FM-15+1790MMIO V0203401N002612200019N0096561N1+02401+00501999999ADDGF100991999999999999999999MA1101931999999MW1001REMMET045MMIO 112140Z 34005KT 6SM SKC 24/05 A3010 RMK;EQDQ01+000000PRSWM2
0084763900999992000011320404+25450-100980FM-16+1790MMIO V02099999999992200019N0096561N1+99999+99999999999ADDMW1001REMMET047MMIO 132140Z 36010T 5SM HZ SKC 22/08 A3034 RMK;EQDQ01+000000PRSWM2
0150763900999992000012819404+25450-100980FM-15+1790MMIO V0203301N003112200019N0080461N1+01501+00901999999ADDGF100991999999999999999999MA1101931999999MW1051MW2101REMMET050MMIO 282040Z 33006KT 5SM HZBR SKC 15/09 A3010 RMK;EQDQ01+000003PRSWM1Q02    003PRSWM1
0281763900999992000020406004+25450-100980FM-12+1790MMIO V0202101N003012200019N0050001N1+00301-00111102381ADDAA199000091AY141061AY241061GA1001+999999999GF100991001001999999001001GJ105709IA1019KA1240M+01401KA2240N+00201MA1999999082701MD1210011-0141MW1051REMSYN106AAXX  04061 76390 31950 02103 10030 21011 38270 40238 52001 70544 90546 333 10140 20020 30/// 55095 59014;EQDQ01  00002PRCP99
0147763900999992000021017404+25450-100980FM-15+1790MMIO V0203001N003112200019N0096561N1+02701+00501999999ADDGD12991+0600099GF104991999999999999999999MA1101961999999MW1001REMMET054MMIO 101840Z 30006KT 6SM SCT200 27/05 A3011 RMK 00890;EQDQ01+000000PRSWM2
0147763900999992000021216404+25450-100980FM-15+1790MMIO V0209999C000012200019N0096561N1+02501+00701999999ADDGD12991+0600099GF104991999999999999999999MA1102001999999MW1001REMMET054MMIO 121740Z 00000KT 6SM SCT200 25/07 A3012 RMK 00490;EQDQ01+000000PRSWM2
0251763900999992000021400004+25450-100980FM-12+1790MMIO V0203101N003012200019N0200001N1+02341-00131100551ADDAA124000091GA1001+999999999GF100991001001999999001001IA1019KA1120M+02541KA2180N+01301MA1999999081951MD1710061+0131REMSYN106AAXX  14001 76390 32970 03103 10234 21013 38195 40055 57006 92345 333 10254 20130 30/// 50610 58013 70000;EQDQ01  00002PRCP24
0291763900999992000021500004+25450-100980FM-12+1790MMIO V0200501N005012200019N0150001N1+02341+00002100841ADDAA199000091AY141061AY241061GF102991001001999999001081IA1019KA1120M+02821KA2180N+00881MA1999999082121MD1710061+0171MW1051REMSYN124AAXX  15001 76390 31965 20505 10234 20000 38212 40084 57006 70544 80008 92340 333 10282 20088 30/// 50690 56003 58017 70000;EQDQ01+000003ATOD  Q02  00002PRCP99
0247763900999992000021603004+25450-100980FM-12+1790MMIO V0201801N002012200019N0050001N1+01621+00821100951ADDAA199000091AY141031AY241031GA1041+060009019GF104991001001999999001061IA1019MA1999999082411MD1210181+0111MW1051REMSYN106AAXX  16031 76390 31950 41802 10162 20082 38241 40095 52018 70544 80006 90240 333 30/// 56005 58011 84070;EQDQ01  00002PRCP99
0291763900999992000022018004+25450-100980FM-12+1790MMIO V0200401N00501220001CN0040001N1+01361+00861102231ADDAA199000091AY141061AY241061GA1021+003609079GF106991021061004501001061IA1019KA1120M+01501KA2240N+00701MA1999999082911MD1710031+0071MW1421REMSYN124AAXX  20181 76390 31440 60405 10136 20086 38291 40223 57003 74244 82606 91740 333 10150 20070 30/// 56806 58007 82712 84170;EQDQ01  00002PRCP99
0171763900999992000022101404+25450-100980FM-15+1790MMIO V0203301N002110015019N0024141N1+01001+01001999999ADDGD14991+0015099GF108991999999999999999999MA1102611999999MW1441REMMET062MMIO 210240Z 33004KT 1 1/2SM FG OVC0050 10/10 A3030 RMK 70009;EQDQ01+000003PRSWM1Q02    003PRSWM1
0201763900999992000032520404+25450-100980FM-15+1790MMIO V0203301N003110600019N0096561N1+02701+01501999999ADDGD12991+0120099GD23991+0600099GF107991999999999999999999KA1999M+99999MA1101591999999MW1051REMMET064MMIO 252140Z 33006KT 6SM HZ SCT040 BKN200 27/15 A3000 RMK 10899;EQDQ01+000003PRSWM1Q02    003PRSWM1
0225763900999992000032615004+25450-100980FM-12+1790MMIO V0201801N003012200019N0100001N1+01971+01071101131ADDAA199000091AY141031AY241031GF101991001001999999001061IA1019MA1999999082491MD1210061+0071MW1051REMSYN100AAXX  26151 76390 31960 11803 10197 20107 38249 40113 52006 70544 80006 91445 333 30/// 56007 58007;EQDQ01  00002PRCP99
0147763900999992000032913404+25450-100980FM-15+1790MMIO V0201701N002612200019N0096561N1+02101+00401999999ADDGD12991+0750099GF104991999999999999999999MA1101351999999MW1001REMMET054MMIO 291440Z 17005KT 6SM SCT250 21/04 A2993 RMK 00290;EQDQ01+000000PRSWM2
0151763900999992000033101404+25450-100980FM-15+1790MMIO V0203601N005110660019N0096561N1+02101+00501999999ADDGD13991+0660099GF107991999999999999999999MA1101391999999MW1001REMMET058MMIO 310240Z 36010KT 6SM BKN220 21/05 A2994 RMK 00890 HZY;EQDQ01+000000PRSWM2
0176763900999992000040617454+25450-100980FM-15+1790MMIO V0202001N003112200019N0096561N1+02701+01101999999ADDGD12991+0150099GF102991999999999999999999KA1999M+99999MA1101731999999MW1001REMMET054MMIO 061745Z 20006KT 6SM FEW050 27/11 A3004 RMK 10009;EQDQ01+000000PRSWM2Q02 +00092ATMX  
0142763900999992000040822404+25450-100980FM-15+1790MMIO V0203601N005112200019N0096561N1+01401+00801999999ADDGF100991999999999999999999MA1102471999999MW1051REMMET048MMIO 082340Z 36010KT 6SM HZ SKC 14/08 A3026 RMK;EQDQ01+000003PRSWM1Q02    003PRSWM1
0319763900999992000051100004+25450-100980FM-12+1790MMIO V0200601N005010360019N0060001N1+02961+01651099951ADDAA124000091AY141061AY241061GA1021+007509069GF106991021041008001071051IA1019KA1120M+03301KA2180N+01661MA1999999081931MD1710101+0091MW1011REMSYN136AAXX  11001 76390 31556 60605 10296 20165 38193 49995 57010 70144 82475 92335 333 10330 20166 30/// 50930 56358 58009 70000 82625 81930;EQDQ01  00002PRCP99Q02  00003PRCP99
0123763900999992000051811404+25450-100980FM-15+1790MMIO V0201701N004112200019N0096561N1+02301+01101999999ADDGF100991999999999999999999MA1101461999999MW1001REMMET045MMIO 181240Z 17008KT 6SM SKC 23/11 A2996 RMK;EQDQ01+000000PRSWM2
0127763900999992000052913404+25450-100980FM-15+1790MMIO V0209999C000012200019N0096561N1+02201+01701999999ADDGF100991999999999999999999MA1101861999999MW1001REMMET049MMIO 291440Z 00000KT 6SM SKC 22/17 A3008 RMK HZY;EQDQ01+000000PRSWM2
0173763900999992000061413454+25450-100970FM-15+1790MMIO V0201601N005110300019N0096561N1+02201+01601999999ADDGD13991+0300099GD23991+0750099GF107991999999999999999999MA1101661999999MW1001REMMET065MMIO 141345Z 16010KT 6SM BKN100 BKN250 22/16 A3002 RMK 07490 HZY;EQDQ01+000000PRSWM2
0301763900999992000061718004+25450-100970FM-12+1790MMIO V0200501N002010090019N0180001N1+02621+99999100341ADDAA199000091AY141061AY241061GA1051+009009059GF106991051041008001001081IA1019KA1120M+02671KA2240N+01621MA1999999082051MD1210021+0251MW1051REMSYN118AAXX  17181 76390 31568 60502 10262 20093 38205 40034 52002 70544 85408 91740 333 10267 20162 30/// 56407 58025 85630;EQDQ01+000933ATOD  Q02  00002PRCP99
0176763900999992000070217454+25450-100970FM-15+1790MMIO V0209999C000012200019N0096561N1+02901+01501999999ADDGD12991+0090099GF104991999999999999999999KA1999M+99999MA1101861999999MW1001REMMET054MMIO 021745Z 00000KT 6SM SCT030 29/15 A3008 RMK 10009;EQDQ01+000000PRSWM2Q02 +00092ATMX  
0127763900999992000070913454+25450-100970FM-15+1790MMIO V0209999C000012200019N0096561N1+02001+01601999999ADDGF100991999999999999999999MA1102001999999MW1001REMMET049MMIO 091345Z 00000KT 6SM SKC 20/16 A3012 RMK HZY;EQDQ01+000000PRSWM2
0225763900999992000071303004+25450-100970FM-12+1790MMIO V0201601N003012200019N0050001N1+02261+01241100721ADDAA199000091AY141031AY241031GF101991001001999999001061IA1019MA1999999082421MD1210051+0001MW1051REMSYN100AAXX  13031 76390 31950 11603 10226 20124 38242 40072 52005 70544 80006 90243 333 30/// 56005 58000;EQDQ01  00002PRCP99
0128763900999992000071316404+25450-100970FM-15+1790MMIO V0203501N003112200019N0096561N1+02901+01201999999ADDGF100991999999999999999999MA1102271999999MW1001REMMET050MMIO 131740Z 35006KT 6SM SKC 29/12 A3020 RMK CU E;EQDQ01+000000PRSWM2
0253763900999992000072421004+25450-100970FM-12+1790MMIO V0201101N004019999999N0120001N1+02181+01671100931ADDAA199000091AY141031AY241031GA1021+007509079GF106991021051008001001001IA1019MA1999999082461MD1710151-0151MW1051REMSYN112AAXX  24211 76390 31562 61104 10218 20167 38246 40093 57015 70544 82500 92040 333 30/// 56300 59015 82725 84630;EQDQ01  00002PRCP99
0151763900999992000072621464+25450-100970FM-15+1790MMIO V0203301N005112200019N0096561N1+03001+01501999999ADDGD12991+0120099GF102991999999999999999999MA1101801999999MW1001REMMET058MMIO 262146Z 33010KT 6SM FEW040 30/15 A3006 RMK 20009 HZY;EQDQ01+000000PRSWM2
0143763900999992000073014404+25450-100970FM-15+1790MMIO V0209999C000010600019N0096561N1+02401+01301999999ADDGD13991+0600099GF107991999999999999999999MA1101801999999MW1001REMMET050MMIO 301540Z 00000KT 6SM BKN200 24/13 A3006 00890;EQDQ01+000000PRSWM2
0285763900999992000080712004+25450-100970FM-12+1790MMIO V0201801N004012200019N0050001N1+01881+01141100701ADDAA124000091AY141061AY241061GA1001+999999999GF100991001001999999001001IA1019IA2999+01709KA1999M+02901KA2120N+01881MA1999999082341MD1710041-0061MW1051REMSYN106AAXX  07121 76390 31950 01804 10188 20114 38234 40070 57004 70544 91140 333 10290 20188 30017 59006 70000;EQDQ01  00002PRCP24
0123763900999992000081114404+25450-100970FM-15+1790MMIO V0209999C000012200019N0096561N1+02101+01201999999ADDGF100991999999999999999999MA1102201999999MW1001REMMET045MMIO 111540Z 00000KT 6SM SKC 21/12 A3018 RMK;EQDQ01+000000PRSWM2
0263763900999992000081415004+25450-100970FM-12+1790MMIO V0200301N001010600019N0070001N1+01841+00532101061ADDAA199000091AY141031AY241031GA1071+060009089GF107991999001999999001071IA1019MA1999999082431MD1210151+0041MW1051REMSYN106AAXX  14151 76390 31957 70301 10184 20053 38243 40106 52015 70544 80007 91442 333 30/// 56004 58004 87270;EQDQ01+000002SCOTLCQ02  00002PRCP99
0151763900999992000081614454+25450-100970FM-15+1790MMIO V0203401N002612200019N0096561N1+02001+01801999999ADDGD12991+0360099GF104991999999999999999999MA1102441999999MW1001REMMET058MMIO 161445Z 34005KT 6SM SCT120 20/18 A3025 RMK 05090 HZY;EQDQ01+000000PRSWM2
0279763900999992000082009004+25450-100970FM-12+1790MMIO V0202101N001012200019N0050001N1+01521+99999101121ADDAA124000091AY141031AY241031GA1001+999999999GF100991001001999999001001IA1019IA2999+01309KA1999M+02701KA2999N+01481MA1999999082551MD1710011-0051MW1051REMSYN100AAXX  20091 76390 31950 02101 10152 38255 40112 57001 70544 91140 333 10270 20148 30013 59005 70000;EQDQ01  00002PRCP24
0225763900999992000082509004+25450-100970FM-12+1790MMIO V0202101N002012200019N0050001N1+01541+01331101271ADDAA199000091AY141031AY241031GF102991001001999999001091IA1019MA1999999082671MD1710091-0021MW1051REMSYN100AAXX  25091 76390 31950 22102 10154 20133 38267 40127 57009 70544 80009 90840 333 30/// 56008 59002;EQDQ01  00002PRCP99
0279763900999992000082600004+25450-100970FM-12+1790MMIO V0201501N004010075019N0080001N1+02321+01271101001ADDAA103000291AA206000391AY161061AY241061GF107991051051008001041999IA1019KA1120M+02731KA2180N+01421MA1999999082451MD1710171-0191MW1051REMSYN136AAXX  26001 76390 /1558 71504 10232 20127 38245 40100 57017 69931 70564 8554/ 92347 333 10273 20142 30/// 50330 5648/ 59019 69927 70005;
0123763900999992000082612454+25450-100970FM-15+1790MMIO V0209999C000012200019N0096561N1+01601+01301999999ADDGF100991999999999999999999MA1101861999999MW1001REMMET045MMIO 261245Z 00000KT 6SM SKC 16/13 A3008 RMK;EQDQ01+000000PRSWM2
0147763900999992000090121404+25450-100970FM-15+1790MMIO V0200101N004112200019N0096561N1+03001+01801999999ADDGD12991+0120099GF104991999999999999999999MA1101661999999MW1001REMMET054MMIO 012140Z 01008KT 6SM SCT040 30/18 A3002 RMK 20009;EQDQ01+000000PRSWM2
0128763900999992000091916454+25450-100970FM-15+1790MMIO V0203001N003112200019N0096561N1+02501+01601999999ADDGF100991999999999999999999MA1101521999999MW1001REMMET050MMIO 191645Z 30006KT 6SM SKC 25/16 A2998 RMK CI-E;EQDQ01+000000PRSWM2
0123763900999992000091919404+25450-100970FM-15+1790MMIO V0203301N005112200019N0096561N1+02601+01501999999ADDGF100991999999999999999999MA1101291999999MW1001REMMET045MMIO 191940Z 33010KT 6SM SKC 26/15 A2991 RMK;EQDQ01+000000PRSWM2
0229763900999992000093015004+25450-100970FM-12+1790MMIO V0209999C000012200019N0100001N1+01501+00061101481ADDAA199000091AY141031AY241031GA1001+999999999GF100991001001999999001001IA1019MA1999999082441MD1210171-0121MW1051REMSYN088AAXX  30151 76390 31960 00000 10150 20006 38244 40148 52017 70544 91435 333 30/// 59012;EQDQ01  00002PRCP99
0123763900999992000100311504+25450-100970FM-15+1790MMIO V0201701N002612200019N0096561N1+01501+01001999999ADDGF100991999999999999999999MA1101591999999MW1001REMMET045MMIO 031150Z 17005KT 6SM SKC 15/10 A3000 RMK;EQDQ01+000000PRSWM2
0188763900999992000100818454+25450-100970FM-15+1790MMIO V0203301N004110012019N0048281N1+00401+00401999999ADDGD12991+0006099GD24991+0012099GF108991999999999999999999MA1102881999999MW1101REMMET064MMIO 081845Z 33008KT 3SM BR SCT002 OVC004 04/04 A3038 RMK 7///9;EQDQ01+000003PRSWM1Q02    003PRSWM1
0168763900999992000101212454+25450-100970FM-15+1790MMIO V0209999C000010003019N0004021N1+01101+01101999999ADDGD14991+0003099GF108991999999999999999999MA1102131999999MW1441REMMET059MMIO 121245Z 00000KT 1/4SM FG OVC001 11/11 A3016 RMK 7///9;EQDQ01+000003PRSWM1Q02    003PRSWM1
0196763900999992000101514454+25450-100970FM-15+1790MMIO V0209999C000010090019N0048281N1+01701+01501999999ADDGD12991+0030099GD23991+0090099GF107991999999999999999999MA1101931999999MW1051MW2101REMMET066MMIO 151445Z 00000KT 3SM BRHZ SCT010 BKN030 17/15 A3010 RMK 60009;EQDQ01+000003PRSWM1Q02    003PRSWM1
0297763900999992000101900004+25450-100970FM-12+1790MMIO V0200601N003010042019N0030001N1+01541+01411101481ADDAA124000091AY141061AY241061GF108991081071004501999999IA1019KA1120M+01951KA2180N+01101MA1999999082571MD1710041+0071MW1401REMSYN130AAXX  19001 76390 31430 80603 10154 20141 38257 40148 57004 74044 887// 92340 333 10195 20110 30/// 50170 568// 58007 70000 88720;EQDQ01  00002PRCP99Q02  00003PRCP99
0307763900999992000102012004+25450-100970FM-12+1790MMIO V0209999C00001004201CN0050001N1+01321+01181101481ADDAA106010991AA224012591AY141061AY241061GA1021+006009079GF108991061051004501071999IA1019IA2999+01009KA1999M+02321KA2120N+01151MA1999999082571MD1210071+0051MW1211REMSYN136AAXX  20121 76390 11450 80000 10132 20118 38257 40148 52007 60111 72144 8657/ 91140 333 10232 20115 30010 5615/ 58005 70125 82720 84625;
0182763900999992000102217404+25450-100970FM-15+1790MMIO V0201201N004110600019N0096561N1+02101+01201999999ADDGD12991+0090099GD23991+0600099GF107991999999999999999999KA1999M+99999MA1101861999999MW1001REMMET061MMIO 221740Z 12008KT 6SM SCT030 BKN200 21/12 A3008 RMK 10899;EQDQ01+000000PRSWM2
0253763900999992000102421004+25450-100970FM-12+1790MMIO V0200601N006012200019N0060001N1+02021+01531101481ADDAA199000091AY141031AY241031GA1011+007509069GF104991021041008001001051IA1019MA1999999082641MD1710211+0121MW1051REMSYN112AAXX  24211 76390 31556 40606 10202 20153 38264 40148 57021 70544 82405 92040 333 30/// 56208 58012 81625 81830;EQDQ01  00002PRCP99
0291763900999992000102618004+25450-100970FM-12+1790MMIO V0202401N00401220001CN0070001N1+02321+01061100941ADDAA199000091AY141061AY241061GA1011+009009089GF105991011021008001001041IA1019KA1120M+02401KA2240N+01221MA1999999082201MD1710031-0221MW1051REMSYN124AAXX  26181 76390 31557 52404 10232 20106 38220 40094 57003 70544 81204 91745 333 10240 20122 30/// 56508 59022 81830 84070;EQDQ01  00002PRCP99
0247763900999992000110821004+25450-100970FM-12+1790MMIO V0200501N004012200019N0100001N1+01241+00691100081ADDAA199000091AY141031AY241031GA1041+009909059GF104991041051008001001001IA1019MA1999999081431MD1710051+0221MW1051REMSYN106AAXX  08211 76390 31560 40504 10124 20069 38143 40008 57005 70544 84500 92040 333 30/// 56500 58022 84633;EQDQ01  00002PRCP99
0281763900999992000111206004+25450-100970FM-12+1790MMIO V0202201N003012200019N0060001N1+01401-00161100701ADDAA199000091AY141061AY241061GA1001+999999999GF100991001001999999001001GJ106069IA1019KA1240M+02801KA2240N+00781MA1999999082001MD1710091-0021MW1051REMSYN106AAXX  12061 76390 31956 02203 10140 21016 38200 40070 57009 70544 90545 333 10280 20078 30/// 55101 59002;EQDQ01  00002PRCP99
0180763900999992000111421404+25450-100970FM-15+1790MMIO V0203601N002612200019N0096561N1+01301+00701999999ADDGD12991+0090099GF104991999999999999999999KA1999M+99999MA1101861999999MW1001REMMET058MMIO 142140Z 36005KT 6SM SCT030 13/07 A3008 RMK 10009 HZY;EQDQ01+000000PRSWM2Q02 +00092ATMX  
0263763900999992000111709004+25450-100970FM-12+1790MMIO V0209999C000010180019N0050001N1+01381+00891100701ADDAA199000091AY141031AY241031GA1051+018009079GF105991051999022501071999IA1019MA1999999082071MD1710051+0001MW1051REMSYN106AAXX  17091 76390 31850 50000 10138 20089 38207 40070 57005 70544 8507/ 90845 333 30/// 5605/ 58000 85356;EQDQ01+000002SCOLCGQ02  00002PRCP99
0309763900999992000111812004+25450-100970FM-12+1790MMIO V0202401N006012200019N0050001N1+01461+01061100951ADDAA124000091AY141061AY241061GF102991011041008001001051IA1019IA2999+00709KA1999M+01801KA2120N+00801MA1999999081941MD1710071-0191MW1011REMSYN130AAXX  18121 76390 31550 22406 10146 20106 38194 40095 57007 70144 81405 91145 333 10180 20080 30007 54305 56402 59019 70000 81630;EQDQ01  00002PRCP99Q02  00003PRCP99
0148763900999992000112321454+25450-100970FM-15+1790MMIO V0202401N004110600019N0096561N1+02601+01001999999ADDGD13991+0600099GF107991999999999999999999MA1101151999999MW1001REMMET055MMIO 232145Z 24008KT 6SM BKN200 26/10 A2987 RMK 00490 ;EQDQ01+000000PRSWM2
0207763900999992000113022454+25450-100970FM-15+1790MMIO V0200101N003110600019N0080461N1+01801+01301999999ADDGA1999+009009029GD12991+0090099GD23991+0600099GF107991999999999999999999MA1101861999999MW1051REMMET067MMIO 302245Z 01006KT 5SM HZ SCT030TCU BKN200 18/13 A3008 RMK 20899;EQDQ01+000003PRSWM1Q02    003PRSWM1
0123763900999992000120115404+25450-100970FM-15+1790MMIO V0201201N004112200019N0096561N1+01601+00701999999ADDGF100991999999999999999999MA1102001999999MW1001REMMET045MMIO 011540Z 12008KT 6SM SKC 16/07 A3012 RMK;EQDQ01+000000PRSWM2
0148763900999992000120416404+25450-100970FM-15+1790MMIO V0209999C000012200019N0096561N1+00701+00301999999ADDGF100991999999999999999999MA1102511999999MW1051REMMET054MMIO 041640Z 00000KT 6SM HZ SKC 07/03 A3027 RMK ST/NW;EQDQ01+000003PRSWM1Q02    003PRSWM1
0124763900999992000122302404+25450-100970FM-15+1790MMIO V0203301N002112200019N0096561N1+00501-00101999999ADDGF100991999999999999999999MA1102001999999MW1001REMMET046MMIO 230240Z 33004KT 6SM SKC 05/M01 A3012 RMK;EQDQ01+000000PRSWM2
0220763900999992000122514454+25450-100970FM-15+1790MMIO V0209999C000010600019N0080461N1+01101+00801999999ADDGD12991+0120099GD23991+0600099GF107991999999999999999999MA1101731999999MW1051REMMET064MMIO 251445Z 00000KT 5SM HZ FEW040 BKN200 11/08 A3004 RMK 50899;EQDQ01+000007APCTENQ02+008997APC3  Q03+000003PRSWM1Q04    003PRSWM1
0166763900999992000122702404+25450-100970FM-15+1790MMIO V0203301N003110012019N0016091N1+00901+00901999999ADDGD14991+0012099GF108991999999999999999999MA1101731999999MW1101REMMET057MMIO 270240Z 33006KT 1SM BR OVC004 09/09 A3004 RMK 6///9;EQDQ01+000003PRSWM1Q02    003PRSWM1
0148763900999992000122921454+25450-100970FM-15+1790MMIO V0203601N002612200019N0096561N1+01201-00201999999ADDGD12991+0600099GF104991999999999999999999MA1102071999999MW1001REMMET055MMIO 292145Z 36005KT 6SM SCT200 12/M02 A3014 RMK 00490;EQDQ01+000000PRSWM2
0111763900999992000123000454+25450-100970FM-15+1790MMIO V0203601N005112200019N0096561N1+00801+00201999999ADDGF100991999999999999999999MW1001REMMET048MMIO 300045Z 36010KT 6SM SKC 08/02 3016 RMK HZY;EQDQ01+000000PRSWM2
0287763930999992000010806004+25870-100200FM-12+051299999V0203501N002010012019N0040001N1+01341+01151101971ADDAA101999929AA206000791AY141061AY241061GF108991081051001501999999GJ100309IA1019KA1240M+02251KA2240N+01341MA1999999096101MD1210141-0011MW1501REMSYN136AAXX  08061 76393 /1240 83502 10134 20115 39610 40197 52014 69901 75044 885// 90555 333 10225 20134 30/// 55005 563// 59001 69905 88607;
0249763930999992000021106004+25870-100200FM-12+051299999V0202201N001012200019N0140001N1+02161+00741100951ADDAA199000091GF101991001001999999001011GJ105589IA1019KA1240M+03641KA2240N+01301MA1999999095341MD1110161+9999REMSYN112AAXX  11061 76393 32964 12201 10216 20074 39534 40095 51016 80001 90555 333 10364 20130 30/// 55093 56005 59017;EQDQ01  00002PRCP99
0281763930999992000021200004+25870-100200FM-12+051299999V0200501N002019999999N0100001N1+03141+00721100671ADDAA124000091GF105991001001999999001021IA1019IA2999-01109KA1120M+03681KA2180N+01661MA1999999094971MD1210121-0011REMSYN124AAXX  12001 76393 32960 50502 10314 20072 39497 40067 52012 80002 92350 333 10368 20166 30111 50580 56005 59001 70000 85080;EQDQ01  00002PRCP99Q02  00003PRCP99
0269763930999992000022900004+25870-100200FM-12+051299999V0201101N002012200019N0180001N1+02621+01561101211ADDAA124000091GF105991041051012501001041IA1019KA1120M+02851KA2180N+01181MA1999999095391MD1710141-0701REMSYN124AAXX  29001 76393 32668 51102 10262 20156 39539 40121 57014 84504 92355 333 10285 20118 30/// 50590 56305 59070 70000 84636;EQDQ01  00002PRCP99Q02  00003PRCP99
0219763930999992000030109004+25870-100200FM-12+051299999V0203501N001012200019N0100001N1+02161+01521101361ADDAA199000091GA1031+009009059GF103991031041008001001001IA1019MA1999999095631MD1710011+0231REMSYN100AAXX  01091 76393 32560 33501 10216 20152 39563 40136 57001 83400 90855 333 30/// 56300 58023 83630;EQDQ01  00002PRCP99
0285763930999992000030312004+25870-100200FM-12+051299999V0202401N001012200019N0060001N1+01761+01541100861ADDAA124000091AY141061AY241061GA1001+999999999GF100991001001999999001001IA1019IA2999+01409KA1999M+03271KA2120N+01501MA1999999095151MD1310051-0241MW1051REMSYN106AAXX  03121 76393 31956 02401 10176 20154 39515 40086 53005 70544 91155 333 10327 20150 30014 59024 70000;EQDQ01  00002PRCP24
0201763930999992000031615004+25870-100200FM-12+051299999V0203301N001012200019N0200001N1+02061+01461100921ADDAA199000091GA1001+999999999GF100991001001999999001001IA1019MA1999999095211MD1010121-0121REMSYN082AAXX  16151 76393 32970 03301 10206 20146 39521 40092 50012 91455 333 30/// 59012;EQDQ01  00002PRCP99
0257763930999992000031918004+25870-100200FM-12+051299999V0203601N001012200019N0120001N1+02341+00701101821ADDAA199000091GA1011+015009029GF103991011011012501021001IA1019KA1120M+02371KA2240N+01701MA1999999096061MD1710111+0021REMSYN112AAXX  19181 76393 32662 33601 10234 20070 39606 40182 57011 81120 91755 333 10237 20170 30/// 56350 58002 81850;EQDQ01  00002PRCP99
0247763930999992000032209004+25870-100200FM-12+051299999V0200901N001010018019N0080001N1+02161+01991100751ADDAA199000091AY141031AY221031GA1081+001809019GF108991081041001501999999IA1019MA1999999095141MD1110061+0321MW1051REMSYN106AAXX  22091 76393 31258 80901 10216 20199 39514 40075 51006 70542 884// 90855 333 30/// 56399 58032 88406;EQDQ01  00002PRCP99
0219763930999992000041521004+25870-100200FM-12+051299999V0200401N001012200019N0150001N1+03281+01721100381ADDAA199000091GA1021+009009029GF102991021041008001001001IA1019MA1999999094701MD1710311-0421REMSYN100AAXX  15211 76393 32565 20401 10328 20172 39470 40038 57031 82400 92055 333 30/// 56300 59042 82830;EQDQ01  00002PRCP99
0305763930999992000042006004+25870-100200FM-12+051299999V0200201N001010360019N0080001N1+02441+02101100661ADDAA199000091AY191061AY241061GA1021+003909099GF106991021031004501011001GJ104389IA1019KA1240M+03801KA2240N+02101MA1999999095051MD1010111-0211MW1131REMSYN130AAXX  20061 76393 31458 60201 10244 20210 39505 40066 50011 71394 82310 90550 333 10380 20210 30/// 55073 56350 59021 82913 84456;EQDQ01  00002PRCP99
0247763930999992000042603004+25870-100200FM-12+051299999V0200701N003012200019N0120001N1+02651+01991101351ADDAA199000091AY141031AY241031GA1021+006609059GF102991021051008001001001IA1019MA1999999095701MD1210251+0531MW1051REMSYN106AAXX  26031 76393 31562 20703 10265 20199 39570 40135 52025 70544 82500 90250 333 30/// 56300 58053 82622;EQDQ01  00002PRCP99
0234763930999992000061009004+25870-100200FM-12+051299999V0200901N002010006019N0080001N1+02341+02281100651ADDAA103001091AY151031AY221031GA1081+000609069GF108991081061000751999999IA1099MA1999999095041MD1110091-0171MW1501REMSYN112AAXX  10091 76393 21158 80902 10234 20228 39504 40065 51009 75052 886// 90855 333 0/399 31/// 59017 60017 88702;
0307763930999992000061012004+25870-100200FM-12+051299999V0200901N002010003019N0040001N1+02301+02271100731ADDAA103002091AA224003191AY151061AY221061GA1081+000309069GF108991081061000751999999IA1019IA2999+02309KA1999M+03241KA2120N+02261MA1999999095121MD1610081-0101MW1501REMSYN136AAXX  10121 76393 /1140 80902 10230 20227 39512 40073 56008 60031 75052 886// 91155 333 0/399 10324 20226 30023 59010 60027 70031 88701;
0247763930999992000061515004+25860-100190FM-12+051299999V0200301N002010042019N0060001N1+02531+02111100851ADDAA199000091AY141031AY241031GA1071+004209059GF107991071051004501999999IA1019MA1999999095231MD1110081-0051MW1051REMSYN106AAXX  15151 76393 31456 70302 10253 20211 39523 40085 51008 70544 875// 91450 333 0/399 30/// 59005 87614;EQDQ01  00002PRCP99
0253763930999992000061703004+25860-100190FM-12+051299999V0200701N00201090001CN0100001N1+03041+02281100231ADDAA199000091AY141031AY221031GA1011+008109069GF105991011051008001001051IA1019MA1999999094641MD1210171-0121MW1051REMSYN112AAXX  17031 76393 31560 50702 10304 20228 39464 40023 52017 70542 81505 90250 333 0/305 30/// 59012 81627 84075;EQDQ01  00002PRCP99
0290763930999992000061912004+25860-100190FM-12+051299999V0201501N002010021019N0040001N1+02341+02171101241ADDAA124000791AY141061AY241061GA1051+002109079GF108991081071001501999999IA1019IA2999+02209KA1999M+03181KA2120N+02281MA1999999095601MD1710031-0231MW1051REMSYN130AAXX  19121 76393 31240 81502 10234 20217 39560 40124 57003 70544 887// 91150 333 0/599 10318 20228 30022 59023 70007 85707 83806;
0219763930999992000062909004+25860-100190FM-12+051299999V0200501N001010036019N0140001N1+02381+02011101171ADDAA199000091GA1051+003609059GF105991051041004501001001IA1019MA1999999095531MD1110031-0121REMSYN100AAXX  29091 76393 32464 50501 10238 20201 39553 40117 51003 85400 90855 333 0/300 30/// 59012 85612;EQDQ01  00002PRCP99
0219763930999992000070921004+25860-100190FM-12+051299999V0200901N003010147019N0180001N1+03401+01931101091ADDAA199000091GA1051+014709029GF105991051021012501001001IA1019MA1999999095461MD1710241-0091REMSYN100AAXX  09211 76393 32668 50903 10340 20193 39546 40109 57024 85200 92055 333 02300 30/// 59009 85849;EQDQ01  00002PRCP99
0219763930999992000071915004+25860-100190FM-12+051299999V0200401N001012200019N0030001N1+02881+01941101411ADDAA199000091GA1021+009009029GF103991021011008001001011IA1019MA1999999095851MD1210141-0011REMSYN100AAXX  19151 76393 32530 30401 10288 20194 39585 40141 52014 82101 91450 333 00305 30/// 59001 82830;EQDQ01  00002PRCP99
0235763930999992000072703004+25860-100190FM-12+051299999V0200601N003012200019N0150001N1+03121+01961101001ADDAA199000091GA1011+021009059GF102991021021022501999001IA1019MA1999999095371MD1310121+0171REMSYN100AAXX  27031 76393 32865 20603 10312 20196 39537 40100 53012 82200 90255 333 00300 30/// 58017 81657;EQDQ01+000002SCOMCGQ02  00002PRCP99
0235763930999992000082409004+25860-100190FM-12+051299999V0200701N002012200019N0120001N1+02401+02031101641ADDAA199000091GA1021+018009079GF104991021999022501031021IA1019MA1999999095981MD1710081+0081REMSYN100AAXX  24091 76393 32862 40702 10240 20203 39598 40164 57008 82032 90850 333 0/055 30/// 58008 82356;EQDQ01+000002SCOLCGQ02  00002PRCP99
0290763930999992000082918004+25860-100190FM-12+051299999V0200701N002012200019N0100001N1+03311+02061101301ADDAA199000091AY141061AY241061GA1031+012609089GF105991041021012501001011IA1019KA1120M+03341KA2240N+02421MA1999999095651MD1710011+0161MW1041REMSYN123AAXX  29181 76393 31660 50702 10331 20206 39565 40130 57001 70444 84201 91755 333 0105 10334 20242 30/// 58016 83842 84642;EQDQ01  00002PRCP99
0219763930999992000091209004+25860-100190FM-12+051299999V0209999C000012200019N0140001N1+02601+02181100721ADDAA199000091GA1021+006009059GF102991021021004501001001IA1019MA1999999095111MD1710061-0161REMSYN100AAXX  12091 76393 32464 20000 10260 20218 39511 40072 57006 82200 90855 333 0/300 30/// 59016 82620;EQDQ01  00002PRCP99
0257763930999992000092812004+25860-100190FM-12+051299999V0203601N001012200019N0140001N1+01601+01361101841ADDAA124000091GA1001+999999999GF100991001001999999001001IA1019IA2999+01409KA1999M+02801KA2120N+01521MA1999999096081MD1310061-0011REMSYN100AAXX  28121 76393 32964 03601 10160 20136 39608 40184 53006 91150 333 10280 20152 30014 59001 70000;EQDQ01  00002PRCP24
0253763930999992000102815004+25860-100190FM-12+051299999V0200801N00101001201CN0040001N1+02211+02011101431ADDAA199000091AY141031AY241031GA1031+002109089GF107991071021001501999999IA1019MA1999999095731MD1210081+0101MW1051REMSYN112AAXX  28151 76393 31240 70801 10221 20201 39573 40143 52008 70544 872// 91455 333 013// 30/// 58010 83807 84607;EQDQ01  00002PRCP99
0272763930999992000110812004+25860-100190FM-12+051299999V0203601N003010006019N0100001N1+01281+01141100581ADDAA124000091AY141061AY221061GA1081+000609059GF108991081051000751999999IA1019KA1999M+02801KA2120N+01281MA1999999094791MD1210151+0341MW1051REMSYN124AAXX  08121 76393 31160 83603 10128 20114 39479 40058 52015 70542 885// 91155 333 0/399 10280 20128 30/// 58034 70000 88602;
0201763930999992000111003004+25860-100190FM-12+051299999V0200801N001012200019N0180001N1+01501+01231101371ADDAA199000091GA1001+999999999GF100991001001999999001001IA1019MA1999999095451MD1210201-0081REMSYN082AAXX  10031 76393 32968 00801 10150 20123 39545 40137 52020 90255 333 30/// 59008;EQDQ01  00002PRCP99
0257763930999992000111518004+25860-100190FM-12+051299999V0200101N001012200019N0120001N1+01841+01021101481ADDAA199000091GA1031+072009019GF103991001001999999001041IA1019KA1120M+01951KA2240N+01041MA1999999095561MD1610141-0961REMSYN112AAXX  15181 76393 32962 30101 10184 20102 39556 40148 56014 80004 91755 333 0/005 10195 20104 30/// 59096 83074;EQDQ01  00002PRCP99
0278763930999992000111800004+25860-100190FM-12+051299999V0203401N002010009019N0040001N1+01241+01071101781ADDAA124000691AY141061AY221061GA1081+000909069GF108991081071000751999999IA1019KA1120M+01921KA2180N+01221MA1999999095871MD1310101+0651MW1051REMSYN130AAXX  18001 76393 31140 83402 10124 20107 39587 40178 53010 70542 887// 92355 333 0/399 10192 20122 30/// 50215 58065 70006 88703;
0247763930999992000121015004+25860-100190FM-12+051299999V0202401N001010750019N0100001N1+01621+01191101461ADDAA199000091AY141031AY241031GA1071+075009019GF107991001001999999001021IA1019MA1999999095621MD1210141-0181MW1041REMSYN106AAXX  10151 76393 31960 72401 10162 20119 39562 40146 52014 70444 80002 91455 333 30/// 56005 59018 87075;EQDQ01  00002PRCP99
0129763940999992000010515404+25870-100230FM-15+0448MMAN V0201201N005112200019N0096561N1+01201-00901999999ADDGF100991999999999999999999MA1102541999999MW1001REMMET051MMAN 051640Z 12010KT 6SM SKC 12/M09 A3028 RMK AC E;EQDQ01+000000PRSWM2
0124763940999992000012023404+25870-100230FM-15+0448MMAN V0200201N003112200019N0096561N1+02101+00901999999ADDGF100991999999999999999999MA1102071999999MW1001REMMET046MMAN 210040Z 02006KT 6SM SKC 21/09 A3014 RMK ;EQDQ01+000000PRSWM2
0159763940999992000012217474+25870-100230FM-15+0448MMAN V0203301N003112200019N0096561N1+02301+01301999999ADDGD12991+0600099GF104991999999999999999999MA1101351999999MW1001REMMET066MMAN 221747Z 33006KT 6SM SCT200 23/13 A2993 RMK 00190 118 992 HZY;EQDQ01+000000PRSWM2
0123763940999992000012520404+25870-100230FM-15+0448MMAN V0200901N005112200019N0096561N1+02601+01001999999ADDGF100991999999999999999999MA1101691999999MW1001REMMET045MMAN 252140Z 09010KT 6SM SKC 26/10 A3003 RMK;EQDQ01+000000PRSWM2
0189763940999992000012816454+25870-100230FM-15+0448MMAN V0203401N004110120019N0080461N1+01001+00601999999ADDGD12991+0045099GD24991+0120099GF108991999999999999999999MA1102611999999MW1051REMMET065MMAN 281645Z 34008KT 5SM HZ SCT015 OVC040 10/06 A3030 RMK 5///9 ;EQDQ01+000003PRSWM1Q02    003PRSWM1
0197763940999992000012920404+25870-100230FM-15+0448MMAN V0201301N003110024019N0032181N1+00701+00501999999ADDGD13991+0024099GD24991+0036099GF108991999999999999999999MA1102541999999MW1051MW2101REMMET067MMAN 292140Z 13006KT 2SM BR HZ BKN008 OVC012 07/05 A3028 RMK 5///9;EQDQ01+000003PRSWM1Q02    003PRSWM1
0139763940999992000020316414+25870-100230FM-15+0448MMAN V0203001N010312200019N0096561N1+01801+00701999999ADDGF100991999999999999999999MA1102681999999MW1001REMMET061MMAN 031741Z 30020KT 6SM SKC 18/07 A3032 RMK 262 983 ISOL SC;EQDQ01+000000PRSWM2
0155763940999992000021022404+25870-100230FM-15+0448MMAN V0201201N005112200019N0096561N1+03501+00301999999ADDGD12991+0600099GF104991999999999999999999MA1101021999999MW1001REMMET062MMAN 102340Z 12010KT 6SM SCT200 35/03 A2983 RMK 00290 078 997;EQDQ01+000000PRSWM2
0188763940999992000021721404+25870-100230FM-15+0448MMAN V0201201N004110600019N0080461N1+03001+01501999999ADDGD12991+0240099GD23991+0600099GF107991999999999999999999MA1101081999999MW1051REMMET064MMAN 172240Z 12008KT 5SM HZ FEW080 BKN200 30/15 A2985 RMK 07290;EQDQ01+000003PRSWM1Q02    003PRSWM1
0189763940999992000030419404+25870-100230FM-15+0448MMAN V0201101N005110030019N0064371N1+01501+01301999999ADDGD13991+0030099GD24991+0045099GF108991999999999999999999MA1101901999999MW1101REMMET065MMAN 042040Z 11010KT 4SM BR BKN010 OVC015 15/13 A3009 RMK 5///9 ;EQDQ01+000003PRSWM1Q02    003PRSWM1
0123763940999992000040721454+25870-100230FM-15+0448MMAN V0203401N003112200019N0096561N1+03801+01001999999ADDGF100991999999999999999999MA1100911999999MW1001REMMET045MMAN 072145Z 34006KT 6SM SKC 38/10 A2980 RMK;EQDQ01+000000PRSWM2
0142763940999992000050314444+25870-100230FM-15+0448MMAN V0200901N002112200019N0048281N1+02501+01901999999ADDGF100991999999999999999999MA1101521999999MW1051REMMET048MMAN 031544Z COR 09004KT 3SM HZ SKC 25/19 A2998;EQDQ01+000003PRSWM1Q02    003PRSWM1
0131763940999992000050319404+25870-100230FM-15+0448MMAN V0200901N006212200019N0096561N1+03701+01201999999ADDGF100991999999999999999999MA1101121999999MW1001REMMET053MMAN 032040Z 09012KT 6SM SKC 37/12 A2986 RMK CU NE-S;EQDQ01+000000PRSWM2
0158763940999992000051116404+25870-100230FM-15+0448MMAN V0201201N004112200019N0064371N1+03401+02101100521ADDGF100991999999999999999999MA1100911999999MW1051REMMET064MMAN 111740Z 12008KT 4SM HZ SKC 34/21 A2980 RMK SLP052 991 CU S;EQDQ01+000003PRSWM1Q02    003PRSWM1
0206763940999992000052623454+25870-100230FM-15+0448MMAN V0202401N010310240019N0096561N1+02801+02401100281ADDGD13991+0240099GD24991+0600099GF108991999999999999999999MA1100711999999MW1051REMMET082MMAN 262345Z 24020KT 6SM HZ BKN080 OVC200 28/24 A2974 RMK 07290 SLP028 937 -RAE45;EQDQ01+000003PRSWM1Q02    003PRSWM1
0180763940999992000053110404+25870-100230FM-15+0448MMAN V0200801N004110045019N0096561N1+02401+02001999999ADDGD13991+0045099GD24991+0066099GF108991999999999999999999MA1101421999999MW1001REMMET072MMAN 311140Z 08008KT 6SM BKN015 OVC022 24/20 A2995 RMK 5///9 SLP107 907;EQDQ01+000000PRSWM2
0227763940999992000060322404+25870-100230FM-15+0448MMAN V0201201N003110210019N0096561N1+03401+02001101061ADDGD12991+0120099GD23991+0210099GD33991+0600099GF107991999999999999999999MA1101391999999MW1051REMMET088MMAN 032340Z 12006KT 6SM HZ FEW040 BKN070 BKN200 34/20 A2994 RMK 17299 SLP106 961 CB NE;EQDQ01+000003PRSWM1Q02    003PRSWM1
0156763940999992000062319404+25860-100220FM-15+0448MMAN V0200801N004110600019N0096561N1+03601+02001999999ADDGD13991+0600099GF107991999999999999999999MA1101461999999MW1001REMMET063MMAN 232040Z 08008KT 6SM BKN200 36/20 A2996 RMK 00190 HZY CB S;EQDQ01+000000PRSWM2
0175763940999992000062514454+25860-100220FM-15+0448MMAN V0200501N004110075019N0096561N1+02601+02101999999ADDGD13991+0075099GF107991999999999999999999MA1101591999999MD1010091+9999MW1001REMMET068MMAN 251445Z 05008KT 6SM BKN025 26/21 A3000 RMK 50009 HZY BON V OVC;EQDQ01+000000PRSWM2
0124763940999992000071500404+25860-100220FM-15+0448MMAN V0200901N005112200019N0096561N1+03501+01401999999ADDGF100991999999999999999999MA1101491999999MW1001REMMET046MMAN 150140Z 09010KT 6SM SKC 35/14 A2997 RMK ;EQDQ01+000000PRSWM2
0218763940999992000080615404+25860-100220FM-15+0448MMAN V0209999C000010750019N0096561N1+03001+02001999999ADDGD12991+0075099GD23991+0750099GF107991999999999999999999MA1101591999999MD1010001+9999MW1051REMMET064MMAN 061640Z 00000KT 6SM HZ FEW025 BKN250 30/20 A3000 RMK 50199;EQDQ01+001992APC3  Q02+000003PRSWM1Q03    003PRSWM1
0177763940999992000080923404+25860-100220FM-15+0448MMAN V0200801N010310600019N0096561N1+03101+01801999999ADDGD12991+0210099GD23991+0600099GF107991999999999999999999MA1101691999999MW1001REMMET069MMAN 100040Z 08020KT 6SM SCT070 BKN200 31/18 A3003 RMK 07199 SC ARND;EQDQ01+000000PRSWM2
0173763940999992000081011404+25860-100220FM-15+0448MMAN V0209999C000010045019N0096561N1+02301+02201999999ADDGD14991+0045099GF108991999999999999999999MA1102001999999MW1051REMMET064MMAN 101240Z 00000KT 6SM HZ OVC015 23/22 A3012 RMK 5///9 BINOVC;EQDQ01+000003PRSWM1Q02    003PRSWM1
0154763940999992000082912404+25860-100220FM-15+0448MMAN V0201201N004110060019N0096561N1+02501+02201999999ADDGD14991+0060099GF108991999999999999999999MA1101521999999MW1001REMMET061MMAN 291240Z 12008KT 6SM OVC020 25/22 A2998 RMK 5///9 BINOVC;EQDQ01+000000PRSWM2
0132763940999992000091718404+25860-100220FM-15+0448MMAN V0203601N005112200019N0096561N1+03001+01201999999ADDGF100991999999999999999999MA1101861999999MW1001REMMET054MMAN 171840Z 36010KT 6SM SKC 30/12 A3008 RMK ISOLD CI;EQDQ01+000000PRSWM2
0165763940999992000091812404+25860-100220FM-15+0448MMAN V0203001N003112200019N0096561N1+02001+01801999999ADDGD12991+0045099GF104991999999999999999999MA1101831999999MD1010091+9999MW1001REMMET058MMAN 181240Z 30006KT 6SM SCT015 20/18 A3007 RMK 50009 HZY;EQDQ01+000000PRSWM2
0129763940999992000091922404+25860-100220FM-15+0448MMAN V0201201N007212200019N0096561N1+03301+01601999999ADDGF100991999999999999999999MA1101051999999MW1001REMMET051MMAN 192240Z 12014KT 6SM SKC 33/16 A2984 RMK SC SW;EQDQ01+000000PRSWM2
0181763940999992000092216424+25860-100220FM-15+0448MMAN V0201101N004110060019N0048281N1+02901+02201999999ADDGD13991+0060099GF107991999999999999999999MA1101121999999MD1010091+9999MW1051REMMET058MMAN 221642Z 11008KT 3SM HZ BKN020 29/22 A2986 RMK 50009 ;EQDQ01+000003PRSWM1Q02    003PRSWM1
0133763940999992000100318404+25860-100220FM-15+0448MMAN V0209999C000012200019N0096561N1+03101+02001999999ADDGF100991999999999999999999MA1101351999999MW1001REMMET055MMAN 031840Z 00000KT 6SM SKC 31/20 A2993 RMK HZY CU NE;EQDQ01+000000PRSWM2
0198763940999992000100718404+25860-100220FM-15+0448MMAN V0203401N011310030019N0032181N1+01601+01601999999ADDGD13991+0030099GD24991+0045099GF108991999999999999999999MA1102641999999MW1101MW2611REMMET068MMAN 071840Z 34022KT 2SM -RA BR BKN010 OVC015 16/16 A3031 RMK 5///9;EQDQ01+000003PRSWM1Q02    003PRSWM1
